:100000000C9464020C94AB020C94AB020C94AB0203
:100010000C94AB020C94AB020C94AB020C94AB02AC
:100020000C94AB020C94AB020C948D210C945F22C7
:100030000C94221C0C94AB020C94AB020C94AB02FB
:100040000C94AB020C94AB020C94AB020C94AB027C
:100050000C94AB020C947B1C0C94AB020C94AB0282
:100060000C94AB020C94AB020C94AB020C94AB025C
:100070000C94AB020C94AB020C94AB020C94AB024C
:100080000C94AB020C94AB020C94AB020C94AB023C
:100090000C94AB020C94AB020C94AB020C94AB022C
:1000A0000C94AB020C94AB020C94AB02390B3C0BDE
:1000B0005C0B6D0B750B800BC60BC60BC60BC60B12
:1000C000C60B830B860B8B0B980BA50BA80BAC0BED
:1000D000B90B6112611293129312E012FE12121404
:1000E00012140913A213B313B313B214B214C41429
:1000F000C414BB14C414C414C414B214B214C01471
:10010000C414C414C014CC22F322EB23F322EB2337
:100110003F236223EB23B923C823290014001A00CC
:100120000800150017002B610400160007000900E5
:100130000A00E1001D001B00060019000500025125
:10014000E20001512C001C0018000C0012001300EA
:100150002F0030000B000D000E000F0033003400A4
:10016000310011001000360037003800E50028008B
:100170002A00015102510000000035021E021F0238
:100180002002210222020100010001000100010001
:1001900001003A003B003C003D003E003F00E30010
:1001A0008A000351010023022402250226022702AD
:1001B0002D022E025000510052004F00010001009C
:1001C000010040004100420043004400450001009E
:1001D00001000351E3000000000035001E001F0075
:1001E00020002100220001000100010001000100A7
:1001F00001000100010001000100010001000100F7
:100200000100010001002300240025002600270032
:100210002D002E000100010001000100010001007D
:1002200001000100010001000100010001000100C6
:1002300001000100010000000000010001000100B8
:1002400001000100010001000100010001000100A6
:100250000100010001000100010001000100010096
:100260000100010001000100010001000100010086
:100270000100010001000100010001000100010076
:100280000100010001000100010001000100010066
:10029000010001000100000000000000000000005B
:1002A00000002A2B280000000000000000000000D1
:1002B000000000000029000000002C1E3420212234
:1002C00024342627252E362D3738271E1F2021229D
:1002D000232425263333362E37381F040506070816
:1002E000090A0B0C0D0E0F10111213141516171806
:1002F000191A1B1C1D2F3130232D35040506070844
:10030000090A0B0C0D0E0F101112131415161718E5
:10031000191A1B1C1D2F3130354C00000000000045
:1003200000000000000000000000000000000000CD
:1003300000000000000000000000000000007E0F30
:1003400000D4FFFFFFC700000078140347005000EF
:100350004B00360030002D00340036004100000014
:10036000180344006100720061006B0075002D00ED
:100370004E0065006B006F000000040309040902D1
:100380005B00030100A0FA09040000010301010061
:100390000921110100012240000705810308000A1C
:1003A00009040100020300000009211101000122DB
:1003B0002200070582032000010705030320000136
:1003C00009040200010300000009211101000122BB
:1003D0007B000705840320000A12011001000000C1
:1003E00008EDFE14140100010200010660FF09611E
:1003F000A1010962150026FF0095207508810209F8
:1004000063150026FF00952075089102C0050109BB
:1004100002A10185020901A1000509190129081598
:100420000025019508750181020501093009311582
:1004300081257F95027508810609381581257F95EC
:100440000175088106050C0A38021581257F950182
:1004500075088106C0C005010980A1018503190145
:100460002AB700150126B700950175108100C00557
:100470000C0901A101850419012AA002150126A079
:1004800002950175108100C005010906A10105074B
:1004900019E029E7150025019508750181029501EC
:1004A000750881010507190029FF150026FF009531
:1004B0000675088100050819012905950575019142
:1004C00002950175039101C011241FBECFEFDAE040
:1004D000DEBFCDBF04B603FE27C080915C029091C1
:1004E0005D02A0915E02B0915F028730904BA74001
:1004F000B04BD1F410925C0210925D0210925E0239
:1005000010925F0214BE84B7877F84BF0FB6F89441
:10051000A8958091600088618093600010926000CF
:100520000FBEE0E0F8E3099511E0A0E0B1E0E0E300
:10053000F9E402C005900D92A439B107D9F722E081
:10054000A4E9B1E001C01D92AC35B207E1F70E9409
:100550004E1E0C9496240C9400008E359D4539F463
:10056000FB018281882319F080E00E94070381E06B
:10057000089581E008950C94AD0208950C94BD0295
:100580001F93CF93DF9300D000D01F92CDB7DEB77B
:1005900049835A836B833091C10189819A813111DA
:1005A00014C0662359F0222349F00E947019182FB5
:1005B000682F89819A810E94171903C00E944319EC
:1005C000182F69817A81812F04C00E947019698176
:1005D0007A810F900F900F900F900F90DF91CF9135
:1005E0001F910C94980CFC01262F4081518162814F
:1005F000738184810C94C002CF93DF93EC0160E09F
:100600000E94F302BE01DF91CF910C94BE02CF9302
:10061000DF9361E070E0EB0102C0CC0FDD1F8A9533
:10062000E2F78C2F0E94DF1ABE0180E090E0DF919C
:10063000CF910C9419188F929F92AF92BF92CF9244
:10064000DF92EF92FF920F931F936B017C0181E089
:1006500090E0A0E0B0E04C015D0104C0880C991C62
:10066000AA1CBB1C4A95D2F7AC01BD0104C0440FC3
:10067000551F661F771F2A95D2F7482959296A29DD
:100680007B2904C0880F991FAA1FBB1F0A95D2F7A8
:100690008A019B010C211D212E213F21401751076A
:1006A0006207730739F4BC01CD016C297D298E29BD
:1006B0009F290AC080959095A095B095BC01CD0169
:1006C0006C217D218E219F211F910F91FF90EF9032
:1006D000DF90CF90BF90AF909F908F9008950F9331
:1006E000382F262F609118027091190280911A02FA
:1006F00090911B02042F432F0E941B030F910C9417
:1007000053180E94C3060C94FD060C94F906089534
:100710000E94A0140E9487032FEF84E39CE02150E5
:1007200080409040E1F700C000000C94A11C0F93A2
:100730001F93CF93DF938C0161E00E94F302EC01E1
:10074000B8010E94E80A882309F444C0B801CE0128
:100750000E94BB028823F1F1B801CE010E94CD0DA9
:100760008823C1F1B801CE010E941F0E882391F1A8
:10077000B801CE010E944A0F882361F1F8018281FD
:10078000882309F1CA358DE5D807C1F050F4C115A9
:10079000FCE5DF0781F0CE3DDC45A9F40E94791B22
:1007A00019C0CB35EDE5DE0761F0CC35DD4559F4F8
:1007B0000E94031A08C00E9488030CC00E940C1AF1
:1007C00002C00E940F1AC801DF91CF911F910F91B3
:1007D0000C94B90280E0DF91CF911F910F910895A1
:1007E000DF92EF92FF920F931F93CF93DF93E82F47
:1007F000F0E0E656FD4FD490282F269526952695B5
:1008000030E0F901E65CFC4F0491877010E0082E9F
:1008100002C0159507950A94E2F701701127F901B6
:10082000E65DFC4FE490F12C082E02C0F594E794AD
:100830000A94E2F791E0E922FF24F901E65EFC4F19
:10084000C491D0E002C0D595C7958A95E2F7C170F2
:10085000DD270115110519F081EE0E94EA10E1145F
:10086000F10419F086EE0E94EA108D2D0E941312F9
:10087000EF2819F086EE0E949411012B19F081EEF9
:100880000E949411CD2B51F08CE2DF91CF911F91FA
:100890000F91FF90EF90DF900C941312DF91CF91A6
:1008A0001F910F91FF90EF90DF900895EF92FF92CC
:1008B0000F931F93CF93DF93EC01162F0AE08881EB
:1008C000882309F455C0813009F043C08981813003
:1008D00041F47E0182E0E80EF11C8A810E9413122D
:1008E00009C0823049F47E01E2E0EE0EF11C8A81FB
:1008F0000E94EA10E7012FC0833041F47E01F2E04C
:10090000EF0EF11C8A810E949411F4CF843011F013
:10091000219621C02A81229680E090E030E0205389
:1009200031092A30310558F4089FA001099F500D64
:100930001124C901840F951F21962881EFCF0097BC
:1009400051F0EFE9FFE03197F1F700C000000197A7
:10095000F6CF0E94F0032196812F882309F4AFCFB0
:10096000EFE9FFE03197F1F700C000008150F5CFCB
:10097000DF91CF911F910F91FF90EF90089560E06C
:100980000C94560408950C94C20481E008950C94CC
:10099000C504CF93C82F0E94C3048C2F0E94C704A4
:1009A000CF910895CF93DF930E94980C0E94D405B5
:1009B000EC01811521E5920708F043C0811540E55F
:1009C000940708F08AC0883E910520F5803E910585
:1009D00008F0E6C0883A910570F4853A910508F070
:1009E00074C08130910509F4DBC008F4D7C00497C6
:1009F00008F0D6C0D3C08F3B910508F0CFC0C85ACD
:100A0000D0E0CC0FDD1FCB5EDE4F0990D881C02D2A
:100A1000D464C6C0C11580E2D80758F4C11521E0DE
:100A2000D20708F0BDC0C03FD10508F4B7C0D065FB
:100A3000B7C0C11540E4D40708F4B0C0DF70D06A75
:100A4000AFC0C11585E5D807A0F4C11524E5D207CC
:100A500008F08AC0C11543E5D40708F06FC0C1157E
:100A600082E5D80708F054C0DC2FCC27C16FD06ACC
:100A700097C0C11529E5D207A0F4C11548E5D407F0
:100A800008F077C0C11586E5D80708F087C08C2F1D
:100A90000E9468068F71C82FD0E0DC2FCC27D0626F
:100AA0007FC0C1152AE5D20708F468C0CE01905670
:100AB0008115904208F072C08D2F8F710E946806D8
:100AC000DD27D0628F71D82B6BC0C55AD0E0CD5BCB
:100AD000DE4FC881D0E0D06463C074E096958795FE
:100AE0007A95E1F783709C2F937021E030E002C08B
:100AF000220F331F9A95E2F73C68382BCF70C695CA
:100B0000C69580E2C89FE0011124C22BD32B48C0B8
:100B1000CE018370992721E030E002C0220F331FFD
:100B20008A95E2F78C2F8695869540E2849FC001D6
:100B30001124E901C82BD92BDC6832C0CE018370A7
:100B4000992721E030E002C0220F331F8A95E2F797
:100B50008C2F8695869540E2849FC0011124E9017F
:100B6000C82BD92BDA681CC0DC2FCC27C46FD06A05
:100B700017C0DC2FCC27C06FD06A12C08C2F8F70AB
:100B80000E94680694E0D695C7959A95E1F7CF70D4
:100B9000D0E0DC2FCC27D069C82B02C0C0E0D0E069
:100BA000CE01DF91CF9108958238910569F1B0F4BB
:100BB0008133910509F46DC048F48932910509F437
:100BC00063C08A32910509F469C00895853391059F
:100BD00009F455C089339105B9F00895833E910514
:100BE00069F138F4803E9105B1F0823E910509F13A
:100BF0000895863E9105A9F1873E9105B9F1843E9D
:100C0000910509F064C023C02091390220FD4FC036
:100C100021FD4DC008958091390280FD44C080912E
:100C20003A0280FF44C08091390284FD42C083EEC5
:100C30004DC08091390282FF38C0F5CF80913902D2
:100C400082FD33C080913A0280FD31C0ECCF8091AB
:100C50003A0281FF32C08091390284FD2AC087EEBA
:100C600035C08091390283FF26C0F5CF80913902CB
:100C700083FD21C080913A0281FD1FC0ECCF80919D
:100C8000390285FD1CC01DC08091390285FD19C047
:100C900016C08091390286FD16C017C080913902B6
:100CA00086FD13C010C089E311C082EE0FC080EE34
:100CB0000DC080E00BC086EE09C084EE07C089E25B
:100CC00005C085E303C08AE201C081E390E0089596
:100CD0009091390292FF0DC0282F2871283019F405
:100CE000877F846006C0282F2471243011F48B7F05
:100CF000886093FF0DC0282F2871283119F4877E52
:100D0000846106C0282F2471243111F48B7E886100
:100D100020913A0220FF0DC0382F3871383019F475
:100D2000877F816006C0382F3171313011F48E7F9A
:100D3000886021FF0DC0282F2871283119F4877E83
:100D4000816106C0282F2171213111F48E7E8861C6
:100D500094FD877E08950C94C20A0E943C078FE39D
:100D60009CE90197F1F700C000000E943C0780E079
:100D70000E94E70680FF04C00E94AB060C94A11CF1
:100D800008950C94AD060E94CC1A811102C00E94F5
:100D9000791B0E94D71A80932D020E94E41A909327
:100DA0003A02809339020E94C1060E94DB1A682F22
:100DB00070E080E090E00E94191860911802709134
:100DC000190280911A0290911B020C945118E82F7D
:100DD000F0E0ED5BFD4F80810895089580EA8A95EB
:100DE000F1F7089500C008950C94EE0608950C9450
:100DF000F6060C94F7060C94F6060C94FB06F89491
:100E0000E82FE295EF70F0E031A1282F2F7081E0FC
:100E100090E001C0880F2A95EAF7982F90959323C8
:100E200091A392A1892B82A378940895CF93DF9305
:100E3000CCE4D1E089910E94FF0681E0C435D80757
:100E4000C9F7C6E4D1E089910E94FF0681E0CC3465
:100E5000D807C9F7EBE3F2E0A3E4B2E083E492E061
:100E600011921D928E179F07D9F788E00E94C10743
:100E7000DF91CF910C9481038F929F92AF92BF929A
:100E8000CF92DF92EF92FF920F931F93CF93DF9356
:100E90008CE4A82E81E0B82ECBE3D2E094E5E92ED5
:100EA00091E0F92E912C01E010E06501F5018081BF
:100EB000F894E82FE295EF70F0E021A18F70A8017F
:100EC00002C0440F551F8A95E2F7CA01922F982B52
:100ED00091A392A18095892382A378940E94F2061F
:100EE000E6E4F1E020E030E0812C4191A42FA295CE
:100EF000AF70B0E090968C9190E04F7002C09595E5
:100F000087954A95E2F780FD07C0802F022E01C029
:100F1000880F0A94EAF701C080E0882A2F5F3F4FCC
:100F20002630310511F75FEFA51AB50AF601808169
:100F30000E94FF060E94F4068881881619F08882B4
:100F400081E001C080E0982A2196EA14FB0409F0B0
:100F5000ACCF292D48E063E472E08BE392E00E947D
:100F6000C2070E948503892DDF91CF911F910F91B8
:100F7000FF90EF90DF90CF90BF90AF909F908F90B9
:100F800008950895FF920F931F93CF93DF938C01E1
:100F9000F62ED72FC42F222349F081E080939801A9
:100FA0000E94541C90939701809396018091980120
:100FB0008823C1F080919601909197010E946C1C4A
:100FC000069780F0EF2DFD2FD8014C2F50E0CD017A
:100FD000801B910B841795071CF48D918193F7CF9B
:100FE00010929801DF91CF911F910F91FF9008957A
:100FF00080919F0180FF0BC06091050185E0689F93
:10100000B001112475956795759567952BC081FF83
:1010100009C06091050185E0689FB00111247595B4
:10102000679520C082FF07C06091050185E0689F39
:10103000B001112417C090919E019923D1F06091C5
:101040000401961788F72091050185E0289F9001FB
:101050001124929FA001939F500D112470E0CA01AA
:101060000E941F246038710540F46115710519F460
:1010700006C065E070E0862F08958FE7089581E04F
:10108000089580919F0180FF08C06091010170E088
:10109000759567957595679521C081FF06C060912C
:1010A000010170E07595679519C082FF04C06091D9
:1010B000010170E010C090919D01992399F0609119
:1010C00000019617A0F780910101899FC0011124AA
:1010D00070E00E941F246038710540F461157105AD
:1010E00019F406C061E070E0862F08958FE7089537
:1010F00081E00895803F21F40E94F807819504C0A3
:10110000813F29F40E94F8078093A3010895823F4C
:1011100021F40E94F807819504C0833F29F40E94BE
:10112000F8078093A2010895893F19F40E944108AD
:1011300005C08A3F31F40E94410881958093A40143
:1011400008958B3F21F40E944108819504C08C3F93
:1011500029F40E9441088093A50108959CE0980F0E
:10116000953078F421E030E0A90102C0440F551F0A
:101170009A95E2F7CA019091A101892B8093A10170
:1011800008958D3F21F480919F0181600BC08E3FB7
:1011900021F480919F01826005C08F3F29F48091E6
:1011A0009F01846080939F010895803F39F490915E
:1011B000A30197FF35C01092A30159C0813F29F4C4
:1011C0009091A3011916BCF32BC09091A201823F0C
:1011D00029F497FF25C01092A20149C0833F19F45A
:1011E0001916CCF31DC09091A401893F29F419165A
:1011F000BCF41092A4013BC08A3F19F497FF10C0C1
:10120000F8CF8B3F39F49091A50197FF09C0109258
:10121000A5012DC08C3F21F49091A5011916BCF3B6
:101220009CE0980F953080F421E030E0A90102C0E5
:10123000440F551F9A95E2F7CA0180959091A1013C
:1012400089238093A10113C08D3F21F480919F01D8
:101250008E7F0BC08E3F21F480919F018D7F05C052
:101260008F3F29F480919F018B7F80939F01809114
:10127000A201811106C08091A301811102C01092C8
:101280009E018091A401811106C08091A501811168
:1012900002C010929D0108950E94541C2091A20149
:1012A000211104C02091A301222321F090939C01DD
:1012B00080939B012091A401211104C02091A501DC
:1012C000222321F090939A018093990180EA91E082
:1012D0000C94970FEF92FF920F931F93CF93DF938E
:1012E00000D000D000D0CDB7DEB786E0E0EAF1E074
:1012F000DE01119601900D928A95E1F7E090A2012E
:10130000F090A3010091A4011091A5011092A201F7
:101310001092A3011092A4011092A501E11003C044
:10132000FF2009F45DC080919B0190919C010E9477
:101330006C1CAC0190919E01992339F0209106011B
:1013400030E02417350758F04BC0209107018AE0A0
:10135000289F900111242417350718F041C09F3FA2
:1013600019F09F5F90939E01EE2061F00E94F807B4
:101370001E1414F09FEF01C091E0989F902D11244E
:101380009093A201FF2061F00E94F8071F1414F04F
:101390009FEF01C091E0989F902D11249093A3019D
:1013A0003091A2013323E1F02091A3012223C1F067
:1013B00045EB3403C0011124992319F09093A20145
:1013C00003C081E08093A20135EB2303C001112407
:1013D000992319F09093A30103C081E08093A301A6
:1013E000011103C0112309F45DC08091990190910E
:1013F0009A010E946C1CAC0190919D01992339F0D7
:101400002091020130E02417350758F04BC020919D
:1014100003018AE0289F900111242417350718F052
:1014200041C09F3F19F09F5F90939D01002361F0A1
:101430000E944108101614F09FEF01C091E0989FA0
:10144000902D11249093A401112361F00E94410872
:10145000111614F09FEF01C091E0989F902D112478
:101460009093A5013091A4013323E1F02091A501CF
:101470002223C1F045EB3403C0011124992319F054
:101480009093A40103C081E08093A40135EB230372
:10149000C0011124992319F09093A50103C081E0A4
:1014A0008093A5018091A20181110BC08091A301BD
:1014B000811107C08091A401811103C08091A50111
:1014C00081110E944C09EB82FC820D831E8386E011
:1014D000FE013196A0EAB1E001900D928A95E1F704
:1014E00026960FB6F894DEBF0FBECDBFDF91CF9129
:1014F0001F910F91FF90EF900895E0EAF1E086E0F0
:10150000DF011D928A95E9F710929E0110929D01CC
:1015100010929F01089583E290E00E94542481324A
:1015200081F484E290E00E945424863051F485E2F4
:1015300090E00E94542491E0883209F090E0892FD5
:1015400001C080E081700895CF93C82F811102C03F
:101550006FEF01C061E283E290E00E946224C1115A
:1015600002C06FEF01C066E084E290E00E94622456
:10157000C11102C06FEF01C068E285E290E0CF9137
:101580000C94622480E00E94A40A0C94C61A089568
:1015900086E290E00E945424682F70E080E090E0A2
:1015A000089586E290E00C9462240E94C70A0E948B
:1015B0008B0A81110CC060E070E0CB010E94D10A5F
:1015C0000E94130C0E94F20C81E00C94A40A08956E
:1015D000CF93FB01C281CC23E9F09C0122513F450E
:1015E0002031310520F482510E94020D0CC080315F
:1015F000FFE59F0751F481E00E94791843E062E023
:1016000081E00E946F03C0E018C081319F45A9F4BA
:1016100082E0F2CF8031EFE59E0711F481E004C053
:1016200081319F4549F482E00E949A1843E062E0CC
:1016300081E00E946F0301C0C1E08C2FCF9108951B
:101640002FEFFC0120830895EF92FF920F931F93D9
:10165000CF93DF93EC01062FE8818E2F90E0FC0101
:101660003197E331F10508F091C0EA5AFF4F0C942D
:101670003324198289E04DC08981823039F083306A
:1016800061F0813029F50E94601C02C00E94C80AE6
:101690009A838B837C836D837BC07E0182E0E80E1E
:1016A000F11C10E0812F0E94E706F70181937F0172
:1016B0001F5F1830B9F76CC08981823049F46A81A4
:1016C0007B818C819D810E9439240E94D10A60C057
:1016D000602FCE010E94200B5BC04B816A81898103
:1016E0000E94E50B9C838D8353C02C813D81322762
:1016F000232732274B816A8189810E94FE0B48C0D3
:101700000E94130C45C00E94A50C24C00E94A70C87
:1017100099838A833DC06B8170E089819A81AE0193
:101720004C5F5F4F9827892798270E94AA0C30C0EA
:101730006B8170E089819A81AE014C5F5F4F982781
:10174000892798270E94CF0C23C00E94F20C20C04A
:101750000E94D20B89831CC06B8170E089819A81C1
:10176000AE014C5F5F4F9827892798270E94520C43
:101770000FC06B8170E089819A81AE014C5F5F4F31
:101780009827892798270E94760C02C08FEF8883BC
:10179000602FCE01DF91CF911F910F91FF90EF90BD
:1017A0000C943F1D84E0089550E0440F551F2CE039
:1017B000629F400D511D11249A0160E6869F200D05
:1017C000311D1124C901879608950F931F93CF935C
:1017D000DF930E94D40B8C010E945424C82FD0E0C8
:1017E000DC2FCC27C80101960E9454249E01282B8F
:1017F000C901DF91CF911F910F9108950F931F930E
:10180000CF93DF93122F032F0E94D40BEC01602F94
:101810000E946224612FCE010196DF91CF911F912A
:101820000F910C946224AF92BF92CF92DF92EF920D
:10183000FF920F931F93CF93DF93A12CE12CF12CF8
:10184000B12C00E010E0C0E0D0E06701C00ED11E76
:10185000FE01EE0FFF1FEC0DFD1DE65EFE4F259114
:1018600034914C2F6B2D8A2D0E94FE0B2196C63091
:10187000D10571F7045F1F4FB39488E0B812E3CF2E
:1018800080E6E80EF11CA39484E0A812D9CFDF9182
:10189000CF911F910F91FF90EF90DF90CF90BF906D
:1018A000AF900895EF92FF920F931F93CF93DF9322
:1018B000EA017A01E60EF71E8C01C8018796CE1563
:1018C000DF0569F0003821E0120720F40E9454245B
:1018D000888301C0188221960F5F1F4FEECFDF91E2
:1018E000CF911F910F91FF90EF900895EF92FF928B
:1018F0000F931F93CF93DF93EA017A01E60EF71E51
:101900008C01C8018796CE15DF0559F0003821E01B
:10191000120718F468810E94622421960F5F1F4FFE
:10192000F0CFDF91CF911F910F91FF90EF9008952D
:10193000462F843038F4783028F4663018F4672F56
:101940000C94E50B80E090E0089580E1089589E52E
:1019500092E00895EF92FF920F931F93CF93DF933E
:10196000EA017A01E60EF71E8C01C80189559E4FE7
:10197000CE15DF0569F0093522E0120720F40E9438
:101980005424888301C0188221960F5F1F4FEDCF2A
:10199000DF91CF911F910F91FF90EF900895EF92FB
:1019A000FF920F931F93CF93DF93EA017A01E60E24
:1019B000F71E8C01C80189559E4FCE15DF0559F0E1
:1019C000093522E0120718F468810E9462242196EA
:1019D0000F5F1F4FEFCFDF91CF911F910F91FF90BE
:1019E000EF900895CF93DF93C7EAD1E060E0CE0196
:1019F0000E9462242196C11584E0D807B9F7DF91CF
:101A0000CF910895DF92EF92FF920F931F93CF93A0
:101A1000DF9300D000D0CDB7DEB7F82E8FE08F1562
:101A2000E8F18FEF93E00E945424811137C007EA58
:101A300011E0FF2069F0011584E0180779F1C80171
:101A40000E945424811101C0FA940F5F1F4FF1CFFF
:101A500019821A821B821C82DD24D39478018FEFB5
:101A6000E81AF80AC8010E94542489831A8288233C
:101A7000A9F09FEF980F933058F48A83D9820E5FB4
:101A80001F4FC7010E9454248B83882339F07801AB
:101A9000CE0101960E94BF048701E0CF0F900F9006
:101AA0000F900F90DF91CF911F910F91FF90EF90CA
:101AB000DF9008950F931F93CF93DF93C42FD22FFE
:101AC000FC0182818823C9F04093A8010E94541C24
:101AD0009093A7018093A60180E28C0F883008F0D4
:101AE00057C0C77081E001C0880FCA95EAF7DF913F
:101AF000CF911F910F910C941C128091A801481353
:101B000030C08091A6019091A7010E946C1C883C76
:101B1000910538F510E21D0FCD17B9F080E28C0F5A
:101B2000883040F4C77081E001C0880FCA95EAF799
:101B30000E942312183028F581E09D2F977001C074
:101B4000880F9A95EAF70E941C12802F0E941312A8
:101B50001830F0F4D77081E001C0880FDA95EAF709
:101B60000AC080E28C0F883098F4C77081E001C011
:101B7000880FCA95EAF7DF91CF911F910F910C94CE
:101B80002312802FDF91CF911F910F910C9413128C
:101B9000DF91CF911F910F9108950F939C01CB017D
:101BA000233F4CE5340731F188F4283DFCE53F073D
:101BB000D9F0293D4CE5340779F1273D3C45A9F59D
:101BC00006E221EE41EE67ED7CE52BC0253FFCE50A
:101BD0003F07E1F0A8F0263F3C4539F507E225EE46
:101BE00046EE66EF7CE51DC007E225EE45EE68EDAA
:101BF0007CE517C006E221EE40EE63EF7CE511C004
:101C000007E225EE44EE64EF7CE50BC006E221EE30
:101C100042EE65EF7CE505C008E221E045EE69EDA6
:101C20007CE50E945A0D80E008C0FC018281882377
:101C300019F01092A80101C081E00F910895CF938F
:101C4000DF93EC01FB018281882309F41FC1C230BC
:101C5000FCE5DF0708F41BC1C6319CE5D90738F065
:101C60009E012A5F3C452930310508F010C10E94D1
:101C7000E41A90933A0280933902C031ECE5DE0712
:101C800009F4C3C008F041C0C8308CE5D80709F496
:101C90009AC0F0F4C430ECE5DE0709F487C068F4BC
:101CA000C2308CE5D80709F477C0C330DC4509F0B1
:101CB000E3C080913902826076C0C630ECE5DE0771
:101CC00009F46EC008F07BC08091390288606BC057
:101CD000CC308CE5D80709F485C068F4CA30ECE54F
:101CE000DE0709F474C008F079C00E94A014809146
:101CF0003902806858C0CE308CE5D80709F476C028
:101D000008F07FC0809139028BC0CB3FECE5DE0745
:101D100009F44FC018F5C3318CE5D80709F47DC02C
:101D200078F4C131ECE5DE0709F473C0C231DC455B
:101D300009F0A2C00E94A014809139028F7733C0AD
:101D4000C5318CE5D80709F472C008F486C0CA3FD3
:101D5000DC4509F091C080913A023EC0CF3FFCE5DE
:101D6000DF0709F45FC058F4CD3F9CE5D90709F4BB
:101D700044C008F43FC080913A0282602DC0C13057
:101D8000FDE5DF0709F475C008F45DC0C230DD452C
:101D900009F072C080E06EC080913902816003C09A
:101DA0008091390280618093390266C08091390246
:101DB00011C080913A02826080933A025DC08091A6
:101DC00039028062F0CF809139028064ECCF80913B
:101DD000390288608460E7CF8160EECF809139025C
:101DE0008E7FE1CF809139028D7FDDCF80913902E6
:101DF000877FD9CF80913A0218C080913A028D7FB7
:101E0000DBCF809139028F7ECECF809139028F7DDA
:101E1000CACF809139028F7BC6CF80913902877FEC
:101E20008B7FC1CF80913A028D7F8E7FC5CF80910D
:101E3000390282FB222720F991E0922790FB82F958
:101E400090FB83F9B0CF80913A02982F90959170D2
:101E50008E7F892B90FB81F9AFCF0E94A0148091D7
:101E6000390287FB222720F991E0922790FB87F91E
:101E70009ACF81E00E947B1B8091390290913A02B7
:101E80000E94F51A0E94A01480E001C081E0DF9159
:101E9000CF910895CF93DF9386319C4541F5EB01B7
:101EA0000E94121A982F8A8120910801309109010D
:101EB000882379F09A7A81E009F480E08093A9017F
:101EC000911102C069E201C065E3C9010E94C21B11
:101ED0000AC08091A901811102C069E201C065E3D5
:101EE000C9010E94C41B0E94571A80E001C081E012
:101EF000DF91CF9108959093AF018093AE01089543
:101F0000E091AE01F091AF01309721F00190F081A6
:101F1000E02D099480E00895E091AE01F091AF01C9
:101F2000309721F00280F381E02D09940895E0912B
:101F3000AE01F091AF01309739F022E0DC012C9333
:101F40000480F581E02D099408952091AC01309131
:101F5000AD012817390771F09093AD018093AC0162
:101F6000E091AE01F091AF01309721F00680F7814A
:101F7000E02D099408952091AA013091AB01281712
:101F8000390771F09093AB018093AA01E091AE0103
:101F9000F091AF01309721F00084F185E02D099494
:101FA00008950E94601C6093BD017093BE018093F0
:101FB000BF019093C0016093B9017093BA018093FF
:101FC000BB019093BC01089585B7806885BF85B734
:101FD000806885BF089581E008950C94EB0F089503
:101FE0000C94EF0F0C94EF0F0C94F20F0C94EF0F76
:101FF0000C94F60F0C94EF0F0E94E40F84EC9AE11E
:102000000E94B21C0E94FA0F0C94F80F0E94F00F6D
:102010000C94EF0F0E944B1C0E9416070E94D50AD9
:102020000C94F40F9F92AF92BF92CF92DF92EF92F7
:10203000FF920F931F93CF93DF93CDB7DEB72A970D
:102040000FB6F894DEBF0FBECDBF0E943C078111D2
:102050000E94D10F81EBA82E81E0B82E00E010E0A5
:10206000902E802F0E94E706D82EF501C1905F01C7
:10207000C826B1F40F5F1F4F0830110589F78FEFA5
:1020800089838A831B820E94541C8160782F9D83E0
:102090008C8349815A816B818D810E94B0102FC041
:1020A00080912D0281FD0E94ED06E12CFF24F39426
:1020B0008C2D8F21F1F00E94ED0F882399F0EE8294
:1020C0009F82DF2081E009F480E088870E94541C11
:1020D0008160782F9A8789874E815F8168858A859C
:1020E0000E94B010F801EF54FE4F8081F826F08274
:1020F00006C0E394FF0CF6E0EF12DACFBBCF0E94EC
:102100006A090E94800F9091B0018917B9F00E946E
:10211000800F8093B0012A960FB6F894DEBF0FBEF1
:10212000CDBFDF91CF911F910F91FF90EF90DF9086
:10213000CF90BF90AF909F900C94C9042A960FB691
:10214000F894DEBF0FBECDBFDF91CF911F910F91ED
:10215000FF90EF90DF90CF90BF90AF909F90089549
:10216000DF92EF92FF920F931F93CF93DF93CDB740
:10217000DEB72B970FB6F894DEBF0FBECDBFF42E9F
:10218000052F162FE72ED82E61110E94321AFE015C
:10219000319686E0DF011D928A95E9F77E2D4F2D5D
:1021A000502F612F8D2D9E810E9459172B960FB6AF
:1021B000F894DEBF0FBECDBFDF91CF911F910F917D
:1021C000FF90EF90DF900895FC01808191810E9443
:1021D000B2190895CF93882309F4A4C0C82F823878
:1021E000C1F40E94800F81FD9DC069E380910801C8
:1021F000909109010E94C21B0E94571A2FEF81EE95
:1022000094E0215080409040E1F700C0000069E375
:1022100019C0833801F50E94800F80FD83C063E5FB
:1022200080910801909109010E94C21B0E94571AD7
:102230002FEF81EE94E0215080409040E1F700C004
:10224000000063E580910801909109010E94C41B80
:10225000CF910C94571A8438C1F40E94800F82FDEC
:1022600061C067E480910801909109010E94C21B3E
:102270000E94571A2FEF81EE94E021508040904049
:10228000E1F700C0000067E4DDCF8CEF8C0F813AEE
:10229000D0F46C2F80910801909109010E948C1B51
:1022A000882349F06C2F80910801909109010E94C8
:1022B000C41B0E94571A6C2F80910801909109014C
:1022C0000E94C21BC5CF80E28C0F883048F4C770D3
:1022D00081E001C0880FCA95EAF70E94151AB8CFAD
:1022E000EBE5EC0FE33040F4F0E0EE57FE4F808179
:1022F00090E0CF910C94A50FE8E5EC0FE73150F496
:10230000F0E0EE0FFF1FEC5AFE4F80819181CF91DC
:102310000C94BB0FC03F30F08C2F0E947A08CF91F5
:102320000C944C09CF910895882309F464C0823835
:1023300079F40E94800F81FF5EC069E380910801FB
:10234000909109010E94C21B0E94571A69E310C0B4
:102350008338B1F40E94800F80FF4DC063E5809107
:102360000801909109010E94C21B0E94571A63E55F
:1023700080910801909109010E94C41B0C94571A86
:10238000843879F40E94800F82FF35C067E4809121
:102390000801909109010E94C21B0E94571A67E42C
:1023A000E7CF9CEF980F913A10F4682FE1CF90E2BD
:1023B000980F983050F4877091E001C0990F8A957A
:1023C000EAF7892F0E941B1AD9CF9BE5980F93300B
:1023D00020F480E090E00C94A50F98E5980F9731D9
:1023E00020F480E090E00C94BB0F803F20F00E942E
:1023F000D5080C944C0908951F93CF93DF93182FA1
:10240000EB010E94EA10209741F08FE99FE00197CD
:10241000F1F700C000002197F6CF812FDF91CF9117
:102420001F910C949411893319F060E070E002C0A0
:1024300060E570E00C94FC11882321F00E94151ACD
:102440000C94571A0895882321F00E941B1A0C94AB
:10245000571A0895CF92DF92EF92FF920F931F9336
:10246000CF93DF937C01D62FC72FFC01128105810A
:1024700002950F700E94EA19882399F0112389F0C0
:102480008C2F807F803421F080E28D0F883048F0DF
:1024900082E00E94A71A0E94EA1991E0D82ED9265C
:1024A00001C0D12CCC2EC2948FE0C8228C2D90E09C
:1024B0008C30910508F0B6C1FC01E759FF4F0C9430
:1024C00033248C2F807FCF70882311F0C295C07F7A
:1024D000112399F0CC2309F491C180E28D0F88304B
:1024E00010F0D11104C08C2F0E94151A03C08C2F3C
:1024F0000E94251A0E94571A81C18D2F0E949411A3
:10250000CC2309F48FC180E28D0F883010F0D111F7
:1025100004C08C2F0E941B1A03C08C2F0E942B1A00
:102520000E94571A7FC18C2F807FCF70803211F0AC
:10253000C295C07FDD2319F0D130C9F022C011232C
:1025400071F0002341F0013031F40E94381A8C2BD5
:102550000E94401A67C10E94381A8C2B1DC00023AC
:1025600019F0013009F45EC10E944D1A25C01123F3
:1025700021F0063008F056C10EC0053008F052C1F7
:102580001BC0112361F0002331F0F701858180FF2A
:1025900035C18F7085838C2F0E941C1243C100238C
:1025A00059F0D93309F03BC1FFEF07EE13E0F150CA
:1025B00000401040E1F731C18C2F0E94231232C13C
:1025C0008C2F86958695837019F0813061F02AC131
:1025D000112321F08D2F9C2F937002C080E090E09A
:1025E0000E94A50F27C1112321F08D2F9C2F9370DE
:1025F00002C080E090E00E94BB0F1CC18D2F112310
:1026000019F00E947A0802C00E94D5080E944C0965
:1026100011C18C2F837009F047C0111107C12D2FF4
:10262000229526952770220F220F6D2F6F70862F0F
:1026300090E0A0E0B0E0022E04C0880F991FAA1F0E
:10264000BB1F0A94D2F7D4FF10C04FE050E060E007
:1026500070E004C0440F551F661F771F2A95D2F7FC
:10266000409550956095709503C040E050E0BA01E8
:10267000C695C695C3708A019B01082B192B2A2B7E
:102680003B2BC901B801C23049F058F4C13019F0F0
:102690000E942D18CBC00E941B18C8C00E943F1872
:1026A000C5C00E941918C2C0112319F08C2F817067
:1026B00001C08695882309F4B9C02D2F229526954F
:1026C0002770220F220F6D2F6F70862F90E0A0E0F1
:1026D000B0E0022E04C0880F991FAA1FBB1F0A94E6
:1026E000D2F7D4FF10C04FE050E060E070E004C0CB
:1026F000440F551F661F771F2A95D2F740955095B6
:102700006095709503C040E050E0BA01C695C6954B
:10271000C3708A019B01082B192B2A2B3B2BC90163
:10272000B801C23049F058F4C13019F00E94F218D3
:102730007DC00E94E0187AC00E94041977C00E94F0
:10274000531874C0CF70112339F08C2F0E94791860
:102750008D2F0E941C126AC08D2F0E9423128C2F75
:102760000E949A1863C0D23F01F128F4D03F41F093
:10277000D13FA1F03FC0D33FF9F0D43F39F13AC087
:10278000112341F0053008F04DC08C2F8F710E944D
:10279000BF1848C0063008F045C0F7CF112339F004
:1027A0008C2F8F710E9479183DC01123C9F38C2F93
:1027B0008F710E949A1836C0112329F08C2F8F71C7
:1027C0000E9464182FC00E945F182CC0112349F08A
:1027D000CF718C2F0E94791863E08C2F0E948C1A85
:1027E00021C081E00E94A71A0230E0F082E00E943E
:1027F000A71A18C0112331F0002391F28D2F0E94E7
:10280000EA1010C0002399F2D93349F41FEF27EEE4
:1028100033E0115020403040E1F700C000008D2F20
:102820000E94941188EF8C0D843020F40E94800F58
:102830000E94C904DD20C9F00E94E61980FD15C080
:10284000F70112820E94E0190E947918C7010E94C4
:1028500056140E94E019DF91CF911F910F91FF90C4
:10286000EF90DF90CF900C949A18DF91CF911F9149
:102870000F91FF90EF90DF90CF9008950F931F93EB
:10288000CF93DF93EC01688179818A810E94BD1921
:102890008C010E9416190E940718B801CE010E94EF
:1028A0002A12DF91CF911F910F910895CF93DF935B
:1028B000EC01988189812B813C81232B31F08F3F62
:1028C00031F481E09F3F19F403C081E001C080E052
:1028D00080FD19C0CE010E94970381110CC00E9497
:1028E000EA19882381F08A81882369F082E0DF91E8
:1028F000CF910C94A71ACE010E943E14CE01DF9115
:10290000CF910C94FC02DF91CF91089580E090E08C
:102910000E94A50F80E090E00E94BB0F0E94321A37
:102920000E94351A0E94571A0E947D0A0C944C0985
:1029300080910801909109010E94C61B0C94861495
:102940000E94221A0C949814E92FE295EF704E2FF2
:1029500050E0FA013297EE30F105B0F4EB58FF4F3A
:102960000C943324803F91F018F4883E68F40EC034
:10297000843F51F40BC0883E48F0813F29F406C0E3
:1029800093FB882780F9089580E0089581E00895F9
:102990000E94B2190E94A4140895CF93DF9300D02F
:1029A00000D01F92CDB7DEB70F900F900F900F9011
:1029B0000F90DF91CF910895CF93DF9300D000D097
:1029C00000D0CDB7DEB726960FB6F894DEBF0FBEA7
:1029D000CDBFDF91CF9108951F93CF93DF93C09127
:1029E000C20116E08091C301C81799F0D0E01C9F86
:1029F000F0011D9FF00D1124EC53FE4F40815181D9
:102A000062817381848195810E94DC142196C77054
:102A1000E9CFDF91CF911F9108954091F40150913A
:102A2000F5016091F6017091F7018091F8019091A4
:102A3000F9010C94DC140F931F93CF93DF938091D3
:102A4000F90182958F7009F05DC08091F6018823AD
:102A500009F458C08091C2011091C3016091F40142
:102A60007091F501C091F701D091F80191E06F3FAD
:102A700009F090E0292F06E0811709F443C0209760
:102A800021F07F3F21F030E003C031E001C0322F60
:102A900090E030FD34C0089FF001099FF00D112433
:102AA000DF01AC53BE4F11963C911197371327C0ED
:102AB0003C91361324C012963C91129731111FC0DD
:102AC00013964D915C9114974C1B5D0B483C51053E
:102AD000B0F48091F9018F7080618093F901E75320
:102AE000FE4F80818F708061808384EF91E00E942F
:102AF0005614DF91CF911F910F910C94EC14019615
:102B00008770BACFDF91CF911F910F9108959F9257
:102B1000AF92BF92CF92DF92EF92FF920F931F93EB
:102B2000CF93DF93CDB7DEB761970FB6F894DEBFD2
:102B30000FBECDBF8C0185E0F801DE011D9601902E
:102B40000D928A95E1F7F80140815181E2809091E0
:102B5000F4016091F5012091F7013091F801211500
:102B6000310531F06F3F31F481E09F3F19F403C02C
:102B700081E001C080E0F82FF1709F2E80FD46C1FA
:102B8000F801A380B48084EFC82E81E0D82EF090A5
:102B9000F601F501E21BF30BFF2009F4DFC0809181
:102BA000F901E83CF10508F09BC0282F207F09F0CF
:102BB00052C0561313C0491311C0FE2CE1100EC0B1
:102BC0008F7080618093F9010E940D15C6010E94EB
:102BD00056148091F901F801858358C1AB2831F072
:102BE0005F3F31F481E04F3F19F403C081E001C041
:102BF00080E080FD03C081E08E2502C080E090E08F
:102C0000F82FF170FF2E80FF1CC08091C20120912F
:102C1000C30136E0821709F417C190E0389FF00134
:102C2000399FF00D1124EC53FE4F6181561306C0FD
:102C30006081461303C06281E61203C0019687706B
:102C4000E9CFFE2CEE2009F421C18091F9018160C9
:102C50008093F9015AC0561306C0491304C0E1100D
:102C600002C0F8019FC04D875E878D859E850E94BA
:102C7000C814882379F1EE2069F12091F901822F9F
:102C800082958F7090E0029774F08091F40190919A
:102C9000F50198878F831986BB86AA862C87CE017B
:102CA00007960E94561486E0F801A4EFB1E0019067
:102CB0000D928A95E1F70E941B150E940D150DC01B
:102CC000561729F14D875E878D859E850E94C81411
:102CD00081112CC0C8010E945614FF24F394D6C061
:102CE000282F207F69F77A2DB98AA88A6E2D8989C5
:102CF0000E94CD1484EF91E00E94561486E0F60104
:102D000011928A95E9F70E940D15F12CBFC0491365
:102D1000D9CFE110D7CFF8018583C8010E9456149E
:102D200086E0F60111928A95E9F7B0C0EE2091F2A3
:102D30002091F901822F82958F7090E002970CF418
:102D4000B2CF8091F4019091F5019A8389831B821F
:102D5000BD82AC822E83CE010196A3CFE83CF10563
:102D600008F047C0FE2CEE2009F4B4CF561330C053
:102D700049132EC02091F90120FD21C0822F829598
:102D80008F70482F50E041155105C9F0F801258397
:102D90004F30510541F08F5F982F9295907F822F91
:102DA0008F70892B8583C8010E94561486E0F80134
:102DB000A4EFB1E001900D928A95E1F742C086E060
:102DC000F801A4EFB1E001900D928A95E1F75EC0A1
:102DD0004D875E878D859E850E94C814811163CFC3
:102DE0008091F90181608093F901C8010E94561415
:102DF0004DC07A2DB98AA88A6E2D89890E94CD147A
:102E000086E0F60111928A95E9F71BC0EE2009F4DD
:102E100061CF4D875E878D859E850E94C814F82EF0
:102E2000882309F457CF86E0F801A4EFB1E00190C0
:102E30000D928A95E1F784EF91E00E94E4100E94E0
:102E40001B150E940D1522C04D875E878D859E85BE
:102E50000E94B219292F22952F70223028F49F70DA
:102E600039F0811105C00BC0243028F49F7049F45B
:102E7000805E883020F0C8010E9456149F2CF92CE7
:102E800005C0F8019581907F99F7F9CF8F2D619654
:102E90000FB6F894DEBF0FBECDBFDF91CF911F916B
:102EA0000F91FF90EF90DF90CF90BF90AF909F90E9
:102EB00008951F93CF93DF93CDB7DEB72C970FB64E
:102EC000F894DEBF0FBECDBF4F83588769877A87DE
:102ED0008B879C87CE0107960E9487158823D1F0A7
:102EE0009F8188852A853B85232B31F08F3F31F4E4
:102EF00081E09F3F19F403C081E001C080E080FDC4
:102F000047C04F81588569857A858B859C850E944D
:102F1000DC143EC086E0FE013796DE01119601907A
:102F20000D928A95E1F7FF81E8856A857B856115B9
:102F3000710531F0EF3F31F481E0FF3F19F403C038
:102F400081E001C080E080FD23C02091C30130E01A
:102F5000C9010196877099274091C20150E08417FA
:102F60009507F1F1F983EA837D836C8396E0929F64
:102F7000D001939FB00D1124AC53BE4FFE0131968A
:102F800001900D929A95E1F78093C3010E94EC1491
:102F900016E08091C2019091C301891771F1189FC9
:102FA000C00111248C539E4F0E948715882329F15C
:102FB000E091C2011E9FF0011124EC53FE4F4081AD
:102FC000518162817381848195810E94DC1480919A
:102FD000C20190E00196877099278093C201D9CFF2
:102FE0000E94A0141092C3011092C201E4EFF1E01C
:102FF00086E0DF011D928A95E9F72C960FB6F894CA
:10300000DEBF0FBECDBFDF91CF911F910895089510
:1030100008950C9408180C9409180E940B186093DA
:103020001C0270931D0280931E0290931F020C9449
:1030300086140C940D180F931F9300911C0210918D
:103040001D0220911E0230911F02602B712B822BDA
:10305000932B1F910F910C940D180F931F930091B8
:103060001C0210911D0220911E0230911F0260234C
:103070007123822393231F910F910C940D180F93AA
:103080001F9300911C0210911D0220911E0230918D
:103090001F0260277127822793271F910F910C949D
:1030A0000D180C9408180E94511860931802709320
:1030B000190280931A0290931B020C94861460E00C
:1030C00070E0CB010C9453180F931F9341E050E034
:1030D00060E070E08A019B0104C0000F111F221FF5
:1030E000331F8A95D2F7C901B8011F910F910C9433
:1030F00053180F931F9341E050E060E070E004C06C
:10310000440F551F661F771F8A95D2F780911802CA
:1031100090911902A0911A02B0911B028A019B01A1
:10312000082B192B2A2B3B2BC901B8011F910F919A
:103130000C9453180F931F9341E050E060E070E04F
:1031400004C0440F551F661F771F8A95D2F740951C
:103150005095609570958091180290911902A091F8
:103160001A02B0911B028A019B01082319232A230A
:103170003B23C901B8011F910F910C9453180F9371
:103180001F9341E050E060E070E004C0440F551F21
:10319000661F771F8A95D2F78091180290911902C5
:1031A000A0911A02B0911B028A019B0108271927DE
:1031B0002A273B27C901B8011F910F910C9453187E
:1031C0000F931F93009118021091190220911A0277
:1031D00030911B02602B712B822B932B1F910F912F
:1031E0000C9453180F931F93009118021091190219
:1031F00020911A0230911B026023712382239323B2
:103200001F910F910C9453180F931F930091180264
:103210001091190220911A0230911B026027712728
:10322000822793271F910F910C9453180895292FEB
:10323000220F920F990F890FE82FE695E695E695F4
:10324000877051E001C0550F8A95EAF785E0E89F45
:10325000F0011124E650FE4F20E030E070E04081A4
:10326000CB01022E02C0969587950A94E2F78170F1
:10327000819584278523842781932F5F3F4F2530B5
:10328000310569F70895292F220F920F990F890FA1
:10329000682F669566956695982F977085E0689F6C
:1032A000B001112440E050E080E0FB01E40FF51F85
:1032B000E650FE4F208130E0092E02C0369527955A
:1032C0000A94E2F721703327042E01C0220F0A94DA
:1032D000EAF7822B4F5F5F4F4530510531F7089574
:1032E000BF92CF92DF92EF92FF920F931F93CF93F3
:1032F000DF938C01C0901802D0901902E0901A025E
:10330000F0901B0280911C0290911D02A0911E0260
:10331000B0911F02C82AD92AEA2AFB2ACFE1D0E0BD
:10332000D701C6010C2E04C0B695A7959795879531
:103330000A94D2F780FD04C0219790F7B12C07C002
:10334000BC2EB8018C2F0E94D2040197A9F38B2DBB
:10335000DF91CF911F910F91FF90EF90DF90CF9071
:10336000BF900895CF93DF93EC010E947019BE01C6
:103370000E94D204DF91CF9108951F93CF93DF93E2
:10338000EB019091C101992321F0CB010E94B21968
:1033900013C0882349F0CB010E947019182F682FA1
:1033A000CE010E94171904C0CB010E944319182FA7
:1033B000BE01812F0E94D204DF91CF911F91089509
:1033C00080912002859585958595089580912002AC
:1033D0008770089590912002977081E009F480E051
:1033E000089590913A0292FB222720F9281751F074
:1033F00080FB92F990933A028091390290913A02BF
:103400000C94F51A089580913A0282FB882780F97E
:1034100091E089270C94F11981E00C94F11980E076
:103420000C94F11980912C02089590912C02892B13
:1034300080932C020895809590912C02892380938B
:103440002C02089510922C02089590912B02892B42
:1034500080932B020895809590912B02892380936D
:103460002B02089510922B02089510922A020895BB
:1034700080912102089508950C943B1A0C943C1AF3
:1034800090913A0292FD08C090912102981721F084
:10349000809321020C943E1A089580912102882382
:1034A00029F01092210280E00C943E1A0895E091D8
:1034B0000801F091090180912C028083E0910801BC
:1034C000F0910901908180912B02892B8083E091FA
:1034D0000801F0910901908180912A02892B808353
:1034E00080912102882381F0E0910801F091090187
:1034F0009081892B808380910801909109010E941D
:10350000801B81110E944D1A809108019091090140
:103510000C948C0F0C943B1A90913A0292FD10C0BF
:1035200098E0899F90011124262B209320020E946D
:103530007918809120028595859585950C948A1A35
:103540000C9479181092200280E00C948A1A209131
:1035500020028095822380932002982F977041F457
:1035600030E0482F082E000C550B2417350721F4A6
:1035700090913A0292FF07C08595859585950E94A6
:103580009A180C94A21A089580E008956FEF7FEFC7
:1035900080E090E00C94802480E090E00E945C2425
:1035A00021E08A3E9E4F09F020E0822F089582E0BC
:1035B00090E00C94542483E090E00C945424682F01
:1035C00083E090E00C946224CF9384E090E00E942A
:1035D0005424C82F82E290E00E9454242C2F30E023
:1035E000A901582BCA01CF910895CF93C92F682FF5
:1035F00084E090E00E9462246C2F82E290E0CF9100
:103600000C946224AB01BC018FE090E00C94742414
:10361000AB01BC0183E190E00C94742460E070E0A5
:10362000CB010C94081B60E070E0CB010E94021BF0
:103630000C940E1B6AEE7EEF80E090E00E948024E6
:1036400060E082E090E00E94622460E083E090E02D
:103650000E94622410921C0210921D0210921E02FF
:1036600010921F0260E084E090E00E94622460E01B
:1036700082E290E00E94622460E085E090E00E9497
:10368000622460E086E090E00E9462246FEF87E0B1
:1036900090E00E94622440E050E0BA0188E090E0AF
:1036A0000E94742460E08DE090E00E94622440E07B
:1036B00050E0BA0188E190E00E94742460E087E164
:1036C00090E00E94622440E050E0BA018CE190E07A
:1036D0000E94742460E070E080E290E00E94802408
:1036E00040E050E0BA0188E190E00E9474240C941C
:1036F000131B0C941A1B682F8EE090E00C9462242C
:10370000FC01329697E080E0915029F0219122232C
:10371000D9F38F5FF9CF0895662349F0FC01329603
:1037200008962191621729F0E817F907D1F780E090
:10373000089581E008959C01FC0132969FEF80E09E
:103740004191461789F09F3F19F4411101C0982F0C
:103750008F5F8630A9F79F3F39F0F901E90FF11D1E
:1037600097FDFA956283089508959C012A5F3F4F63
:10377000FC014281461301C0128201968217930711
:10378000B9F708950C949B1B0C94B51B029626E088
:10379000FC0111922A95E9F7089508950C94CD1B28
:1037A0000C94CD1BCF930E94D01B0E943C070E941B
:1037B000CE1BC0E08C2F0E94E706811104C0CF5FB2
:1037C000C830C1F701C081E0CF9108950C94CD1BA2
:1037D0000C94E61B80915302843049F10E94E81B4F
:1037E00080E00E94C90410922E0220E488E190E05B
:1037F0000FB6F894A895809360000FBE20936000E8
:1038000083B7817F846083BF83B7816083BF7894EF
:10381000889583B78E7F83BF0FB6F894A895809163
:103820006000886180936000109260000FBE089570
:103830000C94CD1B0E94A0140E94800F0E94C9040A
:103840000C94181C1F920F920FB60F9211248F9395
:103850009F93AF93BF9380912E02811113C08091EB
:103860004B0290914C02A0914D02B0914E024196B4
:10387000A11DB11D80934B0290934C02A0934D0269
:10388000B0934E02BF91AF919F918F910F900FBE59
:103890000F901F90189582E084BD93E095BD9AEF3C
:1038A00097BD80936E0008952FB7F89480914B02D6
:1038B00090914C02A0914D02B0914E022FBF0895FD
:1038C0002FB7F89460914B0270914C0280914D0299
:1038D00090914E022FBF08959C014FB7F8948091AC
:1038E0004B0290914C02A0914D02B0914E024FBFFD
:1038F000821B930B089578941F920F920FB60F922C
:1039000011248F939F93AF93BF9380914B0290911B
:103910004C02A0914D02B0914E020196A11DB11D25
:1039200080934B0290934C02A0934D02B0934E02B1
:10393000BF91AF919F918F910F900FBE0F901F90ED
:10394000189587E797E790930108809300089AE01D
:1039500088E10FB6F894A895809360000FBE90930D
:103960006000FFCF9093950180939401089580911A
:1039700037020895CF93DF9300D01F92CDB7DEB703
:1039800090915302943011F589837B836A839093DD
:10399000E9008FEF9091E800815095FD06C095ED0C
:1039A0009A95F1F700008111F5CF8091E80085FF2D
:1039B0000DC040E050E063E070E0CE0101960E944F
:1039C000361F8091E8008E778093E8000F900F906B
:1039D0000F90DF91CF910895BC0184E00C94BA1C44
:1039E000BC0183E00C94BA1C24E02093E9002FEF83
:1039F0003091E800215035FD06C035ED3A95F1F7DC
:103A000000002111F5CF2091E80025FF0BC040E018
:103A100050E066E070E00E94361F8091E8008E77EB
:103A20008093E8000895CF93DF9321E02093E9008D
:103A30002FEF3091E800215035FD06C035ED3A9565
:103A4000F1F700002111F5CF2091E80025FF14C007
:103A5000EC0140E050E068E070E00E94361F809189
:103A6000E8008E778093E80088E0FE01AFE2B2E0E4
:103A700001900D928A95E1F7DF91CF910895CF9350
:103A8000603219F5209153022430F9F4C091E90015
:103A9000CF703091EC00232F217030FD20E8C22B35
:103AA00022E02093E9002091E80020FF0BC040E0D5
:103AB00050E060E270E00E94361F8091E8008E774F
:103AC0008093E800CF70C093E900CF910895809172
:103AD0005202811109C00E9412210E946F2180911F
:103AE000E20084608093E2000895109252020895EB
:103AF00008950895089542E061EC81E00E948B20D2
:103B000042E261EC84E00E948B2042E261EC82E0C0
:103B10000E948B2042E260EC83E00C948B20809129
:103B20005502833009F462C030F4813071F0823084
:103B300009F49BC008958A3009F487C08B3009F4DA
:103B40006DC0893009F0A9C020C080915402813A2B
:103B500009F0A3C08091E800877F8093E8008091FE
:103B6000580290915902892B21F468E08FE292E08B
:103B700003C060E080E090E070E00E94CC1F809184
:103B8000E8008B778093E800089580915402813299
:103B900009F083C08091580290915902009719F062
:103BA000029709F07AC08091E800877F8093E8004F
:103BB0008091E80082FD05C0809153028111F8CF09
:103BC0006CC02091F3008091F20090E0922B02975C
:103BD00029F48091F1008B7F813021F48091F100F4
:103BE000809337028091E8008B7753C08091540214
:103BF000813A09F052C08091580290915902892B64
:103C000009F04BC08091E800877F8093E8008091A5
:103C1000E80080FFFCCF8091140136C080915402EF
:103C20008132D9F58091580290915902892BA9F5DA
:103C30008091E800877F8093E8000E94C0208091F7
:103C40005602809314010C94A01480915402813286
:103C500021F58091E800877F8093E8000E94C020D2
:103C60008091570280933802089580915402813ADE
:103C7000A1F48091E800877F8093E8008091E800BC
:103C800080FFFCCF809138028093F1008091E800A2
:103C90008E778093E8000C94C02008951F93CF93F3
:103CA000DF93CDB7DEB7A0970FB6F894DEBF0FBE97
:103CB000CDBF84B7877F84BF0FB6F894A895809155
:103CC0006000886180936000109260000FBE90E0F9
:103CD00080E80FB6F89480936100909361000FBE66
:103CE0000E94FC0F0E9412210E946F218091E2002D
:103CF00084608093E20078940E9404240E940A1059
:103D00008AE091E00E947B0F13E08091530285309E
:103D1000A9F480915302853079F40E94EA1B8091C6
:103D200051028823B1F30E94D21B882391F30E9491
:103D3000201F0E94A014EDCF0E941A1C0E94121096
:103D400080915302843009F51093E9008091E800D6
:103D500082FF1BC08091E80085FF0AC040E050E070
:103D600060E270E0CE0101960E94811F91E001C0E7
:103D700090E08091E8008B778093E800992329F008
:103D800060E2CE0101960E94240B0E940610BDCF76
:103D90000C94CA1E292F332723303105C9F060F453
:103DA0002130310581F02230310509F041C08BE529
:103DB00090E02EE733E040C021323105E1F02232BD
:103DC000310531F135C082E190E029ED33E034C0B6
:103DD00099278130910549F028F0029749F5EAE4E6
:103DE000F3E005C0EAE7F3E002C0E0E6F3E0849127
:103DF00090E09F0121C063307105D0F4660F771FFA
:103E0000FB01E257FE4F2081318189E090E014C030
:103E10006330710568F4FB01EE0FFF1FE857FE4F9A
:103E200020813181FB01EB57FE4F808190E004C07F
:103E300080E090E020E030E0FA01318320830895B3
:103E400080E189BD82E189BD09B400FEFDCF80918A
:103E5000D8008F7D8093D8008091E00082608093AD
:103E6000E0008091E00081FDFCCF0895CF92DF92C9
:103E7000EF92FF920F931F93CF93DF93EC018B018F
:103E80007A010E94DF20811133C0E114F10439F07E
:103E9000F70180819181081B190BC80FD91FC12C14
:103EA000D12C0115110519F18091E80085FD16C08E
:103EB0008091E8008E778093E800E114F10449F0E6
:103EC000F70180819181C80ED91ED182C08285E020
:103ED0000FC00E94DF20882321F30AC089918093BC
:103EE000F10001501109FFEFCF1ADF0ADACF80E0AD
:103EF000DF91CF911F910F91FF90EF90DF90CF90C6
:103F00000895CF92DF92EF92FF920F931F93CF937A
:103F1000DF93EC018B017A010E94DF20811133C015
:103F2000E114F10439F0F70180819181081B190B2C
:103F3000C80FD91FC12CD12C0115110519F1809181
:103F4000E80085FD16C08091E8008B778093E8003B
:103F5000E114F10449F0F70180819181C80ED91E66
:103F6000D182C08285E00FC00E94DF20882321F328
:103F70000AC08091F100899301501109FFEFCF1A17
:103F8000DF0ADACF80E0DF91CF911F910F91FF9090
:103F9000EF90DF90CF90089520915A0230915B020C
:103FA0002617370748F06115710539F42091E800AC
:103FB0002E772093E80001C0B901FC0120E06115D3
:103FC000710579F1809153028823F1F18530F1F187
:103FD0008091E80083FD3CC08091E80082FD2EC006
:103FE0008091E80080FFEBCF2091F3008091F200F8
:103FF00090E0922B6115710551F08830910538F4ED
:1040000021912093F100615071090196F3CF21E0D5
:10401000089709F020E08091E8008E778093E8000F
:10402000CECF2111CFCF0AC080915302882361F0F7
:10403000853061F08091E80083FD0AC08091E8003E
:1040400082FFF2CF80E0089582E0089583E0089532
:1040500081E0089520915A0230915B0226173707BC
:1040600048F06115710539F42091E8002E7720930E
:10407000E80001C0B901FC0120E06115710591F172
:1040800080915302882309F440C0853009F43FC071
:104090008091E80083FD3DC08091E80082FD2FC043
:1040A0008091E80080FFE9CF2091F3008091F20039
:1040B00090E0922B6115710559F08830910540F41C
:1040C00024912093F1003196615071090196F2CF4D
:1040D00021E0089709F020E08091E8008E77809336
:1040E000E800CBCF2111CCCF0AC0809153028823A6
:1040F00061F0853061F08091E80083FD0AC0809115
:10410000E80082FFF2CF80E0089582E0089583E026
:10411000089581E00895982F973068F59093E9000D
:10412000981739F07091EC002091ED005091F0005B
:1041300003C0242F762F50E021FD02C09F5FECCFFB
:104140003091EB003E7F3093EB003091ED003D7FEE
:104150003093ED003091EB0031603093EB007093C1
:10416000EC002093ED005093F0002091EE0027FD2D
:10417000E5CF80E008958F708093E90081E0089595
:104180008091540287FF11C08091E80082FD05C034
:10419000809153028111F8CF11C08091E8008B7794
:1041A0000BC080915302882349F08091E80080FF82
:1041B000F8CF8091E8008E778093E80008952091F1
:1041C000E4003091E50095E64091EC00842F817089
:1041D00040FF23C08091E80080FD1DC08091530204
:1041E000882399F0853099F08091EB0085FD11C00E
:1041F0004091E4005091E5002417350729F39150D0
:1042000011F09A01E1CF84E0089582E0089583E0FF
:10421000089581E0089580E008954091E80042FF0C
:10422000DDCF08950E9480210E948821E0EEF0E019
:10423000808181608083E8EDF0E080818F778083EA
:1042400019BCA7EDB0E08C918E7F8C9380818F7E1E
:1042500080831092520208950F931F93CF93DF93A0
:104260000E9480210E948821C8EDD0E088818F774C
:10427000888388818068888388818F7D888319BC42
:104280001092530210924F0210925102109250025B
:1042900000EE10E0F80180818B7F8083888181604F
:1042A000888342E060E080E00E948B20E1EEF0E055
:1042B00080818E7F8083E2EEF0E080818160808368
:1042C000808188608083F80180818E7F80838881EF
:1042D00080618883DF91CF911F910F910895E8ED60
:1042E000F0E080818F7E8083E7EDF0E08081816067
:1042F000808384E082BF81E0809352020C942C2161
:10430000E8EDF0E080818E7F80831092E2000895D6
:104310001092DA001092E10008951F920F920FB6EA
:104320000F9211242F933F934F935F936F937F933B
:104330008F939F93AF93BF93EF93FF938091E1008F
:1043400082FF0BC08091E20082FF07C08091E100F4
:104350008B7F8093E1000E9403248091DA0080FF2C
:104360001FC08091D80080FF1BC08091DA008E7F33
:104370008093DA008091D90080FF0DC080E189BD73
:1043800082E189BD09B400FEFDCF81E08093530234
:104390000E94671D05C019BC109253020E94751D32
:1043A0008091E10080FF19C08091E20080FF15C07C
:1043B0008091E2008E7F8093E2008091E200806134
:1043C0008093E2008091D80080628093D80019BC6D
:1043D00085E0809353020E94791D8091E10084FF63
:1043E00030C08091E20084FF2CC080E189BD82E171
:1043F00089BD09B400FEFDCF8091D8008F7D8093E8
:10440000D8008091E1008F7E8093E1008091E200EE
:104410008F7E8093E2008091E20081608093E200D1
:1044200080914F02882311F084E007C08091E3005F
:1044300087FD02C081E001C083E0809353020E94A7
:104440007A1D8091E10083FF29C08091E20083FF03
:1044500025C08091E100877F8093E10082E0809316
:10446000530210924F028091E1008E7F8093E10011
:104470008091E2008E7F8093E2008091E200806173
:104480008093E20042E060E080E00E948B20809117
:10449000F00088608093F0000E94781DFF91EF91FA
:1044A000BF91AF919F918F917F916F915F914F914C
:1044B0003F912F910F900FBE0F901F9018951F9254
:1044C0000F920FB60F9211242F933F934F935F9348
:1044D0006F937F938F939F93AF93BF93CF93DF930C
:1044E000EF93FF93C091E900CF708091EC00D82F3B
:1044F000D17080FDD0E81092E9008091F000877FB4
:104500008093F00078940E94A3221092E900809199
:10451000F00088608093F000CD2BCF70C093E9004D
:10452000FF91EF91DF91CF91BF91AF919F918F91CB
:104530007F916F915F914F913F912F910F900FBE9F
:104540000F901F9018951F93CF93DF93CDB7DEB7D1
:10455000AA970FB6F894DEBF0FBECDBFE4E5F2E038
:104560008091F100819322E0EC35F207C9F70E94B7
:104570008F1D8091E80083FF2EC18091540290919D
:104580005502492F50E04A30510508F024C1FA0184
:10459000ED57FF4F0C943324803821F0823809F016
:1045A0001AC108C08091500290915102992389F05C
:1045B00082600FC0809158028F70873008F00BC165
:1045C0008093E9008091EB0085FB882780F91092A9
:1045D000E9009091E800977F9093E8008093F100C4
:1045E0001092F100D1C0282F2D7F09F0F4C088234C
:1045F00019F0823061F0EFC080915602813009F0ED
:10460000EAC0933009F080E0809351022EC080917F
:10461000560281112AC0809158028F702FEF280F07
:10462000263008F0D8C08093E9002091EB0020FFED
:104630001CC0933021F48091EB00806214C09091F3
:10464000EB0090619093EB0021E030E0A90102C003
:10465000440F551F8A95E2F74093EA001092EA0052
:104660008091EB0088608093EB001092E9008091CC
:10467000E800877F8093E8000E94C020ACC08111D1
:10468000AAC0109156021F778091E3008078812B99
:104690008093E3008091E800877F8093E8000E9488
:1046A000C0208091E80080FFFCCF8091E30080680B
:1046B0008093E300111102C082E001C083E0809387
:1046C000530289C08058823008F085C0809156021C
:1046D000909157028C3D53E0950779F583E08A83EA
:1046E0008AE289834FB7F894DE01139620E03EE01A
:1046F00051E2E32FF0E050935700E49120FF03C014
:10470000E295EF703F5FEF708E2F90E0EA3010F08F
:10471000C79601C0C0968D939D932F5F243149F7B2
:104720004FBF8091E800877F8093E8006AE270E0E5
:10473000CE0101960E94CC1F16C060915802709164
:104740005902AE014F5F5F4F0E94C81EBC01892B0A
:1047500009F441C09091E800977F9093E800898127
:104760009A810E942A208091E8008B778093E8004C
:1047700032C0803881F58091E800877F8093E8001F
:1047800080914F028093F1008091E8008E7772CF84
:10479000811121C08091560290915702992702976A
:1047A000D4F48091E800877F8093E80080915602DE
:1047B00080934F020E94C02080914F02811106C059
:1047C0008091E30087FD02C081E001C084E0809316
:1047D00053020E947B1D8091E80083FF0AC08091F4
:1047E000E800877F8093E8008091EB0080628093EF
:1047F000EB00AA960FB6F894DEBF0FBECDBFDF91D7
:10480000CF911F9108950895CF93809153028823EB
:10481000A1F0C091E900CF709091EC00892F8170D8
:1048200090FD80E8C82B1092E9008091E80083FD9C
:104830000E94A322CF70C093E900CF91089597FB07
:10484000072E16F4009407D077FD09D00E9440246B
:1048500007FC05D03EF4909581959F4F0895709583
:1048600061957F4F0895EE0FFF1F0590F491E02DA5
:104870000994692796276927782787277827089535
:10488000AA1BBB1B51E107C0AA1FBB1FA617B70776
:1048900010F0A61BB70B881F991F5A95A9F7809592
:1048A0009095BC01CD010895F999FECF92BD81BDCF
:1048B000F89A992780B50895A8E1B0E042E050E069
:1048C0000C948824262FF999FECF92BD81BDF89AC9
:1048D000019700B4021639F01FBA20BD0FB6F89444
:1048E000FA9AF99A0FBE08950396272F0E9463241F
:1048F0000E946224252F0E946324242F0C94632499
:104900000196272F0E9463240C946224DC01CB01C2
:10491000FC01F999FECF06C0F2BDE1BDF89A3196CF
:1049200000B40D9241505040B8F70895F894FFCF6D
:104930002808641E140A321E2202B71C131DF41C20
:10494000F01CEC1C01E200E900EA00B500B600B77B
:1049500000CD008301CC008A019201940121022341
:104960000224022502260227022A02B300B4006FA5
:10497000007000818283946697C63435F4F5F6F7AB
:1049800031333236E200E900EA00B500B600B70084
:10499000CD008301CC008A019201940121022302FF
:1049A00024022502260227022A02B300B4006F0067
:1049B000700081828340227B8804EB030D04900306
:0449C000A903C9037B
:00000001FF
