:100000000C945F020C94A6020C94A6020C94A60217
:100010000C94A6020C94A6020C94A6020C94A602C0
:100020000C94A6020C94A6020C9444210C94162263
:100030000C94FD180C94A6020C94A6020C94A60233
:100040000C94A6020C94A6020C94A6020C94A60290
:100050000C94A6020C9456190C94A6020C94A602B9
:100060000C94A6020C94A6020C94A6020C94A60270
:100070000C94A6020C94A6020C94A6020C94A60260
:100080000C94A6020C94A6020C94A6020C94A60250
:100090000C94A6020C94A6020C94A6020C94A60240
:1000A0000C94A6020C94A6020C94A60235083808FB
:1000B0005808690871087C08D408D408D408C20814
:1000C000C5087F08820887089408A108A408A80822
:1000D000B508690F690F9B0F9B0FE80F06101A11E7
:1000E0001A111110AA10BB10BB10BA11BA11CC1101
:1000F000CC11C311CC11CC11CC11BA11BA11C81149
:10010000CC11CC11C8118322AA22A223AA22A22395
:10011000F6221923A22370237F23290014001A003A
:100120000800150017002B610400160007000900E5
:100130000A00E1001D001B00060019000500E30095
:10014000E20001512C001C0018000C0012001300EA
:100150002F0030000B000D000E000F0033003400A4
:10016000310011001000360037003800E50028008B
:100170002A0001518A000000000035001E001F0007
:100180002000210022000100010001000100010007
:1001900001003A003B003C003D003E003F000100F2
:1001A0000100025101002300240025002600270041
:1001B0002D002E005000510052004F0001000100A0
:1001C000010040004100420043004400450001009E
:1001D00001000251010000000000010001000100C7
:1001E0000100010001000100010001000100010007
:1001F00001000100010001000100010001000100F7
:1002000001000100010001000100010001000100E6
:1002100001000100010001000100010001000100D6
:1002200001000100010001000100010001000100C6
:1002300001000100010000000000010001000100B8
:1002400001000100010001000100010001000100A6
:100250000100010001000100010001000100010096
:100260000100010001000100010001000100010086
:100270000100010001000100010001000100010076
:100280000100010001000100010001000100010066
:10029000010001000100000000000000000000005B
:1002A00000002A2B280000000000000000000000D1
:1002B000000000000029000000002C1E3420212234
:1002C00024342627252E362D3738271E1F2021229D
:1002D000232425263333362E37381F040506070816
:1002E000090A0B0C0D0E0F10111213141516171806
:1002F000191A1B1C1D2F3130232D35040506070844
:10030000090A0B0C0D0E0F101112131415161718E5
:10031000191A1B1C1D2F3130354C00000000000045
:1003200000000000000000000000000000007E0F40
:1003300000D4FFFFFFC700000078140367007000BF
:100340006B00360030005F003400360061000000B2
:10035000180364006100720061006B0075005F00AB
:100360006E0065006B006F000000040309040902C1
:100370005B00030100A0FA09040000010301010071
:100380000921110100012240000705810308000A2C
:1003900009040100020300000009211101000122EB
:1003A0002200070582032000010705030320000146
:1003B00009040200010300000009211101000122CB
:1003C00081000705840320000A12011001000000CB
:1003D00008EDFE14140100010200010660FF09612E
:1003E000A1010962150026FF009520750881020908
:1003F00063150026FF00952075089102C0050109CC
:1004000002A10185020901A10005091901290515AB
:10041000002501950575018102950175038101058E
:1004200001093009311581257F950275088106097A
:10043000381581257F950175088106050C0A38025B
:100440001581257F950175088106C0C005010980C9
:10045000A101850319012AB700150126B7009501EE
:1004600075108100C0050C0901A101850419012A3C
:10047000A002150126A002950175108100C005019A
:100480000906A101050719E029E7150025019508CE
:10049000750181029501750881010507190029FF81
:1004A000150026FF00950675088100050819012929
:1004B00005950575019102950175039101C01124FF
:1004C0001FBECFEFDAE0DEBFCDBF04B603FE27C00C
:1004D0008091520290915302A0915402B091550222
:1004E0008730904BA740B04BD1F41092520210923B
:1004F0005302109254021092550214BE84B7877FA3
:1005000084BF0FB6F894A8958091600088618093AD
:100510006000109260000FBEE0E0F8E3099511E082
:10052000A0E0B1E0EEE9F8E402C005900D92A43934
:10053000B107D9F722E0A4E9B1E001C01D92A235CC
:10054000B207E1F70E940B1E0C944D240C9400009E
:1005500089329D4539F4FB018281882319F080E0BE
:100560000E94BA0381E0089581E008950C94A802E6
:1005700008950C94B8021F93CF93DF9300D000D05E
:100580001F92CDB7DEB749835A836B833091AA019E
:1005900089819A81311114C0662359F0222349F0D0
:1005A0000E947B16182F682F89819A810E9422163B
:1005B00003C00E944E16182F69817A81812F04C0D2
:1005C0000E947B1669817A810F900F900F900F9097
:1005D0000F90DF91CF911F910C94A609FC01262F5B
:1005E000408151816281738184810C94BB02CF93DD
:1005F000DF93EC0160E00E94EE02BE01DF91CF913B
:100600000C94B902FF920F931F93CF93DF93E82FBF
:10061000F0E0E656FD4FF490C82FC695C695C695F6
:10062000D0E0FE01E65DFC4F0491877010E0082EDB
:1006300002C0159507950A94E2F701701127FE0193
:10064000E65EFC4FC491D0E002C0D595C7958A956F
:10065000E2F7C170DD270115110519F081EE0E9446
:10066000FC0D209719F086EE0E94FC0D8F2D0E9444
:100670000E0FCD2B19F086EE0E94A60E012B41F035
:1006800081EEDF91CF911F910F91FF900C94A60EF8
:10069000DF91CF911F910F91FF900895EF92FF92FC
:1006A0000F931F93CF93DF93EC01162F0AE08881FD
:1006B000882309F455C0813009F043C08981813015
:1006C00041F47E0182E0E80EF11C8A810E940E0F47
:1006D00009C0823049F47E01E2E0EE0EF11C8A810D
:1006E0000E94FC0DE7012FC0833041F47E01F2E04F
:1006F000EF0EF11C8A810E94A60EF4CF843011F017
:10070000219621C02A81229680E090E030E020539B
:1007100031092A30310558F4089FA001099F500D76
:100720001124C901840F951F21962881EFCF0097CE
:1007300051F0EFE9FFE03197F1F700C000000197B9
:10074000F6CF0E9402032196812F882309F4AFCFB0
:10075000EFE9FFE03197F1F700C000008150F5CFDD
:10076000DF91CF911F910F91FF90EF90089560E07E
:100770000C944E03CF93DF9361E070E0EB0102C075
:10078000CC0FDD1F8A95E2F78C2F0E94B917BE01AE
:1007900080E090E0DF91CF910C9424158F929F928E
:1007A000AF92BF92CF92DF92EF92FF920F931F937F
:1007B0006B017C0181E090E0A0E0B0E04C015D01C4
:1007C00004C0880C991CAA1CBB1C4A95D2F7AC012A
:1007D000BD0104C0440F551F661F771F2A95D2F72D
:1007E000482959296A297B2904C0880F991FAA1F03
:1007F000BB1F0A95D2F78A019B010C211D212E21D6
:100800003F21401751076207730739F4BC01CD013E
:100810006C297D298E299F290AC080959095A095E5
:10082000B095BC01CD016C217D218E219F211F91AE
:100830000F91FF90EF90DF90CF90BF90AF909F907F
:100840008F9008950F93382F262F60910102709199
:1008500002028091030290910402042F432F0E9410
:10086000CE030F910C945E150E948F190E94A6175B
:10087000811102C00E9452180C948E060C948A06B4
:1008800008950E94A8110E9440042FEF84E39CE089
:10089000215080409040E1F700C000000C947C198A
:1008A0000F931F93CF93DF93EC0161E00E94EE0260
:1008B0008C01BE010E94E407882379F1BE01C801C2
:1008C0000E94B602882349F1BE01C8010E94000BB4
:1008D000882319F1BE01C8010E94520B8823E9F058
:1008E000BE01C8010E947D0C8823B9F08A8188234B
:1008F00069F001158CE5180731F00F3D1C4531F406
:100900000E9452180AC00E94410407C0CE01DF9124
:10091000CF911F910F910C94B40280E0DF91CF91A1
:100920001F910F91089508950C94930481E0089508
:100930000C949604CF93C82F0E9494048C2F0E948D
:100940009804CF910895CF93DF930E94A6090E9447
:10095000A505EC01811521E5920708F043C081153A
:1009600040E5940708F08AC0883E910520F5803E56
:10097000910508F0E6C0883A910570F4853A910532
:1009800008F074C08130910509F4DBC008F4D7C0C9
:10099000049708F0D6C0D3C08F3B910508F0CFC0B4
:1009A000C85AD0E0CC0FDD1FCB5EDE4F0990D88156
:1009B000C02DD464C6C0C11580E2D80758F4C11553
:1009C00021E0D20708F0BDC0C03FD10508F4B7C090
:1009D000D065B7C0C11540E4D40708F4B0C0DF70DB
:1009E000D06AAFC0C11585E5D807A0F4C11524E5CC
:1009F000D20708F08AC0C11543E5D40708F06FC0DC
:100A0000C11582E5D80708F054C0DC2FCC27C16F90
:100A1000D06A97C0C11529E5D207A0F4C11548E5F1
:100A2000D40708F077C0C11586E5D80708F087C05D
:100A30008C2F0E9439068F71C82FD0E0DC2FCC2775
:100A4000D0627FC0C1152AE5D20708F468C0CE0184
:100A500090568115904208F072C08D2F8F710E94C0
:100A60003906DD27D0628F71D82B6BC0C55AD0E014
:100A7000CD5BDE4FC881D0E0D06463C074E0969552
:100A800087957A95E1F783709C2F937021E030E091
:100A900002C0220F331F9A95E2F73C68382BCF70C3
:100AA000C695C69580E2C89FE0011124C22BD32BC6
:100AB00048C0CE018370992721E030E002C0220FA8
:100AC000331F8A95E2F78C2F8695869540E2849FA6
:100AD000C0011124E901C82BD92BDC6832C0CE013A
:100AE0008370992721E030E002C0220F331F8A95DE
:100AF000E2F78C2F8695869540E2849FC0011124F1
:100B0000E901C82BD92BDA681CC0DC2FCC27C46FB5
:100B1000D06A17C0DC2FCC27C06FD06A12C08C2FD0
:100B20008F700E94390694E0D695C7959A95E1F7A3
:100B3000CF70D0E0DC2FCC27D069C82B02C0C0E03A
:100B4000D0E0CE01DF91CF9108958238910569F10F
:100B5000B0F48133910509F46DC048F489329105F0
:100B600009F463C08A32910509F469C00895853398
:100B7000910509F455C089339105B9F00895833E74
:100B8000910569F138F4803E9105B1F0823E9105FE
:100B900009F10895863E9105A9F1873E9105B9F1C5
:100BA000843E910509F064C023C02091430220FDDA
:100BB0004FC021FD4DC008958091430280FD44C087
:100BC0008091440280FF44C08091430284FD42C072
:100BD00083EE4DC08091430282FF38C0F5CF8091F3
:100BE000430282FD33C08091440280FD31C0ECCFCE
:100BF0008091440281FF32C08091430284FD2AC06B
:100C000087EE35C08091430283FF26C0F5CF8091E7
:100C1000430283FD21C08091440281FD1FC0ECCFBF
:100C20008091430285FD1CC01DC08091430285FD5B
:100C300019C016C08091430286FD16C017C080916E
:100C4000430286FD13C010C089E311C082EE0FC0BD
:100C500080EE0DC080E00BC086EE09C084EE07C0B8
:100C600089E205C085E303C08AE201C081E390E028
:100C700008959091430292FF0DC0282F28712830CB
:100C800019F4877F846006C0282F2471243011F462
:100C90008B7F886093FF0DC0282F2871283119F4AD
:100CA000877E846106C0282F2471243111F48B7E45
:100CB00088612091440220FF0DC0382F38713830F0
:100CC00019F4877F816006C0382F3171313011F4FB
:100CD0008E7F886021FF0DC0282F2871283119F4DC
:100CE000877E816106C0282F2171213111F48E7E0B
:100CF000886194FD877E0895E82FF0E0E95CFD4F60
:100D000080810895089580EA8A95F1F708950895FD
:100D10000C9487060C9488060C9487060C948C0619
:100D2000F894E82FE295EF70F0E031A1282F2F70B2
:100D300081E090E001C0880F2A95EAF7982F9095FE
:100D4000932391A392A1892B82A378940895CF93A2
:100D5000DF93CCE4D1E089910E94900681E0C43514
:100D6000D807C9F7C6E4D1E089910E94900681E0D6
:100D7000CC34D807C9F7EFE2F2E0A7E3B2E087E3AB
:100D800092E011921D928E179F07D9F788E00E947A
:100D90005007DF91CF910C9434048F929F92AF92C1
:100DA000BF92CF92DF92EF92FF920F931F93CF9358
:100DB000DF938CE4A82E81E0B82ECFE2D2E094E558
:100DC000E92E91E0F92E912C01E010E06501F5018A
:100DD0008081F894E82FE295EF70F0E021A18F7008
:100DE000A80102C0440F551F8A95E2F7CA01922F4D
:100DF000982B91A392A18095892382A378940E9435
:100E00008306E6E4F1E020E030E0812C4191A42F5C
:100E1000A295AF70B0E090968C9190E04F7002C0B8
:100E2000959587954A95E2F780FD07C0802F022EA1
:100E300001C0880F0A94EAF701C080E0882A2F5F7A
:100E40003F4F2630310511F75FEFA51AB50AF601BD
:100E500080810E9490068881881619F0888281E03E
:100E600001C080E0982A2196EA14FB0409F0AECF75
:100E7000292D48E067E372E08FE292E00E9451077B
:100E80000E943E04892DDF91CF911F910F91FF9019
:100E9000EF90DF90CF90BF90AF909F908F9008958C
:100EA0000895FF920F931F93CF93DF938C01F62E3B
:100EB000D72FC42F222349F081E0809396010E940E
:100EC0002F19909395018093940180919601882326
:100ED000C1F080919401909195010E944719069765
:100EE00080F0EF2DFD2FD8014C2F50E0CD01801B5D
:100EF000910B841795071CF48D918193F7CF109275
:100F00009601DF91CF911F910F91FF90089582E29A
:100F100090E00E940B24813281F483E290E00E94F1
:100F20000B24863051F484E290E00E940B2491E07F
:100F3000853209F090E0892F01C080E0817008952A
:100F4000CF93C82F811102C06FEF01C061E282E22E
:100F500090E00E941924C11102C06FEF01C066E049
:100F600083E290E00E941924C11102C06FEF01C01A
:100F700065E284E290E0CF910C94192480E00E9415
:100F8000A0070C94A017089585E290E00E940B241E
:100F9000682F70E080E090E0089585E290E00C9486
:100FA00019240E94C3070E94870781110CC060E0CA
:100FB00070E0CB010E94CD070E9421090E94000A27
:100FC00081E00C94A0070895CF93FB01C281CC234C
:100FD000E9F09C0122513F452031310520F4825136
:100FE0000E94100A0CC08031FFE59F0751F481E098
:100FF0000E94841543E062E081E00E942204C0E088
:1010000018C081319F45A9F482E0F2CF8031EFE52D
:101010009E0711F481E004C081319F4549F482E0CC
:101020000E94A51543E062E081E00E94220401C015
:10103000C1E08C2FCF9108952FEFFC0120830895FC
:10104000EF92FF920F931F93CF93DF93EC01162F34
:10105000E8818E2F90E0FC013197E331F10508F033
:10106000A3C0EA5AFF4F0C94EA23198289E04DC0CD
:101070008981823039F0833061F0813029F50E9416
:101080003B1902C00E94C4079A838B837C836D83C3
:101090008DC07E0122E0E20EF11C00E0802F0E9454
:1010A0007C06F70181937F010F5F0830B9F77EC09E
:1010B0008981823049F46A817B818C819D810E9483
:1010C000F0230E94CD0772C0612FCE010E941C0840
:1010D0006DC04B816A8189810E94F3089C838D8356
:1010E00065C02C813D813227232732274B816A81BD
:1010F00089810E940C095AC00E94210957C00E9490
:10110000B30924C00E94B50999838A834FC06B81BB
:1011100070E089819A81AE014C5F5F4F98278927E3
:1011200098270E94B80942C06B8170E089819A813A
:10113000AE014C5F5F4F9827892798270E94DD09F1
:1011400035C00E94000A32C00E94E00889832EC088
:101150006B8170E089819A81AE014C5F5F4F982767
:10116000892798270E94600921C06B8170E08981DE
:101170009A81AE014C5F5F4F9827892798270E947C
:10118000840914C00E94BE0711C0CE010E94FB1C3E
:10119000FFEF21EE84E0F15020408040E1F700C0F5
:1011A00000000E947C1902C08FEF8883612FCE015E
:1011B000DF91CF911F910F91FF90EF900C94FB1C4A
:1011C00084E0089550E0440F551F2CE0629F400DCD
:1011D000511D11249A0160E6869F200D311D1124B6
:1011E000C901869608950F931F93CF93DF930E94B2
:1011F000E2088C010E940B24C82FD0E0DC2FCC2702
:10120000C80101960E940B249E01282BC901DF9181
:10121000CF911F910F9108950F931F93CF93DF9359
:10122000122F032F0E94E208EC01602F0E94192464
:10123000612FCE010196DF91CF911F910F910C94F8
:101240001924AF92BF92CF92DF92EF92FF920F9349
:101250001F93CF93DF93A12CE12CF12CB12C00E054
:1012600010E0C0E0D0E06701C00ED11EFE01EE0F1D
:10127000FF1FEC0DFD1DE65EFE4F259134914C2FB6
:101280006B2D8A2D0E940C092196C630D10571F76D
:10129000045F1F4FB39488E0B812E3CF80E6E80EF6
:1012A000F11CA39484E0A812D9CFDF91CF911F91B4
:1012B0000F91FF90EF90DF90CF90BF90AF90089587
:1012C000EF92FF920F931F93CF93DF93EA017A017E
:1012D000E60EF71E8C01C8018696CE15DF0569F073
:1012E000003821E0120720F40E940B24888301C0FB
:1012F000188221960F5F1F4FEECFDF91CF911F9184
:101300000F91FF90EF900895EF92FF920F931F932C
:10131000CF93DF93EA017A01E60EF71E8C01C80134
:101320008696CE15DF0559F0003821E0120718F433
:1013300068810E94192421960F5F1F4FF0CFDF9123
:10134000CF911F910F91FF90EF900895462F843019
:1013500038F4783028F4663018F4672F0C94F308CA
:1013600080E090E0089580E108958AE592E0089594
:10137000EF92FF920F931F93CF93DF93EA017A01CD
:10138000E60EF71E8C01C8018A559E4FCE15DF056B
:1013900069F00A3522E0120720F40E940B248883AA
:1013A00001C0188221960F5F1F4FEDCFDF91CF91C3
:1013B0001F910F91FF90EF900895EF92FF920F937E
:1013C0001F93CF93DF93EA017A01E60EF71E8C019B
:1013D000C8018A559E4FCE15DF0559F00A3522E027
:1013E000120718F468810E94192421960F5F1F4F7D
:1013F000EFCFDF91CF911F910F91FF90EF90089564
:10140000CF93DF93C6EAD1E060E0CE010E941924B9
:101410002196C11584E0D807B9F7DF91CF910895DF
:10142000DF92EF92FF920F931F93CF93DF9300D041
:1014300000D0CDB7DEB7F82E8FE08F15E8F18FEF33
:1014400093E00E940B24811137C006EA11E0FF20CF
:1014500069F0011584E0180779F1C8010E940B2496
:10146000811101C0FA940F5F1F4FF1CF19821A82C8
:101470001B821C82DD24D39478018FEFE81AF80ACE
:10148000C8010E940B2489831A828823A9F09FEF48
:10149000980F933058F48A83D9820E5F1F4FC7018B
:1014A0000E940B248B83882339F07801CE010196AA
:1014B0000E94B7038701E0CF0F900F900F900F901D
:1014C000DF91CF911F910F91FF90EF90DF900895E2
:1014D000AF92BF92CF92DF92EF92FF920F931F9342
:1014E000CF93DF937C015B01C42FD22FFC0182815B
:1014F0008823F9F0409399010E942F199093980145
:101500008093970180E28C0F883008F06EC0C7701E
:1015100081E001C0880FCA95EAF7DF91CF911F9152
:101520000F91FF90EF90DF90CF90BF90AF900C9411
:10153000210F80919901481335C0809197019091B6
:1015400098010E9447196C01B701C5010E946114FE
:10155000C816D90638F510E21D0FCD17B9F080E294
:101560008C0F883040F4C77081E001C0880FCA95A5
:10157000EAF70E94280F183058F581E09D2F9770E8
:1015800001C0880F9A95EAF70E94210F802F0E94D0
:101590000E0F183050F5D77081E001C0880FDA9532
:1015A000EAF70AC080E28C0F8830F8F4C77081E057
:1015B00001C0880FCA95EAF7DF91CF911F910F9173
:1015C000FF90EF90DF90CF90BF90AF900C94280FDA
:1015D000802FDF91CF911F910F91FF90EF90DF90BF
:1015E000CF90BF90AF900C940E0FDF91CF911F91D1
:1015F0000F91FF90EF90DF90CF90BF90AF90089544
:101600000F939C01CB01243F4CE5340731F188F462
:10161000293DFCE53F07D9F02A3D4CE5340779F137
:10162000283D3C45A9F506E221EE41EE68ED7CE55A
:101630002BC0263FFCE53F07E1F0A8F0273F3C45E3
:1016400039F507E225EE46EE67EF7CE51DC007E2BF
:1016500025EE45EE69ED7CE517C006E221EE40EE91
:1016600064EF7CE511C007E225EE44EE65EF7CE512
:101670000BC006E221EE42EE66EF7CE505C008E213
:1016800021E045EE6AED7CE50E94680A80E008C032
:10169000FC018281882319F01092990101C081E038
:1016A0000F910895CF93DF93EC01FB018281882392
:1016B00009F41FC1C230FCE5DF0708F41BC1C631C5
:1016C0009CE5D90738F09E012B5F3C452930310558
:1016D00008F010C10E94BE17909344028093430209
:1016E000C031ECE5DE0709F4C3C008F041C0C830E2
:1016F0008CE5D80709F49AC0F0F4C430ECE5DE07B5
:1017000009F487C068F4C2308CE5D80709F477C0C3
:10171000C330DC4509F0E3C080914302826076C0AB
:10172000C630ECE5DE0709F46EC008F07BC080919E
:10173000430288606BC0CC308CE5D80709F485C0C3
:1017400068F4CA30ECE5DE0709F474C008F079C02B
:101750000E94A81180914302806858C0CE308CE569
:10176000D80709F476C008F07FC0809143028BC08F
:10177000CC3FECE5DE0709F44FC018F5C3318CE52A
:10178000D80709F47DC078F4C131ECE5DE0709F42F
:1017900073C0C231DC4509F0A2C00E94A81180913B
:1017A00043028F7733C0C5318CE5D80709F472C086
:1017B00008F486C0CB3FDC4509F091C0809144021B
:1017C0003EC0C115FDE5DF0709F45FC058F4CE3F08
:1017D0009CE5D90709F444C008F43FC08091440255
:1017E00082602DC0C230FDE5DF0709F475C008F442
:1017F0005DC0C330DD4509F072C080E06EC08091ED
:101800004302816003C08091430280618093430260
:1018100066C08091430211C080914402826080932F
:1018200044025DC0809143028062F0CF8091430208
:101830008064ECCF8091430288608460E7CF816050
:10184000EECF809143028E7FE1CF809143028D7F66
:10185000DDCF80914302877FD9CF8091440218C0A9
:10186000809144028D7FDBCF809143028F7ECECF6B
:10187000809143028F7DCACF809143028F7BC6CF78
:1018800080914302877F8B7FC1CF809144028D7FFF
:101890008E7FC5CF8091430282FB222720F991E001
:1018A000922790FB82F990FB83F9B0CF809144029C
:1018B000982F909591708E7F892B90FB81F9AFCFF7
:1018C0000E94A8118091430287FB222720F991E012
:1018D000922790FB87F99ACF81E00E94541880915B
:1018E0004302909144020E94CF170E94A81180E009
:1018F00001C081E0DF91CF910895CF93DF938631CE
:101900009C4541F5EB010E94FC16982F8A8120919D
:10191000000130910101882379F09A7A81E009F47D
:1019200080E080939A01911102C069E201C065E3F1
:10193000C9010E949B180AC080919A01811102C0BE
:1019400069E201C065E3C9010E949D180E943D172C
:1019500080E001C081E0DF91CF9108959093A001D4
:1019600080939F010895E0919F01F091A00130972D
:1019700021F00190F081E02D099480E00895E0913C
:101980009F01F091A001309721F00280F381E02DBA
:1019900009940895E0919F01F091A001309739F0EA
:1019A00022E0DC012C930480F581E02D0994089558
:1019B00020919D0130919E012817390771F0909375
:1019C0009E0180939D01E0919F01F091A0013097CD
:1019D00021F00680F781E02D0994089520919B0164
:1019E00030919C012817390771F090939C018093E6
:1019F0009B01E0919F01F091A001309721F00084BC
:101A0000F185E02D0994089585B7806885BF85B775
:101A1000806885BF089581E008950C940B0D0895AA
:101A20000C940F0D0C940F0D0C94120D0C940F0DC3
:101A30000C94160D0C940F0D0E94040D0E941A0DAB
:101A40000C94180D0E9426190E94A7060E94D10727
:101A50000E94A3190C94140DAF92BF92CF92DF9203
:101A6000EF92FF920F931F93CF93DF93CDB7DEB723
:101A70002A970FB6F894DEBF0FBECDBF0E94100D9F
:101A80000E940F0D0E94CD060E940D0D811111C004
:101A90008FEF89838A831B820E942F198160782FA0
:101AA0009D838C8349815A816B818D810E94C80DF1
:101AB00040C082EAA82E81E0B82E00E010E0C02EDF
:101AC000802F0E947C06E82EF501D1905F01D82678
:101AD00031F40F5F1F4F0830110589F7D9CF80917E
:101AE000160281FD0E94820680E0FF24F3949D2D62
:101AF0009F21D1F08E83CF82EF2081E009F480E036
:101B000088870E942F198160782F9A8789874E8154
:101B10005F8168858A850E94C80DF801EE55FE4FE9
:101B20008081F826F08205C08F5FFF0C8630F9F6C1
:101B3000D0CF0E94521B0E94B30C9091A101891733
:101B4000B1F00E94B30C8093A1012A960FB6F894CD
:101B5000DEBF0FBECDBFDF91CF911F910F91FF90E0
:101B6000EF90DF90CF90BF90AF900C949A042A969C
:101B70000FB6F894DEBF0FBECDBFDF91CF911F919E
:101B80000F91FF90EF90DF90CF90BF90AF900895AE
:101B9000CF93DF93CDB7DEB72B970FB6F894DEBFA8
:101BA0000FBECDBF4F83588769877A878B87DE0149
:101BB000119686E0FD0111928A95E9F785E0FE0114
:101BC000379601900D928A95E1F749815A816B8190
:101BD0007C818D819E810E9464142B960FB6F894AF
:101BE000DEBF0FBECDBFDF91CF910895FC01808194
:101BF00091810E94BD160895CF93882309F4A4C053
:101C0000C82F8238C1F40E94B30C81FD9DC069E3E6
:101C100080910001909101010E949B180E943D1744
:101C20002FEF81EE94E0215080409040E1F700C01A
:101C3000000069E319C0833801F50E94B30C80FDF0
:101C400083C063E580910001909101010E949B187F
:101C50000E943D172FEF81EE94E02150804090408C
:101C6000E1F700C0000063E580910001909101015F
:101C70000E949D18CF910C943D178438C1F40E94A6
:101C8000B30C82FD61C067E4809100019091010175
:101C90000E949B180E943D172FEF81EE94E0215087
:101CA00080409040E1F700C0000067E4DDCF8CEF9A
:101CB0008C0F813AD0F46C2F80910001909101013A
:101CC0000E946518882349F06C2F80910001909143
:101CD00001010E949D180E943D176C2F8091000108
:101CE000909101010E949B18C5CF80E28C0F883033
:101CF00048F4C77081E001C0880FCA95EAF70E94D6
:101D0000FF16B8CFEBE5EC0FE33040F4F0E0EE5710
:101D1000FE4F808190E0CF910C94D80CE8E5EC0F59
:101D2000E73150F4F0E0EE0FFF1FEC5AFE4F8081D8
:101D30009181CF910C94EE0CC03F30F08C2F0E941B
:101D4000471ACF910C94341BCF910895882309F43E
:101D500064C0823879F40E94B30C81FF5EC069E3ED
:101D600080910001909101010E949B180E943D17F3
:101D700069E310C08338B1F40E94B30C80FF4DC0FA
:101D800063E580910001909101010E949B180E94DF
:101D90003D1763E580910001909101010E949D181B
:101DA0000C943D17843879F40E94B30C82FF35C03F
:101DB00067E480910001909101010E949B180E94AC
:101DC0003D1767E4E7CF9CEF980F913A10F4682F26
:101DD000E1CF90E2980F983050F4877091E001C005
:101DE000990F8A95EAF7892F0E940517D9CF9BE5AD
:101DF000980F933020F480E090E00C94D80C98E594
:101E0000980F973120F480E090E00C94EE0C803F26
:101E100020F00E94AF1A0C94341B0895CF93C82F62
:101E20000E94FC0DC93349F42FEF87EE93E0215057
:101E300080409040E1F700C000008C2FCF910C94BF
:101E4000A60E882321F00E94FF160C943D170895DA
:101E5000882321F00E9405170C943D170895CF9216
:101E6000DF92EF92FF920F931F93CF93DF937C014A
:101E7000D62FC72FFC01058102950F701281111119
:101E80000E941C170E94F516882399F0112389F0EF
:101E90008C2F807F803421F080E28D0F883048F0D5
:101EA00082E00E9487170E94F51691E0D82ED9266D
:101EB00001C0D12CCC2EC2948FE0C8228C2D90E092
:101EC0008C30910508F0B6C1FC01E759FF4F0C9426
:101ED000EA238C2F807FCF70882311F0C295C07FBA
:101EE000112399F0CC2309F491C180E28D0F883041
:101EF00010F0D11104C08C2F0E94FF1603C08C2F4C
:101F00000E940F170E943D1781C18D2F0E94A60EBF
:101F1000CC2309F48FC180E28D0F883010F0D111ED
:101F200004C08C2F0E94051703C08C2F0E94151728
:101F30000E943D177FC18C2F807FCF70803211F0BF
:101F4000C295C07FDD2319F0D130C9F022C0112322
:101F500071F0002341F0013031F40E9422178C2BE4
:101F60000E942A1767C10E9422178C2B1DC00023D4
:101F700019F0013009F45EC10E94331725C0112306
:101F800021F0063008F056C10EC0053008F052C1ED
:101F90001BC0112361F0002331F0F701858180FF20
:101FA00035C18F7085838C2F0E94210F43C1002380
:101FB00059F0D93309F03BC1FFEF07EE13E0F150C0
:101FC00000401040E1F731C18C2F0E94280F32C130
:101FD0008C2F86958695837019F0813061F02AC127
:101FE000112321F08D2F9C2F937002C080E090E090
:101FF0000E94D80C27C1112321F08D2F9C2F9370A4
:1020000002C080E090E00E94EE0C1CC18D2F1123D5
:1020100019F00E94471A02C00E94AF1A0E94341B96
:1020200011C18C2F837009F047C0111107C12D2FEA
:10203000229526952770220F220F6D2F6F70862F05
:1020400090E0A0E0B0E0022E04C0880F991FAA1F04
:10205000BB1F0A94D2F7D4FF10C04FE050E060E0FD
:1020600070E004C0440F551F661F771F2A95D2F7F2
:10207000409550956095709503C040E050E0BA01DE
:10208000C695C695C3708A019B01082B192B2A2B74
:102090003B2BC901B801C23049F058F4C13019F0E6
:1020A0000E943815CBC00E942615C8C00E944A1550
:1020B000C5C00E942415C2C0112319F08C2F817055
:1020C00001C08695882309F4B9C02D2F2295269545
:1020D0002770220F220F6D2F6F70862F90E0A0E0E7
:1020E000B0E0022E04C0880F991FAA1FBB1F0A94DC
:1020F000D2F7D4FF10C04FE050E060E070E004C0C1
:10210000440F551F661F771F2A95D2F740955095AB
:102110006095709503C040E050E0BA01C695C69541
:10212000C3708A019B01082B192B2A2B3B2BC90159
:10213000B801C23049F058F4C13019F00E94FD15C1
:102140007DC00E94EB157AC00E940F1677C00E94D6
:102150005E1574C0CF70112339F08C2F0E94841546
:102160008D2F0E94210F6AC08D2F0E94280F8C2F67
:102170000E94A51563C0D23F01F128F4D03F41F081
:10218000D13FA1F03FC0D33FF9F0D43F39F13AC07D
:10219000112341F0053008F04DC08C2F8F710E9443
:1021A000CA1548C0063008F045C0F7CF112339F0F2
:1021B0008C2F8F710E9484153DC01123C9F38C2F81
:1021C0008F710E94A51536C0112329F08C2F8F71B5
:1021D0000E946F152FC00E946A152CC0112349F070
:1021E000CF718C2F0E94841563E08C2F0E94721790
:1021F00021C081E00E9487170230E0F082E00E9457
:10220000871718C0112331F0002391F28D2F0E94FF
:10221000FC0D10C0002399F2D93349F41FEF27EECB
:1022200033E0115020403040E1F700C000008D2F16
:102230000E94A60E88EF8C0D843020F40E94B30C0F
:102240000E949A04DD20C9F00E94F11680FD15C09D
:10225000F70112820E94EB160E948415C7010E94AA
:102260005E110E94EB16DF91CF911F910F91FF90AD
:10227000EF90DF90CF900C94A515DF91CF911F9137
:102280000F91FF90EF90DF90CF9008950F931F93E1
:10229000CF93DF93EC01688179818A810E94C8160F
:1022A0008C010E9421160E941215B801CE010E94D5
:1022B0002F0FDF91CF911F910F910895CF93DF934F
:1022C000EC01988189812B813C81232B31F08F3F58
:1022D00031F481E09F3F19F403C081E001C080E048
:1022E00080FD19C0CE010E94500481110CC00E94D3
:1022F000F516882381F08A81882369F082E0DF91D6
:10230000CF910C948717CE010E944611CE01DF9128
:10231000CF910C94F702DF91CF9108950E941C1782
:102320000E941F170E943D170E94651C0E94341BCB
:1023300080E090E00E94D80C80E090E00C94EE0CDD
:1023400080910001909101010E949F180C948E11C0
:102350000E940C170C94A011E92FE295EF704E2FFC
:1023600050E0FA013297EE30F105B0F4EB58FF4F30
:102370000C94EA23803F91F018F4883E68F40EC074
:10238000843F51F40BC0883E48F0813F29F406C0D9
:1023900093FB882780F9089580E0089581E00895EF
:1023A0000E94BD160E94AC110895CF93DF9300D018
:1023B00000D01F92CDB7DEB70F900F900F900F9007
:1023C0000F90DF91CF910895CF93DF9300D000D08D
:1023D00000D0CDB7DEB726960FB6F894DEBF0FBE9D
:1023E000CDBFDF91CF9108951F93CF93DF93C0911D
:1023F000AB0116E08091AC01C81799F0D0E01C9FAA
:10240000F0011D9FF00D1124E355FE4F40815181D5
:1024100062817381848195810E94E4112196C77045
:10242000E9CFDF91CF911F9108954091DD01509147
:10243000DE016091DF017091E0018091E1019091F6
:10244000E2010C94E4110F931F93CF93DF938091DB
:10245000E20182958F7009F05DC08091DF018823D1
:1024600009F458C08091AB011091AC016091DD017D
:102470007091DE01C091E001D091E10191E06F3FE8
:1024800009F090E0292F06E0811709F443C0209756
:1024900021F07F3F21F030E003C031E001C0322F56
:1024A00090E030FD34C0089FF001099FF00D112429
:1024B000DF01A355BE4F11963C911197371327C0EA
:1024C0003C91361324C012963C91129731111FC0D3
:1024D00013964D915C9114974C1B5D0B483C510534
:1024E000B0F48091E2018F7080618093E201EE543C
:1024F000FE4F80818F70806180838DED91E00E941E
:102500005E11DF91CF911F910F910C94F411019600
:102510008770BACFDF91CF911F910F9108959F924D
:10252000AF92BF92CF92DF92EF92FF920F931F93E1
:10253000CF93DF93CDB7DEB761970FB6F894DEBFC8
:102540000FBECDBF8C0185E0F801DE011D96019024
:102550000D928A95E1F7F80140815181E2809091D6
:10256000DD016091DE012091E0013091E101211552
:10257000310531F06F3F31F481E09F3F19F403C022
:1025800081E001C080E0F82FF1709F2E80FD46C1F0
:10259000F801A380B4808DEDC82E81E0D82EF09094
:1025A000DF01F501E21BF30BFF2009F4DFC080918E
:1025B000E201E83CF10508F09BC0282F207F09F0DC
:1025C00052C0561313C0491311C0FE2CE1100EC0A7
:1025D0008F7080618093E2010E941512C6010E94F3
:1025E0005E118091E201F801858358C1AB2831F07A
:1025F0005F3F31F481E04F3F19F403C081E001C037
:1026000080E080FD03C081E08E2502C080E090E084
:10261000F82FF170FF2E80FF1CC08091AB0120913C
:10262000AC0136E0821709F417C190E0389FF00141
:10263000399FF00D1124E355FE4F6181561306C0FA
:102640006081461303C06281E61203C00196877061
:10265000E9CFFE2CEE2009F421C18091E2018160D6
:102660008093E2015AC0561306C0491304C0E1101A
:1026700002C0F8019FC04D875E878D859E850E94B0
:10268000D011882379F1EE2069F12091E201822FA7
:1026900082958F7090E0029774F08091DD019091A7
:1026A000DE0198878F831986BB86AA862C87CE0188
:1026B00007960E945E1186E0F801ADEDB1E0019051
:1026C0000D928A95E1F70E9423120E9415120DC007
:1026D000561729F14D875E878D859E850E94D01102
:1026E00081112CC0C8010E945E11FF24F394D6C052
:1026F000282F207F69F77A2DB98AA88A6E2D8989BB
:102700000E94D5118DED91E00E945E1186E0F601E8
:1027100011928A95E9F70E941512F12CBFC0491356
:10272000D9CFE110D7CFF8018583C8010E945E118F
:1027300086E0F60111928A95E9F7B0C0EE2091F299
:102740002091E201822F82958F7090E002970CF425
:10275000B2CF8091DD019091DE019A8389831B8243
:10276000BD82AC822E83CE010196A3CFE83CF10559
:1027700008F047C0FE2CEE2009F4B4CF561330C049
:1027800049132EC02091E20120FD21C0822F8295A5
:102790008F70482F50E041155105C9F0F80125838D
:1027A0004F30510541F08F5F982F9295907F822F87
:1027B0008F70892B8583C8010E945E1186E0F80125
:1027C000ADEDB1E001900D928A95E1F742C086E04F
:1027D000F801ADEDB1E001900D928A95E1F75EC090
:1027E0004D875E878D859E850E94D011811163CFB4
:1027F0008091E20181608093E201C8010E945E1134
:102800004DC07A2DB98AA88A6E2D89890E94D5116A
:1028100086E0F60111928A95E9F71BC0EE2009F4D3
:1028200061CF4D875E878D859E850E94D011F82EE1
:10283000882309F457CF86E0F801ADEDB1E00190AF
:102840000D928A95E1F78DED91E00E94F60D0E94C0
:1028500023120E94151222C04D875E878D859E85AA
:102860000E94BD16292F22952F70223028F49F70C8
:1028700039F0811105C00BC0243028F49F7049F451
:10288000805E883020F0C8010E945E119F2CF92CD8
:1028900005C0F8019581907F99F7F9CF8F2D61964A
:1028A0000FB6F894DEBF0FBECDBFDF91CF911F9161
:1028B0000F91FF90EF90DF90CF90BF90AF909F90DF
:1028C000089588EC90E008951F93CF93DF93CDB7E0
:1028D000DEB72C970FB6F894DEBF0FBECDBF4F8387
:1028E000588769877A878B879C87CE0107960E94D5
:1028F0008F128823D1F09F8188852A853B85232BE1
:1029000031F08F3F31F481E09F3F19F403C081E043
:1029100001C080E080FD47C04F81588569857A8578
:102920008B859C850E94E4113EC086E0FE013796AF
:10293000DE01119601900D928A95E1F7FF81E885FD
:102940006A857B856115710531F0EF3F31F481E0D7
:10295000FF3F19F403C081E001C080E080FD23C087
:102960002091AC0130E0C901019687709927409110
:10297000AB0150E084179507F1F1F983EA837D8379
:102980006C8396E0929FD001939FB00D1124A355C4
:10299000BE4FFE01319601900D929A95E1F780931A
:1029A000AC010E94F41116E08091AB019091AC0152
:1029B000891771F1189FC001112483559E4F0E9401
:1029C0008F12882329F1E091AB011E9FF0011124A1
:1029D000E355FE4F408151816281738184819581ED
:1029E0000E94E4118091AB0190E0019687709927D5
:1029F0008093AB01D9CF0E94A8111092AC01109224
:102A0000AB01EDEDF1E086E0DF011D928A95E9F77B
:102A10002C960FB6F894DEBF0FBECDBFDF91CF91DD
:102A20001F910895089508950C9413150C9414158E
:102A30000E941615609305027093060280930702A8
:102A4000909308020C948E110C9418150F931F93F9
:102A500000910502109106022091070230910802B0
:102A6000602B712B822B932B1F910F910C941815B7
:102A70000F931F9300910502109106022091070207
:102A80003091080260237123822393231F910F91B9
:102A90000C9418150F931F930091050210910602D4
:102AA000209107023091080260277127822793271F
:102AB0001F910F910C9418150C9413150E945C151E
:102AC00060930102709302028093030290930402C8
:102AD0000C948E1160E070E0CB010C945E150F93A6
:102AE0001F9341E050E060E070E08A019B0104C068
:102AF000000F111F221F331F8A95D2F7C901B80199
:102B00001F910F910C945E150F931F9341E050E0BD
:102B100060E070E004C0440F551F661F771F8A9560
:102B2000D2F78091010290910202A0910302B0912C
:102B300004028A019B01082B192B2A2B3B2BC9016C
:102B4000B8011F910F910C945E150F931F9341E0F4
:102B500050E060E070E004C0440F551F661F771F0F
:102B60008A95D2F7409550956095709580910102B5
:102B700090910202A0910302B09104028A019B018C
:102B8000082319232A233B23C901B8011F910F9160
:102B90000C945E150F931F9341E050E060E070E0ED
:102BA00004C0440F551F661F771F8A95D2F7809186
:102BB000010290910202A0910302B09104028A01E5
:102BC0009B01082719272A273B27C901B8011F9114
:102BD0000F910C945E150F931F93009101021091B9
:102BE00002022091030230910402602B712B822B90
:102BF000932B1F910F910C945E150F931F930091CF
:102C0000010210910202209103023091040260231C
:102C10007123822393231F910F910C945E150F93C0
:102C20001F93009101021091020220910302309142
:102C3000040260277127822793271F910F910C941C
:102C40005E150895292F220F920F990F890FE82FF3
:102C5000E695E695E695877051E001C0550F8A9597
:102C6000EAF785E0E89FF0011124ED51FE4F20E0E6
:102C700030E070E04081CB01022E02C0969587952E
:102C80000A94E2F7817081958427852384278193B4
:102C90002F5F3F4F2530310569F70895292F220F07
:102CA000920F990F890F682F669566956695982FF4
:102CB000977085E0689FB001112440E050E080E00B
:102CC000FB01E40FF51FED51FE4F208130E0092E8E
:102CD00002C0369527950A94E2F721703327042E17
:102CE00001C0220F0A94EAF7822B4F5F5F4F4530F5
:102CF000510531F70895BF92CF92DF92EF92FF9284
:102D00000F931F93CF93DF938C01C0900102D0905B
:102D10000202E0900302F09004028091050290917B
:102D20000602A0910702B0910802C82AD92AEA2A0D
:102D3000FB2ACFE1D0E0D701C6010C2E04C0B69526
:102D4000A795979587950A94D2F780FD04C021979F
:102D500090F7B12C07C0BC2EB8018C2F0E94A304A1
:102D60000197A9F38B2DDF91CF911F910F91FF90C8
:102D7000EF90DF90CF90BF900895CF93DF93EC0159
:102D80000E947B16BE010E94A304DF91CF9108959B
:102D90001F93CF93DF93EB019091AA01992321F028
:102DA000CB010E94BD1613C0882349F0CB010E94BD
:102DB0007B16182F682FCE010E94221604C0CB016B
:102DC0000E944E16182FBE01812F0E94A304DF918E
:102DD000CF911F91089580910902859585958595DC
:102DE0000895809109028770089590910902977063
:102DF00081E009F480E00895809115020895909192
:102E00001502892B809315020895809590911502E3
:102E100089238093150208951092150208959091C8
:102E20001402892B809314020895809590911402C6
:102E30008923809314020895109214020895109229
:102E40001302089580910A02089508950C9425179D
:102E50000C94261790910A02981721F080930A0289
:102E60000C942817089580910A02882329F0109263
:102E70000A0280E00C9428170895E0910001F09177
:102E80000101809115028083E0910001F091010120
:102E9000908180911402892B8083E0910001F09150
:102EA0000101908180911302892B808380910A0215
:102EB000882381F0E0910001F09101019081892B3C
:102EC000808380910001909101010E945918811125
:102ED0000E94331780910001909101010C94BF0C66
:102EE0000C94251798E0899F90011124262B20939C
:102EF00009020E9484158091090285958595859522
:102F00000C9470171092090280E00C9470172091B5
:102F100009028095822380930902982F977079F493
:102F200030E0482F082E000C550B2417350739F0D8
:102F30008595859585950E94A5150C948217089511
:102F40006FEF7FEF80E090E00C94372480E090E01A
:102F50000E94132421E08C3E9E4F09F020E0822F36
:102F6000089582E090E00C940B2483E090E00C94B0
:102F70000B24682F83E090E00C941924CF9384E015
:102F800090E00E940B24C82F81E290E00E940B2465
:102F90002C2F30E0A901582BCA01CF910895CF936F
:102FA000C92F682F84E090E00E9419246C2F81E2E1
:102FB00090E0CF910C941924AB01BC018FE090E01C
:102FC0000C942B24AB01BC0183E190E00C942B24E6
:102FD00060E070E0CB010C94E21760E070E0CB01A0
:102FE0000E94DC170C94E8176CEE7EEF80E090E016
:102FF0000E94372460E082E090E00E94192460E0A3
:1030000083E090E00E9419241092050210920602BB
:10301000109207021092080260E084E090E00E94A3
:10302000192460E081E290E00E94192460E085E0CC
:1030300090E00E94192460E086E090E00E9419244C
:103040006FEF87E090E00E94192440E050E0BA0161
:1030500088E090E00E942B2460E08DE090E00E94E8
:10306000192440E050E0BA0188E190E00E942B244E
:1030700060E087E190E00E94192440E050E0BA014E
:103080008CE190E00E942B2460E080E290E00E94BE
:10309000192440E050E0BA0188E190E00E942B241E
:1030A0000C94ED170C94F417682F8EE090E00C94BC
:1030B0001924FC01329697E080E0915029F021918B
:1030C0002223D9F38F5FF9CF0895662349F0FC01DD
:1030D000329608962191621729F0E817F907D1F77F
:1030E00080E0089581E008959C01FC0132969FEFF5
:1030F00080E04191461789F09F3F19F4411101C0CA
:10310000982F8F5F8630A9F79F3F39F0F901E90FBB
:10311000F11D97FDFA956283089508959C012A5F39
:103120003F4FFC014281461301C012820196821773
:103130009307B9F708950C9474180C948E1802969E
:1031400026E0FC0111922A95E9F7089508950C9460
:10315000A6180C94A618CF930E94A9180E94CD0619
:103160000E94A718C0E08C2F0E947C06811104C029
:10317000CF5FC830C1F701C081E0CF9108950C94B2
:10318000A6180C94BF180E94C1188091490284307F
:1031900049F11092170220E488E190E00FB6F8940C
:1031A000A895809360000FBE2093600080E00E948D
:1031B0009A040E94C11883B7817F846083BF83B75C
:1031C000816083BF7894889583B78E7F83BF0FB665
:1031D000F894A895809160008861809360001092B7
:1031E00060000FBE08950C94A6180E94A8110E94BA
:1031F000B30C0E949A040C94F3181F920F920FB60E
:103200000F9211248F939F93AF93BF9380911702D6
:10321000811113C080913F0290914002A091410220
:10322000B09142024196A11DB11D80933F0290933F
:103230004002A0934102B0934202BF91AF919F918F
:103240008F910F900FBE0F901F90189582E084BD54
:1032500093E095BD9AEF97BD80936E0008952FB7C8
:10326000F89480913F0290914002A0914102B09168
:1032700042022FBF08952FB7F89460913F027091DA
:10328000400280914102909142022FBF08959C011B
:103290004FB7F89480913F0290914002A091410273
:1032A000B09142024FBF821B930B089578941F92F6
:1032B0000F920FB60F9211248F939F93AF93BF93EA
:1032C00080913F0290914002A0914102B091420250
:1032D0000196A11DB11D80933F0290934002A093DF
:1032E0004102B0934202BF91AF919F918F910F9095
:1032F0000FBE0F901F90189587E797E790930108EE
:10330000809300089AE088E10FB6F894A89580931E
:1033100060000FBE90936000FFCF0C94BE070E9428
:10332000CD068FE39CE90197F1F700C000000E94F1
:10333000CD0680E00E947C0680FF04C00E948D19AB
:103340000C947C1908950E94A617811102C00E9456
:1033500052180E94B117809316020E94BE179093D4
:103360004402809343020E94B517682F70E080E00A
:1033700090E00E94241560910102709102028091F8
:103380000302909104020C945C1580911E0280FF50
:103390000BC06091070185E0689FB001112475950D
:1033A0006795759567952BC081FF09C060910701EE
:1033B00085E0689FB00111247595679520C082FF54
:1033C00007C06091070185E0689FB001112417C014
:1033D00090911D029923D1F060910601961788F70C
:1033E0002091070185E0289F90011124929FA00160
:1033F000939F500D112470E0CA010E94D6236038BB
:10340000710540F46115710519F406C065E070E0BE
:10341000862F08958FE7089581E0089580911E0218
:1034200080FF08C06091030170E075956795759500
:10343000679521C081FF06C06091030170E075951A
:10344000679519C082FF04C06091030170E010C04D
:1034500090911C02992399F0609102019617A0F7B0
:1034600080910301899FC001112470E00E94D6233E
:103470006038710540F46115710519F406C061E00A
:1034800070E0862F08958FE7089581E00895803FCA
:1034900021F40E94C519819504C0813F29F40E943E
:1034A000C519809322020895823F21F40E94C51914
:1034B000819504C0833F29F40E94C519809321029D
:1034C0000895893F19F40E940E1A05C08A3F31F40D
:1034D0000E940E1A81958093230208958B3F21F458
:1034E0000E940E1A819504C08C3F29F40E940E1A86
:1034F000809324020895843F21F48091200281600A
:1035000017C0853F21F480912002826011C0863F60
:1035100021F48091200284600BC0873F21F48091C8
:103520002002886005C0883F31F4809120028061CC
:103530008093200208958D3F21F480911E028160C6
:103540000BC08E3F21F480911E02826005C08F3F28
:1035500029F480911E02846080931E020895803FAA
:1035600039F48091220287FF6AC01092220267C05C
:10357000813F29F4809122021816BCF360C090911B
:103580002102823F29F497FF5AC01092210257C0AE
:10359000833F19F41916CCF352C090912302893F4E
:1035A00031F419160CF04BC01092230248C08A3F28
:1035B00019F497FF44C0F8CF8B3F39F4809124026F
:1035C00087FF3DC0109224023AC08C3F29F48091BD
:1035D00024021816BCF333C0843F21F480912002EA
:1035E0008E7F17C0853F21F4809120028D7F11C00E
:1035F000863F21F4809120028B7F0BC0873F21F40E
:1036000080912002877F05C0883F31F4809120029D
:103610008F7E8093200213C08D3F21F480911E0283
:103620008E7F0BC08E3F21F480911E028D7F05C0DE
:103630008F3F29F480911E028B7F80931E02809120
:103640002102811106C080912202811102C01092D4
:103650001D0280912302811106C0809124028111F4
:1036600002C010921C0208950E942F19209121027D
:10367000211104C020912202222321F090931B02E9
:1036800080931A0220912302211104C02091240268
:10369000222321F090931902809318028FE192E087
:1036A0000C94CA0CEF92FF920F931F93CF93DF936A
:1036B00000D000D000D0CDB7DEB786E0EFE1F2E079
:1036C000DE01119601900D928A95E1F7E0902102BA
:1036D000F090220200912302109124021092210204
:1036E000109222021092230210922402E11003C0D1
:1036F000FF2009F45DC080911A0290911B020E9484
:103700004719AC0190911D02992339F020910801CD
:1037100030E02417350758F04BC0209109018AE0AA
:10372000289F900111242417350718F041C09F3FAE
:1037300019F09F5F90931D02EE2061F00E94C51961
:103740001E1414F09FEF01C091E0989F902D11245A
:1037500090932102FF2061F00E94C5191F1414F0FC
:103760009FEF01C091E0989F902D11249093220229
:10377000309121023323E1F0209122022223C1F073
:1037800045EB3403C0011124992319F090932102D1
:1037900003C081E08093210235EB2303C001112493
:1037A000992319F09093220203C081E080932202B2
:1037B000011103C0112309F45DC08091180290919A
:1037C00019020E944719AC0190911C02992339F00B
:1037D0002091040130E02417350758F04BC02091A8
:1037E00005018AE0289F900111242417350718F05D
:1037F00041C09F3F19F09F5F90931C02002361F02E
:103800000E940E1A101614F09FEF01C091E0989FCD
:10381000902D112490932302112361F00E940E1A1F
:10382000111614F09FEF01C091E0989F902D112484
:1038300090932402309123023323E1F0209124025B
:103840002223C1F045EB3403C0011124992319F060
:103850009093230203C081E08093230235EB23037E
:10386000C0011124992319F09093240203C081E030
:10387000809324028091210281110BC08091220249
:10388000811107C080912302811103C0809124021D
:1038900081110E94341BEB82FC820D831E8386E023
:1038A000FE013196AFE1B2E001900D928A95E1F709
:1038B00026960FB6F894DEBF0FBECDBFDF91CF9135
:1038C0001F910F91FF90EF900895EFE1F2E086E0F5
:1038D000DF011D928A95E9F710921D0210921C02D9
:1038E00010921E02089580912D020895CF93DF93C8
:1038F00000D01F92CDB7DEB790914902943011F5F8
:1039000089837B836A839093E9008FEF9091E8002D
:10391000815095FD06C095ED9A95F1F70000811153
:10392000F5CF8091E80085FF0DC040E050E063E0F6
:1039300070E0CE0101960E94ED1E8091E8008E7726
:103940008093E8000F900F900F90DF91CF91089532
:10395000BC0184E00C94761CBC0183E00C94761CC2
:1039600024E02093E9002FEF3091E800215035FD4D
:1039700006C035ED3A95F1F700002111F5CF209101
:10398000E80025FF0BC040E050E066E070E00E94D8
:10399000ED1E8091E8008E778093E8000895CF9324
:1039A000DF9321E02093E9002FEF3091E8002150D0
:1039B00035FD06C035ED3A95F1F700002111F5CF40
:1039C0002091E80025FF14C0EC0140E050E068E0E1
:1039D00070E00E94ED1E8091E8008E778093E800F1
:1039E00088E0FE01A5E2B2E001900D928A95E1F730
:1039F000DF91CF910895CF93603219F5209149025C
:103A00002430F9F4C091E900CF703091EC00232FFD
:103A1000217030FD20E8C22B22E02093E9002091A4
:103A2000E80020FF0BC040E050E060E270E00E9440
:103A3000ED1E8091E8008E778093E800CF70C093F0
:103A4000E900CF91089580914802811109C00E9438
:103A5000C9200E9426218091E20084608093E200C8
:103A60000895109248020895089508950C94F51849
:103A700042E061EC81E00E94422042E261EC84E09D
:103A80000E94422042E261EC82E00E94422042E237
:103A900060EC83E00C94422080914B02833009F467
:103AA00062C030F4813071F0823009F49BC0089517
:103AB0008A3009F487C08B3009F46DC0893009F071
:103AC000A9C020C080914A02813A09F0A3C0809128
:103AD000E800877F8093E80080914E0290914F022A
:103AE000892B21F468E085E292E003C060E080E089
:103AF00090E070E00E94831F8091E8008B778093B4
:103B0000E800089580914A02813209F083C08091D3
:103B10004E0290914F02009719F0029709F07AC077
:103B20008091E800877F8093E8008091E80082FD23
:103B300005C0809149028111F8CF6CC02091F3003B
:103B40008091F20090E0922B029729F48091F1008D
:103B50008B7F813021F48091F10080932D02809140
:103B6000E8008B7753C080914A02813A09F052C035
:103B700080914E0290914F02892B09F04BC08091A9
:103B8000E800877F8093E8008091E80080FFFCCF09
:103B90008091140136C080914A028132D9F580911A
:103BA0004E0290914F02892BA9F58091E800877F02
:103BB0008093E8000E94772080914C02809314014A
:103BC0000C94A81180914A02813221F58091E8007D
:103BD000877F8093E8000E94772080914D02809338
:103BE0002E02089580914A02813AA1F48091E80062
:103BF000877F8093E8008091E80080FFFCCF809170
:103C00002E028093F1008091E8008E778093E80087
:103C10000C94772008951F93CF93DF93CDB7DEB731
:103C2000A0970FB6F894DEBF0FBECDBF84B7877FD5
:103C300084BF0FB6F894A895809160008861809346
:103C40006000109260000FBE90E080E80FB6F8941C
:103C500080936100909361000FBE0E941C0D0E9432
:103C6000C9200E9426218091E20084608093E200B6
:103C700078940E94BB230E94220D8AE091E00E946A
:103C8000AE0C13E080914902853069F40E94C3189C
:103C9000809147028823B1F30E94AB18882391F3E7
:103CA0000E94D71EEFCF0E942C0D809149028430D4
:103CB00009F51093E9008091E80082FF1BC0809114
:103CC000E80085FF0AC040E050E060E270E0CE010D
:103CD00001960E94381F91E001C090E08091E800B9
:103CE0008B778093E800992329F060E2CE0101965A
:103CF0000E9420080E94100D0E940F0DC3CF0C944B
:103D0000811E292F332723303105C9F060F421307B
:103D1000310581F02230310509F041C08BE590E09A
:103D20002EE633E040C021323105E1F02232310588
:103D300031F135C082E190E029EC33E034C09927BD
:103D40008130910549F028F0029749F5EAE3F3E064
:103D500005C0EAE6F3E002C0E0E5F3E0849190E01C
:103D60009F0121C063307105D0F4660F771FFB01FE
:103D7000E257FE4F2081318189E090E014C063302A
:103D8000710568F4FB01EE0FFF1FE857FE4F20811D
:103D90003181FB01EB57FE4F808190E004C080E051
:103DA00090E020E030E0FA0131832083089580E143
:103DB00089BD82E189BD09B400FEFDCF8091D800A4
:103DC0008F7D8093D8008091E00082608093E00036
:103DD0008091E00081FDFCCF0895CF92DF92EF92B9
:103DE000FF920F931F93CF93DF93EC018B017A0126
:103DF0000E949620811133C0E114F10439F0F701DB
:103E000080819181081B190BC80FD91FC12CD12C9F
:103E10000115110519F18091E80085FD16C080910A
:103E2000E8008E778093E800E114F10449F0F7018F
:103E300080819181C80ED91ED182C08285E00FC0D9
:103E40000E949620882321F30AC089918093F10073
:103E500001501109FFEFCF1ADF0ADACF80E0DF91BE
:103E6000CF911F910F91FF90EF90DF90CF90089529
:103E7000CF92DF92EF92FF920F931F93CF93DF9336
:103E8000EC018B017A010E949620811133C0E1146C
:103E9000F10439F0F70180819181081B190BC80FDB
:103EA000D91FC12CD12C0115110519F18091E80001
:103EB00085FD16C08091E8008B778093E800E114BF
:103EC000F10449F0F70180819181C80ED91ED18299
:103ED000C08285E00FC00E949620882321F30AC08B
:103EE0008091F100899301501109FFEFCF1ADF0A89
:103EF000DACF80E0DF91CF911F910F91FF90EF908B
:103F0000DF90CF90089520915002309151022617F2
:103F1000370748F06115710539F42091E8002E77D4
:103F20002093E80001C0B901FC0120E06115710592
:103F300079F1809149028823F1F18530F1F1809186
:103F4000E80083FD3CC08091E80082FD2EC0809196
:103F5000E80080FFEBCF2091F3008091F20090E029
:103F6000922B6115710551F08830910538F421913B
:103F70002093F100615071090196F3CF21E0089779
:103F800009F020E08091E8008E778093E800CECFA2
:103F90002111CFCF0AC080914902882361F085307A
:103FA00061F08091E80083FD0AC08091E80082FF03
:103FB000F2CF80E0089582E0089583E0089581E0E3
:103FC000089520915002309151022617370748F08A
:103FD0006115710539F42091E8002E772093E800EF
:103FE00001C0B901FC0120E06115710591F18091DA
:103FF0004902882309F440C0853009F43FC080910C
:10400000E80083FD3DC08091E80082FD2FC08091D3
:10401000E80080FFE9CF2091F3008091F20090E06A
:10402000922B6115710559F08830910540F4249167
:104030002093F1003196615071090196F2CF21E091
:10404000089709F020E08091E8008E778093E800DF
:10405000CBCF2111CCCF0AC080914902882361F0D7
:10406000853061F08091E80083FD0AC08091E8000E
:1040700082FFF2CF80E0089582E0089583E0089502
:1040800081E00895982F973068F59093E90098178C
:1040900039F07091EC002091ED005091F00003C0D8
:1040A000242F762F50E021FD02C09F5FECCF30918E
:1040B000EB003E7F3093EB003091ED003D7F30937D
:1040C000ED003091EB0031603093EB007093EC0029
:1040D0002093ED005093F0002091EE0027FDE5CFF6
:1040E00080E008958F708093E90081E008958091C9
:1040F0004A0287FF11C08091E80082FD05C08091CF
:1041000049028111F8CF11C08091E8008B770BC074
:1041100080914902882349F08091E80080FFF8CF20
:104120008091E8008E778093E80008952091E40064
:104130003091E50095E64091EC00842F817040FFBE
:1041400023C08091E80080FD1DC080914902882332
:1041500099F0853099F08091EB0085FD11C0409178
:10416000E4005091E5002417350729F3915011F030
:104170009A01E1CF84E0089582E0089583E00895F4
:1041800081E0089580E008954091E80042FFDDCF8E
:1041900008950E9437210E943F21E0EEF0E08081E7
:1041A00081608083E8EDF0E080818F77808319BCA7
:1041B000A7EDB0E08C918E7F8C9380818F7E808381
:1041C0001092480208950F931F93CF93DF930E949C
:1041D00037210E943F21C8EDD0E088818F77888306
:1041E00088818068888388818F7D888319BC10923C
:1041F000490210924502109247021092460200EEC8
:1042000010E0F80180818B7F8083888181608883C2
:1042100042E060E080E00E944220E1EEF0E0808138
:104220008E7F8083E2EEF0E08081816080838081F8
:1042300088608083F80180818E7F8083888180619F
:104240008883DF91CF911F910F910895E8EDF0E001
:1042500080818F7E8083E7EDF0E0808181608083C4
:1042600084E082BF81E0809348020C94E320E8ED73
:10427000F0E080818E7F80831092E200089510929A
:10428000DA001092E10008951F920F920FB60F927C
:1042900011242F933F934F935F936F937F938F934B
:1042A0009F93AF93BF93EF93FF938091E10082FFC1
:1042B0000BC08091E20082FF07C08091E1008B7FFC
:1042C0008093E1000E94BA238091DA0080FF1FC032
:1042D0008091D80080FF1BC08091DA008E7F809390
:1042E000DA008091D90080FF0DC080E189BD82E1B4
:1042F00089BD09B400FEFDCF81E0809349020E9490
:10430000231D05C019BC109249020E94311D8091E5
:10431000E10080FF19C08091E20080FF15C080910C
:10432000E2008E7F8093E2008091E20080618093C2
:10433000E2008091D80080628093D80019BC85E0AB
:10434000809349020E94351D8091E10084FF30C0B6
:104350008091E20084FF2CC080E189BD82E189BDAB
:1043600009B400FEFDCF8091D8008F7D8093D800E6
:104370008091E1008F7E8093E1008091E2008F7E4A
:104380008093E2008091E20081608093E20080915E
:104390004502882311F084E007C08091E30087FD87
:1043A00002C081E001C083E0809349020E94361D73
:1043B0008091E10083FF29C08091E20083FF25C046
:1043C0008091E100877F8093E10082E08093490241
:1043D000109245028091E1008E7F8093E1008091F0
:1043E000E2008E7F8093E2008091E2008061809302
:1043F000E20042E060E080E00E9442208091F00014
:1044000088608093F0000E94341DFF91EF91BF916E
:10441000AF919F918F917F916F915F914F913F915C
:104420002F910F900FBE0F901F9018951F920F9213
:104430000FB60F9211242F933F934F935F936F9377
:104440007F938F939F93AF93BF93CF93DF93EF931C
:10445000FF93C091E900CF708091EC00D82FD1700C
:1044600080FDD0E81092E9008091F000877F809372
:10447000F00078940E945A221092E9008091F00096
:1044800088608093F000CD2BCF70C093E900FF913E
:10449000EF91DF91CF91BF91AF919F918F917F91DC
:1044A0006F915F914F913F912F910F900FBE0F90A1
:1044B0001F9018951F93CF93DF93CDB7DEB7AA97C0
:1044C0000FB6F894DEBF0FBECDBFEAE4F2E08091F4
:1044D000F100819322E0E235F207C9F70E944C1DFA
:1044E0008091E80083FF2EC180914A0290914B0297
:1044F000492F50E04A30510508F024C1FA01ED5728
:10450000FF4F0C94EA23803821F0823809F01AC159
:1045100008C08091460290914702992389F08260F9
:104520000FC080914E028F70873008F00BC18093CE
:10453000E9008091EB0085FB882780F91092E90063
:104540009091E800977F9093E8008093F10010929B
:10455000F100D1C0282F2D7F09F0F4C0882319F075
:10456000823061F0EFC080914C02813009F0EAC0E6
:10457000933009F080E0809347022EC080914C0276
:1045800081112AC080914E028F702FEF280F2630A4
:1045900008F0D8C08093E9002091EB0020FF1CC0F8
:1045A000933021F48091EB00806214C09091EB0075
:1045B00090619093EB0021E030E0A90102C0440F2C
:1045C000551F8A95E2F74093EA001092EA00809125
:1045D000EB0088608093EB001092E9008091E80086
:1045E000877F8093E8000E947720ACC08111AAC029
:1045F00010914C021F778091E3008078812B80938B
:10460000E3008091E800877F8093E8000E94772094
:104610008091E80080FFFCCF8091E3008068809368
:10462000E300111102C082E001C083E080934902DF
:1046300089C08058823008F085C080914C029091EA
:104640004D028C3D53E0950779F583E08A838AE239
:1046500089834FB7F894DE01139620E03EE051E2E3
:10466000E32FF0E050935700E49120FF03C0E29560
:10467000EF703F5FEF708E2F90E0EA3010F0C7963A
:1046800001C0C0968D939D932F5F243149F74FBF92
:104690008091E800877F8093E8006AE270E0CE01B5
:1046A00001960E94831F16C060914E0270914F02C6
:1046B000AE014F5F5F4F0E947F1EBC01892B09F442
:1046C00041C09091E800977F9093E80089819A819A
:1046D0000E94E11F8091E8008B778093E80032C050
:1046E000803881F58091E800877F8093E800809191
:1046F00045028093F1008091E8008E7772CF81119E
:1047000021C080914C0290914D0299270297D4F4D8
:104710008091E800877F8093E80080914C0280932D
:1047200045020E94772080914502811106C0809148
:10473000E30087FD02C081E001C084E0809349026C
:104740000E94381D8091E80083FF0AC08091E80034
:10475000877F8093E8008091EB0080628093EB007C
:10476000AA960FB6F894DEBF0FBECDBFDF91CF91F2
:104770001F9108950895CF93809149028823A1F055
:10478000C091E900CF709091EC00892F817090FD6D
:1047900080E8C82B1092E9008091E80083FD0E9418
:1047A0005A22CF70C093E900CF91089597FB072E4E
:1047B00016F4009407D077FD09D00E94F72307FC78
:1047C00005D03EF4909581959F4F08957095619521
:1047D0007F4F0895EE0FFF1F0590F491E02D09948F
:1047E0006927962769277827872778270895AA1B9E
:1047F000BB1B51E107C0AA1FBB1FA617B70710F0CC
:10480000A61BB70B881F991F5A95A9F780959095FD
:10481000BC01CD010895F999FECF92BD81BDF89AF2
:10482000992780B50895A8E1B0E042E050E00C94EB
:104830003F24262FF999FECF92BD81BDF89A0197AA
:1048400000B4021639F01FBA20BD0FB6F894FA9AD8
:10485000F99A0FBE08950396272F0E941A240E94EA
:104860001924252F0E941A24242F0C941A2401960F
:10487000272F0E941A240C941924DC01CB01FC017F
:10488000F999FECF06C0F2BDE1BDF89A319600B4A9
:0E4890000D9241505040B8F70895F894FFCFB4
:10489E000B022808641E140A321E731CCF1CB01C97
:1048AE00AC1CA81C01E200E900EA00B500B600B796
:1048BE0000CD008301CC008A0192019401210223D4
:1048CE000224022502260227022A02B300B4006F38
:1048DE00007000818283946697C63435F4F5F6F73E
:1048EE0031333236E200E900EA00B500B600B70017
:1048FE00CD008301CC008A01920194012102230292
:10490E0024022502260227022A02B300B4006F00F9
:10491E0070008182834022817E04DB03FD038003CD
:04492E009903B9032D
:00000001FF
