:100000000C94CE030C9406040C9406040C94060481
:100010000C9406040C9406040C9406040C94060438
:100020000C9406040C9406040C948A1A0C94CC19B3
:100030000C948F210C9406040C9406040C94060472
:100040000C9406040C9406040C9406040C94060408
:100050000C9406040C9442210C9406040C9406049F
:100060000C9406040C9406040C9406040C940604E8
:100070000C9406040C9406040C9406040C940604D8
:100080000C9406040C9406040C9406040C940604C8
:100090000C9406040C9406040C9406040C940604B8
:1000A0000C9406040C9406040C9406046A08DE08FA
:1000B00072083C08400876084308790884084E080E
:1000C000D4085208880856088C08B6085A089008C0
:1000D000C00860089608A00847087D084A088008FC
:1000E00065089B08AC08CC08CE0838086E08E708FD
:1000F000BF09C509B309B909CB09D109D709BE0A96
:10010000BE0AEE0AEE0A9D0BBB0BEF0CEF0CC00B08
:10011000330C460C460C2313391340134F154F155F
:10012000781388139B13DD13E2130A142E1464143E
:10013000671473147D149514CD14DF140515271559
:10014000D817FF17B419FF17B4194B186E18B41944
:100150006F197F19FD377A585A000004E6D6B44665
:100160000200210116000000742FE5A3E005010143
:10017000435D003D8889C65436C3174FE4DCCAC6C8
:100180007FE4A08D34F7A9BD0BDA26750D5B18FB53
:1001900052172C21E56C5EE356855292958B6ABA14
:1001A0001BD4391517E7399FF30CA1940DBB6A22B4
:1001B000BDE79EE3B1C7A6DA1558AC196A50FED761
:1001C00014507AE9DA491F27FC0EA65A0A4B267BFF
:1001D00036428F2BBEE1E1C93D9FD4E881C9B37798
:1001E000E21652B2BFA303A1FFDBD0C45448DDA383
:1001F0000C53EB8BB68555946062C1D92F8A4B8E18
:10020000A78BDE7325674F3DA3225B64AC5DE1B332
:100210000D0B4934869FFC969BA07A6F89A7CEDD93
:100220007FDB46ACA4B5A4095E11C5204AF8C18B9A
:10023000660583B141C9CA14DCB646303F5BA2CB28
:100240001BF922112900B4EA3CC25328D26DF70AE7
:10025000AC4EF489248442D4DF621BCCA532045016
:1002600044BA32E41CD691B50E6AC3C322A0CFB5FE
:10027000F70F3789A43EC1AD2659F06D7A35A2DA61
:100280009C394A804058136AFC3DCFA09F1BB24264
:100290002FFF74FB7E8BA242AB74E6333CB0D5F6E5
:1002A000D1C98A7B66383B77E8E2B47D020B0887C8
:1002B000376FFD8AAD7100006FF503835006201B78
:1002C0000001DF02820A000021D23A10B1C467FBAC
:1002D000020000000004595A05010902A10185022B
:1002E0000901A10005091901290815002501950832
:1002F000750181020501093009311581257F9502BB
:100300007508810609381581257F950175088106D4
:10031000050C0A38021581257F950175088106C0F4
:10032000C005010980A101850319012AB700150143
:1003300026B700950175108100C0050C0901A101C7
:10034000850419012AA002150126A0029501751045
:100350008100C00660FF0961A1010962150026FF46
:10036000009520750881020963150026FF0095207D
:1003700075089102C005010906A101050719E029C8
:10038000E715002501950875018102950175088121
:10039000010507190029FF150026FF0095067508BD
:1003A000810005081901290595057501910295013E
:1003B00075039101C009025B00030100A0FA090462
:1003C0000000010301010009211101000122400088
:1003D0000705810308000109040100020300000071
:1003E00009211101000122220007058203200001DA
:1003F00007050303200001090402000103000000B7
:10040000092111010001227B00070584032000015E
:10041000120100020000000865320500010001021F
:1004200003011C037600690061006C003A0066005D
:1004300036003400630032006200330063000000C5
:10044000140343006F0072006E0065006C006900C9
:1004500075007300000014035900750073006800F4
:1004600061006B006F0062006F000000040309046C
:10047000000000000000000000000000000000007C
:10048000000000000000000000000000000000006C
:10049000000000007E0F00D4FFFFFFC700000078BF
:1004A00000000000000000002A2B280000000000CF
:1004B0000000000000000000000000290000000013
:1004C0002C1E3420212224342627252E362D373881
:1004D000271E1F202122232425263333362E37388A
:1004E0001F0405060708090A0B0C0D0E0F10111248
:1004F000131415161718191A1B1C1D2F3130232D14
:10050000350405060708090A0B0C0D0E0F10111211
:10051000131415161718191A1B1C1D2F3130354CC2
:100520002B0014001A000800150017001C0018000A
:100530000C00120013002A00290004001600070016
:1005400009000A000B000D000E000F0033003400FC
:10055000E1001D001B00060019000500110010003D
:10056000360037003800E5000000E000E300E2005C
:10057000777C2C002800787CE600E700E40000008F
:1005800001001E001F002000210022002300240083
:100590002500260027002A000100000000000000BE
:1005A000000000005000510052004F000000000009
:1005B000010000000000000000000000000000003A
:1005C0000000000000000000010001000100010027
:1005D0000100010001000100010001000100010013
:1005E00001001E021F022002210222022302240215
:1005F0002502260227022A00010000000000000058
:10060000000000002D002E002F02300231023500C4
:100610000100000000000000000000002D022E027A
:100620002F003000310035020100010001000100FF
:1006300001000100010001000100010001000100B2
:1006400001000000000000000000000000000000A9
:100650000000000000000000010000000000000099
:10066000000000000000000000000000000000008A
:100670000100000000000000000000000000000079
:100680000000000000000000010001000100010066
:100690000100010001000100010001000100010052
:1006A000010001001602C12CF42C0000020002001F
:1006B0001202C12CF42C0000030001001702C12C0F
:1006C000F42C000004000200FC01C12CF42C382C96
:1006D000050001001802C12CF42C000006000200E5
:1006E000FE01C12CF42C0000070002001402C12CF2
:1006F000F42C0000080001001902C12CF42C0000A9
:10070000090002000002C12CF42C132C0A00020084
:100710000202C12CF42C132C0B0002000402C12C89
:10072000F42C132C0C0002000602C12CF42C132C08
:100730000D0002000802C12CF42C132C0E00020044
:100740000A02C12CF42C132C0F0002000C02C12C45
:10075000F42C132C100002000E02C12CF42C132CCC
:10076000110002001002C12CF42C132C1200020004
:100770001A02C12CF42C0000130002001C02C12C30
:10078000F42C0000140001001E02C12CF42C000007
:10079000150000000000962B412C000011241FBE04
:1007A000CFEFDAE0DEBFCDBF04B603FE18C0809104
:1007B000CF049091D004A091D104B091D20487309D
:1007C000904BA740B04B59F41092CF041092D00434
:1007D0001092D1041092D204E0E0F8E3099511E000
:1007E000A0E0B1E0ECE7F9E602C005900D92A63773
:1007F000B107D9F724E0A6E7B1E001C01D92AF3CF4
:10080000B207E1F70E94570D0C94BC340C94000021
:10081000ACE0B0E0EEE0F4E00C946834DC01149657
:100820002C91222311F40C94530D7C0161E00E9461
:10083000FB308C01F7018581882309F18091ED025D
:100840009091EE020097D9F008171907C1F0FEE069
:100850008F9FC0011124FC01E957FC4F20812460C7
:1008600020838E579C4FDC010D931C930E945022D5
:100870001092EC0261E0C7010E94FB308C01F7018D
:100880003580332009F4C2C0C801975780389105DC
:1008900008F00DC1D02EFFE0F01710F40C94440DB9
:1008A0008FEF93E00E94D93381110C94440D0DEB2E
:1008B00012E0DD2079F0011524E0120711F40C9408
:1008C000440DC8010E94D933811101C0DA940F5F31
:1008D0001F4FEFCF19821A821B821C82AA24AA946E
:1008E00068013FEFC31AD30AC8010E94D933898334
:1008F0001A82882311F40C94440D813009F081C0D0
:10090000480142E0840E911CC6010E94D933B82EE2
:100910008A83882311F40C94440D8FEF8B0D833060
:1009200060F4680153E0C50ED11CC4010E94D933A4
:100930008B83811166C08601D3CF8BEF8B0D833003
:1009400078F5380183E0680E711CC4010E94D93328
:100950008B83811102C06301EECF680194E0C90E60
:10096000D11CC3010E94D9338C83882321F32B81AE
:100970003C812130AFEF3A0718F0922F80E001C0A0
:10098000C901B6E0BB1631F0E7E0BE1631F00E94B7
:10099000152FD1CF0E94F02ECECF0E94762ECBCF36
:1009A000F4E0BF1611F06401C6CFC4010E94D93330
:1009B000B82E680124E0C20ED11CC80103960E9423
:1009C000D933BB2011F40C94440D882311F40C94FA
:1009D000440D282F30E021503109A29EA001A39E92
:1009E000500D11248B2D90E00197840F951F0197D6
:1009F00008F4A1CFAFE9BFE01197F1F700C0000004
:100A0000F6CFCE0101960E94491695CF6801E7E521
:100A1000DE1AFFEFCF16D10411F008F062C068E7CC
:100A200073E08C2D0E94DA23892BE1F58EE08C9DFA
:100A3000F0018D9DF00D1124EE57FC4F8281813025
:100A4000C9F48091780390917903892B59F18091B1
:100A50007A0390917B03892B29F180917C039091FB
:100A60007D03892BF9F480917E0390917F03892B7C
:100A700049F018C08230B1F480917C0390917D03DD
:100A8000892B81F02EE02C9DC0012D9D900D11240D
:100A9000FC01E957FC4F20812E7F20838E579C4F0D
:100AA0000E945022D70115963C903320D9F00E3584
:100AB000BCE71B0761F00F35ECE71E0761F00D3551
:100AC000FCE71F0779F480910001811104C081E0E7
:100AD00080930001D9C71092000180E00E943B235F
:100AE000D3C7312C80910001811108C0C8019755EE
:100AF0008F3F910509F008F47AC1CAC1480120EE80
:100B0000821A910820905B0380914D03282A8091DE
:100B1000DB01282A38E08316910480F498012770BD
:100B2000332781E090E001C0880F2A95EAF733204F
:100B300011F0282A18C08095282215C0332009F406
:100B400016C110937901009378010E947721609378
:100B5000DE027093DF028093E0029093E102109234
:100B6000E6021092E502D7018D919C910E94D01B64
:100B700021E030E0F90102C0EE0FFF1F8A95E2F795
:100B8000FC87EB872091E7023091E80238872F83BA
:100B900040917801509179015A8749871D82432CF1
:100BA000512C5D81E52FF0E0EE0FFF1FED5BFB4F59
:100BB000C080D180C114D10409F4F0C0211005C057
:100BC000D60112968C918111CEC0F601838190E0FE
:100BD0002B853C8582239323892B09F4C4C080850F
:100BE000982F977009F487E038E08316910440F459
:100BF000332019F081FD09C0B6C082FD06C0B3C024
:100C0000332009F4B0C080FFAEC0D601AD90BC90D7
:100C10000A151B0519F4332009F4A5C0EF81F885E6
:100C2000CE16DF0609F49FC0D6011D96ED91FC910A
:100C30001E97309721F08081882309F494C0622D9B
:100C4000C6010E94AA23882309F48DC00A151B053A
:100C500011F4320102C0612C712CB62DB170BE832B
:100C600081E0A114B10441F0B11106C0E985FA8513
:100C7000AE16BF0609F080E080FF75C080E00E94DC
:100C80003B23D092E802C092E70281E08093E40225
:100C9000D60115968C918093E202BE81B11113C0EA
:100CA000AB2889F0F601808191819C0124503109A3
:100CB000213A310530F4682F83ED91E00E94B8218C
:100CC00002C00E942F20D6011696AD90BC901797B7
:100CD000C5019A9581159F4110F4E0EEBE2255247E
:100CE0005394C50101978F339E4708F0512CD601CC
:100CF0001996ED91FC911A97309739F01B966D91EA
:100D00007C911C9781E009955822552029F1F60124
:100D1000868197810E945F338093E302C501F8E0EA
:100D20008F16910418F40E94EA2216C00497813AA3
:100D3000910530F46A2D83ED91E00E94C5210EC02B
:100D40000E94A92A8FE39CE90197F1F700C00000F7
:100D50008A2D0E94652002C00E94A92A91E069267E
:100D600060FE5BC1C3CEAD81AF5FAD831ACF809112
:100D70007801909179010817190781F4109279018F
:100D8000109278011092DE021092DF021092E002BF
:100D90001092E1021092E6021092E5028091E702C1
:100DA0009091E802009709F4A1CEB8E08B16910467
:100DB00038F4622D0E94AA23811198CE81E014C0DC
:100DC000FC01208131810217130729F4311006C07C
:100DD0001092E40208C0332009F488CEDC01189692
:100DE0008C9185FD83CE80E00E943B237FCE58010D
:100DF000BB24BEE00B9FF00111249F012E573C4FF6
:100E00006901D70115969C911597E957FC4F808190
:100E100090FB80F9808315969C919923A1F10E9403
:100E200083219093910180939001F60182818F5FDD
:100E300082839091EC028091DB01892B83838091E6
:100E40005B0384830680F781E02D309739F0D6016B
:100E50001C966D917C911D97C60109958EE08A9D27
:100E6000F0018B9DF00D1124E957FC4F808181FF2B
:100E700003C090E080E002C0902F812F9093ED029C
:100E80008093EE0205C081FF03C0C9010E94362293
:100E90008091170280FF92C00E9483216C01F701AC
:100EA00085818823B1F180910C0182FF08C022E97D
:100EB00031E040E0B60180E090E00E94402604313D
:100EC000FCE71F07A9F005312CE7120751F00331A9
:100ED0003CE71307A1F480910C01816080930C0121
:100EE0000EC080910C01982F909590FB80F903C063
:100EF00080910C018E7F80930C010E940626C80110
:100F000090528115904358F51092230210922202BC
:100F100055C0013E110521F480910C018F7E06C061
:100F2000053E110531F480910C018F7D80930C01F9
:100F300016C0C80190528115904388F480910C012D
:100F400082FF3CC08091190281FD38C022E931E066
:100F500040E0B60180E090E00E9440262FC08091E2
:100F60000C0180FF2BC0D70115968C91083211051A
:100F700038F40E311105B8F40430110578F41CC0B2
:100F80000933110538F40D32110590F40B321105B7
:100F900079F012C00436110559F00EC09091170275
:100FA00094FD0AC02AC19091170293FD05C025C186
:100FB0009091170292FF21C1811132C0F801E851CE
:100FC000FC47E730F10508F4CAC1F701958191119A
:100FD00032C00631FCE71F0709F01BC28091DB011C
:100FE000282F2A7A3091160230FDECC131FDF0C174
:100FF00032FDF4C133FDF8C1992309F4FEC181E04B
:10100000211101C080E080937A01222309F4F3C109
:1010100065E383ED91E00E94C5210E94A92A34C5B1
:101020001092230210922202F801E851FC47E730A7
:10103000F10508F494C11092EB02C8019057839710
:1010400008F0BEC184E090E00E94E1339093CE04AA
:101050008093CD04F801E150F047E232F10520F42D
:10106000EA5AFF4F0C945B348091CD048160ACC090
:101070008091CE048860B4C08091CD048260A4C009
:101080008091CD0420C08091CD0488609DC0809166
:10109000CE041EC08091CE048260A2C08091CD0497
:1010A000806192C08091CD0480628EC08091CD0419
:1010B00080648AC00E94A41E8091CD04806884C090
:1010C0008091CD04886084607FC08091CE0482606E
:1010D000816086C08091CD048E7F76C08091CE04E1
:1010E000877F7EC08091CD048D7F6EC08091CD04BE
:1010F00020C08091CD04877F67C08091CE041EC040
:101100008091CE048D7F6CC08091CD048F7E5CC0B9
:101110008091CD048F7D58C08091CD048F7B54C0C9
:101120000E94A41E8091CD048F774EC08091CD0483
:10113000877F8B7F49C08091CE048D7F8E7F50C08A
:101140008091CD0482FB222720F991E0922790FB29
:1011500082F990FB83F938C08091CE04982F909546
:1011600091708E7F892B90FB81F93AC08091CD04DC
:1011700086FB222720F991E0922790FB86F924C074
:101180000E94A41E8091CD0487FB222720F991E0C4
:10119000922790FB87F918C061E001C060E08EE003
:1011A00090E00E94F7331EC08091CD0484FB22277B
:1011B00020F991E0922790FB84F906C08091CD043C
:1011C000982F909590FB80F98093CD040BC080916F
:1011D000CE0483FB222720F991E0922790FB83F92C
:1011E0008093CE046091CD047091CE0484E090E0B1
:1011F0000E9415340E94A41E47C4882309F4A8C085
:1012000090915B038091DB01892B8D7F79F11092A6
:101210002302109222028091170281FD27C0F8015B
:1012200043E0F695E7954A95E1F7EE71FF27E45222
:10123000FE4F98012F70332781E090E002C0880FA5
:10124000991F2A95E2F7809590952081318182231C
:10125000932391838083A70160E0C8010E94252623
:1012600080915B038D7F0E94062A6EC089E0F701A2
:10127000A2E9B1E001900D928A95E1F710929701F1
:101280001092950110929401809122029091230274
:1012900008171907E1F58091170285FF38C0909172
:1012A0000C0191FF02C086FF32C080912002909114
:1012B00021025601A81AB90AB701C8010E94402E9E
:1012C000A816B90620F58091DB0181FF08C0809146
:1012D0000C01806180930C0182E00E94362A80918B
:1012E000DB0185FF08C080910C01806280930C01B6
:1012F00080E20E94362A60910C0166956170A70118
:1013000080912202909123020E942526BDC38091E4
:101310005B039091DB01982B9695917020910C01C5
:1013200090FB21F920930C018D7F0E94062A1093D7
:10133000230200932202D0922102C09220028091C7
:101340000C01846080930C0182E00E944A2A9CC3B5
:10135000970140E0B601C8010E94402695C3E858B5
:10136000FF4F0C945B3406E221EE41EE6AE17CE72C
:1013700023C007E225EE45EE6BE17CE71DC006E2E7
:1013800021EE40EE68E17CE717C007E225EE44EE6F
:1013900069E17CE711C006E221EE42EE6CE17CE7F8
:1013A0000BC007E225EE46EE6DE17CE705C008E2E2
:1013B00021E045EE6EE17CE7C7010E94782264C31C
:1013C00091E007CE482F447409F410CE20E00ECEF1
:1013D000482F417109F40CCE20E00ACE482F4878FE
:1013E00009F408CE20E006CE827209F405CE9923D6
:1013F00021F010927A0169E20CCE80917A01882363
:1014000011F065E301C069E283ED91E00E94B8212B
:1014100004CE07372CE7120711F481E005C0083726
:101420003CE7130771F482E0992319F00E946B1CCA
:1014300002C00E945E1C43E062E081E00E943C1C0E
:1014400023C3D70115968C918823E9F10330BCE7BB
:101450001B0729F148F40115FCE71F0791F0013043
:101460002CE7120711F12FC00B353CE7130741F1B0
:101470000C354CE71407E1F00A351C4721F581E0F3
:1014800020C00E94A41E8FEF94E3ACE081509040F6
:10149000A040E1F700C000000E941E21F5C26FEFDE
:1014A0007FEF80E090E00E9415340E944933ECC247
:1014B0008091CE0482FB882780F991E0892701C0C2
:1014C00080E00E94612AD70117968D919C91189710
:1014D0000097C9F4D70115968C9115970D911C9121
:1014E000882349F0C8010E94941BD82E682FC80198
:1014F0000E94041C04C0C8010E94D01BD82EB80151
:101500008D2D0E949D280E94BA28182F092FF701BF
:10151000B580C680C2943FE0C3228091500387709B
:10152000E9F0BB20D9F0892F807F803451F080E230
:10153000810F883098F0C11004C0892F807E8032DE
:1015400069F08091CE0482FF09C082E00E944A2A9D
:10155000809150038770AA24A3948111A12C902E0E
:1015600092942FE09222892D90E08C30910508F022
:1015700036C2FC01E158FF4F0C945B34902F9F70F2
:10158000802F807FD92E19F0D29490EFD922BB20E2
:10159000A9F0DD2009F403C280E2810F883010F049
:1015A000111104C08D2D0E943D2A05C08091EC02CE
:1015B000D82AD092EC020E94A92AF1C1812F0E9460
:1015C0002F20DD2009F40BC280E2810F883068F102
:1015D000112359F18D2D0E942F2A2AC0902F9F7020
:1015E000802F807FD92E803219F0D29480EFD822BC
:1015F000112321F0113009F469C074C08091CE0428
:1016000082FD19C0BB2059F0DD2029F08D2D0E94EC
:101610003D2A0E94A92A80E00E946520E0C180E066
:101620000E942F20DD2009F4DAC18D2D0E94362A78
:101630000E94A92AD4C1BB2081F1CC2009F473C037
:10164000F1E0CF1212C080915B038D21D81609F40E
:10165000C6C10E94832190935A03809359038091BD
:101660005B03D82AD0925B03BAC180911802823002
:1016700008F4B5C1C812B3C18D2D0E94501F8D2D25
:101680000E941A2A80914D039D2D9823D91609F4A2
:10169000A6C1D82AD0924D03A2C1CC2069F0809176
:1016A0001802823008F49BC121E0C21298C18091D7
:1016B000DB018D2109F493C18D2D0E94491F8D2DD1
:1016C0000E941A2A8D2D0E94FF2A89C180911E0234
:1016D000BB2021F08C1508F482C125C0C81608F083
:1016E0007EC127C0BB2019F1CC20E9F020E0D70152
:1016F0004C9111965C91119712966C9112971396DA
:101700007C91139714968C91149715969C910E9436
:10171000D6308091190281FD42C1F701868180FF98
:101720003EC18F7086838D2D0E94501F58C1C110FD
:101730003FC18D2D0E94491F52C1802F86958695ED
:10174000837019F0813061F04AC1BB2021F0812FF4
:10175000902F937002C080E090E00E94042245C167
:10176000BB2021F0812F902F937002C080E090E089
:101770000E94DF213AC16B2D812F0E94571F35C176
:10178000802F8370A1F5B1102EC1412F429546954F
:101790004770440F440F212F2F7030E0C901042EF1
:1017A00001C0880F0A94EAF714FF08C02FE030E068
:1017B00001C0220F4A95EAF7209501C020E0302FA2
:1017C000369536953370323069F040F4409185019A
:1017D000313019F0822B842302C0842B822B0E948B
:1017E000771C01C1282B809185018227F8CFBB206F
:1017F00019F0802F817001C08695882309F4F3C009
:10180000412F429546954770440F440F212F2F706A
:1018100030E0C901042E01C0880F0A94EAF714FFD2
:1018200008C02FE030E001C0220F4A95EAF720956A
:1018300001C020E0302F369536953370323051F0AC
:1018400070F440918601313019F0822B842308C056
:10185000842B05C0282B80918601822701C0822B12
:101860000E94391CC0C0F02FFF70DF2EBB2039F062
:101870008F2F0E946B1C812F0E94501FB4C0812F9C
:101880000E94491F8D2D0E945E1CADC0123F11F1B8
:1018900028F4103F41F0113FA9F17DC0133F01F141
:1018A000143F61F178C080911E02BB2021F0C81660
:1018B00008F095C003C08C1508F491C0202F2F713B
:1018C00081E090E001C0880F2A95EAF790918601A7
:1018D000892711C0802F8F71BB2009F464C07BC0A1
:1018E000BB2041F081E0902F9F7101C0880F9A9535
:1018F000EAF701C080E00E94391C71C08091CE04DB
:1019000082FD06C0802F8F71BB2009F464C04BC0DC
:1019100080911802823040F1BB20C1F090915003B9
:101920009770943039F40E94432A802F8F710E945F
:101930005E1C54C0C81608F051C0202F2F71D22E43
:10194000822F0E946B1C63E08D2D07C0C81640F0EB
:101950000E94432A64E0802F8F710E94782A3EC043
:1019600081E00E944A2A3AC0BB2059F0302F3F71D3
:10197000D32E832F0E946B1C63E08D2D0E94782A4A
:101980002EC081E00E944A2A41E04C1540F582E0D9
:101990000E944A2A24C0BB2049F0CC2011F0812F9C
:1019A0003BCE802F8F710E946B1C19C0CC2089F018
:1019B000193329F480911C0290911D0204C080917A
:1019C0001A0290911B020E943526812F0E942F201F
:1019D00006C0802F8F710E945E1C01C0A12C88EF71
:1019E000890D843010F40E942922812F902F0E94AB
:1019F0007A1C811105C010927C0110927B0128C0D5
:101A0000BB2019F0C110F7CF23C0C110F4CF20E0E4
:101A1000D7014C9111965C91119712966C91129787
:101A200013967C91139714968C91149715969C910C
:101A30000E94D6308091190283FFDDCF80917B0117
:101A400090917C010297B9F6812F0E94BA20D3CFE2
:101A5000AA20A9F08091500380FD11C0F7011582E2
:101A60008695869586950E946B1CC7010E94080486
:101A7000809150038695869586950E945E1C60E055
:101A8000C7010E94FB300FC080915003877059F04E
:101A9000F7018581882339F08091CE0482FF03C04D
:101AA00082E00E944A2A2C96E2E10C948434A9E355
:101AB000B0E0EDE5FDE00C94683485B7806885BF43
:101AC00085B7806885BF84B7877F84BF0FB6F894D9
:101AD000A8958091600088618093600010926000FA
:101AE0000FBE90E080E80FB6F89480936100909369
:101AF00061000FBE83EF96E29093770180937601A9
:101B00000E945E2E0E94FC2D0E94882D0E940F2DA7
:101B10000E94101A0E942F1A8091E2008460809324
:101B2000E20078948091B7018823A1F01091E90038
:101B30001F709091EC00892F817090FD80E8182B28
:101B40001092E9008091E80083FD0E94F5161F7055
:101B50001093E90082E084BD93E095BD9AEF97BDB4
:101B600080936E000E940B30811102C00E94FB2FF7
:101B70000EE111E0F2E2EF2EF1E0FF2ED8018D919F
:101B80008D018F3F11F00E94D427E016F106B1F7C6
:101B900002E211E0EEE2EE2EE1E0FE2EF80181918C
:101BA0008F018F3F11F00E94D427E016F106B1F7A4
:101BB00088E0E0EAF1E0DF01282F1D922A95E9F79D
:101BC000EDE7F1E0DF011D928A95E9F780E090E012
:101BD0000E94E133863E9E4F21F40E940B3081111A
:101BE00067C066EE7EEF80E090E00E94153460E012
:101BF00082E090E00E94F73360E083E090E00E9492
:101C0000F7331092850160E074E184E090E00E9477
:101C1000153460E086E090E00E94F7336FEF87E0D4
:101C200090E00E94F73340E050E0BA0188E090E095
:101C30000E94093460E084E290E00E94F73360E0A3
:101C400087E190E00E94F73360E08CE090E00E9432
:101C5000F73360E08DE090E00E94F73319821A823A
:101C60001B821C821D821E821F82188648E050E063
:101C700068E170E0CE0101960E94E73340E050E059
:101C8000BA0180E290E00E94093480E00E94DC2FDB
:101C90000E94FB2F40E050E0BA018FE090E00E94EC
:101CA000093440E050E0BA0183E190E00E94093439
:101CB00082E090E00E94D9338093870184E090E035
:101CC0000E94E1339093CE048093CD040E94EB27D1
:101CD000EFEFF6E721E0E150F0402040E1F700C0EF
:101CE00000000E94EB278091A00180FF08C06FEFE9
:101CF0007FEF80E090E00E9415340E941E2183E077
:101D000090E00E94D9330E94771C81E091E090938B
:101D1000F2028093F1022E013BE2430E511C8091AE
:101D2000B701853009F047C000E112E18091B701A9
:101D3000853009F03CC08091B701843021F11092C8
:101D4000F50288E190E0A0E40FB6F894A89580939E
:101D500060000FBEA093600083B7817F846083BF63
:101D600083B7816083BF7894889583B78E7F83BF64
:101D70000FB6F894A8958091600088618093600008
:101D8000109260000FBE8091B601882309F4CECF77
:101D90000E94EB27E0EAF1E081919191892B09F013
:101DA00085C628EA31E02E173F07B1F7BFCF0E9462
:101DB000A41E0E9429220E94EB2708E811E070EA85
:101DC000872E71E0972E20E931E0D401F80141918E
:101DD00051918D919D91842795272E173F0719F0DA
:101DE000892BA9F305C0892B19F40E94D7293FC07C
:101DF000712C33243394D401AD90BD904D01F80182
:101E0000C080D180CA24DB24C114D10441F1612CEB
:101E1000EE24E394F12CC6018E219F21892BB1F091
:101E20006CAA7DAA0E9483219FAB8EAB38AE91E055
:101E300095012E213F21232B09F490E099AF4CA965
:101E40005DA96EA97FA988AD0E940A316394EE0C4A
:101E5000FF1CFCE06F12DFCFD801AD92BC927394EF
:101E60000E5F1F4FB4E07B12C6CF0E947721809196
:101E7000E5029091E602892B09F43EC04091DA0216
:101E80005091DB026091DC027091DD022FB7F89473
:101E90008091F6029091F702A091F802B091F902B8
:101EA0002FBF841B950BA60BB70B4091D602509108
:101EB000D7026091D8027091D90284179507A607BE
:101EC000B707D0F08091E5029091E6020E94A63318
:101ED0001092E6021092E5021092DA021092DB02F2
:101EE0001092DC021092DD021092D6021092D702FC
:101EF0001092D8021092D9028091ED029091EE02D8
:101F0000892B31F180919001909191010E9468217B
:101F10008C0189E0F20111928A95E9F7B201809172
:101F2000ED029091EE020E94402E8017910780F4FE
:101F30008091ED02FEE08F9FC0011124FC01E95762
:101F4000FC4F208122FD04C08E579C4F0E945022DE
:101F500080910D01882341F18091D2029091D302AA
:101F6000009711F10E9468212091240230912502EE
:101F700028173907C8F49091D0028091D1029817A0
:101F800059F00E946D2510922502109224021092A1
:101F9000D3021092D20208C00E9403251092D302ED
:101FA0001092D2020E944D258091170280FF1EC020
:101FB00080910C0182FF1AC00E948321209120028F
:101FC00030912102AC01421B530B20910A01309148
:101FD0000B014217530750F022E931E041E0BC0108
:101FE00080912202909123020E94402686E0E8E63A
:101FF000F3E08E010F5F1F4FD80101900D928A957B
:10200000E1F710926A0310926B0310926C03109226
:102010006D038B81811104C08C81882309F45FC01A
:1020200080916603909167030E946821AC019091B2
:102030006103992339F02091140130E0241735070A
:1020400058F04DC0209115018AE0289F900111247D
:102050002417350718F043C09F3F19F09F5F9093F6
:102060006103FB80FF2061F00E9487301F1414F48D
:1020700091E001C09FEF899F802D112480936A0316
:10208000FC80FF2061F00E9487301F1414F491E05F
:1020900001C09FEF899F802D112480936B033091A5
:1020A0006A033323E1F020916B032223C1F045EB57
:1020B0003403C0011124992319F090936A0303C0DB
:1020C00081E080936A0335EB2303C0011124992337
:1020D00019F090936B0303C081E080936B038D81B3
:1020E000811104C08E81882309F45FC0809164034C
:1020F000909165030E946821AC019091620399233D
:1021000039F02091100130E02417350758F04DC008
:10211000209111018AE0289F90011124241735078E
:1021200018F043C09F3F19F09F5F90936203FD80BA
:10213000FF2061F00E944E301F1414F491E001C0A2
:102140009FEF899F802D112480936C03FE80FF20D8
:1021500061F00E944E301F1414F491E001C09FEF13
:10216000899F802D112480936D0330916C0333235C
:10217000E1F020916D032223C1F045EB3403C0014F
:102180001124992319F090936C0303C081E080938C
:102190006C0335EB2303C0011124992319F09093AC
:1021A0006D0303C081E080936D0346E050E0B80109
:1021B00088E693E00E949F34892BA9F480916A03FA
:1021C00081110FC080916B0381110BC080916C0352
:1021D000811107C081E090916D03911103C080E0EF
:1021E00001C081E080FD0E94243086E0F801A8E66D
:1021F000B3E001900D928A95E1F70E942922909117
:102200009B01891721F080939B010E947721809187
:10221000B701843009F083CD83E08093E900809199
:10222000E80082FF7CCD8091E80085FF21C00E94FC
:10223000611B81111BC040E2E42EF12C680109C032
:102240008091F100D6018D936D01B1E0EB1AF10898
:1022500069F08091E80085FDF3CF8091E8008B77ED
:102260008093E8000E94611B882399F391E001C0EC
:1022700090E08091E8008B778093E800992309F43F
:102280004ECDE090A801F090A9018981E114F104FC
:1022900061F08E3F09F003C48A81833008F4C7C11E
:1022A0008550833008F0FBC3C2C18B3009F4A6C14E
:1022B00010F5853009F478C0B0F48230C1F130F403
:1022C000813009F0EAC31A8289E015C3833009F42A
:1022D0005EC0843009F0E1C34C816B818A810E9429
:1022E000A7249D8300C4873009F4D7C308F0D5C361
:1022F0000E941624D4C3803109F4C1C060F48D302B
:1023000009F45FC008F45BC08E3009F45EC08F3002
:1023100009F486C0C2C3823109F4B7C008F4B2C060
:10232000833109F4DCC08E3F09F481C1B6C38A81D0
:10233000823009F4D1C3833051F0813009F0ADC34C
:102340000E9477219B838C837D836E83A8C38091B9
:10235000D4029091D502892B09F4A1C38091A001E8
:102360009091A1019B838C838091A2019091A30104
:102370009D838E838091A4019091A5019F8388877E
:102380008091A6019091A70199878A8788C38A8145
:10239000823009F082C36B817C818D819E810E9495
:1023A00061340E94D72F7BC32D813E8132272327A2
:1023B00032274C816B818A810E94EF2370C380E1B8
:1023C00062C081E08A8383E496C2EA80FB80FE24B7
:1023D000EF24FE24AC80B12CEDE1AE16B10408F080
:1023E0005EC36801C70183549D4F9601201B310BCA
:1023F0002A153B0508F053C3F3E4EF16F1E0FF069E
:1024000030F40E94D933D60114968C9302C0F601A1
:102410001482FFEFEF1AFF0A2FEFC21AD20AE2CF9F
:102420008091D4029091D502892B09F438C3EA80B7
:10243000FB80FE24EF24FE24CC80D12C3DE1C3168A
:10244000D10408F02CC35801C70183549D4F950156
:10245000201B310B2C153D0508F021C343E4E41685
:1024600041E0F40628F4D50114966C910E94F733EC
:10247000BFEFEB1AFB0AEFEFAE1ABE0AE5CF0E94E0
:10248000CA230DC384E08A830AC3EA80FB80FE244A
:10249000EF24FE24AC80B12CFDE1AF16B10408F0AE
:1024A000FEC26801C70189969601201B310B2A15CF
:1024B0003B0508F0F4C220E8E21621E0F20630F411
:1024C0000E94D933D60114968C9302C0F60114826F
:1024D000FFEFEF1AFF0A2FEFC21AD20AE3CFEA800A
:1024E000FB80FE24EF24FE24AC80B12C3DE1A3163A
:1024F000B10408F0D4C240E8E41641E0F40608F064
:10250000CEC280E891E08E199F098A159B0508F4D8
:10251000C6C2370189E2680E711C8091D402909185
:10252000D502892B11F0680160C0E0FE0FC0C70121
:1025300088960E94D93390E0982F88272D81822B8E
:1025400081159C4731F48FEF8D8303C0C12CD12CB2
:1025500003C0CC24C394D12CC5018E0D9F1D450111
:1025600080FF1BC0B1E08B1A9108B5E02B2E312CF7
:102570002C0E3D1E280C391CC3018A0D9B1D0E9488
:10258000D933F101208130E0322F2227282B211569
:102590003C4719F48FEFD1018C93F801EC0DFD1D30
:1025A0002FEFCF01801B910B8815990508F0BBCF49
:1025B000848190E0982F88273581832B81159C4753
:1025C00011F4248325833296ECCFE0E8EE16E1E0A7
:1025D000FE0628F4D60114966C910E94F733BFEFE3
:1025E000EB1AFB0AEFEFCE1ADE0AC70189969601B5
:1025F000201B310B2A153B0540F351C28091D402B8
:102600009091D502892B09F44AC240E250E0B8010A
:1026100082E00E94E020FFEF21EE34E0F150204004
:102620003040E1F700C000000E941E2138C2EA815C
:102630008E2F90E08E30910508F031C2FC01E557F5
:10264000FF4F0C945B3488E0E6E1F1E0DE01919607
:1026500001900D928A95E1F780E2D8011D928A954A
:10266000E9F786E0898388E0FE01B196DE011596E0
:10267000E9C184E8898381E08A831B821C820FC2BE
:102680008C8190E0982F88272B81820F911D092E35
:10269000000CAA0BBB0B75E0880F991FAA1FBB1F6C
:1026A0007A95D1F7AC01BD01405E5F4F6F4F7F4F10
:1026B000481759076A077B0708F4F1C18438E1E03D
:1026C0009E07A105B10508F0EAC14538F1E05F07B2
:1026D0006105710520F044E851E060E070E0481BBE
:1026E000590BBC016C5A7E4FC8010E94C033D7C140
:1026F00040E250E06FEF70E0C8010E94B534809175
:10270000D4028983EA821B821C821D8281E0EBC194
:1027100081E090E09093A9018093A80182E390E08A
:1027200090939F0180939E010E94832190939D012D
:1027300080939C01B4C1EF28B9F18091A0019091E0
:10274000A1019C01369527958170F82EF222809187
:102750009C0190919D010E94682185369105F0F0C1
:10276000FF20E1F00E94832190939D0180939C01C2
:1027700080919E0190919F01019790939F0180937A
:102780009E01892B89F41092A9011092A80181E081
:1027900090E09093D5028093D40206C082E390E04B
:1027A00090939F0180939E018091D40289838091B0
:1027B000A8018A8380919E019EC01092D50210923A
:1027C000D4026DC1EB80FC8040E250E06FEF70E01E
:1027D000C8010E94B53420EA36E0ACE9B7E080E0F9
:1027E00090E0AC014E5F5F4F4132510508F057C198
:1027F000F90165917491E616F70630F4F801E80FD7
:10280000F91F71836083CA01245F3F4FA217B3078A
:1028100041F745C14B815C812CE937E080EA96E0C5
:10282000FC01659174914617570729F00C962817FB
:102830003907B1F732C1009709F42FC1FC01369670
:10284000259134912115310509F427C14FE150E05C
:10285000BE016E5F7F4FF901099520C12B813C813C
:102860008CE997E040EAE42E46E0F42EF70145912A
:1028700054912417350739F0FCE0EF0EF11C8E154A
:102880009F05A1F70AC1E114F10409F406C1F7019B
:102890003896259134912115310509F4FEC04CE19B
:1028A00050E0BE016B5F7F4FC701F90109950097AA
:1028B00009F0F4C0F7013A9685919491009711F0D0
:1028C000FC01099580E0EAC00E94362DE8C0EB814A
:1028D0008E2F90E08730910508F0E1C0FC01E756AB
:1028E000FF4F0C945B3480E2D8011D928A95E9F782
:1028F00088E089838A838B83D2C08C819AE0D92E29
:102900007E01B1E2EB0EF11CF7012D2D11922A95FB
:10291000E9F7B7010E94DA238983F701DE011296F5
:1029200001900D92DA94E1F7BAC0FC808AE0FE01D2
:102930003596DE01919601900D928A95E1F789A175
:102940009AA10E94C72F9AA389A38BA19CA10E9440
:10295000C72F9CA38BA38DA19EA10E94C72F9EA3CE
:102960008DA38FA198A50E94C72F98A78FA337E0AA
:102970003F1570F04AE0F49EB001112463537E4F7E
:102980004AE050E0CE0181960E941B3480E001C0F5
:102990008FEF89830E945E2E82C06C81CE0181966A
:1029A0002AE0DC011D922A95E9F7683008F043C05F
:1029B000BAE06B9FB0011124635E7D4F36C0FC808E
:1029C0008AE0FE013596DE01919601900D928A957E
:1029D000E1F789A59AA50E94C72F9AA789A7E7E0E2
:1029E000EF1570F0FAE0FF9EB0011124635E7D4F99
:1029F0004AE050E0CE0181960E941B3480E001C085
:102A00008FEF89830E94FC2D4AC06C81CE01819694
:102A10002AE0DC011D922A95E9F7683060F4BAE0FB
:102A20006B9FB001112463597D4F4AE050E00E9432
:102A3000C93380E001C08FEF89838AE0FE01B1963F
:102A4000DE01129601900D928A95E1F728C0FC8074
:102A50008AE0FE013596DE01919601900D928A95ED
:102A6000E1F78BA19CA10E94C72F9CA38BA3E7E059
:102A7000EF1570F0FAE0FF9EB001112463597D4F0D
:102A80004AE050E0CE0181960E941B3480E001C0F4
:102A90008FEF89830E94882D02C08FEF898340E2E7
:102AA00050E0B80182E00E94E02039C909BD19BD9B
:102AB00009B400FEFDCF8091D8008F7D8093D800AF
:102AC0008091E00082608093E0008091E00081FDD1
:102AD000FCCF0E94A41E2AC988E290E00E94D9334C
:102AE0001B821C821D828E83DACF8091B90187FF01
:102AF00011C08091E80082FD05C08091B70181116D
:102B0000F8CF11C08091E8008B770BC08091B7019E
:102B1000882349F08091E80080FFF8CF8091E80099
:102B20008E778093E8000895982F973068F59093FA
:102B3000E900981739F07091EC002091ED00509168
:102B4000F00003C0242F762F50E021FD02C09F5FCC
:102B5000ECCF3091EB003E7F3093EB003091ED00F5
:102B60003D7F3093ED003091EB0031603093EB000E
:102B70007093EC002093ED005093F0002091EE0054
:102B800027FDE5CF80E008958F708093E90081E014
:102B900008952091BF013091C0012617370748F0F2
:102BA0006115710539F42091E8002E772093E80033
:102BB00001C0B901FC0120E06115710579F1809136
:102BC000B7018823F1F18530F1F18091E80083FDB0
:102BD0003CC08091E80082FD2EC08091E80080FF1B
:102BE000EBCF2091F3008091F20090E0922B6115E1
:102BF000710551F08830910538F421912093F1004E
:102C0000615071090196F3CF21E0089709F020E0A7
:102C10008091E8008E778093E800CECF2111CFCF4E
:102C20000AC08091B701882361F0853061F08091FE
:102C3000E80083FD0AC08091E80082FFF2CF80E0C7
:102C4000089582E0089583E0089581E0089543E0C7
:102C500050E0BC0184E00E94E020089546E050E08E
:102C6000BC0184E00E94E0200895CF93DF93EC0143
:102C700048E050E0BC0181E00E94E02088E0FE01D5
:102C8000ADEAB1E001900D928A95E1F7DF91CF9125
:102C90000895A0E0B0E0EFE4F6E10C947034EC01AC
:102CA0008AE0A82E2881222309F49AC0213009F055
:102CB00041C08981813039F48E010E5F1F4F8A81B6
:102CC0000E94BA2008C0823041F48E010E5F1F4F6F
:102CD0008A810E946520E80181C0833039F48E0129
:102CE0000E5F1F4F8A810E942F20F5CF843011F094
:102CF000219674C02A81229680E090E030E0205333
:102D000031092A30310558F4A89EA001A99E500D22
:102D10001124C901840F951F21962881EFCF0097B8
:102D200009F45CC0EFE9FFE03197F1F700C0000063
:102D30000197F5CFE22FF0E0E056FB4FB490822FE1
:102D400086958695869590E0FC01E057FB4FE490D0
:102D50002770F12C022E02C0F594E7940A94E2F752
:102D6000F1E0EF22FF24FC01E058FB4FC490D12C8E
:102D7000022E02C0D594C7940A94E2F731E0C32230
:102D8000DD24FC01E059FB4F049110E002C01595D1
:102D900007952A95E2F701701127E114F10419F063
:102DA00081EE0E946520C114D10419F086EE0E94C4
:102DB00065208B2D0E94BA20C114D10419F086EE33
:102DC0000E942F20E114F10419F081EE0E942F20BF
:102DD0000115110519F08CE20E94BA20219662CFEC
:102DE000CDB7DEB7EAE00C948C34AAE2B0E0EBEFAA
:102DF000F6E10C947734E9EBF1E081EC91E020917D
:102E0000F10021938E179F07D1F78091BA0183308B
:102E100009F463C030F4813071F0823009F49DC050
:102E2000B4C08A3009F489C08B3009F46EC089308F
:102E300009F0ABC020C08091B901813A09F0A5C06A
:102E40008091E800877F8093E8008091BD01909198
:102E5000BE01892B21F468E08DEA91E003C060E0B7
:102E600080E090E070E00E94C9158091E8008B77C7
:102E70008093E8008AC08091B901813209F085C051
:102E80008091BD019091BE01009719F0029709F061
:102E90007CC08091E800877F8093E8008091E80003
:102EA00082FD05C08091B7018111F8CF6EC02091DD
:102EB000F3008091F20090E0922B029731F4809120
:102EC000F100813011F0863021F48091F10080937F
:102ED000AC018091E8008B7754C08091B901813AB0
:102EE00009F053C08091BD019091BE01892B09F07A
:102EF0004CC08091E800877F8093E8008091E800D3
:102F000080FFFCCF8091090137C08091B9018132E7
:102F1000E1F58091BD019091BE01892BB1F58091C1
:102F2000E800877F8093E8000E9475158091BB01BF
:102F3000809309010E94A41E28C08091B9018132AA
:102F400021F58091E800877F8093E8000E94751545
:102F50008091BC018093AB0118C08091B901813A86
:102F6000A1F48091E800877F8093E8008091E800D9
:102F700080FFFCCF8091AB018093F1008091E8004D
:102F80008E778093E8000E9475158091E80083FF9A
:102F9000EBC18091B9019091BA01492F50E04A30BC
:102FA000510508F0E1C1FA01E056FF4F0C945B3483
:102FB000803821F0823809F0D7C108C08091B5016E
:102FC0009091B601992389F082600FC08091BD0174
:102FD0008F70873008F0C8C18093E9008091EB00C2
:102FE00085FB882780F91092E9009091E800977F8F
:102FF0009093E8008093F1001092F1007CC1282F9B
:103000002D7F09F0B1C1882319F0823061F0ACC185
:103010008091BB01813009F0A7C1933009F080E0B5
:103020008093B6012EC08091BB0181112AC080918E
:10303000BD018F702FEF280F263008F095C18093C7
:10304000E9002091EB0020FF1CC0933021F4809117
:10305000EB00806214C09091EB0090619093EB00C4
:1030600021E030E0A90102C0440F551F8A95E2F724
:103070004093EA001092EA008091EB008860809310
:10308000EB001092E9008091E800877F8093E800D0
:103090000E94751569C1811167C11091BB011F772D
:1030A0008091E3008078812B8093E3008091E80099
:1030B000877F8093E8000E9475158091E80080FF6B
:1030C000FCCF8091E30080688093E300111102C07F
:1030D00082E001C083E08093B70146C1805882300E
:1030E00008F042C12091BB013091BC012C3D53E05E
:1030F000350779F583E08A838AE289834FB7F894AC
:10310000DE01139620E03EE051E2E32FF0E0509321
:103110005700E49120FF03C0E295EF703F5FEF702E
:103120008E2F90E0EA3010F0C79601C0C0968D93C4
:103130009D932F5F243149F74FBF8091E800877F2F
:103140008093E8006AE270E0CE0101960E94C91502
:10315000C0C08091BD019091BE01432F55274330DF
:103160005105B1F068F44130510509F40CC1423009
:10317000510509F0F9C08BE590E0E5EBF3E057C0AD
:103180004132510589F14232510509F43CC0ECC08D
:10319000C901992781309105B9F070F0823091050D
:1031A000D9F0039709F0E0C0E2E2F4E0E4918E2F59
:1031B00090E0E2E2F4E038C0ECE6F4E0E4918E2F37
:1031C00090E0ECE6F4E030C0E6E5F4E0E4918E2F28
:1031D00090E0E6E5F4E028C0E0E4F4E0E4918E2F2E
:1031E00090E0E0E4F4E020C08330910508F0BCC03A
:1031F000880F991FFC01E95CFE4F0190F081E02DE2
:1032000089E090E014C08330910508F0ADC0FC0166
:10321000EE0FFF1FEF5CFE4F0190F081E02DDC010F
:10322000A25DBE4F8C9190E0009709F49DC0209163
:10323000E800277F2093E8002091BF013091C00172
:103240002817390708F4C90140E0009789F1209157
:10325000B701222309F43DC02530D9F12091E800BF
:1032600023FD37C02091E80022FD2FC02091E80007
:1032700020FFEBCF4091F3002091F20030E0342B9F
:10328000009759F02830310540F444914093F10003
:10329000319601972F5F3F4FF3CF41E02830310542
:1032A00009F040E02091E8002E772093E800CDCF90
:1032B0004111CDCF0AC08091B701882351F08530EC
:1032C00041F08091E80083FD04C08091E80082FF16
:1032D000F2CF8091E8008B778093E80045C080387A
:1032E00009F042C08091E800877F8093E8008091D8
:1032F000B8018093F1008091E8008E77C7CE8111EC
:1033000033C08091BB019091BC019927029764F56D
:103310008091E800877F8093E8001091BB011093B3
:10332000B8010E947515111106C08091E30087FD58
:1033300002C081E001C084E08093B70142E061EC0B
:1033400081E00E94941542E261EC84E00E949415B1
:1033500042E261EC82E00E94941542E260EC83E07C
:103360000E9494158091B7018091E80083FF10C0FE
:103370008091E800877F8093E8008091EB00806275
:103380008093EB0005C082E190E0E0E1F4E04FCFF4
:10339000AA96E3E00C9493341F920F920FB60F920B
:1033A00011242F933F934F935F936F937F938F934A
:1033B0009F93AF93BF93CF93DF93EF93FF93C0910E
:1033C000E900CF708091EC00D82FD17080FDD0E85B
:1033D0001092E9008091F000877F8093F00078944C
:1033E0000E94F5161092E9008091F00088608093A9
:1033F000F000CD2BCF70C093E900FF91EF91DF91EA
:10340000CF91BF91AF919F918F917F916F915F917C
:103410004F913F912F910F900FBE0F901F901895D5
:10342000E8EDF0E080818E7F80831092E2001092C0
:10343000DA001092E100A0EEB0E08C9181608C93F4
:1034400080818F77808319BCA7EDB0E08C918E7F4F
:103450008C9380818F7E80831092AA010895A0E0D2
:10346000B0E0E5E3FAE10C947234C8EDD0E0888175
:103470008F7E8883E7EDF0E080818160808384E047
:1034800082BF81E08093AA0188818E7F888302EECB
:1034900010E0F80110821092DA0081EEC82ED12CD3
:1034A000F601108288818F7788838881806888837D
:1034B00088818F7D888319BC1092B7011092B80162
:1034C0001092B6011092B50190EEE92EF12CF701A1
:1034D00080818B7F808388818160888342E060E087
:1034E00080E00E949415F60180818E7F8083F80130
:1034F000808181608083808188608083F701808102
:103500008E7F8083888180618883CDB7DEB7E8E0D5
:103510000C948E341F920F920FB60F9211242F939A
:103520003F934F935F936F937F938F939F93AF934B
:10353000BF93EF93FF938091E10082FF09C08091D8
:10354000E20082FF05C08091E1008B7F8093E10063
:103550008091DA0080FF2AC08091D80080FF26C0C9
:103560008091DA008E7F8093DA008091D90080FF0D
:1035700018C080E189BD82E189BD09B400FEFDCF9C
:1035800081E08093B7018091AA0181110FC00E9450
:10359000101A0E942F1A8091E20084608093E2004A
:1035A00005C019BC1092B7011092AA018091E100E8
:1035B00080FF17C08091E20080FF13C08091E2007D
:1035C0008E7F8093E2008091E20080618093E20030
:1035D0008091D80080628093D80019BC85E08093E8
:1035E000B7018091E10084FF30C08091E20084FF48
:1035F0002CC080E189BD82E189BD09B400FEFDCF08
:103600008091D8008F7D8093D8008091E1008F7EDB
:103610008093E1008091E2008F7E8093E2008091B0
:10362000E20081608093E2008091B801882311F06C
:1036300084E007C08091E30087FD02C081E001C003
:1036400083E08093B7018091B7018091E10083FF0F
:1036500027C08091E20083FF23C08091E100877F33
:103660008093E10082E08093B7011092B8018091CD
:10367000E1008E7F8093E1008091E2008E7F809355
:10368000E2008091E20080618093E20042E060E02D
:1036900080E00E9494158091F00088608093F00093
:1036A000FF91EF91BF91AF919F918F917F916F911A
:1036B0005F914F913F912F910F900FBE0F901F90F0
:1036C00018952091E4003091E50095E64091EC00DA
:1036D000842F817040FF23C08091E80080FD1DC0D1
:1036E0008091B701882399F0853099F08091EB00A3
:1036F00085FD11C04091E4005091E5002417350785
:1037000029F3915011F09A01E1CF84E0089582E00D
:10371000089583E0089581E0089580E00895409140
:10372000E80042FFDDCF0895CF92DF92FF920F9322
:103730001F93CF93DF936C010091860180918501E7
:10374000082BC3E0D0E010E0C8010C2E02C0959514
:1037500087950A94E2F780FD04C02197A8F7F12C21
:1037600009C0FC2EB6018C2F0E949D280E94BA2809
:10377000019799F38F2DDF91CF911F910F91FF90BA
:10378000DF90CF900895CF93DF93EC010E94941BBC
:10379000BE010E949D280E94BA28DF91CF91089512
:1037A000292F943078F58C3068F590E03CE0239F29
:1037B000800D911D1124682F677023E096958795E1
:1037C0002A95E1F7FC01EE0FFF1FE80FF91FEF53F9
:1037D000FE4F40E050E080E0219130E0062E02C034
:1037E000369527950A94E2F721703327042E01C0FD
:1037F000220F0A94EAF7822B4F5F5F4F4330510547
:1038000059F7089580E00895292F943088F58C3079
:1038100078F590E03CE0239F800D911D1124282F26
:10382000277051E001C0550F2A95EAF723E09695DD
:1038300087952A95E1F7FC01EE0FFF1FE80FF91FAE
:10384000EF53FE4F20E030E070E04081CB01022ECC
:1038500002C0969587950A94E2F781708195842736
:103860008523842781932F5F3F4F2330310569F7EC
:1038700008958093860108959091860121E030E0BB
:10388000F90101C0EE0F8A95EAF7D90102C0AA0F2B
:10389000BB1F6A95E2F7BD016E2B01C0220F4A954E
:1038A000EAF7892F8623681303C0892F822B03C070
:1038B0002095822F89230E94391C089521E030E051
:1038C00001C0220F8A95EAF7209580918601822314
:1038D0000E94391C089521E030E001C0220F8A9532
:1038E000EAF780918601822B0E94391C089580930B
:1038F0008501089592959F70963079F010F492505A
:1039000001C09A50923068F4803F69F018F4883E04
:1039100040F409C0843F29F406C0883E20F0813F6E
:1039200011F080E0089581E00895FC0124812223B4
:1039300071F087819085009719F00E94BA2804C021
:10394000808191810E94C31B0E947A1C089580E0AF
:103950000895A8E1B0E0EFEAFCE10C946B348C012F
:1039600086E0F801DE01539601900D928A95E1F709
:10397000D80114967C9014971596EC908AEFA82E97
:1039800082E0B82E8091FE02811122C0772009F4D6
:103990005BC0EE2009F455C0C8010E94951CF82EAA
:1039A000882309F44EC089E0F801AAEFB2E0019043
:1039B0000D928A95E1F78091FE02813031F4809179
:1039C000FA029091FB020E94C31B0E94332BB7C1E5
:1039D000F80150806180C280D38060E08AEF92E07D
:1039E0000E94FB30F090FF028091FC029091FD025A
:1039F0004601881A990A60E08AEF92E0FF2009F4F4
:103A000026C10E94FB306AEF72E00E94402E8816A9
:103A1000990608F0C5C07720B9F080910003382FCF
:103A2000307F2091FB02D80111969C91119733238E
:103A300071F0291709F473C0C8010E94951C811107
:103A400082C0C8010E940804FF24F39478C129139E
:103A50001FC02091FA029C9129131AC040910103C2
:103A60005091020317962D913C91189742175307D6
:103A700079F4E1100DC08F708061809300038AEFAC
:103A800092E00E94080480910003F801868356C1E9
:103A9000E1103BC040E0662D852D0E94092BE82EE9
:103AA000882329F08091190280FD3DC147C15B8ABE
:103AB0006C8A8B899C890E94C31B292F22952F70A9
:103AC000243020F49F70223028F009C02A50223080
:103AD00088F015C0992351F0811108C014C09923B2
:103AE00029F0D80116969C91907F69F0805E88300D
:103AF00030F409C0803F38F0815F833020F0C80186
:103B00000E940804EF2CFE2C1AC1809100038160F2
:103B1000809300038091190281FD10C104C120919E
:103B2000FA02F8019081291387CF40910103509147
:103B30000203278130854217530709F07DCFE1103A
:103B40007BCF8683D0C0EE2009F47BCF2091000389
:103B5000822F82958F7090E00297BCF08091FA02DC
:103B60009091FB029B878A87DD86CC868091FE023E
:103B70008E871F86288B80910103909102039A8B78
:103B8000898BCE010A960E94080489E0F801AAEF09
:103B9000B2E001900D928A95E1F70E94332B54CF49
:103BA00080910003982F907F39F48AEF92E00E9471
:103BB000080489E0D501BFC0772009F445CF2091E2
:103BC000FB02F801918129131AC02091FA02908119
:103BD000291315C0409101035091020327813085BC
:103BE0004217530761F4E1100AC08683C8010E949E
:103BF000080489E0D5011D928A95E9F7A0C0C801A3
:103C00000E94951C882309F41CCFEE2009F419CFDB
:103C100020910003822F82958F7090E002970CF420
:103C2000B4CF8091FA029091FB029A838983DC825F
:103C3000CB828091FE028D831E822F8380910103AF
:103C40009091020399878887CE0101969CCF0E94AC
:103C5000FB306AEF72E00E94402E8816990608F049
:103C60005CC0772009F4F0CEFE2CEE2009F4E9CEFA
:103C70009091FB02F8018181981341C09091FA0262
:103C8000808198133CC02091010330910203878109
:103C900090852817390799F58091FC029091FD02D3
:103CA000C81AD90AF8ECCF16D10400F580910003A8
:103CB00080FD1CC082958F70482F50E04115510542
:103CC000A9F020910003D80116962C9316974F3037
:103CD000510549F08F5F982F9295907F822F8F70BA
:103CE000892B16968C93C8010E94080489E0F8017C
:103CF000AAEFB2E001900D928A95E1F720C0C801C9
:103D00000E94951C811141CF8091000381608093B6
:103D10000003C8010E94080412C089E0F501119255
:103D20008A95E9F70CC08AEF92E00E940804EAEF56
:103D3000F2E089E0DF011D928A95E9F7F12C8F2DE1
:103D40006896EFE00C948734CF931092DB01C6E0C5
:103D5000E5EDF1E0DF018C2F1D928A95E9F780E017
:103D600090E00E94042280E090E00E94DF21109207
:103D7000EC020E94A92AE8E6F3E0DF011D92CA9551
:103D8000E9F71092610310926203109263030E949C
:103D90002430CF910895A2E1B0E0E1EDFEE10C9472
:103DA00076340A871B872C873D874E875F87688B11
:103DB000798B8A8BCE010A960E94A91C81113BC087
:103DC00089E0FE013A96DE01119601900D928A95E6
:103DD000E1F76E85662379F12091030330E0C90194
:103DE00001968770992740914C0350E084179507FE
:103DF000A1F06D8399E0929FD001939FB00D1124A3
:103E0000AC5FBC4FFE01319601900D929A95E1F79F
:103E1000809303030E94292B0EC00E94A41E1092BF
:103E2000030310924C03EAEFF2E089E0DF011D92F8
:103E30008A95E9F719C019E080914C03909103032A
:103E4000891791F0189FC00111248C5F9C4F0E942C
:103E5000A91C882349F080914C0390E0019687705B
:103E6000992780934C03E8CF6296E4E00C94923457
:103E7000882321F00E942F2A0E94A92A08958823CE
:103E800039F09091EC02892B8093EC020E94A92AD0
:103E90000895882321F00E94362A0E94A92A0895B5
:103EA000882321F00E943D2A0E94A92A08956623B2
:103EB00009F45CC08D3C21F40E948730819504C0D8
:103EC0008E3C29F40E94873080936B03C5C08F3CE1
:103ED00021F40E948730819504C0803D29F40E941E
:103EE000873080936A03B8C0893D19F40E944E3030
:103EF00005C08A3D31F40E944E30819580936C0359
:103F0000ABC08B3D21F40E944E30819504C08C3DA6
:103F100029F40E944E3080936D039EC09FE2980F5B
:103F2000983078F421E030E0A90102C0440F551F19
:103F30009A95E2F7CA0190916903892B80936903EE
:103F40008BC08D3D21F48091630381600CC08E3D58
:103F500021F480916303826006C08F3D09F07CC02C
:103F60008091630384608093630376C08D3C39F451
:103F700090916B0397FF35C010926B0359C08E3C34
:103F800029F490916B031916BCF32BC090916A032E
:103F90008F3C29F497FF25C010926A0349C0803DE9
:103FA00019F41916CCF31DC090916C03893D29F4C6
:103FB0001916BCF410926C033BC08A3D19F497FFAC
:103FC00010C0F8CF8B3D39F490916D0397FF09C075
:103FD00010926D032DC08C3D21F490916D03191644
:103FE000BCF39FE2980F983080F421E030E0A90103
:103FF00002C0440F551F9A95E2F7CA01809590912F
:10400000690389238093690313C08D3D21F4809156
:1040100063038E7F0BC08E3D21F4809163038D7FFF
:1040200005C08F3D29F4809163038B7F80936303E8
:1040300080916A03811106C080916B03811102C0D7
:104040001092610380916C03811106C080916D0311
:10405000811102C0109262030E94243008958823C7
:1040600099F19CEF980F913A30F4682F83ED91E02D
:104070000E94B8210DC090E2980F983060F48770CC
:1040800091E001C0990F8A95EAF7892F0E94362A9C
:104090000E94A92A08959BE5980F933028F480E0A8
:1040A00090E00E940422089598E5980F9B3128F42F
:1040B00080E090E00E94DF21089593E3980F933110
:1040C00018F460E00E94571F0895CF93882309F4E5
:1040D0004FC0C82F8CEF8C0F813A80F4E5EDF1E0F2
:1040E0008BED91E02191C217D9F18E179F07D1F77F
:1040F0006C2F83ED91E00E94C5210CC080E28C0FF3
:10410000883058F4C77081E001C0880FCA95EAF77B
:104110000E943D2A0E94A92A2BC0EBE5EC0FE33058
:1041200040F4F0E0E35CFE4F808190E00E940422C6
:104130001FC0E8E5EC0FEB3150F4F0E0EE0FFF1F8D
:10414000E05CFE4F808191810E94DF2111C083E3FA
:104150008C0F833168F461E08C2F0E94571F08C0D8
:104160006C2F83ED91E00E94B8210E94A92AC0CF54
:10417000CF9108951F93CF93DF93182F893329F49C
:10418000C0911C02D0911D0204C0C0911A02D091AE
:104190001B02812F0E946520209741F08FE99FE04C
:1041A0000197F1F700C000002197F6CF812F0E9400
:1041B0002F20DF91CF911F9108958091AC01089538
:1041C0000F931F93CF93DF938B01EA019091B70177
:1041D000943079F58F708093E9008FEF9091E8002B
:1041E000815095FD06C095ED9A95F1F7000081117B
:1041F000F5CF8091E80085FF1CC00E94611B8823D9
:1042000061F08091E8008E778093E80012C0F80199
:1042100081918F018093F1002197209791F38091F4
:10422000E80085FDF4CF8091E8008E778093E80068
:10423000E4CFDF91CF911F910F91089581E080939A
:10424000E00080E28093D8001092C9008FE19EE4E4
:104250000197F1F700C0000087E090EBDC0180934C
:10426000CF049093D004A093D104B093D2049CE0E7
:1042700088E10FB6F894A895809360000FBE9093E4
:104280006000FFCF78941F920F920FB60F92112407
:104290008F939F93AF93BF938091F6029091F70213
:1042A000A091F802B091F9020196A11DB11D809371
:1042B000F6029093F702A093F802B093F902BF912F
:1042C000AF919F918F910F900FBE0F901F901895F7
:1042D0009C014FB7F8948091F6029091F702A0915B
:1042E000F802B091F9024FBF821B930B08952FB7CC
:1042F000F8946091F6027091F7028091F802909123
:10430000F9022FBF08952FB7F8948091F60290918B
:10431000F702A091F802B091F9022FBF08951F9201
:104320000F920FB60F9211248F939F93AF93BF9369
:104330008091F502811113C08091F6029091F702ED
:10434000A091F802B091F9024196A11DB11D809390
:10435000F6029093F702A093F802B093F902BF918E
:10436000AF919F918F910F900FBE0F901F90189556
:104370009C012A5F3F4FFC014281461301C012821B
:10438000019682179307B9F708959C01FC013296B4
:104390009FEF80E04191461789F09F3F19F441114A
:1043A00001C0982F8F5F8630A9F79F3F39F0F90140
:1043B000E90FF11D97FDFA95628308950895A3E032
:1043C000B0E0E5EEF1E20C9478342091F302309104
:1043D000F40228173907A1F09093F4028093F302B6
:1043E000E091F102F091F202309751F024E029833C
:1043F0009B838A830680F781E02DCE010196099583
:104400002396E2E00C949434A3E0B0E0EAE0F2E218
:104410000C9478342091EF023091F002281739077C
:10442000A1F09093F0028093EF02E091F102F091FD
:10443000F202309751F023E029839B838A83068020
:10444000F781E02DCE01019609952396E2E00C94C8
:104450009434E091F102F091F202309729F001904A
:10446000F081E02D0995089580E00895CF93DF93C2
:10447000EC01EA85FB85309719F06C857D850995FF
:104480008B810E942F2A8C810E94362A0E94A92AA1
:1044900086E0FE0111928A95E9F7DF91CF910895A8
:1044A000CF93DF93EC018D8181FD15C082608D83F8
:1044B0009091EC028B81892B8093EC028C810E947D
:1044C0003D2A0E94A92AE885F985309721F06C855C
:1044D0007D85CE0109951092EE021092ED028D813C
:1044E00080FD03C0CE010E943622DF91CF91089556
:1044F000A0E0B0E0EEE7F2E20C9470347C015B01E6
:10450000C42FD22FFC0185818823B1F04093EB02A8
:104510000E9483219093EA028093E90280E28C0F4B
:10452000883008F052C0C77081E001C0880FCA957A
:10453000EAF70E94501F49C08091EB02481335C032
:104540008091E9029091EA020E9468216C01B70112
:10455000C5010E94402EC816D90638F510E21D0F7D
:10456000CD17B9F080E28C0F883040F4C77081E03D
:1045700001C0880FCA95EAF70E94491F183010F54C
:1045800081E09D2F977001C0880F9A95EAF70E94ED
:10459000501F802F0E94BA201830B8F4D77081E0E5
:1045A00001C0880FDA95EAF70AC080E28C0F8830E4
:1045B00060F4C77081E001C0880FCA95EAF70E94D5
:1045C000491F03C0802F0E94BA20CDB7DEB7EAE0B2
:1045D0000C948C34CF93DF93EC014091DE02509128
:1045E000DF026091E0027091E1022FB7F8948091B0
:1045F000F6029091F702A091F802B091F9022FBF54
:10460000841B950BA60BB70B843F9140A105B10508
:10461000A8F48091DE029091DF02A091E002B091B7
:10462000E1028093DA029093DB02A093DC02B09364
:10463000DD0284EF91E0A0E0B0E00EC00E9477219F
:104640006093DA027093DB028093DC029093DD02C8
:1046500082E390E0A0E0B0E08093D6029093D7028E
:10466000A093D802B093D902D093E602C093E5029A
:10467000DF91CF910895FF920F931F93CF93DF9314
:104680000091E7021091E8020115110509F45CC0E0
:104690001092E6021092E5021092E2021092E302FA
:1046A000D80116966D917C9117979B013A9521152B
:1046B0003F4108F4707EC62FD1E0611101C0D0E007
:1046C000F82ED8011996ED91FC911A97309739F090
:1046D0001B966D917C911C9780E00995D823DD2372
:1046E00079F08CEF8C0F813A30F46C2F83ED91E0F0
:1046F0000E94B82105C00E94A92A8C2F0E942F2059
:10470000E091E702F091E80240815181FF2071F0D1
:10471000808584FD0BC08091E402882339F091E00C
:104720009A01215031092F333E4708F090E090FF65
:1047300003C0CA010E94EA220E94A92A1092E8023C
:104740001092E7021092E402C801CDB7DEB7E5E0AF
:104750000C949134FC0184818623C1F492819923C5
:10476000B9F08085692383FF04C081E0611111C025
:104770000DC0892F8F7092959F70982B862F8F7008
:1047800062956F70682B81E0961719F080E00895AC
:1047900081E00895CF93DF93CDEBD2E060E0CE01CE
:1047A0000E94F7332196C11584E0D807B9F7DF914D
:1047B000CF910895883080F49B01982F8AE0989FCC
:1047C000B001112463537E4F4AE050E0C9010E94BA
:1047D000C93380E090E008958FEF9FEF08951F9315
:1047E000CF93DF93962F8430E8F46430D8F44C30C4
:1047F000C8F4632F122FC42FD0E0CC0FDD1F28E1A7
:10480000929FC00DD11D112490E6899FC00DD11D2E
:104810001124CE0189960E94F733612FCE018A962A
:104820000E94F733DF91CF911F910895AEE1B0E080
:10483000ECE1F4E20C946C34A090D402B090D50278
:1048400081E090E09093D5028093D402612CC12C3A
:10485000D12C712CE12CF12C00E010E046018E0CE3
:104860009F1CF801EE0FFF1FE80DF91DE05EFA4FE7
:1048700025913491402F672D862D0E94EF230F5FE5
:104880001F4F0C30110569F788E1E80EF11C739495
:10489000E4E07E12E1CFF0E6CF0ED11C639484E019
:1048A0006812D7CF0E94362D1A8219821C821B8271
:1048B0001E821D8218861F8288EC90E09A87898765
:1048C0000DEC11E04AE050E0B801CE0101960E94E3
:1048D0001B34065F1F4F0D31E2E01E0799F77E0182
:1048E000FBE0EF0EF11C8AE0F70111928A95E9F7DF
:1048F0004AE050E0B801C7010E941B34065F1F4F19
:104900000D36F2E01F07A1F77E0185E1E80EF11CEC
:104910008AE0F70111928A95E9F78FEF9FEF9A8F5E
:10492000898F87E08E8F4AE050E0B801C7010E946E
:104930001B34065F1F4F0D3BF2E01F07A1F7B0923B
:10494000D502A092D4026E96EEE00C9488340F93B8
:104950001F93CF93DF93843008F56430F8F44C3024
:10496000E8F4C42FD0E0CC0FDD1F28E1629FC00D1A
:10497000D11D112430E6839FC00DD11D1124CE011D
:1049800089960E94D93390E0182F0027CE018A968D
:104990000E94D9339801282BC90102C080E090E021
:1049A000DF91CF911F910F910895BC014091D002EA
:1049B0008091D102942F981729F1292F30E0F90125
:1049C000EE0FFF1FE853FD4F0190F081E02DE61739
:1049D000F70799F487E0869FF001879FF00D112477
:1049E000E95DFD4F81E0848394130CC02F5F3F4F3E
:1049F000237033272093D00208952F5F3F4F922FCB
:104A00009370D9CF0895EF92FF920F931F93CF9396
:104A1000DF9380915F028823D9F1C09126028DE057
:104A2000F82E80915F02C81778F5EE24E394EC0E1F
:104A3000E0922602D0E0FC9EF001FD9EF00D1124D4
:104A4000E05AFD4F84818823E9F087819085892B86
:104A500021F481859285019659F40081118122818A
:104A60003381448155816681778180850E94CB1E88
:104A7000FC9EF001FD9EF00D1124E05AFD4F1482C2
:104A80001092EC02CE2DCDCF10925F021092260232
:104A9000CDB7DEB7E6E00C94903410922502109268
:104AA0002402E7E2F2E08581811102C014821682BD
:104AB000379682E0EF35F807B1F708951092D302E8
:104AC0001092D20210920D018091D1028093D002F7
:104AD0000E944D250E9403250895A0E0B0E0E3E781
:104AE000F5E20C946934C091D00297E0992E01E070
:104AF00010E02DE0322E34E0432E55245394809163
:104B0000D102C81709F479C0D0E0FE01EE0FFF1FF3
:104B1000E853FD4F80819181989ED001999EB00D00
:104B20001124A95DBD4F14962C911497211162C0D8
:104B300070905F02E0E6F2E020E030E0812C5D0161
:104B4000271508F055C0E384F484D501CD90DC909E
:104B50006FEF7FEF612C462D50E0DA01AA0FBB1FEB
:104B6000AC0DBD1D0D90BC91A02D109731F0EA1633
:104B7000FB0609F4BA016394EECF6F3FBFEF7B07EA
:104B800099F1D80102C0AA0FBB1F6A95E2F78A2AE1
:104B9000B801062C02C0660F771F0A94E2F7AB013A
:104BA00041505109682D70E046175707E1F4329ED5
:104BB000F001339EF00D1124E05AFD4F989ED00174
:104BC000999EB00D1124A95DBD4F12962D913C9177
:104BD00013973087278344821082118292878187BE
:104BE00015965C9205C014822F5F3F4F3D96A8CF6B
:104BF0000E94D5242196C37082CF0E9403250E9473
:104C00004D25CDB7DEB7E1E10C94853480910C01E0
:104C1000877F80930C0182E00E942F2A80910C01F3
:104C200084FF06C08F7E80930C0182E00E943D2AA3
:104C300080910C0185FF06C08F7D80930C0180E27E
:104C40000E943D2A0E94A92A0895662329F02091F6
:104C5000EC0222602093EC029C013052211530437B
:104C600008F499270E94A6330895009741F0EFE9D0
:104C7000FFE03197F1F700C000000197F6CF0895EB
:104C8000A0E0B0E0E6E4F6E20C9470345C017B0155
:104C9000C42E890180910C0182FF88C0C09122023C
:104CA000D0912302CA15DB0521F0A114B10409F04B
:104CB0007DC080910C018B7F80930C0181FD11C020
:104CC0008091200290912102A701481B590B81E09D
:104CD00020910A0130910B014217530718F480E02C
:104CE00001C081E08170D82E80910C01D0FA81F949
:104CF00080930C01FE01FF2784E0F695E7958A95E5
:104D0000E1F79E012F703327EE0FFF1FE452FE4F95
:104D100081E090E002C0880F991F2A95E2F7DD201C
:104D200029F020813181822B932B06C080959095AC
:104D30002081318182239323918380838091DB01C1
:104D400081FF08C080910C01806180930C0182E09A
:104D50000E94362A8091DB0185FF08C080910C01FA
:104D6000806280930C0180E20E94362AA8016D2D9A
:104D7000CE010E942526CC2031F08091170285FFBC
:104D800002C086FF2BC080911A0290911B020E94E4
:104D9000352680912202909123029C0130522115E8
:104DA000304308F499270E948C3312C0C5019052F9
:104DB0008115904318F4C501992701C0C5010E94CF
:104DC0008C338091220290912302A816B90611F427
:104DD0000E940626F0922102E0922002CDB7DEB7B3
:104DE000EAE00C948C3480E008959091CD0492FF19
:104DF0000DC0282F2871283019F4877F846006C0E1
:104E0000282F2471243011F48B7F886093FF0DC00C
:104E1000282F2871283119F4877E846106C0282F35
:104E20002471243111F48B7E88612091CE0420FFFF
:104E30000DC0382F3871383019F4877F816006C073
:104E4000382F3171313011F48E7F886021FF0DC011
:104E5000282F2871283119F4877E816106C0282FF8
:104E60002171213111F48E7E886194FD877E089531
:104E70008238910569F1B0F48133910509F475C068
:104E800048F48932910509F467C08A32910509F422
:104E900071C008958533910509F459C0893391058E
:104EA000B9F00895833E910589F138F4803E91056B
:104EB000D1F0823E910529F10895863E9105C9F110
:104EC000873E9105D9F1843E910509F06CC027C059
:104ED0002091CD0420FD57C021FD55C02091CE0466
:104EE00023FD5BC008958091CD0480FD48C0809172
:104EF000CE0480FF48C08091CD0484FD46C083EE7F
:104F000051C08091CD0482FF3CC0F5CF8091CD048B
:104F100082FD37C08091CE0480FD35C0ECCF8091FA
:104F2000CE0481FF36C08091CD0484FD2EC087EE73
:104F300039C08091CD0483FF2AC0F5CF8091CD0484
:104F400083FD25C08091CE0481FD23C0ECCF8091EC
:104F5000CD0485FD22C01FC08091CD0485FD1BC0FE
:104F60008091CE0483FF19C00AC08091CD0486FDD4
:104F700016C017C08091CD0486FD13C010C089E310
:104F800011C082EE0FC080EE0DC080E00BC086EE37
:104F900009C084EE07C085E305C089E203C08AE248
:104FA00001C081E390E00895F894E82FE295EF7056
:104FB000F0E031A1282F2F7081E090E001C0880F30
:104FC0002A95EAF7982F9095932391A392A1892B84
:104FD00082A378940895A8E0B0E0E1EFF7E20C94A2
:104FE0006C34AE014F5F5F4F7A0188E0FA01119295
:104FF0008A95E9F70EE111E06A0192E2692E91E0EB
:10500000792E88248394912CF80180818F3F09F4B4
:1050100047C0F894E82FE295EF70F0E021A18F707F
:10502000A40102C0440F551F8A95E2F7CA01922FCE
:10503000982B91A392A18095892382A3789400C094
:10504000E2E2F1E021E030E0A12CB12C41914F3FB0
:1050500089F0A42FA295AF70B0E090968C9190E06B
:105060004F7002C0959587954A95E2F780FD02C082
:10507000C90102C080E090E0A82AB92A220F331F9C
:1050800051E0EE32F50711F7F80180818F3F11F002
:105090000E94D427F0EAFA95F1F7F601B182A082D6
:1050A0000F5F1F4FF2E0CF0ED11C6016710609F0A2
:1050B000ABCF48E050E0B7018DE791E00E949F340C
:1050C000892B89F088E0F701ADE7B1E001900D92FE
:1050D0008A95E1F781E0809360030E948321909399
:1050E0005F0380935E0380916003811102C080E0C2
:1050F00020C080915E0390915F030E946821059714
:10510000B0F348E050E06DE771E080EA91E00E9482
:105110009F34892B59F088E0EDE7F1E0A0EAB1E097
:1051200001900D928A95E1F781E001C080E0109234
:1051300060032896EEE00C9488342091A801309109
:10514000A901232BA1F4703F39F4603F81F48091D1
:105150006E0390916F030895743048F46C3038F406
:10516000843028F4462F672F0E94A724089580E0FA
:1051700090E008951F93CF93DF930E943827EC01AE
:10518000C11580E5D807E8F5C11590E4D90708F006
:10519000A8C0C03ED10530F5CD3CD10508F094C083
:1051A000C83AD10578F4C53AD10508F083C0C130BA
:1051B000D10509F47CC008F4F2C0C430D10508F070
:1051C000F1C0EDC0C33CD10508F0E9C0C85AD0E039
:1051D000CC0FDD1FC05CDE4F0990D881C02DCE0101
:1051E0009464E1C0C11580E2D80708F0CBC0C115B6
:1051F00091E0D90708F06BC0C83ED10508F4D2C0D1
:10520000CEC0C03682E5D80728F5C03492E5D9076C
:1052100008F079C0C03282E5D80708F06CC0C1152B
:1052200092E5D90708F481C04C2F4695469580E257
:10523000489FA0011124C37021E030E0C90102C0E1
:10524000880F991FCA95E2F7EA01C82BD92BCE0126
:105250009D68A9C0C03A82E5D807B8F48C2F8F7139
:10526000C03892E5D90708F07BC08695869590E214
:10527000899F90011124C37081E090E002C0880FE3
:10528000991FCA95E2F79A6868C0C03C82E5D807C2
:1052900008F46DC0C03E92E5D90708F080C0CF7118
:1052A000DD27DC2FCC27CE01806F906A7CC081E0A7
:1052B00090E079C0C55AD0E0C35CDE4F8881C82F2A
:1052C000D0E0CE0190646FC0CE0190656CC08D2F90
:1052D0000E94F526182FCE0199270E9438271F71AA
:1052E0005CC0CE0199270E943827CC27DF70D06A96
:1052F0008C2B9D2B58C0CF71D0E0DC2FCC27CE015A
:10530000816F906A50C08C2F8F718695869590E240
:10531000899F90011124C37081E090E002C0880F42
:10532000991FCA95E2F79C6818C08C2F8F710E9454
:10533000F52695E0D695C7959A95E1F7CF70D0E020
:10534000DC2FCC27282F30E084FF05C084E0220F1B
:10535000331F8A95E1F7D069CE01822B932B23C0AE
:1053600090E0D82FCC27CE01846F906A1CC08C2F80
:105370008F710E94F5268F7190E0D82FCC27CE0137
:10538000906211C08D2F8F710E94F526182FCE01CB
:1053900099270E9438271F719062912B04C080E0EA
:1053A00090E001C0CE01DF91CF911F910895A6E05A
:1053B000B0E0EDEDF9E20C9476340E9483218C018B
:1053C00080915C0390915D030817190781F01982A1
:1053D0001A820E948321682F49815A81792F80E0A7
:1053E00090E00E940A3110935D0300935C032696BF
:1053F000E4E00C94923480915B03882331F01092A6
:105400005B0310925A03109259030895CF93909121
:10541000CE0492FF0DC090915B03981749F0C82FFE
:105420000E94832190935A0380935903C0935B0396
:10543000CF91089590915B03292F282379F08095CF
:10544000892380935B03882319F00E94832102C083
:1054500080E090E090935A038093590308958095DB
:105460009091EC0289238093EC02089580959091AD
:10547000DB0189238093DB0108959091DB01892B67
:105480008093DB0108951092500310924F03109205
:105490004E03089590915003809589238093500383
:1054A000282F277069F4981759F09091CE0492FF35
:1054B00007C08695869586950E945E1C0E94432AA9
:1054C00008959091CE0492FB222720F9281779F0B5
:1054D00080FB92F99093CE046091CD047091CE043C
:1054E00084E090E00E94153482E00E944A2A0895E8
:1054F0009091CE0492FF10C098E0899F90011124F2
:10550000262B209350030E946B1C0E9483219093B2
:105510004F0380934E0308950E946B1C0895809161
:10552000FE019091FF01892B89F00E948321209137
:10553000590330915A03AC01421B530B81E0209177
:10554000FE013091FF014217530708F480E081709B
:1055500008959091DB018091EC02892B8093D30117
:1055600080915B03882301F18091FE019091FF01FE
:10557000892B29F00E948F2A81110E94FB2990918A
:10558000D30180915B03892B8093D301E5EDF1E09A
:1055900097E080E0915029F021912223D9F38F5F89
:1055A000F9CF81110E94FB298091E20280959091B0
:1055B000D30189239091E302892B8093D30148E0A2
:1055C00050E061E573E083ED91E00E949F34892B08
:1055D000A9F088E0E3EDF1E0A1E5B3E001900D92E0
:1055E0008A95E1F7E091F102F091F202309731F003
:1055F0000280F381E02D83ED91E00995089590916B
:105600004D03292F282321F08095982390934D0353
:10561000089520914C039091030359E02917A9F0B4
:1056200030E0529FF001539FF00D1124EC5FFC4FCE
:105630007181761306C07081781303C0758174136D
:1056400006C02F5F3F4F2770E9CF80E0089581E0CB
:10565000089580914C0390910303891719F08F5F8F
:105660008770FBCF0895A0E0B0E0E9E3FBE20C9483
:1056700073348091000382958F7009F052C080913D
:10568000FF02882309F44DC0C0914C0389E0D82E55
:1056900080910303C81709F444C0D0E0DC9E800168
:1056A000DD9E100D1124F801EC5FFC4F84818823EE
:1056B000A9F191818091FB02981330C09081809173
:1056C000FA0298132BC08581811128C0E280F380F3
:1056D0008091FC029091FD02E81AF90A60E08AEFDD
:1056E00092E00E94FB306AEF72E00E94402EE816C2
:1056F000F906A0F4809100038F708061809300030D
:10570000F801E65FFC4F80818F70806180838AEFB3
:1057100092E00E9408040E94292B03C02196C770C2
:10572000B7CFCDB7DEB7E7E00C948F34A0E0B0E0A0
:10573000ECE9FBE20C9470344430510508F46CC081
:105740004091CD0441FBCC24C0F8D12CCC0CDD1C05
:1057500042FB882780F9C82FE0E0DE2FCC0FDD1F49
:10576000CC0FDD1FCC2ADD2A40FBEE24E0F8F12C23
:10577000EC28FD2843FBAA27A0F9B0E023E0AA0FFC
:10578000BB1F2A95E1F7EA2AFB2A44FBEE27E0F942
:10579000F0E034E0EE0FFF1F3A95E1F7EE29FF2924
:1057A00045FB222720F930E055E0220F331F5A95A0
:1057B000E1F72E2B3F2B46FB882780F990E0E6E0AF
:1057C000880F991FEA95E1F7822B932B47FB44271B
:1057D00040F950E05695542F442757954795842B10
:1057E000952B2091CE04322F3170132F00E0082B1F
:1057F000192B26952170B22EBB0CA12C0A291B292E
:10580000012E000C220B330BFB010083118322833A
:10581000338380E090E002C08FEF9FEFCDB7DEB71B
:10582000EAE00C948C34ECEFF1E0848195812AE07D
:1058300030E0B9010E943334609315018681809372
:1058400014018285809313018485809312018685DB
:105850009785B9010E943334609311018089809348
:105860001001828980930F01848980930E0108952D
:105870008091FC019091FD0190930B0180930A01AE
:105880000895CF92DF92EF92FF924430510508F4D1
:1058900071C0FB01C080D180E280F3800E94A41E11
:1058A0008091CD04C0FA80F9B701A601769567957D
:1058B0005795479540FB81F9B701A60122E07695FF
:1058C0006795579547952A95D1F740FB82F9B7011F
:1058D000A60133E076956795579547953A95D1F7A8
:1058E00040FB83F9B701A601E4E0769567955795EB
:1058F0004795EA95D1F740FB84F9B701A601F5E099
:105900007695679557954795FA95D1F740FB85F9B8
:10591000B701A601A6E07695679557954795AA9594
:10592000D1F740FB86F9B701A601B7E076956795F8
:1059300057954795BA95D1F740FB87F98093CD04E9
:105940008091CE04D0FA80F999E0F694E794D79448
:10595000C7949A95D1F7C0FA81F98093CE046091EB
:10596000CD047091CE0484E090E00E94153480E074
:1059700090E002C08FEF9FEFFF90EF90DF90CF900D
:1059800008959C01CA01F9013296459154918417FA
:10599000950750F0CB01F9013496659174910E94FE
:1059A000AC3480E090E008958FEF9FEF08950F935F
:1059B0001F93CF93DF930CEF11E0C9EAD1E0CE0142
:1059C0000E94D933F80161918F01681719F0CE0157
:1059D0000E94F7332196CD3CF1E0DF0781F7DF919C
:1059E000CF911F910F910895DA019C012E5F3F4FD7
:1059F000F90145915491F90125913491A217B3070A
:105A000058F0FC013496859194910E94AC340E9428
:105A1000D72C80E090E008958FEF9FEF08950F93CB
:105A20001F93CF93DF930CEF11E0C9EAD1E0CE01D1
:105A30000E94D933F80181938F012196CD3CF1E08A
:105A4000DF07A9F7C0E0D0E0FE01E655F94F8591E8
:105A50009491009711F0FC0109952C96CC3FD1054B
:105A600099F7DF91CF911F910F910895ECEFF1E03D
:105A7000128E138E8FEA90E09183808325E0248F2D
:105A800088E893E1938382838AE090E0958384831E
:105A900044E150E05783468348E050E05187408717
:105AA000938782876EE170E0758764879787868722
:105AB00080E590E0918B808B538B428B48E250E0E5
:105AC000558B448B42E350E0578B468B48EC50E0BB
:105AD000518F408F158E178E168E91A380A322A30F
