:100000000C9471030C94B8030C94B8030C94B803CB
:100010000C94B8030C94B8030C94B8030C94B80374
:100020000C94B8030C94B8030C94552B0C94272C07
:100030000C94EA250C94B8030C94B8030C94B80300
:100040000C94B8030C94B8030C94B8030C94B80344
:100050000C94B8030C9443260C94B8030C94B80386
:100060000C94B8030C94B8030C94B8030C94B80324
:100070000C94B8030C94B8030C94B8030C94B80314
:100080000C94B8030C94B8030C94B8030C94B80304
:100090000C94B8030C94B8030C94B8030C94B803F4
:1000A0000C94B8030C94B8030C94B803F514F8142A
:1000B0001815291531153C153F15421545158B1599
:1000C0008B1548154B1550155D156A156D15711575
:1000D0007E152A1C2A1C5C1C5C1CA91CC71CDB1D71
:1000E000DB1DD21C6B1D7C1D7C1D7B1E7B1E8D1E93
:1000F0008D1E841E8D1E8D1E8D1E7B1E7B1E891ED9
:100100008D1E8D1E891E942CBB2CB32DBB2CB32DA4
:10011000072D2A2DB32D812D902D290014001A00B2
:100120000800150017002B610400160007000900E5
:100130000A00E1001D001B00060019000500E20096
:10014000025101512C001C0018000C001200130079
:100150002F0030000B000D000E000F0033003400A4
:10016000310011001000360037003800E50028008B
:100170002A00015102510000000035021E021F0238
:100180002002210222020100010001000100010001
:1001900001003A003B003C003D003E003F00E30010
:1001A0008A00010001002302240225022602270200
:1001B0002D022E025000510052004F00010001009C
:1001C000010040004100420043004400450001009E
:1001D00001000100E3000000000035001E001F00C8
:1001E00020002100220001000100010001000100A7
:1001F00001000100010001000100010001000100F7
:100200000100010001002300240025002600270032
:100210002D002E000100010001000100010001007D
:1002200001000100010001000100010001000100C6
:1002300001000100010000000000010001000100B8
:1002400001000100010001000100010001000100A6
:100250000100010001000100010001000100010096
:100260000100010001000100010001000100010086
:100270000100010001000100010001000100010076
:100280000100010001000100010001000100010066
:10029000010001000100000000000000000000005B
:1002A00000002A2B280000000000000000000000D1
:1002B000000000000029000000002C1E3420212234
:1002C00024342627252E362D3738271E1F2021229D
:1002D000232425263333362E37381F040506070816
:1002E000090A0B0C0D0E0F10111213141516171806
:1002F000191A1B1C1D2F3130232D35040506070844
:10030000090A0B0C0D0E0F101112131415161718E5
:10031000191A1B1C1D2F3130354C00000000000045
:1003200000000000000000000000000000000000CD
:1003300000000000000000000000000000007E0F30
:1003400000D4FFFFFFC7000000781E0F0500047FE8
:100350003F1F643214643214783C1E1E140A0522B6
:1003600023252628292A2C2D2F3032333536383AAA
:100370003B3D3E4042434547494A4C4E5051535500
:1003800057595A5C5E6062646668696B6D6F717321
:100390007577797B7D7F81838587898A8C8E909222
:1003A0009496989A9C9E9FA1A3A5A7A8AAACAEAF2D
:1003B000B1B3B4B6B8B9BBBCBEBFC1C2C3C5C6C772
:1003C000C9CACBCCCDCED0D1D2D2D3D4D5D6D7D723
:1003D000D8D9D9DADADBDBDBDCDCDCDCDCDDDDDD6B
:1003E000DDDCDCDCDCDCDBDBDBDADAD9D9D8D7D767
:1003F000D6D5D4D3D2D2D1D0CECDCCCBCAC9C7C614
:10040000C5C3C2C1BFBEBCBBB9B8B6B4B3B1AFAE51
:10041000ACAAA8A7A5A3A19F9E9C9A9896949290F7
:100420008E8C8A89878583817F7D7B7977757371CF
:100430006F6D6B6968666462605E5C5A59575553AC
:1004400051504E4C4A4947454342403E3D3B3A3865
:1004500036353332302F2D2C2A292826252322FF0A
:10046000AA7F5540000101010101010101010202C1
:100470000202020202020203030303030303030452
:10048000040404040404050505050506060606061D
:10049000070707070708080808090909090A0A0AD7
:1004A0000B0B0B0C0C0C0D0D0D0E0E0E0F0F0F1079
:1004B0001011111112121313141415151616171703
:1004C000181819191A1A1B1B1C1D1D1E1E1F20206F
:1004D000212222232424252626272829292A2B2CB9
:1004E0002D2D2E2F30313232333435363738393ADC
:1004F0003B3C3D3E3F404142434445464748494AD4
:100500004C4D4E4F50515354555658595A5B5D5EA1
:100510005F616264656668696B6C6D6F707273753C
:1005200077787A7B7D7E8082838587888A8C8E8FA0
:1005300091939596989A9C9EA0A2A3A5A7A9ABADCE
:10054000AFB1B3B5B7BABCBEC0C2C4C6C9CBCDCFBC
:10055000D1D4D6D8DBDDDFE2E4E7E9EBEEF0F3F56A
:10056000F8FAFDFF1403470050004B00360030003E
:100570002D003400360041000000180344006100E3
:10058000720061006B0075002D004E0065006B006D
:100590006F0000000403090409025B00030100A0CE
:1005A000FA09040000010301010009211101000101
:1005B0002240000705810308000A09040100020324
:1005C0000000000921110100012222000705820319
:1005D00020000107050303200001090402000103B4
:1005E000000000092111010001227B00070584039E
:1005F00020000A1201100100000008EDFE14140191
:1006000000010200010660FF0961A10109621500F5
:1006100026FF009520750881020963150026FF005A
:10062000952075089102C005010902A10185020902
:1006300001A1000509190129081500250195087572
:100640000181020501093009311581257F95027567
:1006500008810609381581257F95017508810605F1
:100660000C0A38021581257F950175088106C0C0E6
:1006700005010980A101850319012AB7001501268A
:10068000B700950175108100C0050C0901A1018515
:100690000419012AA002150126A0029501751081F6
:1006A00000C005010906A101050719E029E71500A9
:1006B00025019508750181029501750881010507DD
:1006C000190029FF150026FF009506750881000511
:1006D0000819012905950575019102950175039188
:1006E00001C011241FBECFEFDAE0DEBFCDBF04B6DC
:1006F00003FE27C08091090390910A03A0910B0388
:10070000B0910C038730904BA740B04BD1F41092BE
:10071000090310920A0310920B0310920C0314BEEB
:1007200084B7877F84BF0FB6F894A8958091600046
:10073000886180936000109260000FBEE0E0F8E3F3
:10074000099511E0A0E0B1E0E6EBFEE502C00590FE
:100750000D92A63DB107D9F723E0A6EDB1E001C0A7
:100760001D92A930B207E1F70E9416280C94592F68
:100770000C94000081E0089581E008950C94BC037E
:1007800008950C94C0031F93CF93DF9300D000D043
:100790001F92CDB7DEB749835A836B8330914802ED
:1007A00089819A81311114C0662359F0222349F0BE
:1007B0000E943923182F682F89819A810E94E02294
:1007C00003C00E940C23182F69817A81812F04C0F5
:1007D0000E94392369817A810F900F900F900F90BA
:1007E0000F90DF91CF911F910C945D16FC01262F85
:1007F000408151816281738184810C94C303CF93C2
:10080000DF93EC0160E00E94F603BE01DF91CF911F
:100810000C94C1038F929F92AF92BF92CF92DF92BE
:10082000EF92FF920F931F936B017C0181E090E0A8
:10083000A0E0B0E04C015D0104C0880C991CAA1C2A
:10084000BB1C4A95D2F7AC01BD0104C0440F551F33
:10085000661F771F2A95D2F7482959296A297B29CB
:1008600004C0880F991FAA1FBB1F0A95D2F78A01DF
:100870009B010C211D212E213F21401751076207AA
:10088000730739F4BC01CD016C297D298E299F297C
:100890000AC080959095A095B095BC01CD016C21C2
:1008A0007D218E219F211F910F91FF90EF90DF906E
:1008B000CF90BF90AF909F908F9008950F93382F57
:1008C000262F60919F027091A0028091A1029091C9
:1008D000A202042F432F0E940A040F910C941C22A1
:1008E0000E94B9070C94F3070C94EF0708950E9437
:1008F000691E0E9476042FEF84E39CE02150804023
:100900009040E1F700C000000C9469260F931F93FC
:10091000CF93DF938C0161E00E94F603EC01B801F4
:100920000E944D14882309F44BC0B801CE010E94E7
:10093000BE03882309F444C0B801CE010E94921777
:100940008823F1F1B801CE010E94E4178823C1F198
:10095000B801CE010E940F19882391F1B801CE0190
:100960000E94F612882361F1F8018281882309F13F
:10097000CA358DE5D807C1F050F4C115FCE5DF0795
:1009800081F0CE3DDC45A9F40E943D2519C0CB3550
:10099000EDE5DE0761F0CC35DD4559F40E94CC234E
:1009A00008C00E9477040CC00E94D52302C00E9498
:1009B000D823C801DF91CF911F910F910C94BA03F6
:1009C00080E0DF91CF911F910F910895DF92EF9218
:1009D000FF920F931F93CF93DF93E82FF0E0E6563B
:1009E000FD4FD490282F26952695269530E0F901C5
:1009F000E65CFC4F0491877010E0082E02C015954C
:100A000007950A94E2F701701127F901E65DFC4FA2
:100A1000E490F12C082E02C0F594E7940A94E2F7D2
:100A200091E0E922FF24F901E65EFC4FC491D0E099
:100A300002C0D595C7958A95E2F7C170DD270115EB
:100A4000110519F081EE0E94B31AE114F10419F0B6
:100A500086EE0E94B31A8D2D0E94DC1BEF2819F040
:100A600086EE0E945D1B012B19F081EE0E945D1B3A
:100A7000CD2B51F08CE2DF91CF911F910F91FF9020
:100A8000EF90DF900C94DC1BDF91CF911F910F91C1
:100A9000FF90EF90DF900895EF92FF920F931F93D6
:100AA000CF93DF93EC01162F0AE08881882309F4A5
:100AB00055C0813009F043C08981813041F47E0105
:100AC00082E0E80EF11C8A810E94DC1B09C08230A2
:100AD00049F47E01E2E0EE0EF11C8A810E94B31A15
:100AE000E7012FC0833041F47E01F2E0EF0EF11CEC
:100AF0008A810E945D1BF4CF843011F0219621C0C1
:100B00002A81229680E090E030E0205331092A309B
:100B1000310558F4089FA001099F500D1124C90107
:100B2000840F951F21962881EFCF009751F0EFE9B0
:100B3000FFE03197F1F700C000000197F6CF0E9467
:100B4000E6042196812F882309F4AFCFEFE9FFE077
:100B50003197F1F700C000008150F5CFDF91CF91C0
:100B60001F910F91FF90EF90089560E00C944C0559
:100B700008950C94B80581E008950C94BB05CF93BB
:100B8000C82F0E94B9058C2F0E94BD05CF910895F2
:100B9000CF93DF930E945D160E94CA06EC01811577
:100BA00021E5920708F043C0811540E5940708F05D
:100BB0008AC0883E910520F5803E910508F0E6C088
:100BC000883A910570F4853A910508F074C0813037
:100BD000910509F4DBC008F4D7C0049708F0D6C02B
:100BE000D3C08F3B910508F0CFC0C85AD0E0CC0FDE
:100BF000DD1FC45DDE4F0990D881C02DD464C6C00E
:100C0000C11580E2D80758F4C11521E0D20708F0D9
:100C1000BDC0C03FD10508F4B7C0D065B7C0C1158D
:100C200040E4D40708F4B0C0DF70D06AAFC0C1158B
:100C300085E5D807A0F4C11524E5D20708F08AC0DD
:100C4000C11543E5D40708F06FC0C11582E5D80788
:100C500008F054C0DC2FCC27C16FD06A97C0C115F3
:100C600029E5D207A0F4C11548E5D40708F077C0FC
:100C7000C11586E5D80708F087C08C2F0E945E0753
:100C80008F71C82FD0E0DC2FCC27D0627FC0C11578
:100C90002AE5D20708F468C0CE019056811590422B
:100CA00008F072C08D2F8F710E945E07DD27D06221
:100CB0008F71D82B6BC0C55AD0E0C65ADE4FC881A1
:100CC000D0E0D06463C074E0969587957A95E1F79B
:100CD00083709C2F937021E030E002C0220F331FFD
:100CE0009A95E2F73C68382BCF70C695C69580E29E
:100CF000C89FE0011124C22BD32B48C0CE018370C2
:100D0000992721E030E002C0220F331F8A95E2F7D5
:100D10008C2F8695869540E2849FC0011124E901BD
:100D2000C82BD92BDC6832C0CE018370992721E013
:100D300030E002C0220F331F8A95E2F78C2F869590
:100D4000869540E2849FC0011124E901C82BD92B6C
:100D5000DA681CC0DC2FCC27C46FD06A17C0DC2F28
:100D6000CC27C06FD06A12C08C2F8F700E945E0794
:100D700094E0D695C7959A95E1F7CF70D0E0DC2F37
:100D8000CC27D069C82B02C0C0E0D0E0CE01DF91F3
:100D9000CF9108958238910569F1B0F481339105BE
:100DA00009F46DC048F48932910509F463C08A32B0
:100DB000910509F469C008958533910509F455C07A
:100DC00089339105B9F00895833E910569F138F4AE
:100DD000803E9105B1F0823E910509F10895863E6D
:100DE0009105A9F1873E9105B9F1843E910509F07D
:100DF00064C023C02091C00220FD4FC021FD4DC022
:100E000008958091C00280FD44C08091C10280FF9E
:100E100044C08091C00284FD42C083EE4DC08091E9
:100E2000C00282FF38C0F5CF8091C00282FD33C07E
:100E30008091C10280FD31C0ECCF8091C10281FF61
:100E400032C08091C00284FD2AC087EE35C08091F7
:100E5000C00283FF26C0F5CF8091C00283FD21C070
:100E60008091C10281FD1FC0ECCF8091C00285FD41
:100E70001CC01DC08091C00285FD19C016C08091A4
:100E8000C00286FD16C017C08091C00286FD13C047
:100E900010C089E311C082EE0FC080EE0DC080E06B
:100EA0000BC086EE09C084EE07C089E205C085E369
:100EB00003C08AE201C081E390E008959091C002EE
:100EC00092FF0DC0282F2871283019F4877F846085
:100ED00006C0282F2471243011F48B7F886093FF83
:100EE0000DC0282F2871283119F4877E846106C02F
:100EF000282F2471243111F48B7E88612091C10246
:100F000020FF0DC0382F3871383019F4877F816089
:100F100006C0382F3171313011F48E7F886021FF87
:100F20000DC0282F2871283119F4877E816106C0F1
:100F3000282F2171213111F48E7E886194FD877EE6
:100F400008950C9427140E9432088FE39CE90197BE
:100F5000F1F700C000000E94320880E00E94DD0727
:100F600080FF04C00E94A1070C94692608950C9488
:100F7000A3070E949524811102C00E943D250E9472
:100F8000A0248093B4020E94A8249093C10280936D
:100F9000C0020E94B7070E94A424682F70E080E07E
:100FA00090E00E94E22160919F027091A0028091E6
:100FB000A1029091A2020C941A22E82FF0E0E653CD
:100FC000FD4F80810895089580EA8A95F1F708958C
:100FD00000C008950C94E40708950C94EC070C9459
:100FE000ED070C94EC070C94F107F894E82FE295C8
:100FF000EF70F0E031A1282F2F7081E090E001C068
:10100000880F2A95EAF7982F9095932391A392A1A0
:10101000892B82A378940895CF93DF93C3E6D1E020
:1010200089910E94F50781E0CB36D807C9F7CDE555
:10103000D1E089910E94F50781E0C336D807C9F74E
:10104000E2ECF2E0AAECB2E08AEC92E011921D929E
:101050008E179F07D9F788E00E94B708DF91CF91DC
:101060000C9470048F929F92AF92BF92CF92DF92B6
:10107000EF92FF920F931F93CF93DF9383E6A82EF7
:1010800081E0B82EC2ECD2E09BE6E92E91E0F92E89
:10109000912C01E010E06501F5018081F894E82FC2
:1010A000E295EF70F0E021A18F70A80102C0440F1B
:1010B000551F8A95E2F7CA01922F982B91A392A10E
:1010C0008095892382A378940E94E807EDE5F1E0FA
:1010D00020E030E0812C4191A42FA295AF70B0E0C8
:1010E00090968C9190E04F7002C0959587954A95A7
:1010F000E2F780FD07C0802F022E01C0880F0A94FE
:10110000EAF701C080E0882A2F5F3F4F2630310583
:1011100011F75FEFA51AB50AF60180810E94F50765
:101120000E94EA078881881619F0888281E001C050
:1011300080E0982A2196EA14FB0409F0ACCF292D0F
:1011400048E06AEC72E082EC92E00E94B8080E94EB
:101150007404892DDF91CF911F910F91FF90EF9033
:10116000DF90CF90BF90AF909F908F90089508959B
:10117000FF920F931F93CF93DF938C01F62ED72FFF
:10118000C42F222349F081E08093DA010E941C26BB
:101190009093D9018093D8018091DA018823C1F01E
:1011A0008091D8019091D9010E943426069780F051
:1011B000EF2DFD2FD8014C2F50E0CD01801B910B5E
:1011C000841795071CF48D918193F7CF1092DA0163
:1011D000DF91CF911F910F91FF9008958091E101D0
:1011E00080FF0BC06091090185E0689FB001112468
:1011F00075956795759567952BC081FF09C06091BE
:10120000090185E0689FB00111247595679520C09C
:1012100082FF07C06091090185E0689FB001112439
:1012200017C09091E0019923D1F0609108019617C1
:1012300088F72091090185E0289F90011124929F51
:10124000A001939F500D112470E0CA010E94152E39
:101250006038710540F46115710519F406C065E048
:1012600070E0862F08958FE7089581E008958091BA
:10127000E10180FF08C06091050170E075956795F8
:101280007595679521C081FF06C06091050170E0EA
:101290007595679519C082FF04C06091050170E0E3
:1012A00010C09091DF01992399F060910401961785
:1012B000A0F780910501899FC001112470E00E9470
:1012C000152E6038710540F46115710519F406C0DA
:1012D00061E070E0862F08958FE7089581E008951A
:1012E000803F21F40E94EE08819504C0813F29F4DB
:1012F0000E94EE088093E5010895823F21F40E9448
:10130000EE08819504C0833F29F40E94EE08809383
:10131000E4010895893F19F40E94370905C08A3F06
:1013200031F40E94370981958093E60108958B3F3F
:1013300021F40E943709819504C08C3F29F40E9452
:1013400037098093E70108959CE0980F953078F471
:1013500021E030E0A90102C0440F551F9A95E2F741
:10136000CA019091E301892B8093E30108958D3F99
:1013700021F48091E10181600BC08E3F21F48091C6
:10138000E101826005C08F3F29F48091E101846012
:101390008093E1010895803F39F49091E50197FF32
:1013A00035C01092E50159C0813F29F49091E501C3
:1013B0001916BCF32BC09091E401823F29F497FFEA
:1013C00025C01092E40149C0833F19F41916CCF3EB
:1013D0001DC09091E601893F29F41916BCF41092C2
:1013E000E6013BC08A3F19F497FF10C0F8CF8B3F4E
:1013F00039F49091E70197FF09C01092E7012DC0E1
:101400008C3F21F49091E7011916BCF39CE0980FF2
:10141000953080F421E030E0A90102C0440F551F4F
:101420009A95E2F7CA0180959091E3018923809310
:10143000E30113C08D3F21F48091E1018E7F0BC049
:101440008E3F21F48091E1018D7F05C08F3F29F40B
:101450008091E1018B7F8093E1018091E401811112
:1014600006C08091E501811102C01092E0018091D7
:10147000E601811106C08091E701811102C010923E
:10148000DF0108950E941C262091E401211104C06F
:101490002091E501222321F09093DE018093DD016C
:1014A0002091E601211104C02091E701222321F0BF
:1014B0009093DC018093DB0182EE91E00C945C1947
:1014C000EF92FF920F931F93CF93DF9300D000D042
:1014D00000D0CDB7DEB786E0E2EEF1E0DE01119696
:1014E00001900D928A95E1F7E090E401F090E5011A
:1014F0000091E6011091E7011092E4011092E501DC
:101500001092E6011092E701E11003C0FF2009F4F8
:101510005DC08091DD019091DE010E943426AC0116
:101520009091E001992339F020910A0130E02417CD
:10153000350758F04BC020910B018AE0289F90019D
:1015400011242417350718F041C09F3F19F09F5F01
:101550009093E001EE2061F00E94EE081E1414F05A
:101560009FEF01C091E0989F902D11249093E4018A
:10157000FF2061F00E94EE081F1414F09FEF01C0DD
:1015800091E0989F902D11249093E5013091E40112
:101590003323E1F02091E5012223C1F045EB340330
:1015A000C0011124992319F09093E40103C081E054
:1015B0008093E40135EB2303C0011124992319F032
:1015C0009093E50103C081E08093E501011103C020
:1015D000112309F45DC08091DB019091DC010E9430
:1015E0003426AC019091DF01992339F02091060156
:1015F00030E02417350758F04BC0209107018AE0EE
:10160000289F900111242417350718F041C09F3FEF
:1016100019F09F5F9093DF01002361F00E9437096A
:10162000101614F09FEF01C091E0989F902D1124A7
:101630009093E601112361F00E943709111614F00E
:101640009FEF01C091E0989F902D11249093E701A6
:101650003091E6013323E1F02091E7012223C1F02C
:1016600045EB3403C0011124992319F09093E6014E
:1016700003C081E08093E60135EB2303C001112410
:10168000992319F09093E70103C081E08093E7016B
:101690008091E40181110BC08091E501811107C0A7
:1016A0008091E601811103C08091E70181110E94C0
:1016B000420AEB82FC820D831E8386E0FE01319696
:1016C000A2EEB1E001900D928A95E1F726960FB651
:1016D000F894DEBF0FBECDBFDF91CF911F910F9168
:1016E000FF90EF900895E2EEF1E086E0DF011D92B9
:1016F0008A95E9F71092E0011092DF011092E10162
:101700000895EF92FF920F931F93CF93DF938B0176
:10171000682F11110AC0442329F0E82FF0E0EC599A
:10172000FB4F6491762F862F75C0212F30E0E82F74
:10173000F0E0442321F0EC59FB4FE491F0E046E067
:10174000049FC0011124CFEFD0E0BE010E94012E02
:101750004BEA4603C001479F900D1124800F911D55
:10176000800F911D982F990F890FAE01421B530BCB
:101770004E9FD0014F9FB00D5E9FB00D11249B2F47
:10178000189FA0011124452F55278E01041B150B0E
:101790000E9FA0010F9F500D1E9F500D11247E0122
:1017A000E81AF108E29E8001E39E100DF29E100DF2
:1017B0001124212F3327C21BD30BCE9F9001CF9F23
:1017C000300DDE9F300D112462307105A9F048F410
:1017D0006115710569F061307105C9F48B2F752FA2
:1017E0000DC06430710581F058F06630710579F4F0
:1017F0007E2F8B2F932F0DC0832F7B2F9E2F09C001
:101800008E2F7B2F952F05C08E2F732F02C07E2F1A
:10181000852F692FDF91CF911F910F91FF90EF904E
:10182000089541E00E94810B089508950E94110CD3
:101830000895CF93DF93762FE901682F842F0E94BC
:10184000160C798368838A83DF91CF910895809104
:10185000D202282F269530E02115310519F4817028
:10186000826005C02B32310524F08170846580933D
:10187000D202089588E090E00C94FA2ECF92DF9285
:10188000EF92FF926B017C010E94270CB701A60129
:1018900088E090E0FF90EF90DF90CF900C94182FAD
:1018A0006091D2027091D3028091D4029091D502BE
:1018B0000C943E0CE2EDF2E083E0808311828FEF26
:1018C00082838383148260817181828193810C94ED
:1018D0003E0C8091D20280FF02C08695089580E080
:1018E00008959091D602933018F49F5F9093D6029A
:1018F000882351F06091D2027091D3028091D4027A
:101900009091D5020C943E0C089581E00C94710CDA
:101910009091D602992319F091509093D602882382
:1019200051F06091D2027091D3028091D4029091D3
:10193000D5020C943E0C089581E00C94880C8091A3
:10194000D60208958093D602662351F06091D202A8
:101950007091D3028091D4029091D5020C943E0CE8
:10196000089560E00C94A20C8091D30208958091B8
:10197000D40208958091D502089570E00C94C513A7
:10198000609110018091D20280FF0AC080910F0106
:1019900023E0829FC001112489529D4F0C94BD0CFD
:1019A0008091110190911201891780F7E82FF0E0E2
:1019B0009F01220F331FE20FF31FE952FD4F1182E7
:1019C000108212828F5FF0CF9091D20290FF16C0EA
:1019D0009091110120911201921770F4E92FF0E01B
:1019E000DF01AA0FBB1FEA0FFB1FE952FD4F8183E6
:1019F000608342839F5FF0CF0C94C00C0895CF9317
:101A0000DF9300D01F92CDB7DEB79091D20290FF46
:101A10000AC09E012F5F3F4F0E94190C4B816981C4
:101A20008A810E94E40C0F900F900F90DF91CF916C
:101A30000895CF93DF93EC01EC81F0E0E15AFC4F85
:101A40004491E2EDF2E0628181810E94FF0C8C8181
:101A50008F5F8C83DF91CF910895CF93DF93EC015B
:101A6000E2EDF2E0438162818C810E94FF0C8C8167
:101A70008F5F8C83DF91CF9108950F931F93CF9346
:101A8000DF9300D01F92CDB7DEB78C018091E801C3
:101A900081110AC09E012F5F3F4F4FEF6FEF0E94F1
:101AA000190C8A818093E801F8018481813051F01A
:101AB00028F0823061F44091E8010AC08091E80189
:101AC00040E007C06091E80140E080E003C040E0F2
:101AD00080E060E00E94E40CF801848190E00196CF
:101AE00063E070E00E94152E84830F900F900F909A
:101AF000DF91CF911F910F910895AF92BF92CF9236
:101B0000DF92EF92FF920F931F93CF93DF9300D05A
:101B10001F92CDB7DEB7182FF62E042FE22E90912C
:101B2000D20290FF6DC0E92FE695AE2FB0E0A55927
:101B3000BE4F8C9180932B029E7F923061F49E0168
:101B40002F5F3F4F812F0E94190C4B8169818A8141
:101B50000E94E40C43C0823019F40091D5023EC0CB
:101B6000863019F41091D30239C08930D9F3893104
:101B7000A9F5E9518E2F8170D82EE695F0E0E15A53
:101B8000FB4FA590B490C12CBB2460911301C616E5
:101B900018F52C2D30E0A29EC001A39E900DB29EA0
:101BA000900D112470E00E94012E812FD11002C0EF
:101BB000860F01C0861B90911101290F311DA901CB
:101BC000440F551F240F351F29523D4F402F6F2DB5
:101BD0000E94190CC394D9CF0E94C00C1093D30259
:101BE000F092D4020093D502EE2051F06091D2021F
:101BF0007091D3028091D4029091D5020E943E0C44
:101C00000F900F900F90DF91CF911F910F91FF9048
:101C1000EF90DF90CF90BF90AF900895E2EDF2E0AB
:101C20009181282F4381628180E1890F0C947D0D81
:101C300081E00C940E0EE2EDF2E09181282F4381B9
:101C4000628180EF890F0C947D0D81E00C941B0E56
:101C5000E2EDF2E0628120E1620F08F46FEF282FDD
:101C6000438181810C947D0D81E00C94280EE2ED7E
:101C7000F2E0628120E1621B08F460E0282F4381DA
:101C800081810C947D0D81E00C94370EE2EDF2E041
:101C9000438120E1420F08F44FEF282F62818181B8
:101CA0000C947D0D81E00C94460EE2EDF2E0438150
:101CB00020E1421B08F440E0282F628181810C94CE
:101CC0007D0D81E00C94550E20E00C947D0DFF926B
:101CD0000F931F93CF93DF93EC01F12C0FEF10E0E4
:101CE00060911301F616F0F4809111012F2D30E070
:101CF000280F311DC901880F991F280F391F29523C
:101D00003D4F70E0C8010E94152E962F8C814091A6
:101D1000D5026091D402F99E800D11240E94190C05
:101D2000F394DECF0E94C00C9A818C8190FF02C098
:101D30008F5F01C081508C83DF91CF911F910F91F4
:101D4000FF900895AF92BF92CF92DF92EF92FF92F1
:101D50000F931F93CF93DF93FC01828180FF02C01A
:101D60000FEF01C001E010E04BE0A42E80911301C1
:101D7000181708F043C080911101C12ED12CE60143
:101D8000C80FD11DCE01880F991FC80FD91FC95286
:101D9000DD4F198218821A8234E0E32EF12CB12C27
:101DA0008091EA018B0D8C302CF06A2D0E94F32D6E
:101DB000892F05C087FF03C090911301890F082E5A
:101DC000000C990BC816D90691F48091D5028E9D0E
:101DD000A0018F9D500D1124559547955595479518
:101DE0009E016091D4028091D3020E94190CB00E22
:101DF000F1E0EF1AF108A1F61F5FB8CF0E94C00C06
:101E00008091EA01013031F4811102C08091130107
:101E1000815007C090E001966091130170E00E942C
:101E2000152E8093EA01DF91CF911F910F91FF90C2
:101E3000EF90DF90CF90BF90AF900895CF938091B7
:101E4000110190911201891770F4E82FF0E09F01C1
:101E5000220F331FE20FF31FE952FD4F1182108250
:101E600012828F5FF0CFC0E060911301C617C0F5FA
:101E7000EC2FF0E070E0CF010E94152E20911101AF
:101E8000820F2091E901022E000C330B90E0E21743
:101E9000F307CCF020910E01022E000C330B2E170D
:101EA0003F078CF09C01220F331F820F931F9C0170
:101EB00029523D4F4091D5026091D4028091D302C6
:101EC0000E94190C0BC0FC01EE0FFF1F8E0F9F1F0D
:101ED000FC01E952FD4F118210821282CF5FC4CF04
:101EE0000E94C00C20910D018091E901820F809326
:101EF000E90190910E01920F90930E0119165CF476
:101F0000082E000C990B4091130150E041505109EB
:101F1000841795071CF0219520930D01CF9108950A
:101F20008F929F92AF92BF92CF92DF92EF92FF92E9
:101F30000F931F93CF93DF938C01FC014481C42F37
:101F4000D0E09E01DE010E94602E9B01AC010E9448
:101F5000762E6B017C01E0E2F0E0EC1BFD0BA5E5C9
:101F6000B0E09B01AC010E94762E4B015C019F0109
:101F7000DF010E94582E9B01AC010E94812E9B0123
:101F8000AC012C0D3D1D4E1D5F1DC501B4010E940D
:101F9000292EC22FD22F2A3228F4F3E02F9F90014E
:101FA00011240DC025E530E02C1B3109C901880F33
:101FB000991F280F391F37FF02C02F5F3F4F3595FC
:101FC0002795C22FC095F12C85E5E82EED1A80915A
:101FD0001301F816C8F4F1FC02C08E2D01C08D2F3C
:101FE000909111012F2D30E0290F311DA901440FCF
:101FF000551F240F351F29523D4F4C2F6091D4029D
:102000000E94190CF394E3CF0E94C00CF801848164
:10201000811102C091E003C0803219F49FEF9093C8
:102020000C0190910C01890FF8018483DF91CF910D
:102030001F910F91FF90EF90DF90CF90BF90AF90E6
:102040009F908F9008950F931F93CF93DF93EC0190
:1020500000E010E080911301282F30E002171307F1
:1020600024F5909111019801290F311DA901440F08
:10207000551F240F351F29523D4F869590E04C8106
:10208000081719071CF4442331F002C0411103C0A2
:102090004091D50201C040E06091D4028091D3020A
:1020A0000E94190C0F5F1F4FD5CF0E94C00C8C816E
:1020B00090E00196817099278C83DF91CF911F91D9
:1020C0000F9108957F928F929F92AF92BF92CF927D
:1020D000DF92EF92FF920F931F93CF93DF93FC0158
:1020E0008280748081E08483EFE5F3E09490EEEDEC
:1020F000F3E0E491A12CF5E0BF2ECC24CA94D12CBE
:10210000E9190E2F10E080911301A81608F0A2C063
:10211000EA2CF12C22E0281568F0BE9CF001BF9C4F
:10212000F00D1124E551FE4F8091D3028083809100
:10213000D402818371100AC0BE9CF001BF9CF00DD7
:102140001124E551FE4F138212826AC0BE9CE00149
:10215000BF9CD00D1124C551DE4F8B818823F9F02F
:1021600081508B832FEF829FC00111246C8170E01E
:102170000E94012EFB01FF27E15AFC4F8491E82FBA
:10218000E9192FEFE29FC0011124B8010E94012E2E
:102190008091D502689FB00111247A8341C00E94CA
:1021A000D52E2091D5022695215830E0A901440F63
:1021B000551F322F2227240F351F232F3327821735
:1021C000930774F582E0881588F40E94D52EB60135
:1021D0000E94152E88830E94D52E2091D402269528
:1021E000622F70E00E94152E280F2983BE9CF001FB
:1021F000BF9CF00D1124E551FE4F12828091D50253
:10220000843120F0893C18F088EC01C084E1BE9C48
:10221000F001BF9CF00D1124E551FE4F84838383B0
:10222000809111019701280F311DC901880F991F55
:10223000280F391F29523D4FBE9CF001BF9CF00D65
:102240001124E551FE4F4281618180810E94190C69
:10225000A39459CFDF91CF911F910F91FF90EF90F1
:10226000DF90CF90BF90AF909F908F907F900C9415
:10227000C00CE2EDF2E080818E7F8083608171810D
:10228000828193810E943E0C10922C022FEF80E7F6
:1022900092E0215080409040E1F700C000000C9493
:1022A000C00CE2EDF2E080818E7F808310922C02E0
:1022B0002FEF80E792E0215080409040E1F700C08E
:1022C00000000C94C00C10922C0280912902811104
:1022D0000AC081E0809329028091D20281708093AC
:1022E00028020C94511108956091D202669570E015
:1022F0004BE050E084E191E00E94E52E892B19F437
:1023000081E080932C020E941C26909323028093EC
:10231000220208959091D20290FF35C091708111F0
:1023200002C0926006C08B3210F0946502C0880F24
:10233000982B9093D202662351F06091D202709153
:10234000D3028091D4029091D5020E943E0C6091FC
:10235000D202669570E04BE050E084E191E00E948B
:10236000E52E892B19F010922C0202C00E947411E4
:1023700081E0809325024091D5026091D402809142
:10238000D3020C94640E0895682F9091D202969512
:1023900081E0890F8B3208F081E00C948A1181E092
:1023A0000C94C411682F9091D20296958FEF890FEB
:1023B00009F48AE20C948A1181E00C94D21161E054
:1023C0000C948A11E2EDF2E0808181608083869531
:1023D0000C94DF118091D20280FD0C9439110C9481
:1023E000E21160E00C948A1180912A0281112EC0C2
:1023F0000E949524811104C00E943D250E945A0C20
:102400000E943A0C6093D2027093D3028093D4025C
:102410009093D5026E7F61F40E945A0C0E943A0C90
:102420006093D2027093D3028093D4029093D5022A
:102430000E94270C10922C028091D20280FF03C0D0
:1024400086950E94F11181E080932A020895E2EDC1
:10245000F2E080818160808386950C94F111109266
:1024600029028091280281110E9427120C94741174
:102470000F931F93CF93DF9380912C02882309F44D
:1024800095C080912B02E091D202E695E81BE09383
:102490002402823049F4F0E0E55AFC4FE491CE2F5B
:1024A000D0E009E11DE059C0863049F4F0E0E85A77
:1024B000FC4FE491CE2FD0E00DE21DE04EC08930FC
:1024C00051F4E695F0E0EB5AFC4FE491CE2FD0E0CA
:1024D00007E61EE042C08F3051F4E695F0E0EE5A78
:1024E000FC4FE491CE2FD0E002EA1EE036C08531E9
:1024F00049F4F0E0E15BFC4FE491CE2FD0E00EE137
:102500001FE02BC08831D9F0833239F4EDE4F3E0D9
:10251000C591D4910DE31DE020C08432A9F085322D
:10252000C1F48E2F63E00E94E72DE92FF0E0E65B17
:10253000FC4FE491CE2FD0E002E610E10EC0C8E2DD
:10254000D0E000E91FE009C0C4EFD1E003E210E1F0
:1025500004C0C0EDD7E005E11CE08091250288238E
:1025600061F0109225020E941C2690932302809312
:10257000220210922702109226020E941C26E0914D
:102580002202F09123028E1B9F0B8F3F9F4770F416
:10259000EC0FFD1FF0932302E093220282E292E00F
:1025A000F801DF91CF911F910F910994DF91CF91A5
:1025B0001F910F910895882311F0FA0101C0FB01CA
:1025C0000994CF93DF93C82FD62F0E94690C8C17E4
:1025D00040F00E94690C8D1720F4DF91CF910C948C
:1025E000CF118C2FDF91CF910C94DF111F93CF93DC
:1025F000DF93FB011281112309F4C1C0EC010E9499
:10260000DB238272CC3CFCE5DF0709F49BC008F0B9
:1026100043C0C63CECE5DE0709F480C0D8F4C33CF7
:102620009CE5D90709F46DC038F4C23CDC4509F0DB
:10263000A7C00E94EA116BC0C43C9CE5D90709F40D
:1026400068C0C53CDC4509F09BC045E25EE068E13E
:102650007EE05BC0C93CFCE5DF0709F469C070F4AB
:10266000C73CECE5DE0709F45EC0C83CDC4509F078
:1026700087C044E35EE063E47EE047C0CA3C9CE57B
:10268000D90709F45AC0CB3CDC4509F079C04CE9C4
:102690005CE065E87CE039C0C13DFCE5DF0709F49A
:1026A0005EC098F4CE3C9CE5D90709F452C008F40A
:1026B0004EC0CF3CFCE5DF0709F44EC0C03DDC4511
:1026C00009F05EC06EE089E057C0C43D9CE5D907C3
:1026D00009F44BC058F4C23DFCE5DF0709F442C0E1
:1026E000C33DDC4509F04CC088E143C0C53D9CE5D5
:1026F000D907F1F1CD35DD4509F042C06AE285E246
:102700003BC04CED51E16FEC71E10E94DB1210E037
:1027100037C04FEC51E16CED71E1F7CF48E15EE07D
:1027200065E27EE0F2CF43E45EE064E37EE0EDCF7D
:1027300041E65EE062E57EE0E8CF42E55EE061E62C
:102740007EE0E3CF45E85CE06CE97CE0DECF81E051
:1027500010C065E082E010C068E086E00DC064E172
:102760008FE00AC067E185E107C062E289E104C049
:1027700083E20E94DF11CBCF0E94E112C8CF11E0AB
:10278000812FDF91CF911F910895539A2BB1277F0D
:102790003BB138604FB7F894FC01CB01880F991F0B
:1027A000680F791F6E0F7F1FE617F70789F0819179
:1027B00098E03BB9000000C087FF2BB9880F0000EC
:1027C00000C000C000C02BB900C09A9591F7ECCFB3
:1027D0004FBF8FE594E00197F1F700C00000089526
:1027E00083E290E00E94F22E813281F484E290E054
:1027F0000E94F22E893051F485E290E00E94F22E80
:1028000091E0833209F090E0892F01C080E081706F
:102810000895CF93C82F811102C06FEF01C061E20C
:1028200083E290E00E94062FC11102C06FEF01C049
:1028300069E084E290E00E94062FC11102C06FEFB0
:1028400001C063E285E290E0CF910C94062F80E016
:102850000E9409140C948F24089586E290E00E944F
:10286000F22E682F70E080E090E0089586E290E01C
:102870000C94062F0E942C140E94F01381110CC09E
:1028800060E070E0CB010E9436140E94D8150E94CF
:10289000B71681E00C9409140895CF93FB01C2810F
:1028A000CC23E9F09C0122513F452031310520F431
:1028B00082510E94C7160CC08031FFE59F0751F47A
:1028C00081E00E94422243E062E081E00E945E04D7
:1028D000C0E018C081319F45A9F482E0F2CF803179
:1028E000EFE59E0711F481E004C081319F4549F472
:1028F00082E00E94632243E062E081E00E945E0485
:1029000001C0C1E08C2FCF9108952FEFFC012083EF
:102910000895CF93DF93EC018881813889F028F402
:102920008038A1F40E94BA0C10C0823861F083385C
:1029300069F40E94B40C89830E94B70C8A8306C094
:102940000E94690C02C00E949F0C8983DF91CF9185
:102950000895CF93DF93EC0188818138B1F058F46A
:10296000803851F5D9810E94B70CC82F0E94B40C51
:102970004D2F6C2F1DC08238B1F08338E9F40E94CE
:10298000BA0C482F6A81898113C089810E94F11194
:102990008981811104C0DF91CF910C945111DF9195
:1029A000CF910C9427128981DF91CF910C94B10CB7
:1029B000DF91CF910C94640EDF91CF910895EF9247
:1029C000FF920F931F93CF93DF93EC01062F019695
:1029D000E8814E2F50E0FA013197E331F10508F01C
:1029E0009AC0EA5AFF4F0C944B2E198289E056C0C8
:1029F0008981823039F0833061F0813029F50E947D
:102A0000282602C00E942D149A838B837C836D83B9
:102A100084C07E0182E0E80EF11C10E0812F0E944C
:102A2000DD07F70181937F011F5F1830B9F775C08B
:102A30008981823049F46A817B818C819D810E94E9
:102A4000512E0E94361469C0602FCE010E94851459
:102A500064C04B816A8189810E94AA159C838D8301
:102A60005CC02C813D813227232732274B816A812C
:102A700089810E94C31551C00E94D8154EC00E9482
:102A8000A9144BC00E94891448C00E94500C45C034
:102A90000E946A1624C00E946C1699838A833DC0E6
:102AA0006B8170E089819A81AE014C5F5F4F9827FE
:102AB000892798270E946F1630C06B8170E089814A
:102AC0009A81AE014C5F5F4F9827892798270E9413
:102AD000941623C00E94B71620C00E9497158983C0
:102AE0001CC06B8170E089819A81AE014C5F5F4FA1
:102AF0009827892798270E9417160FC06B8170E0CE
:102B000089819A81AE014C5F5F4F9827892798276A
:102B10000E943B1602C08FEF8883602FCE01DF91A9
:102B2000CF911F910F91FF90EF900C94072784E0B5
:102B3000089550E0440F551F2CE0629F400D511D39
:102B400011249A0160E6869F200D311D1124C901D0
:102B5000879608950F931F93CF93DF930E94991543
:102B60008C010E94F22EC82FD0E0DC2FCC27C801A8
:102B700001960E94F22E9E01282BC901DF91CF9170
:102B80001F910F9108950F931F93CF93DF93122FEF
:102B9000032F0E949915EC01602F0E94062F612FD0
:102BA000CE010196DF91CF911F910F910C94062FCA
:102BB000AF92BF92CF92DF92EF92FF920F931F934B
:102BC000CF93DF93A12CE12CF12CB12C00E010E08D
:102BD000C0E0D0E06701C00ED11EFE01EE0FFF1F66
:102BE000EC0DFD1DE65EFE4F259134914C2F6B2DB3
:102BF0008A2D0E94C3152196C630D10571F7045F56
:102C00001F4FB39488E0B812E3CF80E6E80EF11CC2
:102C1000A39484E0A812D9CFDF91CF911F910F9197
:102C2000FF90EF90DF90CF90BF90AF900895EF921C
:102C3000FF920F931F93CF93DF93EA017A01E60E81
:102C4000F71E8C01C8018796CE15DF0569F00038A4
:102C500021E0120720F40E94F22E888301C018821E
:102C600021960F5F1F4FEECFDF91CF911F910F91F4
:102C7000FF90EF900895EF92FF920F931F93CF93E1
:102C8000DF93EA017A01E60EF71E8C01C8018796F0
:102C9000CE15DF0559F0003821E0120718F46881DD
:102CA0000E94062F21960F5F1F4FF0CFDF91CF912B
:102CB0001F910F91FF90EF900895462F843038F4C4
:102CC000783028F4663018F4672F0C94AA1580E049
:102CD00090E0089580E1089589E592E00895EF92EB
:102CE000FF920F931F93CF93DF93EA017A01E60ED1
:102CF000F71E8C01C80189559E4FCE15DF0569F07E
:102D0000093522E0120720F40E94F22E888301C0C8
:102D1000188221960F5F1F4FEDCFDF91CF911F914A
:102D20000F91FF90EF900895EF92FF920F931F93F2
:102D3000CF93DF93EA017A01E60EF71E8C01C801FA
:102D400089559E4FCE15DF0559F0093522E012074F
:102D500018F468810E94062F21960F5F1F4FEFCF56
:102D6000DF91CF911F910F91FF90EF900895CF9336
:102D7000DF93C7EAD1E060E0CE010E94062F2196E2
:102D8000C11584E0D807B9F7DF91CF910895DF929C
:102D9000EF92FF920F931F93CF93DF9300D000D059
:102DA000CDB7DEB7F82E8FE08F15E8F18FEF93E007
:102DB0000E94F22E811137C007EA11E0FF2069F06E
:102DC000011584E0180779F1C8010E94F22E8111E3
:102DD00001C0FA940F5F1F4FF1CF19821A821B8234
:102DE0001C82DD24D39478018FEFE81AF80AC80119
:102DF0000E94F22E89831A828823A9F09FEF980FF0
:102E0000933058F48A83D9820E5F1F4FC7010E9406
:102E1000F22E8B83882339F07801CE0101960E942F
:102E2000B5058701E0CF0F900F900F900F90DF91C5
:102E3000CF911F910F91FF90EF90DF9008950F9326
:102E40001F93CF93DF93C42FD22FFC01828188235D
:102E5000C9F040932F020E941C2690932E0280936B
:102E60002D0280E28C0F883008F057C0C77081E0D7
:102E700001C0880FCA95EAF7DF91CF911F910F919A
:102E80000C94E51B80912F02481330C080912D02D5
:102E900090912E020E943426883C910538F510E26C
:102EA0001D0FCD17B9F080E28C0F883040F4C77049
:102EB00081E001C0880FCA95EAF70E94EC1B183028
:102EC00028F581E09D2F977001C0880F9A95EAF749
:102ED0000E94E51B802F0E94DC1B1830F0F4D77095
:102EE00081E001C0880FDA95EAF70AC080E28C0F12
:102EF000883098F4C77081E001C0880FCA95EAF75E
:102F0000DF91CF911F910F910C94EC1B802FDF91DB
:102F1000CF911F910F910C94DC1BDF91CF911F91EA
:102F20000F9108950F939C01CB01233F4CE534078B
:102F300031F188F4283DFCE53F07D9F0293D4CE507
:102F4000340779F1273D3C45A9F506E221EE41EE33
:102F500067ED7CE52BC0253FFCE53F07E1F0A8F0DD
:102F6000263F3C4539F507E225EE46EE66EF7CE567
:102F70001DC007E225EE45EE68ED7CE517C006E2D0
:102F800021EE40EE63EF7CE511C007E225EE44EE52
:102F900064EF7CE50BC006E221EE42EE65EF7CE5D6
:102FA00005C008E221E045EE69ED7CE50E941F17AF
:102FB00080E008C0FC018281882319F010922F0262
:102FC00001C081E00F910895CF93DF93EC01FB01E5
:102FD0008281882309F41FC1C230FCE5DF0708F4B1
:102FE0001BC1C6319CE5D90738F09E012A5F3C45DC
:102FF0002930310508F010C10E94A8249093C10225
:103000008093C002C031ECE5DE0709F4C3C008F0CC
:1030100041C0C8308CE5D80709F49AC0F0F4C43038
:10302000ECE5DE0709F487C068F4C2308CE5D80708
:1030300009F477C0C330DC4509F0E3C08091C002D9
:10304000826076C0C630ECE5DE0709F46EC008F099
:103050007BC08091C00288606BC0CC308CE5D80703
:1030600009F485C068F4CA30ECE5DE0709F474C0E1
:1030700008F079C00E94691E8091C002806858C023
:10308000CE308CE5D80709F476C008F07FC0809177
:10309000C0028BC0CB3FECE5DE0709F44FC018F54A
:1030A000C3318CE5D80709F47DC078F4C131ECE573
:1030B000DE0709F473C0C231DC4509F0A2C00E94EA
:1030C000691E8091C0028F7733C0C5318CE5D80767
:1030D00009F472C008F486C0CA3FDC4509F091C00B
:1030E0008091C1023EC0CF3FFCE5DF0709F45FC01D
:1030F00058F4CD3F9CE5D90709F444C008F43FC01B
:103100008091C10282602DC0C130FDE5DF0709F466
:1031100075C008F45DC0C230DD4509F072C080E0C2
:103120006EC08091C002816003C08091C002806146
:103130008093C00266C08091C00211C08091C1021C
:1031400082608093C1025DC08091C0028062F0CF36
:103150008091C0028064ECCF8091C002886084605E
:10316000E7CF8160EECF8091C0028E7FE1CF80916A
:10317000C0028D7FDDCF8091C002877FD9CF809143
:10318000C10218C08091C1028D7FDBCF8091C00247
:103190008F7ECECF8091C0028F7DCACF8091C0023A
:1031A0008F7BC6CF8091C002877F8B7FC1CF8091FC
:1031B000C1028D7F8E7FC5CF8091C00282FB222706
:1031C00020F991E0922790FB82F990FB83F9B0CF30
:1031D0008091C102982F909591708E7F892B90FBE2
:1031E00081F9AFCF0E94691E8091C00287FB222720
:1031F00020F991E0922790FB87F99ACF81E00E9415
:103200003F258091C0029091C1020E94B9240E9482
:10321000691E80E001C081E0DF91CF910895CF93D6
:10322000DF9386319C4541F5EB010E94DB23982F0B
:103230008A8120911F0130912001882379F09A7AA8
:1032400081E009F480E080933002911102C069E2CC
:1032500001C065E3C9010E9486250AC08091300241
:10326000811102C069E201C065E3C9010E9488259D
:103270000E94202480E001C081E0DF91CF91089579
:1032800090933602809335020895E0913502F091D3
:103290003602309721F00190F081E02D099480E012
:1032A0000895E0913502F0913602309721F00280C6
:1032B000F381E02D09940895E0913502F0913602F2
:1032C000309739F022E0DC012C930480F581E02D69
:1032D0000994089520913302309134022817390758
:1032E00071F09093340280933302E0913502F091B3
:1032F0003602309721F00680F781E02D0994089579
:1033000020913102309132022817390771F09093E1
:10331000320280933102E0913502F091360230970B
:1033200021F00084F185E02D099408950E9428265B
:103330006093440270934502809346029093470243
:103340006093400270934102809342029093430243
:10335000089585B7806885BF85B7806885BF089563
:1033600081E008950C94B01908950C94B4190C944C
:10337000B4190C94B7190C94B4190C94BB190C948F
:10338000B4190E94A9198DE894E20E947A260E943D
:10339000BF190C94BD190E94B5190C94B4190E9460
:1033A00013260E940C080E943A140E94F4110C94F7
:1033B000B9199F92AF92BF92CF92DF92EF92FF9294
:1033C0000F931F93CF93DF93CDB7DEB72A970FB636
:1033D000F894DEBF0FBECDBF0E94320881110E945B
:1033E000961988E3A82E82E0B82E00E010E0902E17
:1033F000802F0E94DD07D82EF501C1905F01C826FD
:10340000B1F40F5F1F4F0830110589F78FEF8983E3
:103410008A831B820E941C268160782F9D838C8367
:1034200049815A816B818D810E94791A2FC08091C8
:10343000B40281FD0E94E307E12CFF24F3948C2D5C
:103440008F21F1F00E94B219882399F0EE829F82B9
:10345000DF2081E009F480E088870E941C268160DB
:10346000782F9A8789874E815F8168858A850E9437
:10347000791AF801E85CFD4F8081F826F08206C0D9
:10348000E394FF0CF6E0EF12DACFBBCF0E943812C4
:103490000E94600A0E944519909137028917B9F07D
:1034A0000E944519809337022A960FB6F894DEBF22
:1034B0000FBECDBFDF91CF911F910F91FF90EF9085
:1034C000DF90CF90BF90AF909F900C94BF052A964D
:1034D0000FB6F894DEBF0FBECDBFDF91CF911F9125
:1034E0000F91FF90EF90DF90CF90BF90AF909F90A3
:1034F0000895DF92EF92FF920F931F93CF93DF9384
:10350000CDB7DEB72B970FB6F894DEBF0FBECDBF99
:10351000F42E052F162FE72ED82E61110E94FB23C3
:10352000FE01319686E0DF011D928A95E9F77E2D36
:103530004F2D502F612F8D2D9E810E9422212B9681
:103540000FB6F894DEBF0FBECDBFDF91CF911F91B4
:103550000F91FF90EF90DF900895FC0180819181A1
:103560000E947B230895CF93882309F4A4C0C82F19
:103570008238C1F40E94451981FD9DC069E38091A4
:103580001F01909120010E9486250E9420242FEF88
:1035900081EE94E0215080409040E1F700C00000AF
:1035A00069E319C0833801F50E94451980FD83C085
:1035B00063E580911F01909120010E9486250E9461
:1035C00020242FEF81EE94E0215080409040E1F7DD
:1035D00000C0000063E580911F01909120010E94CE
:1035E0008825CF910C9420248438C1F40E94451979
:1035F00082FD61C067E480911F01909120010E94CB
:1036000086250E9420242FEF81EE94E021508040F7
:103610009040E1F700C0000067E4DDCF8CEF8C0F35
:10362000813AD0F46C2F80911F01909120010E946B
:103630005025882349F06C2F80911F019091200123
:103640000E9488250E9420246C2F80911F01909158
:1036500020010E948625C5CF80E28C0F883048F477
:10366000C77081E001C0880FCA95EAF70E94DE2387
:10367000B8CFEBE5EC0FE33040F4F0E0EC53FE4F55
:10368000808190E0CF910C946A19E8E5EC0FE73166
:1036900050F4F0E0EE0FFF1FEA56FE4F808191815B
:1036A000CF910C948019C03F30F08C2F0E9470098C
:1036B000CF910C94420ACF910895882309F464C0F5
:1036C000823879F40E94451981FF5EC069E38091D8
:1036D0001F01909120010E9486250E94202469E309
:1036E00010C08338B1F40E94451980FF4DC063E5D6
:1036F00080911F01909120010E9486250E94202424
:1037000063E580911F01909120010E9488250C940F
:103710002024843879F40E94451982FF35C067E47B
:1037200080911F01909120010E9486250E942024F3
:1037300067E4E7CF9CEF980F913A10F4682FE1CF40
:1037400090E2980F983050F4877091E001C0990F83
:103750008A95EAF7892F0E94E423D9CF9BE5980F39
:10376000933020F480E090E00C946A1998E5980F6B
:10377000973120F480E090E00C948019803F20F095
:103780000E94CB090C94420A08951F93CF93DF93B4
:10379000182FEB010E94B31A209741F08FE99FE0A8
:1037A0000197F1F700C000002197F6CF812FDF913C
:1037B000CF911F910C945D1B893319F060E070E08C
:1037C00002C060E570E00C94C51B882321F00E94C4
:1037D000DE230C9420240895882321F00E94E42302
:1037E0000C9420240895CF92DF92EF92FF920F93D2
:1037F0001F93CF93DF937C01D62FC72FFC0112813B
:10380000058102950F700E94B323882399F011233C
:1038100089F08C2F807F803421F080E28D0F8830FA
:1038200048F082E00E9470240E94B32391E0D82ED9
:10383000D92601C0D12CCC2EC2948FE0C8228C2D69
:1038400090E08C30910508F0B6C1FC01E759FF4FBC
:103850000C944B2E8C2F807FCF70882311F0C29553
:10386000C07F112399F0CC2309F491C180E28D0F20
:10387000883010F0D11104C08C2F0E94DE2303C0C9
:103880008C2F0E94EE230E94202481C18D2F0E9444
:103890005D1BCC2309F48FC180E28D0F883010F0BE
:1038A000D11104C08C2F0E94E42303C08C2F0E94EE
:1038B000F4230E9420247FC18C2F807FCF70803220
:1038C00011F0C295C07FDD2319F0D130C9F022C0BC
:1038D000112371F0002341F0013031F40E940124E2
:1038E0008C2B0E94092467C10E9401248C2B1DC0CF
:1038F000002319F0013009F45EC10E94162425C08E
:10390000112321F0063008F056C10EC0053008F032
:1039100052C11BC0112361F0002331F0F7018581F2
:1039200080FF35C18F7085838C2F0E94E51B43C1BA
:10393000002359F0D93309F03BC1FFEF07EE13E044
:10394000F15000401040E1F731C18C2F0E94EC1B78
:1039500032C18C2F86958695837019F0813061F085
:103960002AC1112321F08D2F9C2F937002C080E07B
:1039700090E00E946A1927C1112321F08D2F9C2FFE
:10398000937002C080E090E00E9480191CC18D2FCE
:10399000112319F00E94700902C00E94CB090E94F5
:1039A000420A11C18C2F837009F047C0111107C161
:1039B0002D2F229526952770220F220F6D2F6F70C5
:1039C000862F90E0A0E0B0E0022E04C0880F991F7F
:1039D000AA1FBB1F0A94D2F7D4FF10C04FE050E0DB
:1039E00060E070E004C0440F551F661F771F2A95E2
:1039F000D2F7409550956095709503C040E050E037
:103A0000BA01C695C695C3708A019B01082B192B74
:103A10002A2B3B2BC901B801C23049F058F4C13000
:103A200019F00E94F621CBC00E94E421C8C00E9478
:103A30000822C5C00E94E221C2C0112319F08C2FB8
:103A4000817001C08695882309F4B9C02D2F229575
:103A500026952770220F220F6D2F6F70862F90E012
:103A6000A0E0B0E0022E04C0880F991FAA1FBB1F60
:103A70000A94D2F7D4FF10C04FE050E060E070E04D
:103A800004C0440F551F661F771F2A95D2F7409533
:103A900050956095709503C040E050E0BA01C6951E
:103AA000C695C3708A019B01082B192B2A2B3B2B2F
:103AB000C901B801C23049F058F4C13019F00E9470
:103AC000BB227DC00E94A9227AC00E94CD2277C06D
:103AD0000E941C2274C0CF70112339F08C2F0E94D9
:103AE00042228D2F0E94E51B6AC08D2F0E94EC1B85
:103AF0008C2F0E94632263C0D23F01F128F4D03F93
:103B000041F0D13FA1F03FC0D33FF9F0D43F39F1AC
:103B10003AC0112341F0053008F04DC08C2F8F7151
:103B20000E94882248C0063008F045C0F7CF112314
:103B300039F08C2F8F710E9442223DC01123C9F3AE
:103B40008C2F8F710E94632236C0112329F08C2F95
:103B50008F710E942D222FC00E9428222CC0112379
:103B600049F0CF718C2F0E94422263E08C2F0E947B
:103B7000552421C081E00E9470240230E0F082E0F0
:103B80000E94702418C0112331F0002391F28D2F70
:103B90000E94B31A10C0002399F2D93349F41FEFE1
:103BA00027EE33E0115020403040E1F700C0000024
:103BB0008D2F0E945D1B88EF8C0D843020F40E94B5
:103BC00045190E94BF05DD20C9F00E94AF2380FD8A
:103BD00015C0F70112820E94A9230E944222C70148
:103BE0000E941F1E0E94A923DF91CF911F910F9168
:103BF000FF90EF90DF90CF900C946322DF91CF91F4
:103C00001F910F91FF90EF90DF90CF9008950F9349
:103C10001F93CF93DF93EC01688179818A810E94A1
:103C200086238C010E94DF220E94D021B801CE01A0
:103C30000E94F31BDF91CF911F910F910895CF93B5
:103C4000DF93EC01988189812B813C81232B31F01A
:103C50008F3F31F481E09F3F19F403C081E001C040
:103C600080E080FD19C0CE010E94860481110CC045
:103C70000E94B323882381F08A81882369F082E03F
:103C8000DF91CF910C947024CE010E94071ECE01CB
:103C9000DF91CF910C94FF03DF91CF91089580E0E5
:103CA00090E00E946A1980E090E00E9480190E94D2
:103CB000FB230E94FE230E9420240E94730B0C947D
:103CC000420A80911F01909120010E948A250C9444
:103CD0004F1E0E94EB230C94611EE92FE295EF70BA
:103CE0004E2F50E0FA013297EE30F105B0F4EB5868
:103CF000FF4F0C944B2E803F91F018F4883E68F4EF
:103D00000EC0843F51F40BC0883E48F0813F29F437
:103D100006C093FB882780F9089580E0089581E02C
:103D200008950E947B230E946D1E0895CF93DF9318
:103D300000D000D01F92CDB7DEB70F900F900F903C
:103D40000F900F90DF91CF910895CF93DF9300D024
:103D500000D000D0CDB7DEB726960FB6F894DEBF00
:103D60000FBECDBFDF91CF9108951F93CF93DF9307
:103D7000C091490216E080914A02C81799F0D0E03C
:103D80001C9FF0011D9FF00D1124E55BFD4F40814C
:103D9000518162817381848195810E94A51E219643
:103DA000C770E9CFDF91CF911F91089540917B02B9
:103DB00050917C0260917D0270917E0280917F0221
:103DC000909180020C94A51E0F931F93CF93DF93C5
:103DD0008091800282958F7009F05DC080917D0294
:103DE000882309F458C08091490210914A026091D9
:103DF0007B0270917C02C0917E02D0917F0291E0A3
:103E00006F3F09F090E0292F06E0811709F443C0C5
:103E1000209721F07F3F21F030E003C031E001C066
:103E2000322F90E030FD34C0089FF001099FF00D63
:103E30001124DF01A55BBD4F11963C9111973713FB
:103E400027C03C91361324C012963C911297311131
:103E50001FC013964D915C9114974C1B5D0B483C11
:103E60005105B0F4809180028F7080618093800250
:103E7000E05BFD4F80818F70806180838BE792E0F3
:103E80000E941F1EDF91CF911F910F910C94B51EC0
:103E900001968770BACFDF91CF911F910F9108954E
:103EA0009F92AF92BF92CF92DF92EF92FF920F93C9
:103EB0001F93CF93DF93CDB7DEB761970FB6F8941A
:103EC000DEBF0FBECDBF8C0185E0F801DE011D967F
:103ED00001900D928A95E1F7F80140815181E280CD
:103EE00090917B0260917C0220917E0230917F0252
:103EF0002115310531F06F3F31F481E09F3F19F416
:103F000003C081E001C080E0F82FF1709F2E80FD9A
:103F100046C1F801A380B4808BE7C82E82E0D82E7A
:103F2000F0907D02F501E21BF30BFF2009F4DFC0E6
:103F300080918002E83CF10508F09BC0282F207F8B
:103F400009F052C0561313C0491311C0FE2CE110E2
:103F50000EC08F708061809380020E94D61EC601C1
:103F60000E941F1E80918002F801858358C1AB28F2
:103F700031F05F3F31F481E04F3F19F403C081E03D
:103F800001C080E080FD03C081E08E2502C080E09A
:103F900090E0F82FF170FF2E80FF1CC08091490245
:103FA00020914A0236E0821709F417C190E0389F49
:103FB000F001399FF00D1124E55BFD4F618156132F
:103FC00006C06081461303C06281E61203C00196F9
:103FD0008770E9CFFE2CEE2009F421C18091800288
:103FE0008160809380025AC0561306C0491304C0F2
:103FF000E11002C0F8019FC04D875E878D859E85C8
:104000000E94911E882379F1EE2069F120918002AF
:10401000822F82958F7090E0029774F080917B02DE
:1040200090917C0298878F831986BB86AA862C87FD
:10403000CE0107960E941F1E86E0F801ABE7B2E0B2
:1040400001900D928A95E1F70E94E41E0E94D61E0F
:104050000DC0561729F14D875E878D859E850E947C
:10406000911E81112CC0C8010E941F1EFF24F394D1
:10407000D6C0282F207F69F77A2DB98AA88A6E2D9D
:1040800089890E94961E8BE792E00E941F1E86E09F
:10409000F60111928A95E9F70E94D61EF12CBFC055
:1040A0004913D9CFE110D7CFF8018583C8010E9409
:1040B0001F1E86E0F60111928A95E9F7B0C0EE2046
:1040C00091F220918002822F82958F7090E002976A
:1040D0000CF4B2CF80917B0290917C029A83898309
:1040E0001B82BD82AC822E83CE010196A3CFE83C19
:1040F000F10508F047C0FE2CEE2009F4B4CF5613AA
:1041000030C049132EC02091800220FD21C0822F93
:1041100082958F70482F50E041155105C9F0F80184
:1041200025834F30510541F08F5F982F9295907FF6
:10413000822F8F70892B8583C8010E941F1E86E005
:10414000F801ABE7B2E001900D928A95E1F742C029
:1041500086E0F801ABE7B2E001900D928A95E1F7B5
:104160005EC04D875E878D859E850E94911E811160
:1041700063CF80918002816080938002C8010E9499
:104180001F1E4DC07A2DB98AA88A6E2D89890E947A
:10419000961E86E0F60111928A95E9F71BC0EE2083
:1041A00009F461CF4D875E878D859E850E94911EA3
:1041B000F82E882309F457CF86E0F801ABE7B2E088
:1041C00001900D928A95E1F78BE792E00E94AD1A7B
:1041D0000E94E41E0E94D61E22C04D875E878D85F8
:1041E0009E850E947B23292F22952F70223028F450
:1041F0009F7039F0811105C00BC0243028F49F70E6
:1042000049F4805E883020F0C8010E941F1E9F2C58
:10421000F92C05C0F8019581907F99F7F9CF8F2D82
:1042200061960FB6F894DEBF0FBECDBFDF91CF9180
:104230001F910F91FF90EF90DF90CF90BF90AF90C4
:104240009F9008951F93CF93DF93CDB7DEB72C9740
:104250000FB6F894DEBF0FBECDBF4F835887698776
:104260007A878B879C87CE0107960E94501F8823F0
:10427000D1F09F8188852A853B85232B31F08F3FA4
:1042800031F481E09F3F19F403C081E001C080E078
:1042900080FD47C04F81588569857A858B859C85CF
:1042A0000E94A51E3EC086E0FE013796DE011196F3
:1042B00001900D928A95E1F7FF81E8856A857B85FB
:1042C0006115710531F0EF3F31F481E0FF3F19F4E2
:1042D00003C081E001C080E080FD23C020914A023C
:1042E00030E0C9010196877099274091490250E05A
:1042F00084179507F1F1F983EA837D836C8396E057
:10430000929FD001939FB00D1124A55BBD4FFE017C
:10431000319601900D929A95E1F780934A020E949E
:10432000B51E16E08091490290914A02891771F1F9
:10433000189FC0011124855B9D4F0E94501F882348
:1043400029F1E09149021E9FF0011124E55BFD4F28
:104350004081518162817381848195810E94A51E73
:104360008091490290E001968770992780934902D5
:10437000D9CF0E94691E10924A0210924902EBE7BF
:10438000F2E086E0DF011D928A95E9F72C960FB6E0
:10439000F894DEBF0FBECDBFDF91CF911F9108957E
:1043A000089508950C94D1210C94D2210E94D42117
:1043B0006093A3027093A4028093A5029093A60237
:1043C0000C944F1E0C94D6210F931F930091A302BF
:1043D0001091A4022091A5023091A602602B712BAE
:1043E000822B932B1F910F910C94D6210F931F9327
:1043F0000091A3021091A4022091A5023091A6027F
:1044000060237123822393231F910F910C94D62153
:104410000F931F930091A3021091A4022091A50273
:104420003091A60260277127822793271F910F9151
:104430000C94D6210C94D1210E941A2260939F02E1
:104440007093A0028093A1029093A2020C944F1E3D
:1044500060E070E0CB010C941C220F931F9341E0AD
:1044600050E060E070E08A019B0104C0000F111F62
:10447000221F331F8A95D2F7C901B8011F910F91EE
:104480000C941C220F931F9341E050E060E070E019
:1044900004C0440F551F661F771F8A95D2F780917D
:1044A0009F029091A002A091A102B091A2028A0164
:1044B0009B01082B192B2A2B3B2BC901B8011F91FB
:1044C0000F910C941C220F931F9341E050E060E089
:1044D00070E004C0440F551F661F771F8A95D2F7FE
:1044E000409550956095709580919F029091A002A3
:1044F000A091A102B091A2028A019B010823192375
:104500002A233B23C901B8011F910F910C941C224F
:104510000F931F9341E050E060E070E004C0440F4F
:10452000551F661F771F8A95D2F780919F02909141
:10453000A002A091A102B091A2028A019B010827CA
:1045400019272A273B27C901B8011F910F910C9405
:104550001C220F931F9300919F021091A0022091A3
:10456000A1023091A202602B712B822B932B1F9101
:104570000F910C941C220F931F9300919F02109196
:10458000A0022091A1023091A20260237123822314
:1045900093231F910F910C941C220F931F93009152
:1045A0009F021091A0022091A1023091A2026027E7
:1045B0007127822793271F910F910C941C22089535
:1045C000292F220F920F990F890FE82FE695E69574
:1045D000E695877051E001C0550F8A95EAF785E0AE
:1045E000E89FF0011124EF57FD4F20E030E070E02C
:1045F0004081CB01022E02C0969587950A94E2F77E
:104600008170819584278523842781932F5F3F4F75
:104610002530310569F70895292F220F920F990F40
:10462000890F682F669566956695982F977085E037
:10463000689FB001112440E050E080E0FB01E40FEE
:10464000F51FEF57FD4F208130E0092E02C036954F
:1046500027950A94E2F721703327042E01C0220F18
:104660000A94EAF7822B4F5F5F4F4530510531F7CF
:104670000895BF92CF92DF92EF92FF920F931F9314
:10468000CF93DF938C01C0909F02D090A002E09066
:10469000A102F090A2028091A3029091A402A091A5
:1046A000A502B091A602C82AD92AEA2AFB2ACFE19C
:1046B000D0E0D701C6010C2E04C0B695A7959795FA
:1046C00087950A94D2F780FD04C0219790F7B12C0A
:1046D00007C0BC2EB8018C2F0E94C8050197A9F312
:1046E0008B2DDF91CF911F910F91FF90EF90DF9075
:1046F000CF90BF900895CF93DF93EC010E943923B0
:10470000BE010E94C805DF91CF9108951F93CF93FA
:10471000DF93EB0190914802992321F0CB010E9495
:104720007B2313C0882349F0CB010E943923182F23
:10473000682FCE010E94E02204C0CB010E940C230E
:10474000182FBE01812F0E94C805DF91CF911F91C4
:1047500008958091A7028595859585950895809106
:10476000A702877008959091A702977081E009F4DD
:1047700080E008959091C10292FB222720F928172A
:1047800051F080FB92F99093C1028091C002909108
:10479000C1020C94B92408958091C10282FB88273C
:1047A00080F991E089270C94BA2381E00C94BA2314
:1047B00080E00C94BA238091B30208959091B302E3
:1047C000892B8093B302089580959091B302892339
:1047D0008093B30208951092B30208959091B202AB
:1047E000892B8093B202089580959091B20289231B
:1047F0008093B20208951092B20208951092B1020D
:1048000008958091A802089508950C9404240C94AE
:1048100005249091C10292FD08C09091A8029817BA
:1048200021F08093A8020C94072408958091A80297
:10483000882329F01092A80280E00C9407240895A0
:10484000E0911F01F09120018091B3028083E091FB
:104850001F01F091200190818091B202892B808309
:10486000E0911F01F091200190818091B102892B8C
:1048700080838091A802882381F0E0911F01F0914C
:1048800020019081892B808380911F0190912001CC
:104890000E94442581110E94162480911F0190914D
:1048A00020010C9451190C9404249091C10292FDA2
:1048B00010C098E0899F90011124262B2093A70215
:1048C0000E9442228091A7028595859585950C943A
:1048D00053240C9442221092A70280E00C9453249B
:1048E0002091A702809582238093A702982F97702A
:1048F00041F430E0482F082E000C550B24173507E3
:1049000021F49091C10292FF07C085958595859508
:104910000E9463220C946B24089580E008956FEF49
:104920007FEF80E090E00C94242F80E090E00E94E4
:10493000002F21E08A3E9E4F09F020E0822F08954B
:1049400082E090E00C94F22E83E090E00C94F22E42
:10495000CF9384E090E00E94F22EC82F82E290E094
:104960000E94F22E2C2F30E0A901582BCA01CF91C2
:104970000895CF93C92F682F84E090E00E94062FFE
:104980006C2F82E290E0CF910C94062FAB01BC011A
:104990008FE090E00C94182FAB01BC0183E190E014
:1049A0000C94182F60E070E0CB010C94CC2460E0F4
:1049B00070E0CB010E94C6240C94D2246AEE7EEFF4
:1049C00080E090E00E94242F60E082E090E00E946E
:1049D000062F60E083E090E00E94062F1092A30271
:1049E0001092A4021092A5021092A60260E084E048
:1049F00090E00E94062F60E082E290E00E94062F85
:104A000060E085E090E00E94062F60E086E090E0A4
:104A10000E94062F6FEF87E090E00E94062F40E093
:104A200050E0BA0188E090E00E94182F60E08DE02D
:104A300090E00E94062F40E050E0BA0188E190E04B
:104A40000E94182F60E087E190E00E94062F40E06E
:104A500050E0BA018CE190E00E94182F60E070E015
:104A600080E290E00E94242F40E050E0BA0188E10B
:104A700090E00E94182F0C94D7240C94DE24682F09
:104A80008EE090E00C94062FFC01329697E080E0D7
:104A9000915029F021912223D9F38F5FF9CF089506
:104AA000662349F0FC01329608962191621729F09D
:104AB000E817F907D1F780E0089581E008959C0197
:104AC000FC0132969FEF80E04191461789F09F3FAD
:104AD00019F4411101C0982F8F5F8630A9F79F3FCD
:104AE00039F0F901E90FF11D97FDFA9562830895F8
:104AF00008959C012A5F3F4FFC014281461301C08B
:104B00001282019682179307B9F708950C945F25D6
:104B10000C947925029626E0FC0111922A95E9F77A
:104B2000089508950C9491250C949125CF930E949B
:104B300094250E9432080E949225C0E08C2F0E948A
:104B4000DD07811104C0CF5FC830C1F701C081E02B
:104B5000CF9108950C9491250C94AA25809100037F
:104B6000843059F10E94AC2580E00E94BF050E946C
:104B700063111092B50220E488E190E00FB6F8943A
:104B8000A895809360000FBE2093600083B7817F5B
:104B9000846083BF83B7816083BF7894889583B72F
:104BA0008E7F83BF0FB6F894A895809160008861CE
:104BB00080936000109260000FBE08950C949125C0
:104BC0000E94691E0E9445190E94BF050E942F1273
:104BD0000C94DE251F920F920FB60F9211248F9323
:104BE0009F93AF93BF938091B502811113C08091C1
:104BF000F8029091F902A091FA02B091FB0241965D
:104C0000A11DB11D8093F8029093F902A093FA02BE
:104C1000B093FB02BF91AF919F918F910F900FBE08
:104C20000F901F90189582E084BD93E095BD9AEF98
:104C300097BD80936E0008952FB7F8948091F80285
:104C40009091F902A091FA02B091FB022FBF089552
:104C50002FB7F8946091F8027091F9028091FA02EE
:104C60009091FB022FBF08959C014FB7F89480915B
:104C7000F8029091F902A091FA02B091FB024FBFA5
:104C8000821B930B089578941F920F920FB60F9288
:104C900011248F939F93AF93BF938091F8029091CB
:104CA000F902A091FA02B091FB020196A11DB11D7B
:104CB0008093F8029093F902A093FA02B093FB025A
:104CC000BF91AF919F918F910F900FBE0F901F904A
:104CD000189587E797E790930108809300089AE07A
:104CE00088E10FB6F894A895809360000FBE90936A
:104CF0006000FFCF9093D7018093D60108958091F3
:104D0000BE020895CF93DF9300D01F92CDB7DEB7D8
:104D100090910003943011F589837B836A8390938B
:104D2000E9008FEF9091E800815095FD06C095ED68
:104D30009A95F1F700008111F5CF8091E80085FF89
:104D40000DC040E050E063E070E0CE0101960E94AB
:104D5000FE288091E8008E778093E8000F900F90F6
:104D60000F90DF91CF910895BC0184E00C948226CE
:104D7000BC0183E00C94822624E02093E9002FEF0D
:104D80003091E800215035FD06C035ED3A95F1F738
:104D900000002111F5CF2091E80025FF0BC040E075
:104DA00050E066E070E00E94FE288091E8008E7777
:104DB0008093E8000895CF93DF9321E02093E900EA
:104DC0002FEF3091E800215035FD06C035ED3A95C2
:104DD000F1F700002111F5CF2091E80025FF14C064
:104DE000EC0140E050E068E070E00E94FE28809115
:104DF000E8008E778093E80088E0FE01A6EBB2E041
:104E000001900D928A95E1F7DF91CF910895CF93AC
:104E1000603219F5209100032430F9F4C091E900C3
:104E2000CF703091EC00232F217030FD20E8C22B91
:104E300022E02093E9002091E80020FF0BC040E031
:104E400050E060E270E00E94FE288091E8008E77DA
:104E50008093E800CF70C093E900CF9108958091CE
:104E6000FF02811109C00E94DA2A0E94372B80912B
:104E7000E20084608093E20008951092FF0208959A
:104E800008950895089542E061EC81E00E94532A5C
:104E900042E261EC84E00E94532A42E261EC82E04B
:104EA0000E94532A42E260EC83E00C94532A8091E2
:104EB0000203833009F462C030F4813071F0823033
:104EC00009F49BC008958A3009F487C08B3009F437
:104ED0006DC0893009F0A9C020C080910103813ADA
:104EE00009F0A3C08091E800877F8093E80080915B
:104EF000050390910603892B21F468E086EB92E08C
:104F000003C060E080E090E070E00E94942980910E
:104F1000E8008B778093E800089580910103813247
:104F200009F083C08091050390910603009719F062
:104F3000029709F07AC08091E800877F8093E800AB
:104F40008091E80082FD05C0809100038111F8CFB7
:104F50006CC02091F3008091F20090E0922B0297B8
:104F600029F48091F1008B7F813021F48091F10050
:104F70008093BE028091E8008B7753C0809101033B
:104F8000813A09F052C08091050390910603892B64
:104F900009F04BC08091E800877F8093E800809102
:104FA000E80080FFFCCF80912B0136C08091010387
:104FB0008132D9F58091050390910603892BA9F5DB
:104FC0008091E800877F8093E8000E94882A809182
:104FD000030380932B010C94691E8091010381329D
:104FE00021F58091E800877F8093E8000E94882A5D
:104FF000809104038093BF02089580910103813A58
:10500000A1F48091E800877F8093E8008091E80018
:1050100080FFFCCF8091BF028093F1008091E80077
:105020008E778093E8000C94882A08951F93CF937D
:10503000DF93CDB7DEB7A0970FB6F894DEBF0FBEF3
:10504000CDBF84B7877F84BF0FB6F894A8958091B1
:105050006000886180936000109260000FBE90E055
:1050600080E80FB6F89480936100909361000FBEC2
:105070000E94C1190E94DA2A0E94372B8091E20017
:1050800084608093E20078940E94CC2D0E94CF1916
:1050900081E291E00E94401913E080910003853085
:1050A000A9F480910003853079F40E94AE258091A7
:1050B000FE028823B1F30E949625882391F30E9473
:1050C000E8280E94691EEDCF0E94E0250E94D919B0
:1050D00080910003843009F51093E9008091E80085
:1050E00082FF1BC08091E80085FF0AC040E050E0CD
:1050F00060E270E0CE0101960E94492991E001C072
:1051000090E08091E8008B778093E800992329F064
:1051100060E2CE0101960E94DF140E94CB19BDCF40
:105120000C949228292F332723303105C9F060F4DD
:105130002130310581F02230310509F041C08BE585
:1051400090E028E935E040C021323105E1F022321B
:10515000310531F135C082E190E023EF35E034C014
:1051600099278130910549F028F0029749F5E4E646
:10517000F5E005C0E4E9F5E002C0EAE7F5E0849176
:1051800090E09F0121C063307105D0F4660F771F56
:10519000FB01E053FE4F2081318189E090E014C093
:1051A0006330710568F4FB01EE0FFF1FE653FE4FFD
:1051B00020813181FB01E953FE4F808190E004C0E2
:1051C00080E090E020E030E0FA0131832083089510
:1051D00080E189BD82E189BD09B400FEFDCF8091E7
:1051E000D8008F7D8093D8008091E000826080930A
:1051F000E0008091E00081FDFCCF0895CF92DF9226
:10520000EF92FF920F931F93CF93DF93EC018B01EB
:105210007A010E94A72A811133C0E114F10439F008
:10522000F70180819181081B190BC80FD91FC12C70
:10523000D12C0115110519F18091E80085FD16C0EA
:105240008091E8008E778093E800E114F10449F042
:10525000F70180819181C80ED91ED182C08285E07C
:105260000FC00E94A72A882321F30AC08991809346
:10527000F10001501109FFEFCF1ADF0ADACF80E009
:10528000DF91CF911F910F91FF90EF90DF90CF9022
:105290000895CF92DF92EF92FF920F931F93CF93D7
:1052A000DF93EC018B017A010E94A72A811133C0A0
:1052B000E114F10439F0F70180819181081B190B89
:1052C000C80FD91FC12CD12C0115110519F18091DE
:1052D000E80085FD16C08091E8008B778093E80098
:1052E000E114F10449F0F70180819181C80ED91EC3
:1052F000D182C08285E00FC00E94A72A882321F3B3
:105300000AC08091F100899301501109FFEFCF1A73
:10531000DF0ADACF80E0DF91CF911F910F91FF90EC
:10532000EF90DF90CF90089520910703309108030C
:105330002617370748F06115710539F42091E80008
:105340002E772093E80001C0B901FC0120E061152F
:10535000710579F1809100038823F1F18530F1F135
:105360008091E80083FD3CC08091E80082FD2EC062
:105370008091E80080FFEBCF2091F3008091F20054
:1053800090E0922B6115710551F08830910538F449
:1053900021912093F100615071090196F3CF21E032
:1053A000089709F020E08091E8008E778093E8006C
:1053B000CECF2111CFCF0AC080910003882361F0A6
:1053C000853061F08091E80083FD0AC08091E8009B
:1053D00082FFF2CF80E0089582E0089583E008958F
:1053E00081E00895209107033091080326173707BD
:1053F00048F06115710539F42091E8002E7720936B
:10540000E80001C0B901FC0120E06115710591F1CE
:1054100080910003882309F440C0853009F43FC01F
:105420008091E80083FD3DC08091E80082FD2FC09F
:105430008091E80080FFE9CF2091F3008091F20095
:1054400090E0922B6115710559F08830910540F478
:1054500024912093F1003196615071090196F2CFA9
:1054600021E0089709F020E08091E8008E77809392
:10547000E800CBCF2111CCCF0AC080910003882354
:1054800061F0853061F08091E80083FD0AC0809171
:10549000E80082FFF2CF80E0089582E0089583E083
:1054A000089581E00895982F973068F59093E9006A
:1054B000981739F07091EC002091ED005091F000B8
:1054C00003C0242F762F50E021FD02C09F5FECCF58
:1054D0003091EB003E7F3093EB003091ED003D7F4B
:1054E0003093ED003091EB0031603093EB0070931E
:1054F000EC002093ED005093F0002091EE0027FD8A
:10550000E5CF80E008958F708093E90081E00895F1
:105510008091010387FF11C08091E80082FD05C0E2
:10552000809100038111F8CF11C08091E8008B7742
:105530000BC080910003882349F08091E80080FF30
:10554000F8CF8091E8008E778093E800089520914D
:10555000E4003091E50095E64091EC00842F8170E5
:1055600040FF23C08091E80080FD1DC080910003B2
:10557000882399F0853099F08091EB0085FD11C06A
:105580004091E4005091E5002417350729F391502C
:1055900011F09A01E1CF84E0089582E0089583E05C
:1055A000089581E0089580E008954091E80042FF69
:1055B000DDCF08950E94482B0E94502BE0EEF0E0D2
:1055C000808181608083E8EDF0E080818F77808347
:1055D00019BCA7EDB0E08C918E7F8C9380818F7E7B
:1055E00080831092FF0208950F931F93CF93DF9350
:1055F0000E94482B0E94502BC8EDD0E088818F7705
:10560000888388818068888388818F7D888319BC9E
:10561000109200031092FC021092FE021092FD0202
:1056200000EE10E0F80180818B7F808388818160AB
:10563000888342E060E080E00E94532AE1EEF0E0DF
:1056400080818E7F8083E2EEF0E0808181608083C4
:10565000808188608083F80180818E7F808388814B
:1056600080618883DF91CF911F910F910895E8EDBC
:10567000F0E080818F7E8083E7EDF0E080818160C3
:10568000808384E082BF81E08093FF020C94F42A3F
:10569000E8EDF0E080818E7F80831092E200089533
:1056A0001092DA001092E10008951F920F920FB647
:1056B0000F9211242F933F934F935F936F937F9398
:1056C0008F939F93AF93BF93EF93FF938091E100EC
:1056D00082FF0BC08091E20082FF07C08091E10051
:1056E0008B7F8093E1000E94CB2D8091DA0080FFB8
:1056F0001FC08091D80080FF1BC08091DA008E7F90
:105700008093DA008091D90080FF0DC080E189BDCF
:1057100082E189BD09B400FEFDCF81E080930003E2
:105720000E942F2705C019BC109200030E943D273C
:105730008091E10080FF19C08091E20080FF15C0D8
:105740008091E2008E7F8093E2008091E200806190
:105750008093E2008091D80080628093D80019BCC9
:1057600085E0809300030E9441278091E10084FF3F
:1057700030C08091E20084FF2CC080E189BD82E1CD
:1057800089BD09B400FEFDCF8091D8008F7D809344
:10579000D8008091E1008F7E8093E1008091E2004B
:1057A0008F7E8093E2008091E20081608093E2002E
:1057B0008091FC02882311F084E007C08091E3000F
:1057C00087FD02C081E001C083E0809300030E9456
:1057D00042278091E10083FF29C08091E20083FF8E
:1057E00025C08091E100877F8093E10082E0809373
:1057F00000031092FC028091E1008E7F8093E10013
:105800008091E2008E7F8093E2008091E2008061CF
:105810008093E20042E060E080E00E94532A8091A1
:10582000F00088608093F0000E944027FF91EF9184
:10583000BF91AF919F918F917F916F915F914F91A8
:105840003F912F910F900FBE0F901F9018951F92B0
:105850000F920FB60F9211242F933F934F935F93A4
:105860006F937F938F939F93AF93BF93CF93DF9368
:10587000EF93FF93C091E900CF708091EC00D82F97
:10588000D17080FDD0E81092E9008091F000877F10
:105890008093F00078940E946B2C1092E900809124
:1058A000F00088608093F000CD2BCF70C093E900AA
:1058B000FF91EF91DF91CF91BF91AF919F918F9128
:1058C0007F916F915F914F913F912F910F900FBEFC
:1058D0000F901F9018951F93CF93DF93CDB7DEB72E
:1058E000AA970FB6F894DEBF0FBECDBFE1E0F3E09C
:1058F0008091F100819323E0E930F207C9F70E941B
:1059000057278091E80083FF2EC180910103909179
:105910000203492F50E04A30510508F024C1FA0132
:10592000ED57FF4F0C944B2E803821F0823809F050
:105930001AC108C08091FD029091FE02992389F05E
:1059400082600FC0809105038F70873008F00BC113
:105950008093E9008091EB0085FB882780F9109205
:10596000E9009091E800977F9093E8008093F10020
:105970001092F100D1C0282F2D7F09F0F4C08823A8
:1059800019F0823061F0EFC080910303813009F09B
:10599000EAC0933009F080E08093FE022EC080912F
:1059A000030381112AC0809105038F702FEF280F08
:1059B000263008F0D8C08093E9002091EB0020FF4A
:1059C0001CC0933021F48091EB00806214C0909150
:1059D000EB0090619093EB0021E030E0A90102C060
:1059E000440F551F8A95E2F74093EA001092EA00AF
:1059F0008091EB0088608093EB001092E900809129
:105A0000E800877F8093E8000E94882AACC081115B
:105A1000AAC0109103031F778091E3008078812B47
:105A20008093E3008091E800877F8093E8000E94E4
:105A3000882A8091E80080FFFCCF8091E300806895
:105A40008093E300111102C082E001C083E08093E3
:105A5000000389C08058823008F085C0809103031C
:105A6000909104038C3D53E0950779F583E08A8398
:105A70008AE289834FB7F894DE01139620E03EE076
:105A800051E2E32FF0E050935700E49120FF03C070
:105A9000E295EF703F5FEF708E2F90E0EA3010F0EC
:105AA000C79601C0C0968D939D932F5F243149F70F
:105AB0004FBF8091E800877F8093E8006AE270E042
:105AC000CE0101960E94942916C060910503709141
:105AD0000603AE014F5F5F4F0E949028BC01892BE7
