:100000000C9436040C9453040C9453040C94530431
:100010000C9453040C9453040C9453040C94530404
:100020000C9453040C9453040C94CF1A0C94111A8E
:100030000C94342D0C9453040C9453040C945304DA
:100040000C9453040C9453040C9453040C945304D4
:100050000C9453040C94E72C0C9453040C94530408
:100060000C9453040C9453040C9453040C945304B4
:100070000C9453040C9453040C9453040C945304A4
:100080000C9453040C9453040C9453040C94530494
:100090000C9453040C9453040C9453040C94530484
:1000A0000C9453040C9453040C945304DF0753082A
:1000B000E707B107B507EB07B807EE07F907C3076E
:1000C0004908C707FD07CB0701082B08CF0705081C
:1000D0003508D5070B081508BC07F207BF07F50759
:1000E000DA071008210841084308AD07E3075C0858
:1000F0003A0940092B09310946094C095209510AAC
:10010000510A860A860A370B550B890C890C5A0B43
:10011000CD0BE00BE00B7F09F70CFC0C010D060D7D
:100120000B0D100D150D1A0D1F0D240D2B0D99091A
:1001300099099909990999099909990999099909AF
:1001400089139F13A61384158415DE13F11302146B
:100150004E1453147B149E14D414D7141D18441831
:10016000F9194418F9199018B318F919B419C419E0
:10017000FD377A585A000004E6D6B4460200210141
:1001800016000000742FE5A3E0027201125D003D2D
:100190008889C65436C3174FE4DF19489D74CE5181
:1001A0009F1C2C6102FBCE9CEDFCB6F74E63EA9DD2
:1001B0004D39088044F15BED129B1D7282007A5527
:1001C000C44883145E7C0AC875F2A7D159547BE2F7
:1001D000F1264308893F6C4BD7934E75FD451B2193
:1001E000E78628709B6440368A5057EE4DE1B29204
:1001F000D304ADE15791FDBA652E824FD4A787B6DF
:10020000758803CBDC7F0CE76F8932F81E7D312DBA
:10021000C8BEB039BAE93DC5604D4A730BE1AA2C9E
:10022000AA865E800E9397AA8EF71F6A3ADC7BCB74
:100230006EBFAB98DEB16540A84D17540904E21FAC
:10024000C29C75D8C2AD242D377009315147038047
:10025000A4EAB30F95DC967D710463D203C2FF93C9
:100260001587A05D2D4C0CF9BAB335D6816F1C4EA5
:1002700065F914B078B6D35767B7425ADBA0AE7CA5
:10028000336F4A7FD2B7C114F869A17443DA93FA85
:10029000980937A05466657358BCF955E1B95D56A5
:1002A000000000005E5CA3C2D65EE2710001AE02F7
:1002B000F3040000B6E65909B1C467FB0200000070
:1002C0000004595A05010902A10185020901A10092
:1002D00005091901290815002501950875018102F4
:1002E0000501093009311581257F950275088106C0
:1002F00009381581257F950175088106050C0A3896
:10030000021581257F950175088106C0C005010988
:1003100080A101850319012AB700150126B70095B0
:100320000175108100C0050C0901A10185041901A6
:100330002AA002150126A002950175108100C005B2
:10034000010906A1018506050719E029E715002521
:10035000019508750181020507190029EF1500258F
:100360000195F075018102050819012905950575AA
:10037000019102950175039101C00660FF0961A119
:10038000010962150026FF009520750881020963A6
:10039000150026FF00952075089102C00501090689
:1003A000A101050719E029E7150025019508750148
:1003B00081029501750881010507190029FF1500C3
:1003C00026FF009506750881000508190129051505
:1003D000002501950575019102950175039101C0F4
:1003E00009025B00030100A0FA09040000010301F7
:1003F00001000921110100012244000705810308C1
:10040000000109040100020300000009211101009C
:1004100001222200070582032000010705030320B3
:10042000000109040200010300000009211101007C
:100430000122B6000705840320000112010002001A
:10044000000008797A43150001010203011C0376BC
:1004500000690061006C003A0066003600340063F9
:1004600000320062003300630000001403470050B4
:10047000004B00360030002D0034003500430000F2
:1004800000180344006100720061006B0075002DCC
:10049000004E0065006B006F0000000403090400BB
:1004A000000000000000000000000000000000004C
:1004B000000000000000000000000000000000003C
:1004C0000000007E0F00D4FFFFFFC700000078008F
:1004D000000000000000002A2B280000000000009F
:1004E0000000000000000000000029000000002CB7
:1004F0001E3420212224342627252E362D37382756
:100500001E1F202122232425263333362E37381F61
:100510000405060708090A0B0C0D0E0F1011121323
:100520001415161718191A1B1C1D2F3130232D35C1
:100530000405060708090A0B0C0D0E0F1011121303
:100540001415161718191A1B1C1D2F3130354C00A5
:100550000101010101010101010202020202020284
:100560000202030303030303030304040404040457
:10057000040505050505060606060607070707071D
:1005800008080808090909090A0A0A0B0B0B0C0CD0
:100590000C0D0D0D0E0E0E0F0F0F1010111111126C
:1005A0001213131414151516161717181819191AEB
:1005B0001A1B1B1C1D1D1E1E1F202021222223244E
:1005C00024252626272829292A2B2C2D2D2E2F308D
:1005D000313232333435363738393A3B3C3D3E3FA1
:1005E000404142434445464748494A4C4D4E4F508E
:1005F000515354555658595A5B5D5E5F616264654C
:100600006668696B6C6D6F7072737577787A7B7DD5
:100610007E8082838587888A8C8E8F919395969829
:100620009A9C9EA0A2A3A5A7A9ABADAFB1B3B5B745
:10063000BABCBEC0C2C4C6C9CBCDCFD1D4D6D8DB1C
:10064000DDDFE2E4E7E9EBEEF0F3F5F8FAFDFF01B8
:10065000000100D803041D371D000002000200D471
:1006600003041D371D000003000100D903041D37DA
:100670001D000004000200BE03041D371D7B1C0585
:10068000000100DA03041D371D000006000200C04F
:1006900003041D371D000007000200D603041D37A8
:1006A0001D000008000100DB03041D371D000009C8
:1006B000000200C203041D371D561C0A000200C4BC
:1006C00003041D371D561C0B000200C603041D3712
:1006D0001D561C0C000200C803041D371D561C0DBE
:1006E000000200CA03041D371D561C0E000200CC78
:1006F00003041D371D561C0F000200CE03041D37D6
:100700001D561C10000200D003041D371D561C117D
:10071000000200D203041D371D561C12000200DC2B
:1007200003041D371D000013000200DE03041D3703
:100730001D000014000100E003041D371D0000151A
:100740000000000000D91B841C0000290014001ABE
:10075000000800150017002B2104001600070009EF
:10076000000A00E1001D001B00060019000500E260
:100770000021522C001C0018000C00120013002F46
:100780000030000B000D000E000F0033003400316C
:1007900000110010003600370038004C00E500283A
:1007A000002A00215200000000000035021E021F36
:1007B0000220022102220235001E001F002000211B
:1007C000002200010023002400250026002700014C
:1007D0000022520100230224022502260227022DB4
:1007E000022E025000510052004F0001002D002E39
:1007F000000100010001000100010001002652017A
:10080000000100010000000000000001003A003B70
:10081000003C003D003E000100010001000100011C
:1008200000010001000100010001000100010001C0
:1008300000010001003F004000410042004300442D
:10084000004500010001000100010001000100005D
:100850007C01000100010001000100010001000114
:1008600000010001000000000000000011241FBE74
:10087000CFEFDAE0DEBFCDBF11E0A0E0B1E0E4E809
:10088000FDE602C005900D92A637B107D9F724E026
:10089000A6E7B1E001C01D92AA3BB207E1F70E94B2
:1008A0004F0D0C94C0360C940000ACE0B0E0EBE5CA
:1008B000F4E00C943536DC0114962C91222311F4CB
:1008C0000C944B0D7C0161E00E9453328C01F701C6
:1008D0002580222009F4DDC097578038910508F063
:1008E000BEC0D02EFFE0F01708F423C58FEF93E0D1
:1008F0000E94A03581111DC50DE012E0DD2071F0D0
:10090000011524E0120709F414C5C8010E94A0359E
:10091000811101C0DA940F5F1F4FF0CF19821A8244
:100920001B821C82AA24AA9468013FEFC31AD30A2F
:10093000C8010E94A03589831A82882309F4F9C46A
:10094000813009F087C0480142E0840E911CC60145
:100950000E94A035B82E8A83882309F4EAC48FEF59
:100960008B0D833060F4680153E0C50ED11CC401C7
:100970000E94A0358B8381116DC08601D5CF8BEF8E
:100980008B0D8330C0F5380163E0660E711CC40125
:100990000E94A0358B83811102C06301EECF6801F4
:1009A00074E0C70ED11CC3010E94A0358C8388233C
:1009B00021F38B819C818130AFEF9A0718F0182FBB
:1009C00000E001C08C01B6E0BB1669F0E7E0BE169E
:1009D00071F0C8010E94E61E8091DC039091DD0356
:1009E0000E94851D04C0C8010E94E61EC6CFC80132
:1009F0000E94C11EC2CFF4E0BF1611F06401BDCF4A
:100A0000C4010E94A035B82E680124E0C20ED11C9A
:100A1000C80103960E94A035BB2009F48AC488232C
:100A200009F487C4282F30E021503109A29EA0018B
:100A3000A39E500D11248B2D90E00197840F951FDC
:100A4000019708F49ACFAFE9BFE01197F1F700C022
:100A50000000F6CFCE0101960E948E168ECF0E3585
:100A6000ECE71E0761F00F35FCE71F0761F00D355D
:100A70002CE7120771F480910001811104C081E01C
:100A80008093000156C41092000180E00E94CB2E9A
:100A900050C480910001811105C08091D90380FF6D
:100AA000CAC379C1480130EE831A910830907603A9
:100AB00080915003382A80919D03382A48E084169B
:100AC000910480F498012770332781E090E001C001
:100AD000880F2A95EAF7222011F0382A18C080954D
:100AE000382215C0222009F416C110937901009311
:100AF00078010E941C2D6093A1047093A20480933E
:100B0000A3049093A4041092A9041092A804D701FE
:100B10008D919C910E944F2221E030E0F90102C0AA
:100B2000EE0FFF1F8A95E2F7FC87EB872091AA045E
:100B30003091AB0438872F8340917801509179012F
:100B40005A8749871D82422C512C5D81E52FF0E0A8
:100B5000EE0FFF1FEF59FD4FC080D180C114D104AB
:100B600009F4F0C0311005C0D60112968C918111A4
:100B7000CEC0F601838190E02B853C8582239323B0
:100B8000892B09F4C4C08085982F977009F487E0F9
:100B900038E08316910440F4222019F081FD09C049
:100BA000B6C082FD06C0B3C0222009F4B0C080FFE9
:100BB000AEC0D601AD90BC900A151B0519F42220D9
:100BC00009F4A5C0EF81F885CE16DF0609F49FC0B1
:100BD000D6011D96ED91FC911E97309721F08081F2
:100BE000882309F494C0632DC6010E943A2F8823FC
:100BF00009F48DC00A151B0511F4320102C0612CE5
:100C0000712CB62DB170BE8381E0A114B10441F006
:100C1000B11106C0E985FA85AE16BF0609F080E07D
:100C200080FF75C080E00E94CB2ED092AB04C092B2
:100C3000AA0481E08093A704D60115968C91809335
:100C4000A504BE81B11113C0AB2889F0F6018081E3
:100C500091819C0124503109213A310530F4682FEB
:100C60008DE793E00E945D2D02C00E949F26D60171
:100C70001696AD90BC901797C5019A9581159F4126
:100C800010F4E0EEBE2255245394C50101978F3332
:100C90009E4708F0512CD6011996ED91FC911A97B8
:100CA000309739F01B966D917C911C9781E00995E6
:100CB0005822552029F1F601868197810E94B73488
:100CC0008093A604C501F8E08F16910418F40E94E1
:100CD0007A2E16C00497813A910530F46A2D8DE77B
:100CE00093E00E94852D0EC00E94992B8FE39CE912
:100CF0000197F1F700C000008A2D0E94D52602C09E
:100D00000E94992B91E0692660FE0EC1C6CEAD818E
:100D1000AF5FAD831ACF8091780190917901081768
:100D2000190781F410927901109278011092A104B0
:100D30001092A2041092A3041092A4041092A90489
:100D40001092A8048091AA049091AB04009709F432
:100D5000A4CEB8E08B16910438F4632D0E943A2F8C
:100D600081119BCE81E014C0FC01208131810217EA
:100D7000130729F4211006C01092A70408C02220EE
:100D800009F48BCEDC0118968C9185FD86CE80E02F
:100D90000E94CB2E82CE0E94282D6C01F701858106
:100DA0008823B1F18091140182FF08C022E931E06B
:100DB00040E0B60180E090E00E9467310431FCE73A
:100DC0001F07A9F005312CE7120751F003313CE76A
:100DD0001307A1F4809114018160809314010EC067
:100DE00080911401982F909590FB80F903C0809119
:100DF00014018E7F809314010E94521DC8019052ED
:100E00008115904358F51092E5031092E40313C244
:100E1000013E110521F4809114018F7E06C0053E2C
:100E2000110531F4809114018F7D8093140116C057
:100E3000C80190528115904388F48091140182FF7B
:100E4000FAC18091DB0381FDF6C122E931E040E087
:100E5000B60180E090E00E946731EDC180911401FD
:100E600080FFE9C1D70115968C910832110538F43D
:100E70000E311105B8F40430110578F41CC00933A3
:100E8000110538F40D32110590F40B32110579F08B
:100E900012C00436110559F00EC09091D90394FD8B
:100EA0000AC020C19091D90393FD05C01BC1909148
:100EB000D90392FF17C1882309F4BDC11092E5033D
:100EC0001092E403F801E851FC47E730F10508F41B
:100ED000BEC11092AE04C8019057839740F106310D
:100EE000FCE71F0709F037C221E080919D03982F8E
:100EF0009A7A3091D80330FDDBC131FDDFC132FD7C
:100F0000E3C133FDE7C1222309F4EDC181E0911172
:100F100001C080E080937A01992309F4E2C165E37E
:100F20008DE793E00E94852D0E94992B02C284E0F8
:100F300090E00E94AE359093AB018093AA01F80136
:100F4000E150F047E232F10520F4EA5AFF4F0C94E9
:100F500028368091AA018160ACC08091AB01886085
:100F6000B4C08091AA018260A4C08091AA0120C06F
:100F70008091AA0188609DC08091AB011EC08091C4
:100F8000AB018260A2C08091AA01806192C0809171
:100F9000AA0180628EC08091AA0180648AC00E94EA
:100FA00005258091AA01806884C08091AA0188608B
:100FB00084607FC08091AB018260816086C0809137
:100FC000AA018E7F76C08091AB01877F7EC0809121
:100FD000AA018D7F6EC08091AA0120C08091AA01D4
:100FE000877F67C08091AB011EC08091AB018D7F70
:100FF0006CC08091AA018F7E5CC08091AA018F7D18
:1010000058C08091AA018F7B54C00E940525809111
:10101000AA018F774EC08091AA01877F8B7F49C03C
:101020008091AB018D7F8E7F50C08091AA0182FBA1
:10103000222720F991E0922790FB82F990FB83F917
:1010400038C08091AB01982F909591708E7F892B3D
:1010500090FB81F93AC08091AA0186FB222720F9F2
:1010600091E0922790FB86F924C00E94052580918B
:10107000AA0187FB222720F991E0922790FB87F9AC
:1010800018C061E001C060E08EE090E00E94C435CD
:101090001EC08091AA0184FB222720F991E09227AB
:1010A00090FB84F906C08091AA01982F909590FB3F
:1010B00080F98093AA010BC08091AB0183FB2227AA
:1010C00020F991E0922790FB83F98093AB01609126
:1010D000AA017091AB0184E090E00E94E2350E9489
:1010E000052527C1882309F49FC020919D03809185
:1010F0007603982F922B392F3D7F79F11092E503DB
:101100001092E4033091D90331FD27C0F80143E088
:10111000F695E7954A95E1F7EE71FF27E256FC4F09
:1011200098012F70332781E090E002C0880F991F4B
:101130002A95E2F78095909520813181822393232F
:1011400091838083A70160E0C8010E94751D809192
:1011500076038D7F0E94032B63C039E0F701A2E97B
:10116000B1E001900D923A95E1F71092970110923B
:101170009501109294014091E4035091E503041706
:101180001507B1F53091D90335FF32C040911401F4
:1011900041FF02C036FF2CC04091E2035091E303AF
:1011A000F601E41BF50BE83CF10510F521FF08C042
:1011B0008091140180618093140182E00E942C2BA5
:1011C00080919D0385FF08C0809114018062809307
:1011D000140180E20E942C2B6091140166956170CD
:1011E000A7018091E4039091E5030E94751DA1C0C1
:1011F000969591702091140190FB21F92093140190
:101200008D7F0E94032B1093E5030093E403D0929B
:10121000E303C092E203809114018460809314017F
:1012200082E00E943A2B85C0970140E0B601C801D8
:101230000E9467317EC0F801E851FC47E730F105B4
:1012400030F0D70115962C91211143CEB7C3E85841
:10125000FF4F0C94283606E221EE41EE6AE17CE76E
:1012600005C007E225EE45EE6BE17CE7C7010E9471
:10127000112E5FC006E221EE40EE68E17CE7F6CF7A
:1012800007E225EE44EE69E17CE7F0CF06E221EECD
:1012900042EE6CE17CE7EACF07E225EE46EE6DE137
:1012A0007CE7E4CF08E221E045EE6EE17CE7DECFAB
:1012B000482F447409F421CE90E01FCE482F41718D
:1012C00009F41DCE90E01BCE482F487809F419CEC2
:1012D00090E017CE827209F416CE222321F01092EC
:1012E0007A0169E21DCE80917A01882311F065E3CD
:1012F00001C069E28DE793E00E945D2D15CE8091DB
:10130000060280FF6EC3282F2E7F209306023091A5
:101310000702409108025091090260910A027091FF
:101320000B0280910C0290910D020E94A01F0E945E
:101330005F1F80915303877009F4ADC3F701858166
:10134000882309F4A8C38091AB0182FFA4C382E083
:101350000E943A2BA0C30737BCE71B0709F48BC3D5
:101360000837ECE71E0709F48AC3F7018581882353
:10137000E9F10330FCE71F0729F148F401153CE7C8
:10138000130791F001304CE7140711F12FC00B3512
:101390005CE7150741F10C356CE71607E1F00A35FB
:1013A0001C4721F581E020C00E9405258FEF94E3C2
:1013B000ACE081509040A040E1F700C000000E94E6
:1013C000D62CB7CF6FEF7FEF80E090E00E94E23540
:1013D0000E94A134AECF8091AB0182FB882780F9B7
:1013E00091E0892701C080E00E94512BD701179618
:1013F0008D919C9118970097C9F4D70115968C91FF
:1014000015970D911C91882349F0C8010E94132261
:10141000D82E682FC8010E94832204C0C8010E94F0
:101420004F22D82EB8018D2D0E941D290E943A29E5
:10143000182F092FF701B580C680C2943FE0C32260
:10144000809153038770E9F0BB20D9F0892F807F0A
:10145000803451F080E2810F883098F0C11004C0D0
:10146000892F807E803269F08091AB0182FF09C0B4
:1014700082E00E943A2B809153038770AA24A394A0
:101480008111A12C902E92942FE09222892D90E030
:101490008C30910508F03DC2FC01E158FF4F0C94DF
:1014A0002836902F9F70802F807FD92E19F0D294EC
:1014B00090EFD922BB20B9F0DD2009F40AC280E206
:1014C000810F883010F0111106C080919D03D82A39
:1014D000D0929D0305C08091E803D82AD092E803FA
:1014E0000E94992BF6C1812F0E949F26DD2009F4CE
:1014F00010C280E2810F883090F1112381F1D094E5
:101500008091E803D822D092E8032CC0902F9F70DE
:10151000802F807FD92E803219F0D29480EFD8228C
:10152000112321F0113009F46BC076C08091AB011A
:1015300082FD1BC0BB2069F0DD2039F080919D0346
:10154000D82AD0929D030E94992B80E00E94D52634
:10155000E0C180E00E949F26DD2009F4DAC18D2DD4
:101560000E942C2B0E94992BD4C1BB2081F1CC204E
:1015700009F473C0F1E0CF1212C0809176038D217F
:10158000D81609F4C6C10E94282D90937503809344
:10159000740380917603D82AD0927603BAC18091E1
:1015A000DA03823008F4B5C1C812B3C18D2D0E9490
:1015B000BD258D2D0E94172B809150039D2D9823C2
:1015C000D91609F4A6C1D82AD0925003A2C1CC20C2
:1015D00069F08091DA03823008F49BC121E0C212E5
:1015E00098C180919D038D2109F493C18D2D0E9496
:1015F000B6258D2D0E94172B8D2D0E94082C89C198
:101600008091E003BB2021F08C1508F482C125C035
:10161000C81608F07EC127C0BB2019F1CC20E9F024
:1016200020E0D7014C9111965C91119712966C9124
:10163000129713967C91139714968C911497159684
:101640009C910E942E328091DB0381FD42C1F70103
:10165000868180FF3EC18F7086838D2D0E94BD25BF
:1016600058C1C1103FC18D2D0E94B62552C1802F97
:1016700086958695837019F0813061F04AC1BB2050
:1016800021F0812F902F937002C080E090E00E94A3
:10169000DF2D45C1BB2021F0812F902F937002C018
:1016A00080E090E00E94BA2D3AC16B2D812F0E94FC
:1016B000C72535C1802F8370A1F5B1102EC1412FF0
:1016C000429546954770440F440F212F2F7030E00C
:1016D000C901042E01C0880F0A94EAF714FF08C05C
:1016E0002FE030E001C0220F4A95EAF7209501C0B3
:1016F00020E0302F369536953370323069F040F463
:1017000040917703313019F0822B842302C0842B5F
:10171000822B0E94F82201C1282B80917703822717
:10172000F8CFBB2019F0802F817001C086958823E7
:1017300009F4F3C0412F429546954770440F440F7A
:10174000212F2F7030E0C901042E01C0880F0A94A8
:10175000EAF714FF08C02FE030E001C0220F4A95DD
:10176000EAF7209501C020E0302F3695369533708A
:10177000323051F070F440918501313019F0822BF4
:10178000842308C0842B05C0282B809185018227E3
:1017900001C0822B0E94B822C0C0F02FFF70DF2E44
:1017A000BB2039F08F2F0E94EC22812F0E94BD2593
:1017B000B4C0812F0E94B6258D2D0E94DF22ADC0BE
:1017C000123F11F128F4103F41F0113FA9F17DC003
:1017D000133F01F1143F61F178C08091E003BB2019
:1017E00021F0C81608F095C003C08C1508F491C00C
:1017F000202F2F7181E090E001C0880F2A95EAF731
:1018000090918501892711C0802F8F71BB2009F429
:1018100064C07BC0BB2041F081E0902F9F7101C06C
:10182000880F9A95EAF701C080E00E94B82271C043
:101830008091AB0182FD06C0802F8F71BB2009F41F
:1018400064C04BC08091DA03823040F1BB20C1F00C
:10185000909153039770943039F40E94332B802F6A
:101860008F710E94DF2254C0C81608F051C0202F8B
:101870002F71D22E822F0E94EC2263E08D2D07C0A3
:10188000C81640F00E94332B64E0802F8F710E94B5
:10189000682B3EC081E00E943A2B3AC0BB2059F031
:1018A000302F3F71D32E832F0E94EC2263E08D2DC9
:1018B0000E94682B2EC081E00E943A2B41E04C151B
:1018C00040F582E00E943A2B24C0BB2049F0CC2096
:1018D00011F0812F3BCE802F8F710E94EC2219C016
:1018E000CC2089F0193329F48091DE039091DF0335
:1018F00004C08091DC039091DD030E94851D812F3F
:101900000E949F2606C0802F8F710E94DF2201C097
:10191000A12C88EF890D843010F40E94042E812FB1
:10192000902F0E94FB22811105C010927C01109221
:101930007B0128C0BB2019F0C110F7CF23C0C11014
:10194000F4CF20E0D7014C9111965C91119712963B
:101950006C91129713967C91139714968C9114970F
:1019600015969C910E942E328091DB0383FFDDCF80
:1019700080917B0190917C010297B9F6812F0E94A2
:101980004D27D3CFAA20A9F08091530380FD11C029
:10199000F70115828695869586950E94EC22C701EF
:1019A0000E945504809153038695869586950E94E2
:1019B000DF2260E0C7010E9453326DC00631FCE7B0
:1019C0001F0709F492CA80919D038272F801E052C8
:1019D000F847E531F10508F043C0E557FF4F0C9497
:1019E000283681608093060261E0869536C041E327
:1019F00051E26BE371E22CC04BE351E261E371E22F
:101A000027C049EB50E263EC70E222C043EC50E2A5
:101A100069EB70E21DC04FE950E26CEA70E218C059
:101A20004CEA50E26FE970E213C045E850E262E927
:101A300070E20EC042E950E265E870E209C04DEC88
:101A400050E267EE70E204C047EE50E26DEC70E2E7
:101A50000E94581F6ECC61E081E00E94012169CC98
:101A600007372CE7120749F008373CE7130709F05E
:101A70007CCC82E008C081E003C081E004C082E049
:101A80000E94EC2202C00E94DF2243E062E081E07B
:101A90000E94BD224ECC2C96E2E10C945136A4E378
:101AA000B0E0E5E5FDE00C94353685B7806885BF8C
:101AB00085B7806885BF84B7877F84BF0FB6F894E9
:101AC000A89580916000886180936000109260000A
:101AD0000FBE90E080E80FB6F89480936100909379
:101AE00061000FBE80E797E29093770180937601C3
:101AF0000E947D1E0E94091E0E94901D0E94551A80
:101B00000E94741A8091E20084608093E2007894CD
:101B10008091D1018823A1F01091E9001F7090916C
:101B2000EC00892F817090FD80E8182B1092E9005D
:101B30008091E80083FD0E943A171F701093E9001E
:101B400082E084BD93E095BD9AEF97BD80936E00CF
:101B50000E943F1F811102C00E942F1F0EE111E061
:101B6000D8018D918D018F3F11F00E945D28B1E069
:101B700006321B07A9F706E211E0F80181918F01F7
:101B80008F3F11F00E945D28F1E00C321F07A9F78A
:101B900088E0E0EAF1E0DF01282F1D922A95E9F7BD
:101BA000EDE7F1E0DF011D928A95E9F70E947B2ABB
:101BB000811102C00E94872A82E090E00E94A03535
:101BC0008093890184E090E00E94AE359093AB0150
:101BD0008093AA010E947428BFEFE6E7F1E0B150BC
:101BE000E040F040E1F700C000000E9474288091BE
:101BF000A00180FF08C06FEF7FEF80E090E00E94BF
:101C0000E2350E94D62C83E090E00E94A0350E942D
:101C1000F822809185010E941835809186018111FA
:101C200070C00E947B2A811104C00E94872A0E94F2
:101C3000402188E090E00E94A8354B015C0184E2DD
:101C400090E00E94A035282F30E040E050E060E0B6
:101C500070E080E090E000E20E946C36282939298B
:101C60004A295B2920930602309307024093080219
:101C70005093090260930A0270930B0280930C0246
:101C800090930D022E7F89F50E94402188E090E01C
:101C90000E94A8356B017C0184E290E00E94A0358F
:101CA000282F30E040E050E060E070E080E090E01D
:101CB0000E946C36B22FA32FF42FE52F5B01970102
:101CC0008601BC29A12BF22BE32BB0930602A09333
:101CD0000702F0930802E093090260930A02B092AF
:101CE0000B0280930C0290930D020E94951F80912D
:101CF000060280FF03C086950E94242181E0809324
:101D000086010E942821409109026FEF80E80E941D
:101D1000812081E00E94242181E091E09093B2042F
:101D20008093B10488248394912C940100903B010A
:101D300002C0220F331F0A94E2F73AAB29ABA40189
:101D400000903C0102C0440F551F0A94E2F75CABBF
:101D50004BAB8091D101853009F05FC0FF24F39433
:101D600000E112E18091D101853009F04BC08091F2
:101D7000D101843009F435C08091880181110DC0F2
:101D8000F092880180910602982F917090938701BC
:101D90008E7F809306020E945F1F1092B50488E137
:101DA00090E0A0E40FB6F894A895809360000FBE71
:101DB000A093600083B7817F846083BF83B7816015
:101DC00083BF7894889583B78E7F83BF0FB6F894CE
:101DD000A8958091600088618093600010926000F7
:101DE0000FBE8091D001882309F4BCCF0E947428D3
:101DF000E0EAF1E0819181118EC6B1E0E83AFB079B
:101E0000C9F7B0CF0E9405250E94042E10928801C8
:101E10008091870181110E9428210E9474280AE87C
:101E200011E020EAC22E21E0D22ED601F8019191D4
:101E30008D91892721E0E239F20719F08823B9F35F
:101E400005C0811103C00E94572A37C090EAE92ECD
:101E500091E0F92EB12C44244394D7016D907D017B
:101E6000F8015080562409F1A12C77247394852D14
:101E70008721A1F0ABA6BCA60E94282D9EA78DA706
:101E80004FA691E0862D872109F490E098AB4BA5F1
:101E90005CA56DA57EA58FA50E946232A394770CE8
:101EA000F6E0AF12E4CFD8016C92B3940F5F1F4FEE
:101EB000B8E0BB12D2CF0E941C2D8091A804909153
:101EC000A904892B09F43EC040919D0450919E04C1
:101ED00060919F047091A0042FB7F8948091B6048C
:101EE0009091B704A091B804B091B9042FBF841B9E
:101EF000950BA60BB70B4091990450919A046091F1
:101F00009B0470919C0484179507A607B707D0F02F
:101F10008091A8049091A9040E94FE341092A90413
:101F20001092A80410929D0410929E0410929F0497
:101F30001092A0041092990410929A0410929B049B
:101F400010929C0480911501882341F180919504A1
:101F500090919604009711F10E940D2D2091E603B7
:101F60003091E70328173907C8F4909193048091C2
:101F70009404981759F00E94CE301092E703109203
:101F8000E603109296041092950408C00E946430F3
:101F900010929604109295040E94AE308091D9035D
:101FA00080FF1EC08091140182FF1AC00E94282D5C
:101FB0002091E2033091E303AC01421B530B2091CB
:101FC0001201309113014217530750F022E931E01A
:101FD00041E0BC018091E4039091E5030E946731E8
:101FE00086E0E2EEF1E08E010F5F1F4FD801019015
:101FF0000D928A95E1F76090E301A090E401B09022
:10200000E501E090E601F090E7011092E401109202
:10201000E5011092E6011092E701A11003C0BB2078
:1020200009F454C08091E0019091E1010E940D2DCE
:10203000AC019091DB01992339F02091100130E03F
:102040002417350758F042C020911101EAE02E9F75
:10205000900111242417350718F038C09F3F19F05C
:102060009F5F9093DB01AA2061F00E94B6211A14B1
:1020700014F491E001C09FEF899F802D112480937B
:10208000E401BB2061F00E94B6211B1414F09FEF05
:1020900001C091E0899F802D11248093E5018091FA
:1020A000E401882399F07090E501772079F00E948F
:1020B0000522811101C081E08093E401872D0E94F7
:1020C0000522811101C081E08093E501E11003C088
:1020D000FF2009F454C08091DE019091DF010E943D
:1020E0000D2DAC019091DC01992339F020910C0168
:1020F00030E02417350758F042C020910D01FAE076
:102100002F9F900111242417350718F038C09F3FE6
:1021100019F09F5F9093DC01EE2061F00E947D2119
:102120001E1414F491E001C09FEF899F802D1124AB
:102130008093E601FF2061F00E947D211F1414F0BE
:102140009FEF01C091E0899F802D11248093E701CA
:102150008091E601882399F07090E701772079F06B
:102160000E940522811101C081E08093E601872D44
:102170000E940522811101C081E08093E7018091D6
:10218000E30186111AC08091E401882311F08A11BD
:1021900014C08091E501882311F08B110EC080914D
:1021A000E701882311F08F1108C09091E60199236F
:1021B00031F081E09E1104C002C081E001C080E0E6
:1021C00080FD15C08091E40181110FC08091E5016F
:1021D00081110BC08091E601811107C081E09091CF
:1021E000E701911103C080E001C081E080FD0E9401
:1021F00053216A82AB82BC82ED82FE8286E0F801C6
:10220000A2EEB1E001900D928A95E1F70E94042EB2
:1022100090919B01891721F080939B010E941C2DB6
:102220008091D101843009F094CD83E08093E9005E
:102230008091E80082FF8DCD8091E80085FF21C06C
:102240000E94A61B81111BC080E2E82EF12C5801D0
:1022500009C08091F100D5018D935D01B1E0EB1AC9
:10226000F10869F08091E80085FDF3CF8091E800E6
:102270008B778093E8000E94A61B882399F391E056
:1022800001C090E08091E8008B778093E80099236B
:1022900009F45FCDE090A801F090A9018981E114D3
:1022A000F10461F08E3F09F02FC48A81833008F475
:1022B00024C28550833008F027C41FC28B3009F434
:1022C00003C2C8F5853009F482C0B8F4823009F43D
:1022D0004EC030F4813009F015C41A8289E07EC303
:1022E000833009F467C0843009F00CC44C816B81E1
:1022F0008A810E9408309D832BC4873009F475C001
:1023000008F470C0883009F49FC0893009F0FAC31E
:102310002091060230910702409108025091090273
:1023200060910A0270910B0280910C0290910D0253
:102330000E94A01FE9C3803109F407C160F48D3009
:1023400009F4A5C008F4A1C08E3009F4A4C08F30F0
:1023500009F4CCC0D7C3823109F4FDC008F4F8C039
:10236000833109F422C18E3F09F4C7C1CBC38A81EE
:10237000823009F4E6C3833051F0813009F0C2C3E2
:102380000E941C2D9B838C837D836E83BDC38091B3
:10239000970490919804892B09F4B6C3FE013396F3
:1023A000CE010B96D6012D916D012193E817F90707
:1023B000C9F7AAC38A81823009F0A4C36B817C81EA
:1023C0008D819E810E942E360E940B1F9DC32D8100
:1023D0003E813227232732274C816B818A810E94DC
:1023E0006A2F92C30E94912F8FC38A818138A1F0F6
:1023F00048F4803809F088C34B81609108028091CD
:1024000007021FC08238C9F0833809F07DC34091AC
:1024100009026C818B8115C08B810E9424218B81E4
:10242000811108C0809106028E7F809306020E946F
:102430005F1F6AC30E94282167C38B8180930A02B1
:1024400063C30E94812060C38A81813899F030F48F
:10245000803809F059C380910902C0C2823891F0D6
:10246000833809F051C3809107028B838091080261
:102470008C834AC38091060280FF02C08695AEC25B
:1024800080E0ACC280910A02A9C280E162C081E012
:102490008A8383EFA3C2EA80FB80FE24EF24FE241C
:1024A000AC80B12CBDE1AB16B10408F02DC36801BE
:1024B000C701835F9D4F9601201B310B2A153B05F9
:1024C00008F022C3E3EFEE16E1E0FE0630F40E94CE
:1024D000A035D60114968C9302C0F6011482FFEF4A
:1024E000EF1AFF0A2FEFC21AD20AE2CF80919704A7
:1024F00090919804892B09F407C3EA80FB80FE249D
:10250000EF24FE24CC80D12C3DE1C316D10408F089
:10251000FBC25801C701835F9D4F9501201B310B02
:102520002C153D0508F0F0C243EFE41641E0F40637
:1025300028F4D50114966C910E94C435BFEFEB1AB4
:10254000FB0AEFEFAE1ABE0AE5CF0E945A2FDCC29B
:1025500083E08A83D9C2EA80FB80FE24EF24FE2434
:10256000AC80B12CFDE1AF16B10408F0CDC268011A
:10257000C70189969601201B310B2A153B0508F0EF
:10258000C3C220E2E21621E0F20630F40E94A03538
:10259000D60114968C9302C0F6011482FFEFEF1A55
:1025A000FF0A2FEFC21AD20AE3CFEA80FB80FE2493
:1025B000EF24FE24AC80B12C3DE1A316B10408F059
:1025C000A3C2270149E2440E511C50E2E51651E036
:1025D000F50608F099C280E291E08E199F098A15EC
:1025E0009B0508F491C28091970490919804892BDF
:1025F00011F0680160C0E0FE0FC0C70188960E941C
:10260000A03590E0982F88272D81822B81159C473B
:1026100031F48FEF8D8303C0C12CD12C03C0CC24A7
:10262000C394D12CC7018A0D9B1D350180FF1BC0AF
:10263000B1E06B1A7108E5E02E2E312C2C0E3D1EF8
:10264000260C371CC2018A0D9B1D0E94A035F1018A
:10265000208130E0322F2227282B21153C4719F406
:102660008FEFD1018C93F801EC0DFD1D2FEFCF0101
:10267000801B910B8615970508F0BBCF848190E0F5
:10268000982F88273581832B81159C4711F424834B
:1026900025833296ECCFE0E2EE16E1E0FE0628F468
:1026A000D60114966C910E94C435BFEFEB1AFB0A59
:1026B000EFEFCE1ADE0AC70189969601201B310B77
:1026C0002A153B0540F320C280919704909198040D
:1026D000892B09F419C240E250E0B80182E00E945F
:1026E000982CFFEF21EE34E0F15020403040E1F72C
:1026F00000C000000E94D62C07C2EA818E2F90E015
:102700008E30910508F000C2FC01E056FF4F0C949A
:10271000283688E0E6E1F1E0DE01919601900D9225
:102720008A95E1F780E2D8011D928A95E9F786E063
:10273000898388E0FE01B196DE011596AFC184E57C
:10274000898381E08A831B821C82DEC18C8190E0B8
:10275000982F88272B81820F911D092E000CAA0B20
:10276000BB0B65E0880F991FAA1FBB1F6A95D1F7A5
:10277000AC01BD01405E5F4F6F4F7F4F4817590757
:102780006A077B0708F4C0C18435E1E09E07A10514
:10279000B10508F0B9C14535F1E05F076105710584
:1027A00020F044E551E060E070E0481B590BBC01AB
:1027B00060597E4FC8010E948735A6C140E250E0B3
:1027C0006FEF70E0C8010E94B93680919704898349
:1027D000EA821B8280913B018C831D8280913C01A7
:1027E000B7C19092A9018092A80182E390E09093F2
:1027F0009F0180939E010E94282D90939D018093BC
:102800009C0182C1EF2809F440C08091A00190E0B2
:1028100049A95AA94823592331E0452B09F430E04E
:102820004BA95CA98423952321E0892B09F420E09E
:10283000F32EF22280919C0190919D010E940D2D1A
:1028400085369105E0F0FF20D1F00E94282D90936D
:102850009D0180939C0180919E0190919F01019721
:1028600090939F0180939E01892B79F41092A90186
:102870001092A801909298048092970406C082E377
:1028800090E090939F0180939E01809197048983AB
:102890008091A8018A8380919E01A0C01092980423
:1028A0001092970431C1EB80FC8040E250E06FEF62
:1028B00070E0C8010E94B9362FE436E0ABE4B7E01F
:1028C00080E090E0AC014E5F5F4F4132510508F06F
:1028D0001BC1F90165917491E616F70630F4F80111
:1028E000E80FF91F71836083CA01245F3F4FA2176D
:1028F000B30741F709C12B813C818FE496E0FC01CD
:10290000459154912417350731F00C9657E08B34DC
:102910009507A9F7F7C0009709F4F4C0FC013696B3
:10292000259134912115310509F4ECC04FE150E0B7
:10293000BE016E5F7F4FF9010995E5C02B813C8197
:102940008BE497E04FE4E42E46E0F42EF701459146
:1029500054912417350739F0FCE0EF0EF11C8E1569
:102960009F05A1F7CFC0E114F10409F4CBC0F70132
:102970003896259134912115310509F4C3C04CE1F5
:1029800050E0BE016B5F7F4FC701F90109950097C9
:1029900009F0B9C0F7013A9685919491009711F02A
:1029A000FC01099580E0AFC00E94B71DADC08B81CE
:1029B000843041F128F4882351F0833089F0A4C099
:1029C000853009F44EC0863009F46DC09DC080E2A8
:1029D000D8011D928A95E9F788E08A838B8394C099
:1029E0006C81CE0181962AE0FC0111922A95E9F7CB
:1029F000683008F04CC0FAE06F9FB00111246359B1
:102A00007E4F3FC06C818AE0FE013596DE019196D3
:102A100001900D928A95E1F789A59AA581152CE779
:102A2000920741F42091970430919804232B11F4DC
:102A300080E090E09AA789A7683070F43AE0639F3D
:102A4000B001112463597E4F4AE050E0CE018196D7
:102A50000E94E83580E001C08FEF89830E947D1ECF
:102A600053C06C81CE0181962AE0DC011D922A952B
:102A7000E9F7683060F4BAE06B9FB0011124635449
:102A80007E4F4AE050E00E94903580E001C08FEF19
:102A900089838AE0FE01B196DE01129601900D92C3
:102AA0008A95E1F731C06C818AE0FE013596DE013E
:102AB000919601900D928A95E1F78BA19CA18115C9
:102AC000ECE79E0741F42091970430919804232B62
:102AD00011F480E090E09CA38BA3683070F4FAE0DE
:102AE0006F9FB001112463547E4F4AE050E0CE0145
:102AF00081960E94E83580E001C08FEF89830E94B3
:102B0000091E02C08FEF898340E250E0B80182E0E5
:102B10000E94982C1EC909BD19BD09B400FEFDCF45
:102B20008091D8008F7D8093D8008091E0008260F2
:102B30008093E0008091E00081FDFCCF0E9405259C
:102B400011C988E290E00E94A0351B821C821D8280
:102B50008E83DACF8091D30187FF11C08091E80086
:102B600082FD05C08091D1018111F8CF11C0809103
:102B7000E8008B770BC08091D101882349F08091C8
:102B8000E80080FFF8CF8091E8008E778093E8001E
:102B90000895982F973068F59093E900981739F0C9
:102BA0007091EC002091ED005091F00003C0242FB3
:102BB000762F50E021FD02C09F5FECCF3091EB00FB
:102BC0003E7F3093EB003091ED003D7F3093ED0080
:102BD0003091EB0031603093EB007093EC00209368
:102BE000ED005093F0002091EE0027FDE5CF80E04E
:102BF00008958F708093E90081E008952091D901B4
:102C00003091DA012617370748F06115710539F45C
:102C10002091E8002E772093E80001C0B901FC0163
:102C200020E06115710579F18091D1018823F1F1DE
:102C30008530F1F18091E80083FD3CC08091E8008F
:102C400082FD2EC08091E80080FFEBCF2091F30041
:102C50008091F20090E0922B6115710551F088305F
:102C6000910538F421912093F1006150710901968A
:102C7000F3CF21E0089709F020E08091E8008E77FB
:102C80008093E800CECF2111CFCF0AC08091D1012F
:102C9000882361F0853061F08091E80083FD0AC0EF
:102CA0008091E80082FFF2CF80E0089582E00895ED
:102CB00083E0089581E0089543E050E0BC0184E0A2
:102CC0000E94982C089546E050E0BC0184E00E94E8
:102CD000982C0895CF93DF93EC0180910901811125
:102CE00005C048E050E0BE0181E00BC08091AA0120
:102CF00087FF03C040E284E002C048E081E050E08A
:102D0000BE010E94982C80E2FE01AFEAB1E0019082
:102D10000D928A95E1F7DF91CF910895A0E0B0E0A0
:102D2000E4E9F6E10C943D36EC018AE0A82E288116
:102D3000222309F49AC0213009F041C089818130F1
:102D400039F48E010E5F1F4F8A810E944D2708C003
:102D5000823041F48E010E5F1F4F8A810E94D5267A
:102D6000E80181C0833039F48E010E5F1F4F8A81E4
:102D70000E949F26F5CF843011F0219674C02A81DD
:102D8000229680E090E030E0205331092A3031056E
:102D900058F4A89EA001A99E500D1124C901840FCA
:102DA000951F21962881EFCF009709F45CC0EFE9C9
:102DB000FFE03197F1F700C000000197F5CFE22F57
:102DC000F0E0E153FB4FB490822F8695869586956F
:102DD00090E0FC01E154FB4FE4902770F12C022EAF
:102DE00002C0F594E7940A94E2F7F1E0EF22FF24A1
:102DF000FC01E155FB4FC490D12C022E02C0D594AA
:102E0000C7940A94E2F731E0C322DD24FC01E156C5
:102E1000FB4F049110E002C0159507952A95E2F743
:102E200001701127E114F10419F081EE0E94D526FA
:102E3000C114D10419F086EE0E94D5268B2D0E9474
:102E40004D27C114D10419F086EE0E949F26E1148B
:102E5000F10419F081EE0E949F260115110519F069
:102E60008CE20E944D27219662CFCDB7DEB7EAE013
:102E70000C945936AAE2B0E0E0E4F7E10C94443651
:102E8000E3EDF1E08BED91E02091F10021938E17BD
:102E90009F07D1F78091D401833009F463C030F4E7
:102EA000813071F0823009F49DC0B4C08A3009F4D9
:102EB00089C08B3009F46EC0893009F0ABC020C0E6
:102EC0008091D301813A09F0A5C08091E800877F05
:102ED0008093E8008091D7019091D801892B21F44B
:102EE00060E28FEA91E003C060E080E090E070E093
:102EF0000E94FE158091E8008B778093E8008AC0DD
:102F00008091D301813209F085C08091D7019091E1
:102F1000D801009719F0029709F07CC08091E80071
:102F2000877F8093E8008091E80082FD05C0809152
:102F3000D1018111F8CF6EC02091F3008091F20091
:102F400090E0922B029731F48091F100813011F0E2
:102F5000863021F48091F1008093AE018091E800E9
:102F60008B7754C08091D301813A09F053C080918E
:102F7000D7019091D801892B09F04CC08091E800CD
:102F8000877F8093E8008091E80080FFFCCF8091EC
:102F9000090137C08091D3018132E1F58091D701D9
:102FA0009091D801892BB1F58091E800877F8093BB
:102FB000E8000E94AA158091D501809309010E9422
:102FC000052528C08091D301813221F58091E80048
:102FD000877F8093E8000E94AA158091D601809394
:102FE000AD0118C08091D301813AA1F48091E8002D
:102FF000877F8093E8008091E80080FFFCCF80917C
:10300000AD018093F1008091E8008E778093E80015
:103010000E94AA158091E80083FFEBC18091D30143
:103020009091D401492F50E04A30510508F0E1C198
:10303000FA01E255FF4F0C942836803821F082388F
:1030400009F0D7C108C08091CF019091D001992398
:1030500089F082600FC08091D7018F70873008F0AF
:10306000C8C18093E9008091EB0085FB882780F937
:103070001092E9009091E800977F9093E800809388
:10308000F1001092F1007CC1282F2D7F09F0B1C111
:10309000882319F0823061F0ACC18091D501813074
:1030A00009F0A7C1933009F080E08093D0012EC0D1
:1030B0008091D50181112AC08091D7018F702FEFA7
:1030C000280F263008F095C18093E9002091EB008D
:1030D00020FF1CC0933021F48091EB00806214C06B
:1030E0009091EB0090619093EB0021E030E0A9011A
:1030F00002C0440F551F8A95E2F74093EA001092F0
:10310000EA008091EB0088608093EB001092E90068
:103110008091E800877F8093E8000E94AA1569C12A
:10312000811167C11091D5011F778091E3008078EC
:10313000812B8093E3008091E800877F8093E800F3
:103140000E94AA158091E80080FFFCCF8091E300E7
:1031500080688093E300111102C082E001C083E027
:103160008093D10146C18058823008F042C120913D
:10317000D5013091D6012C3D53E0350779F583E038
:103180008A838AE289834FB7F894DE01139620E0A0
:103190003EE051E2E32FF0E050935700E49120FF2E
:1031A00003C0E295EF703F5FEF708E2F90E0EA3042
:1031B00010F0C79601C0C0968D939D932F5F243168
:1031C00049F74FBF8091E800877F8093E8006AE26B
:1031D00070E0CE0101960E94FE15C0C08091D7011B
:1031E0009091D801432F552743305105B1F068F431
:1031F0004130510509F40CC14230510509F0F9C0C4
:103200008BE590E0E0EEF3E057C04132510589F1E3
:103210004232510509F43CC0ECC0C9019927813004
:103220009105B9F070F082309105D9F0039709F05B
:10323000E0C0EDE4F4E0E4918E2F90E0EDE4F4E002
:1032400038C0EBE9F4E0E4918E2F90E0EBE9F4E094
:1032500030C0E1E8F4E0E4918E2F90E0E1E8F4E0A2
:1032600028C0EBE6F4E0E4918E2F90E0EBE6F4E08A
:1032700020C08330910508F0BCC0880F991FFC0165
:10328000EB5CFE4F0190F081E02D89E090E014C0EE
:103290008330910508F0ADC0FC01EE0FFF1FE15D2A
:1032A000FE4F0190F081E02DDC01A45DBE4F8C91BA
:1032B00090E0009709F49DC02091E800277F2093BB
:1032C000E8002091D9013091DA012817390708F474
:1032D000C90140E0009789F12091D101222309F42E
:1032E0003DC02530D9F12091E80023FD37C0209161
:1032F000E80022FD2FC02091E80020FFEBCF409195
:10330000F3002091F20030E0342B009759F0283080
:10331000310540F444914093F100319601972F5FBD
:103320003F4FF3CF41E02830310509F040E02091D4
:10333000E8002E772093E800CDCF4111CDCF0AC011
:103340008091D101882351F0853041F08091E800CF
:1033500083FD04C08091E80082FFF2CF8091E800F5
:103360008B778093E80045C0803809F042C0809197
:10337000E800877F8093E8008091D2018093F1007C
:103380008091E8008E77C7CE811133C08091D5013E
:103390009091D6019927029764F58091E800877F84
:1033A0008093E8001091D5011093D2010E94AA15D4
:1033B000111106C08091E30087FD02C081E001C0C9
:1033C00084E08093D10142E061EC81E00E94C91564
:1033D00042E261EC84E00E94C91542E261EC82E0C5
:1033E0000E94C91542E260EC83E00E94C9158091F9
:1033F000D1018091E80083FF10C08091E800877FB1
:103400008093E8008091EB0080628093EB0005C020
:1034100082E190E0EBE3F4E04FCFAA96E3E00C9476
:1034200060361F920F920FB60F9211242F933F9385
:103430004F935F936F937F938F939F93AF93BF93BC
:10344000CF93DF93EF93FF93C091E900CF7080910A
:10345000EC00D82FD17080FDD0E81092E900809167
:10346000F000877F8093F00078940E943A171092C2
:10347000E9008091F00088608093F000CD2BCF7040
:10348000C093E900FF91EF91DF91CF91BF91AF9190
:103490009F918F917F916F915F914F913F912F916C
:1034A0000F900FBE0F901F901895E8EDF0E080810F
:1034B0008E7F80831092E2001092DA001092E10079
:1034C000A0EEB0E08C9181608C9380818F778083B7
:1034D00019BCA7EDB0E08C918E7F8C9380818F7E9C
:1034E00080831092AC010895A0E0B0E0EAE7FAE131
:1034F0000C943F36C8EDD0E088818F7E8883E7ED5D
:10350000F0E080818160808384E082BF81E08093ED
:10351000AC0188818E7F888302EE10E0F801108272
:103520001092DA0081EEC82ED12CF601108288812B
:103530008F77888388818068888388818F7D88835E
:1035400019BC1092D1011092D2011092D0011092A8
:10355000CF0190EEE92EF12CF70180818B7F8083E3
:1035600088818160888342E060E080E00E94C91524
:10357000F60180818E7F8083F80180818160808365
:10358000808188608083F70180818E7F808388813D
:1035900080618883CDB7DEB7E8E00C945B361F927C
:1035A0000F920FB60F9211242F933F934F935F9377
:1035B0006F937F938F939F93AF93BF93EF93FF93FB
:1035C0008091E10082FF09C08091E20082FF05C086
:1035D0008091E1008B7F8093E1008091DA0080FF91
:1035E0002AC08091D80080FF26C08091DA008E7FAB
:1035F0008093DA008091D90080FF18C080E189BDF6
:1036000082E189BD09B400FEFDCF81E08093D10144
:103610008091AC0181110FC00E94551A0E94741A4A
:103620008091E20084608093E20005C019BC109292
:10363000D1011092AC018091E10080FF17C0809110
:10364000E20080FF13C08091E2008E7F8093E20051
:103650008091E20080618093E2008091D8008062D6
:103660008093D80019BC85E08093D1018091E1005E
:1036700084FF30C08091E20084FF2CC080E189BDCE
:1036800082E189BD09B400FEFDCF8091D8008F7D15
:103690008093D8008091E1008F7E8093E10080913B
:1036A000E2008F7E8093E2008091E200816080934F
:1036B000E2008091D201882311F084E007C080915C
:1036C000E30087FD02C081E001C083E08093D10167
:1036D0008091D1018091E10083FF27C08091E200B9
:1036E00083FF23C08091E100877F8093E10082E027
:1036F0008093D1011092D2018091E1008E7F80935E
:10370000E1008091E2008E7F8093E2008091E200F0
:1037100080618093E20042E060E080E00E94C91591
:103720008091F00088608093F000FF91EF91BF914D
:10373000AF919F918F917F916F915F914F913F9149
:103740002F910F900FBE0F901F9018952091E400BD
:103750003091E50095E64091EC00842F817040FFA8
:1037600023C08091E80080FD1DC08091D101882395
:1037700099F0853099F08091EB0085FD11C0409162
:10378000E4005091E5002417350729F3915011F01A
:103790009A01E1CF84E0089582E0089583E00895DE
:1037A00081E0089580E008954091E80042FFDDCF78
:1037B0000895A0E0B0E0EFEDFBE10C943D3644301D
:1037C000510508F46CC04091AA0141FBCC24C0F81B
:1037D000D12CCC0CDD1C42FB882780F9C82FE0E0FF
:1037E000DE2FCC0FDD1FCC0FDD1FCC2ADD2A40FBE6
:1037F000EE24E0F8F12CEC28FD2843FBAA27A0F9E1
:10380000B0E023E0AA0FBB1F2A95E1F7EA2AFB2AC2
:1038100044FBEE27E0F9F0E034E0EE0FFF1F3A95AD
:10382000E1F7EE29FF2945FB222720F930E055E09A
:10383000220F331F5A95E1F72E2B3F2B46FB88278B
:1038400080F990E0E6E0880F991FEA95E1F7822B76
:10385000932B47FB442740F950E05695542F4427BB
:1038600057954795842B952B2091AB01322F3170C2
:10387000132F00E0082B192B26952170B22EBB0CBC
:10388000A12C0A291B29012E000C220B330BFB0152
:10389000008311832283338380E090E002C08FEFA6
:1038A0009FEFCDB7DEB7EAE00C945936EEEBF3E0CC
:1038B000848195812AE030E0B9010E94003660934E
:1038C0001101868180931001828580930F01848588
:1038D00080930E0186859785B9010E94003660931A
:1038E0000D01808980930C01828980930B0184896A
:1038F00080930A0108958091BE039091BF03909335
:103900001301809312010895CF92DF92EF92FF92FC
:103910004430510508F471C0FB01C080D180E280C1
:10392000F3800E9405258091AA01C0FA80F9B701B1
:10393000A601769567955795479540FB81F9B701A4
:10394000A60122E076956795579547952A95D1F778
:1039500040FB82F9B701A60133E07695679557954C
:1039600047953A95D1F740FB83F9B701A601E4E00A
:103970007695679557954795EA95D1F740FB84F979
:10398000B701A601F5E07695679557954795FA95A5
:10399000D1F740FB85F9B701A601A6E076956795BA
:1039A00057954795AA95D1F740FB86F9B701A6012F
:1039B000B7E07695679557954795BA95D1F740FB4F
:1039C00087F98093AA018091AB01D0FA80F999E040
:1039D000F694E794D794C7949A95D1F7C0FA81F9F1
:1039E0008093AB016091AA017091AB0184E090E0FB
:1039F0000E94E23580E090E002C08FEF9FEFFF90E1
:103A0000EF90DF90CF9008959C01CA01F9013296A2
:103A1000459154918417950750F0CB01F9013496E4
:103A2000659174910E94B03680E090E008958FEF28
:103A30009FEF08950F931F93CF93DF930EEB13E047
:103A4000C9E4D1E0CE010E94A035F80161918F0157
:103A5000681719F0CE010E94C4352196CD36F1E0E9
:103A6000DF0781F7DF91CF911F910F910895DA0160
:103A70009C012E5F3F4FF90145915491F901259129
:103A80003491A217B30758F0FC01349685919491B4
:103A90000E94B0360E941A1D80E090E008958FEFDA
:103AA0009FEF089580911401877F80931401909176
:103AB000E8039D7F9093E80384FF08C08F7E809386
:103AC000140180919D03826080939D038091140175
:103AD00085FF08C08F7D8093140180919D038062D3
:103AE00080939D030E94992B0895662329F02091CD
:103AF000E80322602093E8039C01305221153043F3
:103B000008F499270E94FE340895009741F0EFE9E8
:103B1000FFE03197F1F700C000000197F6CF08955C
:103B20000F931F93CF93DF930EEB13E0C9E4D1E023
:103B3000CE010E94A035F80181938F012196CD36E8
:103B4000F1E0DF07A9F7C0E0D0E0FE01E75AF94F46
:103B500085919491009711F0FC0109952C96CC3F2A
:103B6000D10599F7DF91CF911F910F910895EEEB59
:103B7000F3E0128E138E8FEA90E09183808325E02C
:103B8000248F88E893E1938382838AE090E0958391
:103B9000848344E150E05783468348E050E05187F6
:103BA0004087938782876EE170E075876487978787
:103BB000868780E590E0918B808B538B428B48E227
:103BC00050E0558B448B42E350E0578B468B48ECDA
:103BD00050E0518F408F158E178E168E91A380A3C3
:103BE00022A30E941A1D0E9405251092AB0110927B
:103BF000AA01EBEAF1E08081846080836091AA01F0
:103C00007091AB0184E090E00E94E2350E94901D2B
:103C10000895AAE0B0E0EFE0FEE10C943B3603E744
:103C200012E081E6C82E82E0D82E9DEBE92EFF241B
:103C3000F3942FE0922E30E6A32E32E0B32E8824A8
:103C40008394F601019311936F014AE050E0B701AC
:103C5000CE0101960E949035F801892D11928A9526
:103C6000E9F789819A81F801918380838F8182832A
:103C70008D81838388858483898585838B819C81DD
:103C80009783868310868A8587FF03C016861586EC
:103C900003C0F801B686A58680FF02C0F8018086C1
:103CA00081FF04C0F80190859260908782FF04C074
:103CB000F80190859460908783FF04C0F801908597
:103CC0009860908784FF04C0F80190859061908788
:103CD00085FF04C0F801808580628087015F1F4FE7
:103CE000FAE0EF0EF11C8DE0E81682E0F80609F02C
:103CF000A8CF2A96ECE00C945736AAE0B0E0E3E8AF
:103D0000FEE10C943F3680E5E0E1F2E0DF011D9238
:103D10008A95E9F788E3EAEEF3E0DF011D928A95E0
:103D2000E9F780E1C82E82E0D82E7F010DE611E090
:103D3000F701D182C0824AE050E0B801CE0101967D
:103D40000E94903588E0FE013196D60101900D92D7
:103D50008A95E1F789859A85D70113969C938E936E
:103D60001297BAE0CB0ED11CE7E0EE0EF11C065F15
:103D70001F4F0D3BF1E01F07D9F62A96E8E00C949F
:103D80005B36A6E0B0E0E7ECFEE10C94453690939C
:103D90000F0280930E02811520E2920718F40E9410
:103DA000E43410C080EF89838A830E94282D8160CB
:103DB000682F9C838B8349815A817C8181E090E0CC
:103DC0000E9462322696E2E00C946136A6E0B0E0F2
:103DD000ECEEFEE10C94453690930F0280930E02B8
:103DE000811520E2920718F40E94FE3410C080EF83
:103DF00089838A830E94282D8160682F9C838B830E
:103E000049815A817C8181E091E00E94623226964C
:103E1000E2E00C94613688E290E00E94C435089597
:103E2000CF93C82F811102C06FEF01C066E385E216
:103E300090E00E94C435C11102C06FEF01C062E47E
:103E400086E290E00E94C435C11102C06FEF01C04C
:103E500068E787E290E00E94C435CF91089580E042
:103E60000E94101F60E070E0CB010E940B1F0E94B7
:103E7000912F0E945A2F81E00E94101F089585E221
:103E800090E00E94A035863381F486E290E00E94A3
:103E9000A035823451F487E290E00E94A03591E091
:103EA000883709F090E0892F01C080E08170089583
:103EB000882311F0FA0101C0FB0109950895809152
:103EC000060280FF0AC0539A8BB1877F9BB198602E
:103ED0002FB7F894E8EEF1E00BC0E8EEF1E01182C4
:103EE00010821282339632E0E630F307C1F7EBCF4F
:103EF00032E0E630F30789F0319148E09BB90000E9
:103F000000C037FF8BB9330F000000C000C000C0F5
:103F10008BB900C04A9591F7EBCF2FBF8FE594E0A6
:103F20000197F1F700C00000089580910602982FD4
:103F30009695913021F081708260809306020895F9
:103F4000A0E0B0E0E6EAFFE10C943B3649015A01FB
:103F50006B017C010E94951F8401A4016A2D7B2DB9
:103F600088E090E00E94D63594014A2D5B2DB60181
:103F7000C70100E20E948736622F84E290E00E942F
:103F8000C435CDB7DEB7ECE00C945736A0E0B0E016
:103F9000ECECFFE10C943C369091060290FFACC033
:103FA000922E142FC62FD82F9E7F923009F08DC0ED
:103FB000E42FF0E0611106C0E15BFA4FE491FE2FBF
:103FC0002E2F72C0E62EF12CE15BFA4FF4910F2FE9
:103FD000CF2ED12C26E0829FC00111242FEF30E09C
:103FE000B9010E9400364BEA4603C001479F900D7D
:103FF00011248D0F911D8D0F911DB82EBB0CB80E85
:10400000A9014E195F094C9DC0014D9D900D5C9D0D
:10401000900D1124E92FCB9DA0011124452F552788
:10402000D901A41BB50BAC9DA001AD9D500DBC9D4D
:10403000500D1124D901AB19B1095D01AE9CD0011D
:10404000AF9CB00DBE9CB00D1124AB2FBB272A1B1B
:104050003B0B2C9DD0012D9DB00D3C9DB00D11242E
:104060002B2F6230710591F048F461157105E1F074
:1040700061307105B9F42F2FF52F16C0643071052A
:1040800069F040F06630710579F00CC02F2FF92FE0
:10409000EB2F0AC0F92FE02F252F06C0292FEF2F75
:1040A000FB2F02C0292FE52FA8EEB1E086E092E0B9
:1040B0001196FC9311972C931296EC9312971396EA
:1040C0008A179B07A9F70E945F1FD0930702C0932E
:1040D000080210930902992079F02091060260915C
:1040E0000A0270910B023D2F4C2F512F80910C0230
:1040F00090910D020E94A01FCDB7DEB7EBE00C94AB
:10410000583620E00E94C61F0895E6E0F2E04381A1
:1041100021E1421B08F440E021E0628181810E949C
:10412000C61F0895E6E0F2E0438121E1420F08F462
:104130004FEF21E0628181810E94C61F0895E6E071
:10414000F2E0628121E1621B08F460E021E043813A
:1041500081810E94C61F0895E6E0F2E0628121E1BC
:10416000620F08F46FEF21E0438181810E94C61F36
:104170000895E6E0F2E0818121E043816281885088
:104180000E94C61F0895E6E0F2E0818121E04381AC
:104190006281885F0E94C61F089580910A02882369
:1041A00019F0815080930A02209106023091070293
:1041B000409108025091090260910A0270910B022D
:1041C00080910C0290910D020E94A01F0895809191
:1041D0000A02833018F48F5F80930A02209106024E
:1041E00030910702409108025091090260910A0241
:1041F00070910B0280910C0290910D020E94A01F01
:1042000008952091060220FF1EC021702260209395
:104210000602662381F03091070240910802509116
:10422000090260910A0270910B0280910C02909138
:104230000D020E94A01F4091090260910802809126
:1042400007020E948120089560E00E9401210895E4
:10425000E6E0F2E080818160808386950E942421DF
:104260000895809106028695815009F481E061E00D
:104270000E940121089561E081E00E9401210895DA
:10428000E6E0F2E023E0208311828FEF82838383D4
:104290001482758130E04FEF5FEF60E08681978197
:1042A0000E94A01F08950E94282D2091E401211151
:1042B00004C02091E501222321F09093E101809335
:1042C000E0012091E601211104C02091E7012223A1
:1042D00021F09093DF018093DE01E091B104F09131
:1042E000B204309749F082E08093E2010480F581C6
:1042F000E02D82EE91E0099508958091DD0180FF27
:1043000008C060910B0170E075956795759567958C
:1043100021C081FF06C060910B0170E07595679523
:1043200019C082FF04C060910B0170E010C0909131
:10433000DC01992399F060910A019617A0F780910A
:104340000B01899FC001112470E00E94143660386F
:10435000710540F46115710519F406C061E070E063
:10436000862F08958FE7089581E008958091DD01FB
:104370002091C6033091C70380FF0CC080910F01CC
:10438000829FB001839F700D112476956795769575
:1043900067952FC081FF0AC080910F01829FB001F5
:1043A000839F700D11247695679523C082FF08C006
:1043B00080910F01829FB001839F700D112419C05D
:1043C0004091DB01411102C0B90113C060910E019F
:1043D000461770F780910F01849FA0011124429F1E
:1043E000C001439F900D529F900D112470E00E94D8
:1043F00000366038710528F46115710521F0862FAB
:1044000008958FE7089581E00895282F35EB230361
:10441000C001112497FF03C08058910902C0805841
:104420009F4F892F0895CF92DF92FF920F931F9392
:10443000CF93DF936C010091850180917703082B66
:10444000C2E0D0E010E0C8010C2E02C0959587951F
:104450000A94E2F780FD04C02197A8F7F12C09C067
:10446000FC2EB6018C2F0E941D290E943A2901972B
:1044700099F38F2DDF91CF911F910F91FF90DF90D6
:10448000CF900895CF93DF93EC010E941322BE01D9
:104490000E941D290E943A29DF91CF910895292F6A
:1044A000983078F5863068F590E036E0239F800DEF
:1044B000911D1124682F677023E0969587952A95A2
:1044C000E1F7FC01EE0FFF1FE80FF91FE551FD4F6B
:1044D00040E050E080E0219130E0062E02C03695A9
:1044E00027950A94E2F721703327042E01C0220F8A
:1044F0000A94EAF7822B4F5F5F4F4330510559F71B
:10450000089580E00895292F983088F5863078F551
:1045100090E036E0239F800D911D1124282F2770F5
:1045200051E001C0550F2A95EAF723E0969587954B
:104530002A95E1F7FC01EE0FFF1FE80FF91FE55187
:10454000FD4F20E030E070E04081CB01022E02C040
:10455000969587950A94E2F7817081958427852343
:10456000842781932F5F3F4F2330310569F70895EA
:104570000E9418358093850108959091850121E06E
:1045800030E0F90101C0EE0F8A95EAF7D90102C0C7
:10459000AA0FBB1F6A95E2F7BD016E2B01C0220F67
:1045A0004A95EAF7892F8623681303C0892F822B47
:1045B00003C02095822F89230E94B822089521E00C
:1045C00030E001C0220F8A95EAF72095809185019D
:1045D00082230E94B822089521E030E001C0220F1A
:1045E0008A95EAF780918501822B0E94B82208956E
:1045F00080937703089592959F70963079F010F428
:10460000925001C09A50923068F4803F69F018F4DB
:10461000883E40F409C0843F29F406C0883E20F05B
:10462000813F11F080E0089581E00895FC0124812C
:10463000222371F087819085009719F00E943A2912
:1046400004C0808191810E9442220E94FB22089531
:1046500080E00895A8E1B0E0E0E3F3E20C943A369C
:104660008C0186E0F801DE01539601900D928A9547
:10467000E1F7D80114969C9014971596EC908DEF65
:10468000A82E82E0B82E80910103811122C09920CA
:1046900009F452C0EE2009F44CC0C8010E94162350
:1046A000F82E882309F445C089E0F801ADEFB2E0A7
:1046B00001900D928A95E1F780910103813031F4E8
:1046C0008091FD029091FE020E9442220E943C2CA9
:1046D00097C1F80170808180C280D38060E08DEF47
:1046E00092E00E945332F09002038091FF02909179
:1046F0000003FF2009F41DC19601281B390B283C3B
:10470000310508F0C4C09920B9F080910303382F17
:10471000307F2091FE02D80111969C91119733238E
:1047200071F0291709F473C0C8010E941623811182
:1047300081C0C8010E945504FF24F39461C129136C
:104740001FC02091FD029C9129131AC040910403BF
:104750005091050317962D913C91189742175307D6
:1047600079F4E1100DC08F708061809303038DEFA9
:1047700092E00E94550480910303F80186833FC1B3
:10478000E1103BC040E0682D872D0E94122CE82EDE
:10479000882329F08091DB0380FD26C130C17B8A0C
:1047A0008C8A8B899C890E944222292F22952F7006
:1047B000243020F49F70223028F009C02A50223083
:1047C00088F015C0992351F0811108C014C09923B5
:1047D00029F0D80116969C91907F69F0805E883010
:1047E00030F409C0803F38F0815F833020F0C80189
:1047F0000E945504EF2CFE2C03C1809103038160BD
:10480000809303038091DB0381FDF9C0EDC020910B
:10481000FD02F8019081291387CF40910403509144
:104820000503278130854217530709F07DCFE1103A
:104830007BCFB9C0EE2009F47CCF20910303822FF7
:1048400082958F7090E00297BCF08091FD0290916C
:10485000FE029B878A87DD86CC86809101038E8746
:104860001F86288B80910403909105039A8B898B76
:10487000CE010A960E94550489E0F801ADEFB2E03E
:1048800001900D928A95E1F70E943C2C55CF8091C2
:104890000303982F907F39F48DEF92E00E94550426
:1048A00089E0D501A9C0992009F446CF2091FE02E4
:1048B000F8019181291315C02091FD0290812913DF
:1048C00010C04091040350910503278130854217A1
:1048D000530739F4E11005C08683C8010E945504CE
:1048E0007DC0C8010E941623882309F422CFEE2040
:1048F00009F41FCF20910303822F82958F7090E0DF
:1049000002970CF4B9CF8091FD029091FE029A8338
:104910008983DC82CB82809101038D831E822F8369
:10492000809104039091050399878887CE010196B1
:10493000A1CFC81AD90AB8ECCB16D10408F04EC0E2
:10494000992009F4F9CEFE2CEE2009F4F2CE9091D4
:10495000FE02F8018181981333C09091FD0280819D
:1049600098132EC020910403309105038781908510
:104970002817390729F58091030380FD18C0829517
:104980008F70482F50E04115510589F020910303A5
:1049900026834F30510541F08F5F982F9295907F7D
:1049A000822F8F70892B8683C8010E94550489E06D
:1049B000F801ADEFB2E001900D928A95E1F720C0C9
:1049C000C8010E941623811157CF80910303816093
:1049D00080930303C8010E94550412C089E0D501E9
:1049E0001D928A95E9F70CC08DEF92E00E94550464
:1049F000EDEFF2E089E0DF011D928A95E9F7F12CF5
:104A00008F2D6896EDE00C94563610929D038091A0
:104A10000901882331F08091AA0187FF02C08EE14D
:104A200001C086E0EFE7F3E0DF011D928A95E9F728
:104A300080E090E00E94DF2D80E090E00E94BA2D9F
:104A40001092E8030E94992BE2EEF1E086E0DF018C
:104A50001D928A95E9F71092DB011092DC01109209
:104A6000DD010E9453210895A2E1B0E0EAE3F5E2FE
:104A70000C9443360A871B872C873D874E875F87B8
:104A8000688B798B8A8BCE010A960E942A2381112A
:104A90003BC089E0FE013A96DE01119601900D922D
:104AA0008A95E1F76E85662379F12091060330E05F
:104AB000C90101968770992740914F0350E08417F0
:104AC0009507A1F06D8399E0929FD001939FB00D5F
:104AD0001124A95FBC4FFE01319601900D929A9569
:104AE000E1F7809306030E94322C0EC00E94052538
:104AF0001092060310924F03EDEFF2E089E0DF0120
:104B00001D928A95E9F719C019E080914F039091A1
:104B10000603891791F0189FC0011124895F9C4FEB
:104B20000E942A23882349F080914F0390E0019648
:104B30008770992780934F03E8CF6296E4E00C9446
:104B40005F36882341F080959091E8038923809314
:104B5000E8030E94992B0895882339F09091E80387
:104B6000892B8093E8030E94992B0895882321F0D4
:104B70000E942C2B0E94992B0895882339F0909144
:104B80009D03892B80939D030E94992B0895662392
:104B900009F45CC08D3C21F40E94B621819504C0CB
:104BA0008E3C29F40E94B6218093E501C5C08F3C5C
:104BB00021F40E94B621819504C0803D29F40E9411
:104BC000B6218093E401B8C0893D19F40E947D218B
:104BD00005C08A3D31F40E947D2181958093E601D4
:104BE000ABC08B3D21F40E947D21819504C08C3D9A
:104BF00029F40E947D218093E7019EC09FE2980FD7
:104C0000983078F421E030E0A90102C0440F551F2C
:104C10009A95E2F7CA019091E301892B8093E30111
:104C20008BC08D3D21F48091DD0181600CC08E3DF3
:104C300021F48091DD01826006C08F3D09F07CC0C7
:104C40008091DD0184608093DD0176C08D3C39F474
:104C50009091E50197FF35C01092E50159C08E3C57
:104C600029F49091E5011916BCF32BC09091E40151
:104C70008F3C29F497FF25C01092E40149C0803D84
:104C800019F41916CCF31DC09091E601893D29F461
:104C90001916BCF41092E6013BC08A3D19F497FF47
:104CA00010C0F8CF8B3D39F49091E70197FF09C010
:104CB0001092E7012DC08C3D21F49091E701191667
:104CC000BCF39FE2980F983080F421E030E0A90116
:104CD00002C0440F551F9A95E2F7CA018095909142
:104CE000E30189238093E30113C08D3D21F480917A
:104CF000DD018E7F0BC08E3D21F48091DD018D7F23
:104D000005C08F3D29F48091DD018B7F8093DD010B
:104D10008091E401811106C08091E501811102C0FA
:104D20001092DB018091E601811106C08091E701BC
:104D3000811102C01092DC010E9453210895882342
:104D400099F19CEF980F913A30F4682F8DE793E03A
:104D50000E945D2D0DC090E2980F983060F487702E
:104D600091E001C0990F8A95EAF7892F0E942C2BB8
:104D70000E94992B08959BE5980F933028F480E0CA
:104D800090E00E94DF2D089598E5980F9B3128F45C
:104D900080E090E00E94BA2D089593E3980F93313C
:104DA00018F460E00E94C7250895CF93882309F482
:104DB00072C0C82F8CEF8C0F813AC0F58091090129
:104DC0008823E1F08091AA0187FF18C0EC2FE695B7
:104DD000E695E695F0E0E358FC4F8281282F30E01D
:104DE0004C2F477081E090E002C0880F991F4A95D0
:104DF000E2F782239323892B61F412C0EFE7F3E0FB
:104E000085E893E02191C21721F08E179F07D1F713
:104E100007C06C2F8DE793E00E945D2D0E94992BB7
:104E20006C2F8DE793E00E94852D10C080E28C0FDF
:104E3000883078F4C77081E090E001C0880FCA958F
:104E4000EAF790919D03892B80939D030E94992BF3
:104E500022C0EBE5EC0FE33040F4F0E0E35CFE4F02
:104E6000808190E00E94DF2D16C0E8E5EC0FEB3169
:104E700050F4F0E0EE0FFF1FE05CFE4F8081918167
:104E80000E94BA2D08C083E38C0F833120F461E0C7
:104E90008C2F0E94C725CF9108951F93CF93DF9346
:104EA000182F893329F4C091DE03D091DF0304C0A9
:104EB000C091DC03D091DD03812F0E94D52620977D
:104EC00041F08FE99FE00197F1F700C000002197C2
:104ED000F6CF812F0E949F26DF91CF911F910895D9
:104EE00080E008959091AA0192FF10C041E0282F20
:104EF0002471243009F040E031E0282F2871283057
:104F000009F030E0431711F02CE0822793FF10C026
:104F100041E0282F2471243109F040E031E0282FAE
:104F20002871283109F030E0431711F02CE0822776
:104F30003091AB0130FF10C051E0282F217121309A
:104F400009F050E041E0282F2871283009F040E0B6
:104F5000541711F029E0822731FF10C041E0282FBB
:104F60002171213109F040E031E0282F28712831EA
:104F700009F030E0431711F029E0822794FD877E85
:104F800008958238910569F1B0F48133910509F4EF
:104F900075C048F48932910509F467C08A329105D9
:104FA00009F471C008958533910509F459C0893316
:104FB0009105B9F00895833E910589F138F4803E5A
:104FC0009105D1F0823E910529F10895863E910523
:104FD000C9F1873E9105D9F1843E910509F06CC075
:104FE00027C02091AA0120FD57C021FD55C0209166
:104FF000AB0123FD5BC008958091AA0180FD48C0EC
:105000008091AB0180FF48C08091AA0184FD46C019
:1050100083EE51C08091AA0182FF3CC0F5CF809100
:10502000AA0182FD37C08091AB0180FD35C0ECCF75
:105030008091AB0181FF36C08091AA0184FD2EC012
:1050400087EE39C08091AA0183FF2AC0F5CF8091F5
:10505000AA0183FD25C08091AB0181FD23C0ECCF67
:105060008091AA0185FD22C01FC08091AA0185FD03
:105070001BC08091AB0183FF19C00AC08091AA01B7
:1050800086FD16C017C08091AA0186FD13C010C00E
:1050900089E311C082EE0FC080EE0DC080E00BC02E
:1050A00086EE09C084EE07C085E305C089E203C02F
:1050B0008AE201C081E390E00895F894E82FE29538
:1050C000EF70F0E031A1282F2F7081E090E001C057
:1050D000880F2A95EAF7982F9095932391A392A190
:1050E000892B82A378940895A8E0B0E0EAE7F8E27B
:1050F0000C943C36AE014F5F5F4F7A0188E0FA01B5
:1051000011928A95E9F70EE111E06A01AA24A394AD
:10511000B12CF80180818F3F09F441C0F894E82F49
:10512000E295EF70F0E021A18F70A50102C0440F5D
:10513000551F8A95E2F7CA01922F982B91A392A14D
:105140008095892382A3789400C0E6E2F1E0912C57
:1051500031E021912F3F89F0A22FA295AF70B0E0EE
:1051600090968C9190E02F7002C0959587952A9526
:10517000E2F780FD02C0832F01C080E0982A330F40
:1051800051E0EC32F50729F7F80180818F3F11F0EB
:105190000E945D28F0EAFA95F1F7F60190820F5F20
:1051A0001F4FFFEFCF1ADF0A41E00632140709F064
:1051B000B0CF48E050E0B7018DE791E00E94A33600
:1051C000892B89F088E0F701ADE7B1E001900D92FD
:1051D0008A95E1F781E080937C030E94282D9093CB
:1051E0007B0380937A0380917C03811102C080E06D
:1051F00020C080917A0390917B030E940D2D05972A
:10520000B0F348E050E06DE771E080EA91E00E9481
:10521000A336892B59F088E0EDE7F1E0A0EAB1E090
:1052200001900D928A95E1F781E001C080E0109233
:105230007C032896EBE00C9458362091A80130911D
:10524000A901232BA1F4703F39F4603F81F48091D0
:105250000E0290910F020895783048F4663038F4C9
:10526000833028F4462F672F0E940830089580E08D
:1052700090E008951F93CF93DF930E94C127EC0124
:10528000C11580E5D807E8F5C11590E4D90708F005
:10529000A8C0C03ED10530F5CD3CD10508F094C082
:1052A000C83AD10578F4C53AD10508F083C0C130B9
:1052B000D10509F47CC008F4F2C0C430D10508F06F
:1052C000F1C0EDC0C33CD10508F0E9C0C85AD0E038
:1052D000CC0FDD1FC05CDE4F0990D881C02DCE0100
:1052E0009464E1C0C11580E2D80708F0CBC0C115B5
:1052F00091E0D90708F06BC0C83ED10508F4D2C0D0
:10530000CEC0C03682E5D80728F5C03492E5D9076B
:1053100008F079C0C03282E5D80708F06CC0C1152A
:1053200092E5D90708F481C04C2F4695469580E256
:10533000489FA0011124C37021E030E0C90102C0E0
:10534000880F991FCA95E2F7EA01C82BD92BCE0125
:105350009D68A9C0C03A82E5D807B8F48C2F8F7138
:10536000C03892E5D90708F07BC08695869590E213
:10537000899F90011124C37081E090E002C0880FE2
:10538000991FCA95E2F79A6868C0C03C82E5D807C1
:1053900008F46DC0C03E92E5D90708F080C0CF7117
:1053A000DD27DC2FCC27CE01806F906A7CC081E0A6
:1053B00090E079C0C55AD0E0C35CDE4F8881C82F29
:1053C000D0E0CE0190646FC0CE0190656CC08D2F8F
:1053D0000E947227182FCE0199270E94C1271F71A2
:1053E0005CC0CE0199270E94C127CC27DF70D06A0C
:1053F0008C2B9D2B58C0CF71D0E0DC2FCC27CE0159
:10540000816F906A50C08C2F8F718695869590E23F
:10541000899F90011124C37081E090E002C0880F41
:10542000991FCA95E2F79C6818C08C2F8F710E9453
:10543000722795E0D695C7959A95E1F7CF70D0E0A1
:10544000DC2FCC27282F30E084FF05C084E0220F1A
:10545000331F8A95E1F7D069CE01822B932B23C0AD
:1054600090E0D82FCC27CE01846F906A1CC08C2F7F
:105470008F710E9472278F7190E0D82FCC27CE01B8
:10548000906211C08D2F8F710E947227182FCE014C
:1054900099270E94C1271F719062912B04C080E060
:1054A00090E001C0CE01DF91CF911F910895A6E059
:1054B000B0E0EDE5FAE20C9443360E94282D8C0111
:1054C00080917803909179030817190781F0198268
:1054D0001A820E94282D682F49815A81792F80E0F5
:1054E00090E00E946232109379030093780326962D
:1054F000E4E00C945F3680E090E00E94AE35863E9A
:105500009E4F19F40E943F1F089580E00895A8E07F
:10551000B0E0EDE8FAE20C94453666EE7EEF80E00E
:1055200090E00E94E23560E082E090E00E94C435A5
:1055300060E083E090E00E94C4351092770360E061
:1055400074E184E090E00E94E23560E086E090E063
:105550000E94C4356FEF87E090E00E94C43540E0C0
:1055600050E0BA0188E090E00E94D63560E084E225
:1055700090E00E94C43560E087E190E00E94C4356D
:1055800060E08CE090E00E94C43560E08DE090E047
:105590000E94C43519821A821B821C821D821E82BF
:1055A0001F82188648E050E068E170E0CE01019665
:1055B0000E94B43540E050E0BA0180E290E00E94E1
:1055C000D63580E00E94101F0E942F1F40E050E05F
:1055D000BA018FE090E00E94D63540E050E0BA0179
:1055E00083E190E00E94D6352896E2E00C94613683
:1055F00080917603882331F0109276031092750320
:10560000109274030895CF939091AB0192FF0DC057
:1056100090917603981749F0C82F0E94282D9093F7
:10562000750380937403C0937603CF91089590918E
:105630007603292F282379F0809589238093760398
:10564000882319F00E94282D02C080E090E09093FA
:105650007503809374030895809590919D03892329
:1056600080939D0308951092530310925203109259
:105670005103089590915303809589238093530398
:10568000282F277069F4981759F09091AB0192FF79
:1056900007C08695869586950E94DF220E94332B4F
:1056A00008959091AB0192FB222720F9281779F0F9
:1056B00080FB92F99093AB016091AA017091AB01CC
:1056C00084E090E00E94E23582E00E943A2B089547
:1056D0009091AB0192FF10C098E0899F9001112436
:1056E000262B209353030E94EC220E94282D909396
:1056F00052038093510308950E94EC2208958091F3
:10570000C0039091C103892B89F00E94282D20911C
:10571000740330917503AC01421B530B81E020915F
:10572000C0033091C1034217530708F480E0817031
:105730000895CF9390919D038091E803892B8093E6
:105740007D0380917603882351F18091C00390916D
:10575000C103892B29F00E947F2B81110E94F82A16
:1057600090917D0380917603892B80937D038091B6
:105770000901882331F08091AA0187FF02C08EE1E0
:1057800001C086E0EFE7F3E090E0815028F021913E
:105790002223D9F39F5FF9CF91110E94F82AC0917B
:1057A000A504C09580917D03C8238091A604C82BD1
:1057B000C0937D0340E250E064E573E08DE793E041
:1057C0000E94A336892B11F180E2EDE7F3E0A4E516
:1057D000B3E001900D928A95E1F7E091B104F09168
:1057E000B204309799F080910901882349F08091A3
:1057F000AA0187FF05C0C0937E0386E080937D03E6
:105800000280F381E02D8DE793E00995CF91089513
:1058100090915003292F282321F08095982390936D
:105820005003089520914F039091060359E02917E2
:10583000A9F030E0529FF001539FF00D1124E95F71
:10584000FC4F7181761306C07081781303C0758197
:10585000741306C02F5F3F4F2770E9CF80E0089593
:1058600081E0089580914F0390910603891719F004
:105870008F5F8770FBCF0895CF93DF9380910303F1
:1058800082958F7009F04EC080910203882309F43D
:1058900049C080914F03409106035091FE026091F0
:1058A000FD02C091FF02D091000379E08417D1F18D
:1058B00090E0789FF001799FF00D1124DF01A95F3E
:1058C000BC4F14962C911497222349F111962C91D8
:1058D0001197251324C02C91261321C015962C91C5
:1058E000159721111CC012962D913C9113972C1BDA
:1058F0003D0B283C310598F4809103038F70806143
:1059000080930303E35FFC4F80818F70806180830D
:105910008DEF92E00E9455040E94322C03C0019644
:105920008770C4CFDF91CF9108958091AE01089523
:105930000F931F93CF93DF938B01EA019091D101D5
:10594000943079F58F708093E9008FEF9091E800A3
:10595000815095FD06C095ED9A95F1F700008111F3
:10596000F5CF8091E80085FF1CC00E94A61B88230C
:1059700061F08091E8008E778093E80012C0F80112
:1059800081918F018093F1002197209791F380916D
:10599000E80085FDF4CF8091E8008E778093E800E1
:1059A000E4CFDF91CF911F910F91089587E797E79B
:1059B00090930108809300089AE088E10FB6F8946C
:1059C000A895809360000FBE90936000FFCF7894FD
:1059D0001F920F920FB60F9211248F939F93AF9344
:1059E000BF938091B6049091B704A091B804B09190
:1059F000B9040196A11DB11D8093B6049093B7041C
:105A0000A093B804B093B904BF91AF919F918F91C7
:105A10000F900FBE0F901F9018959C014FB7F894F0
:105A20008091B6049091B704A091B804B091B904E4
:105A30004FBF821B930B08952FB7F8946091B60463
:105A40007091B7048091B8049091B9042FBF089564
:105A50002FB7F8948091B6049091B704A091B80440
:105A6000B091B9042FBF08951F920F920FB60F92F5
:105A700011248F939F93AF93BF938091B5048111AD
:105A800013C08091B6049091B704A091B804B0916E
:105A9000B9044196A11DB11D8093B6049093B7043B
:105AA000A093B804B093B904BF91AF919F918F9127
:105AB0000F900FBE0F901F9018952091090122237F
:105AC000C9F02091AA0127FF15C0262F26952695FB
:105AD00026952E31C8F4FC01E20FF11D677081E0BC
