:100000000C940D040C942A040C942A040C942A04D5
:100010000C942A040C942A040C942A040C942A04A8
:100020000C942A040C942A040C945B210C94102048
:100030000C94E2220C942A040C942A040C942A04B2
:100040000C942A040C942A040C942A040C942A0478
:100050000C942A040C94A1220C942A040C942A04D3
:100060000C942A040C942A040C942A040C942A0458
:100070000C942A040C942A040C942A040C942A0448
:100080000C942A040C942A040C942A040C942A0438
:100090000C942A040C942A040C942A040C942A0428
:1000A0000C942A040C942A040C942A04B208B20872
:1000B000E508E50858097609820A820A8109F509E6
:1000C000060A060ADC0FDF0F02100F10161036109A
:1000D000391065108710B411B41192109410971054
:1000E000BB10DC10DF10E2100511B4112511251131
:1000F0002511251125112511251125112511251150
:100100002511251125112511251178237A237C230A
:10011000CB23CB23CB23A723AE23B523B723C523E0
:10012000EB241225BB261225BB265E258125BB2686
:100130007626862600000000000000000000000077
:1001400000000000000000000000000000000000AF
:1001500000000000000000007E0F00D4FFFFFFC77A
:100160000000007800000000000000002A2B28009A
:100170000000000000000000000000000000002956
:10018000000000002C1E3420212224342627252E96
:10019000362D3738271E1F202122232425263333CE
:1001A000362E37381F0405060708090A0B0C0D0EFA
:1001B0000F101112131415161718191A1B1C1D2FC6
:1001C0003130232D350405060708090A0B0C0D0EE6
:1001D0000F101112131415161718191A1B1C1D2FA6
:1001E0003130354C00047F3F1F6432146432147880
:1001F0003C1E1E140A05FFAA7F55402223252628EF
:10020000292A2C2D2F3032333536383A3B3D3E40AB
:1002100042434547494A4C4E5051535557595A5CF1
:100220005E6062646668696B6D6F71737577797B08
:100230007D7F81838587898A8C8E90929496989A07
:100240009C9E9FA1A3A5A7A8AAACAEAFB1B3B4B61C
:10025000B8B9BBBCBEBFC1C2C3C5C6C7C9CACBCC77
:10026000CDCED0D1D2D2D3D4D5D6D7D7D8D9D9DA4A
:10027000DADBDBDBDCDCDCDCDCDDDDDDDDDCDCDCBF
:10028000DCDCDBDBDBDADAD9D9D8D7D7D6D5D4D3E7
:10029000D2D2D1D0CECDCCCBCAC9C7C6C5C3C2C1BC
:1002A000BFBEBCBBB9B8B6B4B3B1AFAEACAAA8A719
:1002B000A5A3A19F9E9C9A98969492908E8C8A89D1
:1002C000878583817F7D7B79777573716F6D6B69AE
:1002D00068666462605E5C5A5957555351504E4C83
:1002E0004A4947454342403E3D3B3A383635333232
:1002F000302F2D2C2A292826252322290014001AE4
:10030000000800150017002B610400160007000903
:10031000000A00E1001D001B00060019000500E2B4
:1003200000055104512C001C0018000C0012001391
:10033000002F0030000B000D000E000F00330034C2
:1003400000310011001000360037003800E50028A9
:10035000002A00045105510000000035021E021F52
:100360000220022102220235001E001F002000216F
:10037000002200010023002400250026002700E3BE
:100380000006510100010023022402250226022753
:10039000022D022E025000510052004F0001002D8C
:1003A000002E000100010001000100010001000118
:1003B0000001000651E3000000000001003A003B8C
:1003C000003C003D003E0001000100010001000171
:1003D0000001000100010001000100010001000115
:1003E000000100010001003F0040004100420043C5
:1003F000004400450001000100010001000100016E
:1004000000010001000100010001000100010001E4
:1004100000010001000100000000000000000000D9
:1004200000000000000000000000000000000000CC
:1004300000000000000000000000000000000000BC
:1004400000000000000000000000000000000000AC
:10045000000000000000000000000000000000009C
:10046000000000000000000000000000000000008C
:10047000000000000000000000000000000000007C
:10048000000000000000000000000000000000006C
:10049000000000000000000000000000000000005C
:1004A000000000000000000000000000000000004C
:1004B000000000000000000000000000000000003C
:1004C000000000000000000000000000000000002C
:1004D000000000000000000000000000000000001C
:1004E000000000000000000000000000000000000C
:1004F00000000000000000000000000000000000FC
:1005000000000000000000000000000000000000EB
:1005100000000000000000000000000000000000DB
:1005200000000000000000000000000000000000CB
:100530000000000000000000000000C95CC75CC5AE
:100540005CCB5CC35CC25CCA5CC85CC65CCC5CC493
:100550005C005C625D635D645D010001000100019F
:100560000001000100010001000100010001000183
:100570000001000100010001000100010001000173
:100580000001000100010001000100010001000163
:10059000000100010001000000000005010902A1A6
:1005A0000185020901A10005091901290815002585
:1005B0000195087501810205010930093115812570
:1005C0007F95027508810609381581257F9501758B
:1005D000088106050C0A38021581257F95017508EA
:1005E0008106C0C005010980A101850319012AB750
:1005F00000150126B700950175108100C0050C0992
:1006000001A101850419012AA002150126A0029565
:100610000175108100C00660FF0961A10109621522
:100620000026FF009520750881020963150026FF4A
:1006300000952075089102C005010906A101050772
:1006400019E029E71500250195087501810295013A
:10065000750881010507190029FF150026FF00957F
:100660000675088100050819012905950575019190
:1006700002950175039101C009025B00030100A00E
:10068000FA09040000010301010009211101000120
:10069000224000070581030800010904010002034C
:1006A0000000000921110100012222000705820338
:1006B00020000107050303200001090402000103D3
:1006C000000000092111010001227B0007058403BD
:1006D0002000011201000200000008EDFE141401C8
:1006E00000010200011403470050004B00360030A7
:1006F000002D003400360041000000180344006162
:1007000000720061006B0075002D004E0065006BEB
:10071000006F000000040309040001010101010150
:1007200001010102020202020202020203030303A8
:100730000303030304040404040404050505050578
:100740000606060606070707070708080808090936
:1007500009090A0A0A0B0B0B0C0C0C0D0D0D0E0EE1
:100760000E0F0F0F10101111111212131314141574
:100770001516161717181819191A1A1B1B1C1D1DE8
:100780001E1E1F202021222223242425262627283E
:1007900029292A2B2C2D2D2E2F303132323334356E
:1007A000363738393A3B3C3D3E3F40414243444571
:1007B000464748494A4C4D4E4F5051535455565850
:1007C000595A5B5D5E5F616264656668696B6C6DFA
:1007D0006F7072737577787A7B7D7E808283858770
:1007E000888A8C8E8F91939596989A9C9EA0A2A3AE
:1007F000A5A7A9ABADAFB1B3B5B7BABCBEC0C2C4B3
:10080000C6C9CBCDCFD1D4D6D8DBDDDFE2E4E7E972
:10081000EBEEF0F3F5F8FAFDFF0011241FBECFEF69
:10082000DAE0DEBFCDBF11E0A0E0B1E0ECEAF6E532
:1008300002C005900D92A03AB107D9F722E0A0EAD4
:10084000B1E001C01D92A33EB207E1F70E94440C43
:100850000C94542B0C940000982F92959F7019F0D3
:10086000892F24E001C020E0982F9695969511F0ED
:100870002E5F892F982F969509F02F5F822F08956C
:100880001F93CF93DF93CDB7DEB767970FB6F8947A
:10089000DEBF0FBECDBF4B8B5C8B6D8B7E8B8F8B8A
:1008A000611110927E0286E09E01235F3F4FD901C5
:1008B000E82F1D92EA95E9F795E0FE017396D901BC
:1008C00001900D929A95E1F79C894E895F897B8909
:1008D0007D879E876F87598B488BF901DE011796BC
:1008E00001900D928A95E1F7CE0107960E946A1752
:1008F00081113EC086E0FE013796DE01119601901F
:100900000D928A95E1F7FF81E8856A857B856115FF
:10091000710531F0EF3F31F481E0FF3F19F403C07E
:1009200081E001C080E080FD23C02091430230E0DF
:10093000C9010196877099274091740250E084178D
:10094000950779F1F983EA837D836C8396E0929F22
:10095000D001939FB00D1124AC5BBD4FFE013196C9
:1009600001900D929A95E1F7809343020E940D1F2A
:1009700016E080917402909143028917F9F0189F54
:10098000C00111248C5B9D4F0E946A178823B1F02F
:100990008091740290E00196877099278093740289
:1009A000E8CF0E948F191092430210927402EDE377
:1009B000F2E086E0DF011D928A95E9F767960FB6AF
:1009C000F894DEBF0FBECDBFDF91CF911F91089588
:1009D000AF92BF92CF92DF92EF92FF920F931F934D
:1009E000CF93DF93EC018AE0A82E2881222309F41B
:1009F00097C0213009F041C08981813039F48E01DE
:100A00000E5F1F4F8A810E94AF1A08C0823041F4E6
:100A10008E010E5F1F4F8A810E940B1AE8017EC073
:100A2000833039F48E010E5F1F4F8A810E94AB190B
:100A3000F5CF843011F0219671C02A81229680E092
:100A400090E030E0205331092A30310558F4A89E57
:100A5000A001A99E500D1124C901840F951F219654
:100A60002881EFCF009709F459C0EFE9FFE03197F3
:100A7000F1F700C000000197F5CFE22FF0E0EC594C
:100A8000FE4FB490822F86958695869590E0FC0166
:100A9000EC5AFE4FE4902770F12C022E02C0F59420
:100AA000E7940A94E2F7F1E0EF22FF24FC01EC5B0B
:100AB000FE4FC490D12C022E02C0D594C7940A9444
:100AC000E2F731E0C322DD24FC01EC5CFE4F04912F
:100AD00010E002C0159507952A95E2F701701127DD
:100AE000E114F10419F081EE0E940B1AC114D10433
:100AF00019F086EE0E940B1A8B2D0E94AF1ACD289A
:100B000019F086EE0E94AB19EF2819F081EE0E94D1
:100B1000AB19012B19F08CE20E94AF1A219665CF18
:100B2000DF91CF911F910F91FF90EF90DF90CF90C9
:100B3000BF90AF9008954F925F926F927F928F9285
:100B40009F92AF92BF92CF92DF92EF92FF920F935C
:100B50001F93CF93DF93CDB7DEB729970FB6F894E5
:100B6000DEBF0FBECDBFFC01808191812381348126
:100B7000232B31F09F3F31F491E08F3F19F403C0F4
:100B800091E001C090E090FD20C67F0185E0DE018C
:100B9000119601900D928A95E1F7F70122818981E2
:100BA0009A81222349F00E940E17182F682F8981FD
:100BB0009A810E94421903C00E941519182F698159
:100BC0007A81812F0E9405138C01F701828188238D
:100BD00009F447C0980122513F452031310508F002
:100BE000B0C48FEF93E00E942F29811143C04EEED5
:100BF000D42ED00E07EC12E0DD2069F00115F4E0F0
:100C00001F07C1F1C8010E942F29811101C0DA9488
:100C10000F5F1F4FF1CF1E821F8218861986BB24DB
:100C2000B39468012FEFC21AD20AC8010E942F297B
:100C30008E831F828823F1F09FEF980F933058F432
:100C40008F83BE820E5F1F4FC6010E942F298887A7
:100C5000882381F06801CE0106960E94E80486018F
:100C6000E0CF0031FFE51F07B9F481E00E9474195D
:100C70000E94CC2380917502877009F4A6C5F70104
:100C80008281882309F4A1C58091B50182FD9DC5AB
:100C900082E00E94D31E99C501312FE5120739F475
:100CA00082E0E4CF0236FDE51F0709F471C4033F7B
:100CB000FCE51F0749F406E221EE40EE63EF7CE518
:100CC000C7010E942812D6CF043F2CE5120708F076
:100CD00066C1083D9CE5190731F407E225EE45EEB3
:100CE00068ED7CE5EDCF093DECE51E0731F408E247
:100CF00021E045EE69ED7CE5E3CF073DFCE51F070C
:100D000031F406E221EE41EE67ED7CE5D9CF882390
:100D100009F47AC1109222020330FDE51F0758F44E
:100D20000A3F2CE5120780F4C80182509C45449785
:100D300008F054C109C001368DE5180729F0053ABD
:100D40009DE5190709F04AC10E94FA1D9093B5016B
:100D50008093B4010131ECE51E0709F4C6C008F028
:100D600042C009302CE5120709F49BC000F505309C
:100D70009CE5190709F485C078F40330FCE51F07EA
:100D800009F478C008F07AC002301C4509F0F7C0B9
:100D90008091B4018160F1C007309CE5190709F426
:100DA00078C008F07AC08091B4018061E6C00D304F
:100DB000FCE51F0709F487C058F40B308CE51807D1
:100DC00009F479C008F07BC08091B40188606FC0DD
:100DD0000F30ECE51E0709F480C008F082C0809156
:100DE000B401877FCAC00D3F2CE5120709F471C01A
:100DF00000F505319CE5190709F485C068F4033155
:100E0000FCE51F0709F475C008F095C00E948F1912
:100E10008091B4018F77B1C00B3F8CE51807A9F121
:100E200008F054C00A3F1C4509F0A9C08091B501E3
:100E300040C00130FDE51F0709F489C058F40F3F99
:100E40008CE5180709F45AC008F069C08091B50113
:100E500082602FC00136EDE51E0709F47EC0053A19
:100E6000FDE51F0709F483C002301D4509F087C066
:100E700060E06EC08091B40182607FC08091B40157
:100E800016C08091B401886078C08091B5018260FD
:100E90004FC08091B401806270C08091B4018064C1
:100EA0006CC00E948F198091B401806866C0846014
:100EB00064C081603DC08091B4018E7F5EC080912E
:100EC000B4018D7F5AC08091B40116C08091B501E4
:100ED00018C08091B5018D7F2BC08091B4018F7EA9
:100EE0004CC08091B4018F7D48C08091B4018F7B4C
:100EF00044C08091B401877F8B7F3FC08091B50152
:100F00008D7F8E7F15C08091B40182FB222720F94E
:100F100091E0922790FB82F990FB83F92EC080919B
:100F2000B501982F909591708E7F892B90FB81F958
:100F30008093B50124C00E948F198091B40187FB72
:100F4000222720F991E0922790FB87F916C061E0F3
:100F50008EE090E00E94432912C08091B40184FB8E
:100F6000222720F991E0922790FB84F906C0809116
:100F7000B401982F909590FB80F98093B401609113
:100F8000B4011091B50184E090E00E944329612FE3
:100F900082E290E00E9443290E948F196BCE053FA8
:100FA0002CE5120731F406E221EE42EE65EF7CE516
:100FB00087CE053F9CE5190730F407E225EE44EEA5
:100FC00064EF7CE57DCE063FECE51E0709F09FCE81
:100FD00007E225EE46EE66EF7CE572CE0631FCE5D3
:100FE0001F0721F580917F028A7A91E009F490E051
:100FF0009093A901882311F065E301C069E285E3BC
:1010000092E00E9418230FC00631ECE51E0709F09C
:1010100040C08091A901882309F411C365E385E3E9
:1010200092E00E940B230E94971E24CE0A352DE5E4
:10103000120749F158F401159CE51907B1F00E3D6E
:101040001C4509F042C00E94161E14CE0B35FDE56A
:101050001F07D9F00C351D45C1F58091B50182FB04
:10106000882780F991E0892711C00E948F198FEF9E
:1010700094E3ECE081509040E040E1F700C00000D4
:101080000E949022F7CD81E001C080E00E94F01E16
:101090001CC080917F0282720C3C9CE5190709F408
:1010A00076C308F0FEC2063CFCE51F0709F45BC3EB
:1010B00008F0D5C2033C9CE5190709F44AC308F0BF
:1010C000C0C2023C1C4509F420C3F70182810081A3
:1010D0001181882349F0C8010E940E17D82E682F6D
:1010E000C8010E94421904C0C8010E941519D82ED7
:1010F000B8018D2D0E9405130E94601CB82E192F77
:10110000982EF7010281A580A2949FE0A9228091E8
:1011100075028770B9F00023A9F0812F807F803499
:1011200021F080E28B0D883068F08091B50182FD5E
:1011300009C082E00E94D31E809175028770DD2471
:10114000D3948111D12CC12EC2948FE0C8228C2D52
:1011500090E08C30910508F0D5C1FC01EA5AFF4FB0
:101160000C94CF29812F807F1F70882311F0129556
:10117000107F0023B9F0112309F4B2C180E28B0D76
:10118000883010F0911006C080917F02182B1093C8
:101190007F0205C080917E02182B10937E020E9470
:1011A000971E9EC18B2D0E94AB19112309F4AAC171
:1011B00080E28B0D883080F1992071F1109580913B
:1011C0007E02182310937E022AC0812F807F1F7019
:1011D000803211F01295107F8B2D992021F0F1E0D3
:1011E0009F16D9F149C08091B50182FF1BC0002331
:1011F00069F0112339F080917F02182B10937F0240
:101200000E94971E80E00E940B1A7CC180E00E9421
:10121000AB19112309F476C1812F0E94901E0E9400
:10122000971E70C1002381F080918002AA2051F0A6
:1012300021E0A21207C0182B181709F463C11093FC
:10124000800260C1812B10C0AA2021F081E0A81685
:1012500009F458C10E948A1E27C0002341F095E07E
:101260009A1508F44FC1812F0E94A1194BC1E4E0E7
:10127000EA1508F447C118C0002349F0AA2099F3E1
:10128000F701858180FF2CC18F708583ECCFAA2068
:1012900059F0893309F033C1FFEF27EE83E0F150B5
:1012A00020408040E1F729C1812F0E949A192AC16C
:1012B000812F86958695837019F0813061F022C167
:1012C000002321F08B2D912F937002C080E090E0DD
:1012D0000E9448231DC1002321F08B2D912F937074
:1012E00002C080E090E00E94322312C18B2D0023C7
:1012F00019F00E94D42802C00E941B280E94F127E6
:1013000007C1812F8370A9F5011100C14B2D4295B2
:1013100046954770440F440F8B2D8F7090E09C01D1
:10132000042E01C0220F0A94EAF7B4FE08C08FE031
:1013300090E001C0880F4A95EAF7809501C080E0EF
:10134000169516951370123069F088F49091810209
:10135000113019F0822B892302C0922B892B0E9415
:101360008B19D4C0822B909181028927F8CF822BD0
:10137000F6CF002319F0812F817001C08695882354
:1013800009F4C4C04B2D429546954770440F440F55
:101390008B2D8F7090E09C01042E01C0220F0A94C7
:1013A000EAF7B4FE08C08FE090E001C0880F4A95CC
:1013B000EAF7809501C080E01695169513701230FB
:1013C00059F078F49091AB02113019F0822B8923F7
:1013D00009C0922B892B06C0822B9091AB028927E2
:1013E00001C0822B0E946E1991C01F70002339F03A
:1013F000812F0E9480198B2D0E94A11987C08B2DEF
:101400000E949A19812F0E94741980C08B2D92EF2F
:10141000991679F1991538F0E0EF9E1659F0F1EF31
:101420009F1611F159C023EF921651F194EF9916BE
:10143000B9F052C0002379F0E4E0EA1508F462C084
:101440001F7181E090E001C0880F1A95EAF7909132
:10145000AB0289271FC0F5E0FA1508F453C0F0CF9E
:101460008091B50182FF19C0002329F0812F8F716F
:1014700026C00023D9F3812F8F710E94741942C0B6
:10148000002339F01F7181E001C0880F1A95EAF737
:1014900001C080E00E946E1935C0002399F01F71D1
:1014A000812F0E9480198091B50182FD07C028E03C
:1014B000129FC0011124836080937502812F0E94C6
:1014C000801920C081E00E94D31E81E08A15D0F4EB
:1014D00082E00E94D31E16C0002321F0AA2031F220
:1014E0008B2D91CEAA2039F2893349F49FEFE7EE94
:1014F000F3E09150E040F040E1F700C000008B2D98
:101500000E94AB1988EF8C0D843010F40E945E238A
:10151000DD2009F45AC18091750280FD56C1F701A2
:1015200012828595859585950E948019C7010E9434
:101530009B05809175028595859585950E94741906
:1015400044C100312FE5120711F481E005C00131DB
:101550009FE5190721F482E00E94801989CB0336A8
:101560009DE5190731F480912201909123010596A0
:101570000AC00436EDE51E0709F094CB80912201E4
:10158000909123010597909323018093220172CBC0
:101590008090220190902301809106019091070193
:1015A0008816990639F48091A801803219F422EA4C
:1015B00031E03BC0909207018092060180E2809367
:1015C000A801A12CB12C1092A70127EAC22E21E07C
:1015D000D22E00E010E03AE0432E512C612C712C09
:1015E000C501B401A30192010E94AD29605D603381
:1015F00019F40115110539F081149104A104B10405
:1016000019F460E201C060E3F60162936F01C50165
:10161000B401A30192010E94AD2949015A010F5F53
:101620001F4F05301105E1F6C2CFC9012F5F3F4FB3
:10163000FC0140814032C9F30E94E8041BCB69E2FF
:10164000EECC043C2CE5120709F488C0053C1C458F
:1016500009F03BCD40EB56E169EB76E19CC0093CDB
:10166000ECE51E0709F489C070F4073C2CE512076D
:1016700009F47EC0083C1C4509F027CD44EA56E138
:1016800068E976E188C00A3CECE51E0709F47AC0F7
:101690000B3C1C4509F019CD46E052E167E172E1CF
:1016A0007AC0013D2CE5120709F480C098F40E3C85
:1016B0009CE5190709F474C008F470C00F3CFCE500
:1016C0001F0709F470C0003D1C4509F0FECC6EE018
:1016D00089E074C0043D8CE5180709F46DC058F426
:1016E000023DECE51E0709F464C0033D1C4509F00A
:1016F000ECCC88E167C0053D2CE5120709F461C018
:101700000D351D4509F4B6CAE0CC8091CD0280FFAD
:101710001BC08E7F8093CD026091CD027091CE026E
:101720008091CF029091D0020E94EC2610921C0270
:101730009FEFE0E7F2E09150E040F040E1F700C0B9
:1017400000000E94781396CA81608093CD0286952E
:1017500039C049E357E262E477E21DC042E457E250
:1017600069E377E218C049EB56E160EB76E113C01C
:1017700048E956E164EA76E10EC040E856E16CE8DB
:1017800076E109C04CE856E160E876E104C047E143
:1017900052E166E072E10E945C136CCA81E012C003
:1017A00065E082E00BC068E086E008C064E18FE09D
:1017B00005C067E185E102C062E289E10E94E216AC
:1017C00059CA83E20E94DF1655CA29960FB6F894CB
:1017D000DEBF0FBECDBFDF91CF911F910F91FF9064
:1017E000EF90DF90CF90BF90AF909F908F907F90C1
:1017F0006F905F904F900895CF93C82F0E942C0454
:101800008330D9F050F4813091F0823029F520E016
:101810004091D0026FEF85E51BC08430A1F0853088
:10182000D9F420E04091D0026FEF80E011C020E0B9
:101830004091D0026FEF80E80BC020E04091D002D1
:101840006FEF8BE205C020E04091D0026FEF8BE09C
:101850000E94E51581E013C088E090E00E943729DE
:101860006093CD027093CE028093CF029093D0020A
:101870000E94D9268091CD0280FF03C086950E94E8
:10188000D4168C2FCF910895CF93DF93CDB7DEB7C9
:10189000AA970FB6F894DEBF0FBECDBF84B7877F7F
:1018A00084BF0FB6F894A8958091600088618093FA
:1018B0006000109260000FBE90E080E80FB6F894D0
:1018C00080936100909361000FBE85B7806885BFEB
:1018D00085B7806885BF8DEC9AE19093A1018093D4
:1018E000A0010E9454200E94FA208091E2008460AE
:1018F0008093E20078948091A1028823A1F0109156
:10190000E9001F709091EC00892F817090FD80E8B4
:10191000182B1092E9008091E80083FD0E940324B7
:101920001F701093E90082E084BD93E095BD9AEFAB
:1019300097BD80936E000E944313811102C00E94E4
:1019400034130CE211E024E3E22E21E0F22ED80160
:101950008D918D018F3F11F00E94121BE016F10650
:10196000B1F704E311E09AE3E92E91E0F92EF801D2
:1019700081918F018F3F11F00E94121BE016F1063A
:10198000B1F788E0EDECF1E0DF01282F1D922A95F8
:10199000E9F7ECEAF1E0DF011D928A95E9F780E3CF
:1019A00090E00E94192AAC019093AB018093AA01A8
:1019B00020E030E0FA01E20FF31F96E0119291501F
:1019C000E9F72A5F3F4F20333105A1F70E940B1E34
:1019D000811102C00E94161E82E090E00E942F2911
:1019E0008093B9010E94FA1D9093B5018093B401D0
:1019F0000E94291BBFEFE1EEF4E0B150E040F0405F
:101A0000E1F700C000000E94291B8091CD0180FFFA
:101A100008C06FEF7FEF80E090E00E9461290E9494
:101A2000902283E090E00E942F290E948B198091E0
:101A3000AB020E94FC0B8091B601811132C00E9462
:101A40000B1E811104C00E94161E0E944C2788E0C4
:101A500090E00E9437296093CD027093CE0280936C
:101A6000CF029093D0026E7F71F40E944C2788E0E1
:101A700090E00E9437296093CD027093CE0280934C
:101A8000CF029093D0020E94D92610921C0280911E
:101A9000CD0280FF03C086950E94D41681E080931A
:101AA000B60188E091E0909389028093880208E172
:101AB000C02ED12C80E4582E77247394662463942E
:101AC0009E012F5F3F4F79018091A102853009F07F
:101AD0005AC000E112E18091A102853009F046C0B0
:101AE0008091A102843009F430C010921C028091D0
:101AF000B801811109C06092B8018091CD02817056
:101B00008093B7010E94C21610928C020FB6F8940F
:101B1000A895C09260000FBE5092600083B7817F8D
:101B2000846083BF83B7816083BF7894889583B7CF
:101B30008E7F83BF0FB6F894A8958091600088616E
:101B400080936000109260000FBE8091A0028823F5
:101B500009F4C1CF0E94291BEDECF1E081918111C4
:101B60002BC431E0E53DF307C9F7B5CF0E948F19CB
:101B70000E945E231092B8018091B70181110E94EA
:101B8000D7160E9462130E94291B882359F08FB731
:101B9000F89440918D0250918E0260918F02709165
:101BA00090028FBF1DECA12E11E0B12EAAEBB1E087
:101BB000F50100E010E0302F21919D91922721F155
:101BC00080E099249394492F4921D1F089A33AA325
:101BD000292181E009F480E08BA30E94D622816054
:101BE000782F9DA38CA349A15AA16BA18DA10E941E
:101BF0004004F801E654FE4F80819826908219C077
:101C00008F5F990C8630F9F60F5F1F4F0830110572
:101C100091F68FEF8EA38FA318A60E94D622816023
:101C2000782F9AA789A74EA15FA168A58AA50E94CF
:101C3000400480911C02882309F493C080911B0208
:101C4000E091CD02E695E81BE0931702823059F44B
:101C5000F0E0EE50FE4FE4910E2F10E0B1ED8B2E30
:101C6000B5E19B2E59C0863059F4F0E0E151FE4FAA
:101C7000E4910E2F10E0A1EC8A2EA5E19A2E4CC023
:101C8000893061F4E695F0E0E451FE4FE4910E2FC7
:101C900010E0FCE28F2EF5E19F2E3EC08F3061F404
:101CA000E695F0E0E751FE4FE4910E2F10E0EFEBE8
:101CB0008E2EE4E19E2E30C0853159F4F0E0EA51D9
:101CC000FE4FE4910E2F10E071E7872E74E1972EFE
:101CD00023C08831A1F0833249F4E4EEF1E00591AC
:101CE000149167E6862E65E1962E16C0843271F057
:101CF00000ED17E055E0852E52E1952E0DC008E26B
:101D000010E048EE842E43E1942E06C004EF11E06B
:101D10003EEA832E33E1932E80911802882361F0EE
:101D2000109218020E94D6229093160280931502F8
:101D300010921A02109219020E94D622E091150206
:101D4000F09116028E1B9F0B8F3F9F4750F40E0F92
:101D50001F1F109316020093150285E192E0F40113
:101D6000099586E0E9EDF2E0D70101900D928A95A0
:101D7000E1F78090DB029090DC020091DD0210918F
:101D8000DE021092DB021092DC021092DD02109251
:101D9000DE02811003C0992009F44FC08091D70260
:101DA0009091D8020E94C7229C019091D30299235E
:101DB00009F421C32531310508F43FC09F3F19F0D4
:101DC0009F5F9093D302882061F00E94B42818147A
:101DD00014F491E001C09FEF899F802D112480931E
:101DE000DB02992061F00E94B428191414F491E0E8
:101DF00001C09FEF899F802D11248093DC023091D8
:101E0000DB023323D1F02091DC022223B1F045EB39
:101E10003403C0011124992319F09093DB0202C00E
:101E20007092DB0235EB2303C0011124992319F0D2
:101E30009093DC0202C07092DC02011103C01123F6
:101E400009F44FC08091D5029091D6020E94C7221A
:101E50009C019091D202992309F4D2C22135310517
:101E600008F43FC09F3F19F09F5F9093D202002378
:101E700061F00E949228101614F491E001C09FEFC7
:101E8000899F802D11248093DD02112361F00E942F
:101E90009228111614F491E001C09FEF899F802DC4
:101EA00011248093DE023091DD023323D1F02091A2
:101EB000DE022223B1F045EB3403C0011124992343
:101EC00019F09093DD0202C07092DD0235EB23031E
:101ED000C0011124992319F09093DE0202C0709280
:101EE000DE028091DB0281110BC08091DC02811146
:101EF00007C08091DD02811103C08091DE02811153
:101F00000E94F1278B829C820D831E8386E0F7015D
:101F1000A9EDB2E001900D928A95E1F70E945E234F
:101F20009091C20189138093C2018091A1028430F3
:101F300009F0CACD83E08093E9008091E80082FF38
:101F4000C3CD8091E80085FF21C00E9473208111DC
:101F50001BC020E2822E912C870109C08091F100E4
:101F6000D8018D938D01B1E08B1A910869F08091B1
:101F7000E80085FDF3CF8091E8008B778093E8003F
:101F80000E947320882399F391E001C090E0809132
:101F9000E8008B778093E800992309F495CDE981D7
:101FA0008E2F90E0FC013197E332F10508F0DCC19F
:101FB000EE59FF4F0C94CF291A8289E0A6C08A817E
:101FC000823009F40FC2833089F0813009F0CCC12E
:101FD0002FB7F89480918D0290918E02A0918F027C
:101FE000B09190022FBFBB83AC831EC0FE0133961D
:101FF000CE010B96D5012D915D0121938E179F0780
:10200000C9F7B4C18A81823009F0AEC16B817C818D
:102010008D819E810E94D5290E941213A7C14C81F7
:102020006B818A810E94DF129D83E3C1AD80BE80F7
:10203000BA24AB24BA248C810B819A81BCE00B9F1B
:1020400080011124E0E69E9F000D111D1124080F50
:10205000111D080F111D6B2DC80187960E94432981
:102060006A2DC80188960E94432980C10E94AB1244
:102070007DC18A818138B1F050F4803809F076C191
:1020800020E04B816091CF028091CE021BC082384C
:10209000A9F0833809F06AC120E04091D0026C8138
:1020A0008B8110C08B810E94D4168B81811103C05B
:1020B0000E94C2165BC10E94D71658C18B818093C3
:1020C000D10254C10E94E51551C18A81813899F02D
:1020D00030F4803809F04AC18091D00216C08238AD
:1020E00091F0833809F042C18091CE028B838091B8
:1020F000CF028C833BC18091CD0280FF02C08695C8
:1021000004C080E002C08091D1028B832FC1609116
:10211000CD027091CE028091CF029091D0020E94A8
:10212000EC2624C180E14CC07A8289E3EECF0A819B
:102130001B81102701271027AC80B12C4701C80153
:1021400089539D4F94012E193F092A153B0508F02C
:102150000DC10933F1E01F0730F40E942F29D4018B
:1021600014968C9302C0F40114820F5F1F4FFFEF8F
:102170008F1A9F0AE4CF0A811B811027012710279D
:10218000AC80B12C4701C80189539D4F94012E1991
:102190003F092A153B0508F0E9C0093321E0120781
:1021A00028F4D40114966C910E9443290F5F1F4FAD
:1021B000BFEF8B1A9B0AE7CF0E949B12D7C087E024
:1021C0008A83D4C00A811B81102701271027AC8085
:1021D000B12C4701C801879694012E193F092A1591
:1021E0003B0508F0C3C0003AE2E01E0730F40E944D
:1021F0002F29D40114968C9302C0F40114820F5F2E
:102200001F4FFFEF8F1A9F0AE5CF0A811B8110270E
:1022100001271027AC80B12C4701C8018796940193
:102220002E193F092A153B0508F0A0C0003A22E00C
:10223000120728F4D40114966C910E9443290F5F71
:102240001F4FBFEF8B1A9B0AE8CF87015E01E1E2C7
:10225000AE0EB11C85ED882E81E0982E92E0492EBD
:102260008091C301811114C0D8018C91882309F495
:1022700075C0809325017092C3011092C401109221
:10228000C9011092CA011092CB011092CC0166C014
:10229000813089F5E091C4018E0F8093C401F0E094
:1022A000ED53FE4FD8019C919683843009F056C0BF
:1022B0008091C9019091CA01A091CB01B091CC014C
:1022C0008093260190932701A0932801B0932901C0
:1022D00010922B0110922A01892B8A2B8B2BD1F182
:1022E0004092C3011092C5011092C6011092C7011D
:1022F0001092C80133C0823089F58091C501909158
:10230000C601A091C701B091C801AC01BD014F5FEA
:102310005F4F6F4F7F4F4093C5015093C60160934D
:10232000C7017093C801FC01EB52FE4FD8012C91FC
:1023300020838091260190912701A0912801B091DE
:102340002901481759076A077B0741F490922B012E
:1023500080922A010E946A231092C3010F5F1F4FCF
:102360000A151B0509F07CCF8FEF89838091A102AC
:10237000843009F0A9CB1091E9001F709091EC0016
:10238000892F817090FD80E8182B82E08093E9000E
:102390008091E80080FF0CC040E050E060E270E017
:1023A000C7010E94D7238091E8008E778093E800D0
:1023B0001F701093E90088CB09BD19BD09B400FE58
:1023C000FDCF8091D8008F7D8093D8008091E00070
:1023D00082608093E0008091E00081FDFCCF0E944C
:1023E0008F1979CB86E290E00E942F291B821C82F4
:1023F0001D828E83BBCF2B30310508F0E1CC1DCD83
:102400002B30310508F030CD6CCD08958091D1028C
:10241000882319F081508093D1026091CD02709190
:10242000CE028091CF029091D0020C94EC26809144
:10243000D102833018F48F5F8093D1026091CD0276
:102440007091CE028091CF029091D0020C94EC2634
:102450000F931F93CF93DF93C42FD22FFC01828160
:102460008823C9F0409322020E94D6229093210231
:102470008093200280E28C0F883008F057C0C7702C
:1024800081E001C0880FCA95EAF7DF91CF911F91D3
:102490000F910C94A11980912202481330C08091B1
:1024A0002002909121020E94C722883C910538F5B4
:1024B00010E21D0FCD17B9F080E28C0F883040F488
:1024C000C77081E001C0880FCA95EAF70E949A1987
:1024D000183028F581E09D2F977001C0880F9A95DC
:1024E000EAF70E94A119802F0E94AF1A1830F0F469
:1024F000D77081E001C0880FDA95EAF70AC080E260
:102500008C0F883098F4C77081E001C0880FCA959D
:10251000EAF7DF91CF911F910F910C949A19802FB8
:10252000DF91CF911F910F910C94AF1ADF91CF9152
:102530001F910F910895CF93DF93C7ECD2E060E035
:10254000CE010E9443292196C11584E0D807B9F72E
:10255000DF91CF910895CF92DF92EF92FF920F9388
:102560001F93CF93DF93C0E0D0E08E01005A1F4F3E
:102570006E018CE0C80ED11CFE01E550FD4FE590C8
:10258000F4906F2DCE0187960E9443296E2DCE01C7
:1025900088960E9443292296CC15DD0569F70C1711
:1025A0001D0731F7E801003A1240F9F6DF91CF91AB
:1025B0001F910F91FF90EF90DF90CF9008950F93B0
:1025C0001F93CF93DF93C42FD0E0CC0FDD1F2CE0FF
:1025D000629FC00DD11D112430E6839FC00DD11D17
:1025E0001124CE0187960E942F29082F10E0102F6A
:1025F0000027CE0188960E942F299801282BC90117
:10260000DF91CF911F910F910895462F873038F4B5
:10261000783028F4663018F4672F0C94DF1280E0CD
:1026200090E0089586E290E00C944329CF93C82F60
:10263000811102C06FEF01C062E283E290E00E946C
:102640004329C11102C06FEF01C066E084E290E04F
:102650000E944329C11102C06FEF01C062E185E20F
:1026600090E0CF910C94432980E00E94161360E023
:1026700070E0CB010E9412130E94AB120E949B12C9
:1026800081E00C94161383E290E00E942F2982329D
:1026900081F484E290E00E942F29863051F485E293
:1026A00090E00E942F2991E0823109F090E0892F7B
:1026B00001C080E081700895882311F0FA0101C003
:1026C000FB0109946091CD02669570E04BE050E00B
:1026D00084E191E00E943A2B892B19F481E08093E8
:1026E0001C020E94D6229093160280931502089530
:1026F0008091CD0280FF0AC0539A8BB1877F9BB136
:1027000098602FB7F894ECEAF2E00BC0ECEAF2E044
:10271000118210821282339632E0ED3CF307C1F74A
:10272000EBCF32E0ED3CF30789F0319148E09BB903
:10273000000000C037FF8BB9330F000000C000C09D
:1027400000C08BB900C04A9591F7EBCF2FBF8FE542
:1027500094E00197F1F700C000000895EF92FF9216
:102760000F931F93CF93DF938C01CCEAD2E0E12C3F
:10277000F12CF8018481F5E0EF16F1041CF48823B4
:1027800039F002C0811104C09E014091D00202C004
:102790009E0140E06091CF028091CE020E945B27B3
:1027A0008FEFE81AF80A23969BE0E916F10409F77F
:1027B0000E947813F801848190E001968170992736
:1027C0008483DF91CF911F910F91FF90EF90089537
:1027D0008F929F92AF92BF92CF92DF92EF92FF9231
:1027E0000F931F93CF93DF93EC014C81042F10E0E4
:1027F0009801D8010E94E4299B01AC010E94FA29AA
:102800006B017C01E0E2F0E0E01BF10BA5E5B0E03C
:102810009B01AC010E94FA294B015C019F01DF0181
:102820000E94DC299B01AC010E94052A9B01AC019E
:102830002C0D3D1D4E1D5F1DC501B4010E94AD292B
:10284000822FF22E99E2921728F093E0299F9001AF
:1028500011240DC025E530E0281B3109C901880F7E
:10286000991F280F391F37FF02C02F5F3F4F359543
:102870002795122F10959CEAC92E92E0D92E00E0E0
:1028800085E5E82EEF1801FD02C08E2D01C08F2DC9
:102890009601412F6091CF020E945B270F5F83E07A
:1028A000C80ED11C0B3079F70E9478138C818111EE
:1028B00002C091E003C0803219F49FEF9093210190
:1028C00090912101890F8C83DF91CF911F910F91FE
:1028D000FF90EF90DF90CF90BF90AF909F908F9040
:1028E00008950F931F93CF93DF93CCEAD2E0FE01BC
:1028F000118210821282339682E0ED3CF807C1F714
:1029000000E010E080911E02082E000C990B0817C1
:10291000190794F080912001082E000C990B801764
:10292000910754F09E014091D0026091CF028091B6
:10293000CE020E945B2703C0198218821A820F5FA1
:102940001F4F23960B301105E9F60E9478138091F2
:102950001F0190911E02980F90931E02209120015A
:10296000280F20932001121614F49A301CF0819540
:1029700080931F01DF91CF911F910F910895BF9216
:10298000CF92DF92EF92FF920F931F93CF93DF933B
:10299000FC01828180FF03C0DD24DA9402C0DD24C3
:1029A000D3940CEA12E0C0E0D0E02BE0B22EF801A4
:1029B00011821082128294E0E92EF12CC12C8091B8
:1029C0001D028C0D8C302CF06B2D0E947729892FE5
:1029D00002C087FD855F082E000C990BC817D90728
:1029E00091F48091D0028E9DA0018F9D500D1124F5
:1029F000559547955595479598016091CF028091DF
:102A0000CE020E945B27CD0CF1E0EF1AF108B9F677
:102A100021960D5F1F4FCB30D10549F60E947813E8
:102A200080911D0291E0D91206C0811102C08AE096
:102A300007C0815005C090E00196BE010E9499290F
:102A400080931D02DF91CF911F910F91FF90EF9026
:102A5000DF90CF90BF900895EF92FF921F93CF9396
:102A6000DF93EC018CEAE82E82E0F82E10E08C81F6
:102A700097014091D0026091CF02810F0E945B27A5
:102A8000195E83E0E80EF11C1D3F89F70E94781360
:102A90009A818C8190FF02C08F5F01C081508C832E
:102AA000DF91CF911F91FF90EF9008959091CD020B
:102AB00090FF0CC0ECEAF2E081836083428333969E
:102AC00092E0ED3CF907C1F70C94781308950F9349
:102AD0001F93CF93DF9300D01F92CDB7DEB78C0149
:102AE00080911F0281110AC09E012F5F3F4F4FEF5F
:102AF0006FEF0E945B278A8180931F02F801848117
:102B0000813051F028F0823061F440911F020AC0F8
:102B100080911F0240E007C060911F0240E080E00A
:102B200003C040E080E060E00E945615F801848117
:102B300090E0019663E070E00E94992984830F90F1
:102B40000F900F90DF91CF911F910F910895CF9328
:102B5000DF9300D01F92CDB7DEB79091CD0290FFEA
:102B60000AC09E012F5F3F4F0E945B274B81698106
:102B70008A810E9456150F900F900F90DF91CF9190
:102B80000895CF93DF93EC01EDECF2E04381628195
:102B90008C810E94A7158C818F5F8C83DF91CF91F0
:102BA0000895CF93DF93EC01EC81F0E0E550FE4F08
:102BB0004491EDECF2E0628181810E94A7158C8145
:102BC0008F5F8C83DF91CF9108955F926F927F9298
:102BD0008F929F92AF92BF92CF92DF92EF92FF922D
:102BE0000F931F93CF93DF9300D01F92CDB7DEB723
:102BF000182F762E042F622E9091CD0290FF6DC07B
:102C0000E92FE695AE2FB0E0A65CBE4F8C91809385
:102C10001B029E7F923061F49E012F5F3F4F812FF8
:102C20000E945B274B8169818A810E94561543C0AF
:102C3000823019F40091D0023EC0863019F4109110
:102C4000CE0239C08930D9F38931A9F5E9518E2FE7
:102C50008170582EE695F0E0EA50FE4FA590B490B2
:102C60008CEAC82E82E0D82EE12CF12CBB249BE00C
:102C7000892E912CAE9CC001AF9C900DBE9C900DF6
:102C80001124B4010E948529812F511002C0860FA2
:102C900001C0861B9601402F672D0E945B278FEF96
:102CA000E81AF80A83E0C80ED11C8BE0E816F1049C
:102CB00009F70E9478131093CE027092CF0200930E
:102CC000D002662051F06091CD027091CE028091C9
:102CD000CF029091D0020E94EC260F900F900F909F
:102CE000DF91CF911F910F91FF90EF90DF90CF90E8
:102CF000BF90AF909F908F907F906F905F9008955E
:102D0000EDECF2E0438120E1421B08F440E021E0D9
:102D1000628181810C94E515EDECF2E0438120E1C4
:102D2000420F08F44FEF21E0628181810C94E51598
:102D3000EDECF2E0628120E1621B08F460E021E04A
:102D4000438181810C94E515EDECF2E0628120E194
:102D5000620F08F46FEF21E0438181810C94E51547
:102D6000EDECF2E0818121E04381628180510C949D
:102D7000E515EDECF2E0818121E043816281805F25
:102D80000C94E515EDECF2E080818E7F808310924B
:102D90001C022FEF80E792E0215080409040E1F745
:102DA00000C000000C94781360E00C94FE26EDEC5B
:102DB000F2E080818160808386950C94D41661E076
:102DC0000C94FE269091CD0290FF04C09695981722
:102DD00040F003C0811105C090E0961710F40C94E8
:102DE00042270C94DF1680E090E00E94482380E0A8
:102DF00090E00E94322310927E020E94971EE9ED1D
:102E0000F2E086E0DF011D928A95E9F71092D30285
:102E10001092D2021092D4020C94F127CF92DF923A
:102E2000FF920F931F93CF93DF936C010091AB023E
:102E300080918102082BC7E0D0E010E0C8010C2E81
:102E400002C0959587950A94E2F780FD04C021970A
:102E5000A8F7F12C09C0FC2EB6018C2F0E94051397
:102E60000E94601C019799F38F2DDF91CF911F91E4
:102E70000F91FF90DF90CF900895CF93DF93EC01F7
:102E80000E940E17BE010E9405130E94601CDF9174
:102E9000CF910895FC01808191810E943D17929508
:102EA0009F70963079F010F4925001C09A50923091
:102EB00068F4803F69F018F4883E40F409C0843F0C
:102EC00029F406C0883E20F0813F11F080E008958B
:102ED00081E008959F92AF92BF92CF92DF92EF92DE
:102EE000FF920F931F93CF93DF93CDB7DEB7619718
:102EF0000FB6F894DEBF0FBECDBF8C0185E0F801A0
:102F0000DE011D9601900D928A95E1F7D801129687
:102F1000EC9090913D02E0913E0240914002509130
:102F200041024115510531F0EF3F31F481E09F3FFF
:102F300019F403C081E001C080E0B82FB1709B2E6E
:102F400080FD22C1D8013C9111962C9111971396C6
:102F5000CD90DC9014978DE3A82E82E0B82EF090EF
:102F60003F02B601641B750B409122015091230171
:102F7000FF2009F4C6C0809142026417750708F06B
:102F800091C0482F407F09F050C0E21311C0931345
:102F90000FC0FE2CE1100CC08F7080618093420244
:102FA000C5010E949B0580914202F80185832AC1D8
:102FB000CD2831F02F3F31F481E03F3F19F403C0B9
:102FC00081E001C080E080FD03C081E08E2502C069
:102FD00080E090E0F82FF170FF2E80FF1CC0809100
:102FE00074024091430256E0841709F4E8C090E06F
:102FF000589FF001599FF00D1124EC5BFD4F61814A
:10300000261306C06081631303C06281E61203C009
:1030100001968770E9CFFE2CEE2009F4F3C0809171
:10302000420281608093420249C0E21306C09313BA
:1030300004C0E11002C0F80186C0C8010E944A170E
:10304000882351F1EE2041F120914202822F829596
:103050008F7090E0029774F080913D0290913E0253
:1030600098878F831986DB86CA862C87CE010796C0
:103070000E949B0586E0F801ADE3B2E001900D925D
:103080008A95E1F70E94171F0AC0E217C9F0C8012C
:103090000E944A1781111EC0C8010E949B05FF248F
:1030A000F394B0C0482F407F81F78DE392E00E94F7
:1030B0009B0586E0D5011D928A95E9F7F12CA2C007
:1030C0009313E5CFE110E3CFF8018583C8010E9497
:1030D0009B0554C0EE2001F320914202822F82957D
:1030E0008F7090E0029734F280913D0290913E0201
:1030F0009A8389831B82DD82CC822E83CE01019646
:10310000B7CF64177507D0F5FE2CEE2029F2E21335
:1031100027C0931325C02091420220FD18C0822FA2
:1031200082958F70482F50E04115510581F0F801CC
:1031300025834F30510541F08F5F982F9295907FF6
:10314000822F8F70892B8583C8010E949B0586E0A2
:10315000F801ADE3B2E001900D928A95E1F752C01B
:10316000C8010E944A17811185CF80914202816077
:1031700080934202C8010E949B0544C086E0D501AD
:103180001D928A95E9F73EC0EE2009F485CFC8016B
:103190000E944A17F82E882309F47ECF86E0F801B2
:1031A000ADE3B2E001900D928A95E1F780913D0286
:1031B00090913E020E943D170E94171F23C03D8739
:1031C0002E878D859E850E943D17292F22952F7071
:1031D000223028F49F7039F0811105C00BC02430D3
:1031E00028F49F7049F4805E883020F0C8010E9466
:1031F0009B059F2CF92C06C0D80115969C91907FB9
:1032000091F7F8CF8F2D61960FB6F894DEBF0FBE01
:10321000CDBFDF91CF911F910F91FF90EF90DF9085
:10322000CF90BF90AF909F900895292F220F920FBB
:10323000990F890F682F669566956695982F9770F8
:1032400083E0689FB001112440E050E080E0FB0182
:10325000E40FF51FED5DFD4F208130E0092E02C027
:10326000369527950A94E2F721703327042E01C082
:10327000220F0A94EAF7822B4F5F5F4F43305105CC
:1032800031F70895292F220F920F990F890FE82FF8
:10329000E695E695E695877051E001C0550F8A9551
:1032A000EAF783E0E89FF0011124ED5DFD4F20E097
:1032B00030E070E04081CB01022E02C096958795E8
:1032C0000A94E2F78170819584278523842781936E
:1032D0002F5F3F4F2330310569F708950E94FC0BA3
:1032E0008093AB020C94F31621E030E001C0220F72
:1032F0008A95EAF720958091AB0282230C946E198F
:1033000021E030E001C0220F8A95EAF78091AB02FC
:10331000822B0C946E19809381020C94F3161092F8
:103320007F0286E0E7E3F2E0DF011D928A95E9F78C
:103330000C94F316882321F00E94901E0C94971E83
:103340000895882339F090917F02892B80937F0222
:103350000C94971E0895882309F45CC0823869F4A0
:103360000E945E2381FF56C069E385E392E00E94DC
:1033700018230E94971E69E30EC0833891F40E94BF
:103380005E2380FF47C063E585E392E00E94182337
:103390000E94971E63E585E392E00E940B230C9444
:1033A000971E843869F40E945E2382FF33C067E46D
:1033B00085E392E00E9418230E94971E67E4EBCFFA
:1033C0009CEF980F913A10F4682FE5CF90E2980F98
:1033D000983050F4877091E001C0990F8A95EAF710
:1033E000892F0E94901EDBCF9BE5980F933020F42D
:1033F00080E090E00C94482398E5980F973120F4F2
:1034000080E090E00C943223803F20F00E941B2843
:103410000C94F1270895CF93882309F49EC0C82FF8
:103420008238B1F40E945E2381FD97C069E385E391
:1034300092E00E9418230E94971E2FEF81EE94E0E5
:10344000215080409040E1F700C0000069E317C0C0
:103450008338E1F40E945E2380FD7FC063E585E34D
:1034600092E00E9418230E94971E2FEF81EE94E0B5
:10347000215080409040E1F700C0000063E585E303
:1034800092E00E940B23CF910C94971E8438B1F4E4
:103490000E945E2382FD61C067E485E392E00E94A2
:1034A00018230E94971E2FEF81EE94E02150804058
:1034B0009040E1F700C0000067E4E1CF8CEF8C0F93
:1034C000813A80F4E7E3F2E08DE392E02191C217C4
:1034D000E1F18E179F07D1F76C2F85E392E00E94F0
:1034E0001823D1CF80E28C0F883068F4C77081E058
:1034F00090E001C0880FCA95EAF790917F02892B6E
:1035000080937F02C0CFEBE5EC0FE33040F4F0E0B6
:10351000E15AFE4F808190E0CF910C944823E8E57A
:10352000EC0FE73150F4F0E0EE0FFF1FEE59FE4FC5
:1035300080819181CF910C943223C03F70F08C2F09
:103540000E94D428CF910C94F1276C2F85E392E050
:103550000E940B230E94971EBFCFCF9108951F9307
:10356000CF93DF93182F893319F0C0E0D0E002C069
:10357000C0E5D0E0812F0E940B1A209741F08FE91F
:103580009FE00197F1F700C000002197F6CF812F4F
:10359000DF91CF911F910C94AB1980E00895909129
:1035A000B40192FF0DC0282F2871283019F4877FAD
:1035B000846006C0282F2471243011F48B7F88602A
:1035C00093FF0DC0282F2871283119F4877E84615C
:1035D00006C0282F2471243111F48B7E886120913C
:1035E000B50120FF0DC0382F3871383019F4877FAE
:1035F000816006C0382F3171313011F48E7F8860C0
:1036000021FF0DC0282F2871283119F4877E816190
:1036100006C0282F2171213111F48E7E886194FD1E
:10362000877E0895F894E82FE295EF70F0E031A1DD
:10363000282F2F7081E090E001C0880F2A95EAF7CB
:10364000982F9095932391A392A1892B82A378948C
:1036500008957F928F929F92AF92BF92CF92DF9206
:10366000EF92FF920F931F93CF93DF93CDB7DEB707
:1036700028970FB6F894DEBF0FBECDBFAE014F5FE7
:103680005F4F7A0188E0FA0111928A95E9F70CE21E
:1036900011E06A0144E3A42E41E0B42E882483940F
:1036A000912CF80180818F3F09F441C0F894E82FF4
:1036B000E295EF70F0E021A18F70A40102C0440FE9
:1036C000551F8A95E2F7CA01922F982B91A392A1D8
:1036D0008095892382A3789400C0E4E3F1E0712C03
:1036E00031E021912F3F89F0A22FA295AF70B0E079
:1036F00090968C9190E02F7002C0959587952A95B1
:10370000E2F780FD02C0832F01C080E0782A330FEA
:1037100051E0EA33F50729F7F80180818F3F11F076
:103720000E94121BF0EAFA95F1F7F60170820F5F22
:103730001F4FFFEFCF1ADF0AA016B10609F0B1CF75
:1037400048E050E0B7018CEA91E00E94472B8C01E1
:10375000DD24D394892B09F4D12C0115110541F0F6
:1037600088E0F701ACEAB1E001900D928A95E1F7AB
:10377000F0908502FF2009F43FC00E94D6222091DC
:10378000830230918402AC01421B530B9A01909347
:103790008402809383024F3F510509F020F4452BAA
:1037A00009F474C002C02FEF30E01092850210922D
:1037B0008202E091AA01F091AB01BF01605D7F4FF1
:1037C00090E030E0AF014A5F5F4F8081882341F095
:1037D000281718F010829F2D03C0821B80833F2D75
:1037E0003196E417F50789F76E177F0759F730937D
:1037F0008502909382024AC0012B09F43FC00E94C7
:10380000D62290938402809383028091AA019091A2
:10381000AB01C09085026CEA71E0ADECB1E07C01D7
:1038200050E3E50EF11CAA24A394B12C32E3932EAD
:10383000FB013191BF012C913227FC0140E050E0A7
:103840008501042E01C0000F0A94EAF7832E80221E
:1038500039F08080811004C090822027CC24C3944A
:1038600031964F5F5F4F4630510551F706962D93C5
:103870008E159F05E9F6C09285020DC080E09091FB
:103880008202992341F08111C0CFB9CF012B09F0F9
:10389000BCCF81E0F4CF8D2D28960FB6F894DEBF13
:1038A0000FBECDBFDF91CF911F910F91FF90EF9091
:1038B000DF90CF90BF90AF909F908F907F900895B2
:1038C000CF93DF938238910569F1B0F4813391058C
:1038D00009F46FC048F48932910509F465C08A3251
:1038E000910509F46BC08AC08533910509F457C06E
:1038F00089339105B9F082C0833E910571F138F4A6
:10390000803E9105B1F0823E910511F177C0863E6F
:103910009105B9F1873E9105C9F1843E910509F001
:103920006DC024C02091B40120FD53C021FD51C0C1
:1039300065C08091B40180FD46C08091B50180FFD3
:1039400048C08091B40184FD50C183EE90E04FC126
:103950008091B40182FF3AC0F4CF8091B40182FD1E
:1039600035C08091B50180FD34C0EBCF8091B501A9
:1039700081FF35C08091B40184FD37C187EE90E0AE
:1039800036C18091B40183FF27C0F4CF8091B40188
:1039900083FD22C08091B50181FD21C0EBCF8091D4
:1039A000B40185FD1FC021C08091B40185FD1DC0FB
:1039B00019C08091B40186FD1BC01DC08091B40167
:1039C00086FD19C015C089E390E011C182EE90E038
:1039D0000EC180EE90E00BC186EE90E008C184EE4F
:1039E00090E005C189E290E002C185E390E0FFC06C
:1039F0008AE290E0FCC081E390E0F9C0811531E5F6
:103A0000930708F069C0811540E59407F0F09C0128
:103A100074E0369527957A95E1F7922F9370482FA9
:103A2000437021E030E002C0220F331F4A95E2F7D5
:103A30003C68392B982F9F709695969540E2949FFD
:103A4000C0011124822B932BD2C0883E910568F5CA
:103A5000803E910508F0CBC0883A9105B8F4853ACC
:103A6000910548F0855AE82FF0E0E15AFE4F808139
:103A700090E09064BCC08130910509F4B3C008F4B3
:103A8000B4C08430910508F4B0C0B1C08F3B91053B
:103A900008F0ABC0885AE82FF0E0EE0FFF1FEE5998
:103AA000FE4F808191819464A2C0811520E292072B
:103AB00058F4811531E0930708F099C0803F9105D3
:103AC00008F493C0906593C0811540E4940708F40E
:103AD0008CC09F70906A8BC0811525E5920708F015
:103AE00042C0811534E5930728F0982F8827846F0A
:103AF000906A7DC0811543E59407B0F09C01237066
:103B0000332741E050E002C0440F551F2A95E2F7E9
:103B1000282F2695269580E2289F90011124CA011E
:103B2000822B932B9A6863C0811522E5920728F4B3
:103B3000982F8827816F906A5AC09C012370332781
:103B400041E050E002C0440F551F2A95E2F7282FAC
:103B50002695269580E2289F90011124CA01822B88
:103B6000932B9C6844C0EC01811539E59307A8F4B8
:103B70008115984528F09C2F8827806F906A37C060
:103B8000C11586E5D80788F58C2F0E94CF1A8F7152
:103B900090E0982F882790622AC081152AE5920725
:103BA00090F48C2F8F700E94CF1A94E0D695C79511
:103BB0009A95E1F7CF70D0E0DC2FCC27D0699E0139
:103BC000282BC90114C090568115904270F48D2F96
:103BD0008F710E94CF1A282F2F71CE0199279062E2
:103BE000922B05C081E090E002C080E090E0DF9180
:103BF000CF910895CF9384E090E00E942F29C82FA1
:103C000082E290E00E942F292C2F30E0A901582B4E
:103C1000CA01CF91089580E090E00E943D29893E3D
:103C20009E4F11F40C94431380E0089569EE7EEFEB
:103C300080E090E00E94612960E082E090E00E94D4
:103C4000432960E083E090E00E94432910928102C2
:103C500060E084E090E00E94432960E082E290E02E
:103C60000E94432960E085E090E00E94432960E0E3
:103C700086E090E00E9443296FEF87E090E00E9489
:103C8000432940E050E0BA0188E090E00E945529C5
:103C900060E08DE090E00E94432940E050E0BA01EE
:103CA00088E190E00E94552960E087E190E00E9461
:103CB000432940E050E0BA018CE190E00E94552990
:103CC00060E070E080E290E00E94612940E050E016
:103CD000BA0188E190E00E94552980E00E94161305
:103CE0000E94341340E050E0BA018FE090E00E945F
:103CF0005529EDECF2E080818160808386950E94F9
:103D0000DF1621E04FEF6FEF8FEB0E94E51581E0AA
:103D10000C94DF1680918002811110928002089528
:103D2000809590917F02892380937F0208959091DE
:103D30007F0280917E02982B9093350280918002C1
:103D4000882389F0892B80933502E7E3F2E097E03E
:103D500080E0915029F021912223D9F38F5FF9CF90
:103D600081110E948A1E48E050E066E772E085E318
:103D700092E00E94472B892BA9F088E0E5E3F2E06E
:103D8000A6E7B2E001900D928A95E1F7E0918802F2
:103D9000F0918902309731F00280F381E02D85E3C4
:103DA00092E0099408952091750280958223809372
:103DB0007502982F977099F430E0482F082E000C68
:103DC000550B2417350759F09091B50192FD07C0A6
:103DD0008595859585950E947419109275020895B0
:103DE000CF93C091B501C2FB992790F9981799F02C
:103DF00080FBC2F9C093B5016091B40184E090E00A
:103E00000E9443296C2F82E290E00E94432982E0C5
:103E1000CF910C94D31ECF9108958091740290910C
:103E20004302891719F08F5F8770FBCF0895EF92D7
:103E3000FF920F931F93CF93DF938091420282955D
:103E40008F7009F065C080913F02882309F460C03B
:103E500080917402F090430210913D0200913E0265
:103E6000609140027091410291E01F3F09F090E0A3
:103E7000C0912201D0912301292F96E0E92E8F15C0
:103E800009F446C06115710521F00F3F21F030E0C3
:103E900003C031E001C0322F90E030FD36C0E89E13
:103EA000F001E99EF00D1124DF01AC5BBD4F1196CE
:103EB0003C911197301329C03C91311326C01296C2
:103EC0003C911297311121C013964D915C9114973A
:103ED000461B570B4C175D07C0F4809142028F7050
:103EE000806180934202E75BFD4F80818F7080612B
:103EF00080838DE392E00E949B05DF91CF911F911B
:103F00000F91FF90EF900C940D1F01968770B7CF23
:103F1000DF91CF911F910F91FF90EF900895089539
:103F2000809196020895809391027093930260931A
:103F300092028091A1028430F9F48093E9008FEF1E
:103F40009091E800815095FD06C095ED9A95F1F7A6
:103F500000008111F5CF8091E80085FF0DC040E0A1
:103F600050E063E070E081E992E00E94D723809105
:103F7000E8008E778093E8000895BC0184E00C94FB
:103F8000931FBC0183E00C94931F24E02093E9006D
:103F90002FEF3091E800215035FD06C035ED3A9500
:103FA000F1F700002111F5CF2091E80025FF0BC0AB
:103FB00040E050E066E070E00E94D7238091E80086
:103FC0008E778093E8000895CF93DF9321E02093CC
:103FD000E9002FEF3091E800215035FD06C035EDA6
:103FE0003A95F1F700002111F5CF2091E80025FF67
:103FF00014C0EC0140E050E068E070E00E94D7237C
:104000008091E8008E778093E80088E0FE01A7E9C0
:10401000B2E001900D928A95E1F7DF91CF9108957A
:104020001F920F920FB60F9211242F933F934F932D
:104030005F936F937F938F939F93AF93BF93CF9330
:10404000DF93EF93FF93C091E900CF708091EC0074
:10405000D82FD17080FDD0E81092E9008091F00057
:10406000877F8093F00078940E9403241092E900E7
:104070008091F00088608093F000CD2BCF70C093CA
:10408000E900FF91EF91DF91CF91BF91AF919F91A7
:104090008F917F916F915F914F913F912F910F90F1
:1040A0000FBE0F901F901895E8EDF0E080818E7F95
:1040B00080831092E2001092DA001092E100A0EEEC
:1040C000B0E08C9181608C9380818F77808319BC64
:1040D000A7EDB0E08C918E7F8C9380818F7E808362
:1040E0001092940208952091E4003091E50095E645
:1040F0004091EC00842F817040FF23C08091E80044
:1041000080FD1DC08091A102882399F0853099F02F
:104110008091EB0085FD11C04091E4005091E500D5
:104120002417350729F3915011F09A01E1CF84E06B
:10413000089582E0089583E0089581E0089580E085
:1041400008954091E80042FFDDCF08958091A302D9
:1041500087FF11C08091E80082FD05C08091A10217
:104160008111F8CF11C08091E8008B770BC080914E
:10417000A102882349F08091E80080FFF8CF809168
:10418000E8008E778093E8000895982F973068F5BF
:104190009093E900981739F07091EC002091ED00B0
:1041A0005091F00003C0242F762F50E021FD02C073
:1041B0009F5FECCF3091EB003E7F3093EB0030916E
:1041C000ED003D7F3093ED003091EB003160309396
:1041D000EB007093EC002093ED005093F0002091E1
:1041E000EE0027FDE5CF80E008958F708093E90011
:1041F00081E00895CF92DF92EF92FF920F931F9389
:10420000CF93DF93C8EDD0E088818F7E8883E7ED80
:10421000F0E080818160808384E082BF81E08093D0
:10422000940288818E7F888302EE10E0F80110826C
:104230001092DA0081EEC82ED12CF601108288810E
:104240008F77888388818068888388818F7D888341
:1042500019BC1092A1021092A2021092A002109218
:104260009F0290EEE92EF12CF70180818B7F8083F5
:1042700088818160888342E060E080E00E94C52000
:10428000F60180818E7F8083F80180818160808348
:10429000808188608083F70180818E7F8083888120
:1042A00080618883DF91CF911F910F91FF90EF90F4
:1042B000DF90CF9008951F920F920FB60F921124A6
:1042C0002F933F934F935F936F937F938F939F931E
:1042D000AF93BF93EF93FF938091E10082FF09C0FA
:1042E0008091E20082FF05C08091E1008B7F809386
:1042F000E1008091DA0080FF2AC08091D80080FF21
:1043000026C08091DA008E7F8093DA008091D900F8
:1043100080FF18C080E189BD82E189BD09B400FE3B
:10432000FDCF81E08093A1028091940281110FC0A2
:104330000E9454200E94FA208091E20084608093C1
:10434000E20005C019BC1092A10210929402809163
:10435000E10080FF17C08091E20080FF13C08091D0
:10436000E2008E7F8093E2008091E2008061809382
:10437000E2008091D80080628093D80019BC85E06B
:104380008093A1028091E10084FF30C08091E2001F
:1043900084FF2CC080E189BD82E189BD09B400FEA3
:1043A000FDCF8091D8008F7D8093D8008091E1006F
:1043B0008F7E8093E1008091E2008F7E8093E20007
:1043C0008091E20081608093E2008091A2028823C4
:1043D00011F084E007C08091E30087FD02C081E016
:1043E00001C083E08093A1028091A1028091E1004D
:1043F00083FF27C08091E20083FF23C08091E1000A
:10440000877F8093E10082E08093A1021092A20254
:104410008091E1008E7F8093E1008091E2008E7FA9
:104420008093E2008091E20080618093E20042E0AC
:1044300060E080E00E94C5208091F0008860809359
:10444000F000FF91EF91BF91AF919F918F917F917C
:104450006F915F914F913F912F910F900FBE0F90F1
:104460001F9018952091A9023091AA0226173707AC
:1044700048F06115710539F42091E8002E772093FA
:10448000E80001C0B901FC0120E06115710579F176
:104490008091A1028823F1F18530F1F18091E8004B
:1044A00083FD3CC08091E80082FD2EC08091E80031
:1044B00080FFEBCF2091F3008091F20090E0922BEF
:1044C0006115710551F08830910538F421912093E0
:1044D000F100615071090196F3CF21E0089709F0CE
:1044E00020E08091E8008E778093E800CECF211104
:1044F000CFCF0AC08091A102882361F0853061F09E
:104500008091E80083FD0AC08091E80082FFF2CF2D
:1045100080E0089582E0089583E0089581E00895A1
:1045200087E797E790930108809300089AE088E175
:104530000FB6F894A895809360000FBE909360002A
:10454000FFCF78941F920F920FB60F9211248F9382
:104550009F93AF93BF9380918D0290918E02A09113
:104560008F02B09190020196A11DB11D80938D0222
:1045700090938E02A0938F02B0939002BF91AF915F
:104580009F918F910F900FBE0F901F9018959C01D7
:104590004FB7F89480918D0290918E02A0918F0276
:1045A000B09190024FBF821B930B08952FB7F894E0
:1045B00080918D0290918E02A0918F02B091900215
:1045C0002FBF08951F920F920FB60F9211248F9351
:1045D0009F93AF93BF9380918C02811113C0809100
:1045E0008D0290918E02A0918F02B091900241961F
:1045F000A11DB11D80938D0290938E02A0938F0216
:10460000B0939002BF91AF919F918F910F900FBE89
:104610000F901F9018959C012A5F3F4FFC0142812B
:10462000461301C01282019682179307B9F70895C5
:104630009C01FC0132969FEF80E04191461789F082
:104640009F3F19F4411101C0982F8F5F8630A9F761
:104650009F3F39F0F901E90FF11D97FDFA9562834B
:104660000895089520918A0230918B022817390706
:1046700071F090938B0280938A02E0918802F0910E
:104680008902309721F00084F185E02D0994089586
:1046900020918602309187022817390771F0909394
:1046A000870280938602E0918802F0918902309718
:1046B00021F00680F781E02D09940895E0918802A9
:1046C000F0918902309721F00190F081E02D09945A
:1046D00080E00895E09125018E2F90E0FC0179970C
:1046E000EB30F10508F057C0EB57FF4F0C94CF2982
:1046F0000C94C2160C94D7168091CD0280FF4BC04B
:10470000E0912A01F0912B0194818381891708F0AF
:1047100042C09C3008F03FC0228131814081E82FA7
:10472000F0E0BF01660F771FE60FF71FE455FD4F5E
:104730004183308322838F5F9813F1CF0E947813D7
:104740008FE99FE00197F1F700C000000895E09124
:104750002A01F0912B0180810C948019E0912A01AB
:10476000F0912B0180810C94741980E00CC0E091D1
:104770002A01F0912B0181E090E0008002C0880FB7
:10478000991F0A94E2F70C946E1980912A01909176
:104790002B010C94E80408958091AB02982F967039
:1047A000963011F4886001C0877F0C946E19EF92E7
:1047B000FF920F931F93CF93DF937C018B010E9495
:1047C0007320811119C0E70101151105A1F0809135
:1047D000E80085FD0AC08091E8008E778093E800AC
:1047E0000E947320882381F307C089918093F10090
:1047F00001501109E9CF80E0DF91CF911F910F9116
:10480000FF90EF9008951F93CF93DF93CDB7DEB75E
:10481000AA970FB6F894DEBF0FBECDBFE3EAF2E071
:104820008BEA92E02091F10021938E179F07D1F738
:104830008091A402833009F463C030F4813071F0B8
:10484000823009F49DC0B4C08A3009F489C08B302D
:1048500009F46EC0893009F0ABC020C08091A3027A
:10486000813A09F0A5C08091E800877F8093E80035
:104870008091A7029091A802892B21F468E087E932
:1048800092E003C060E080E090E070E00E9432229D
:104890008091E8008B778093E8008AC08091A30222
:1048A000813209F085C08091A7029091A8020097FB
:1048B00019F0029709F07CC08091E800877F80930F
:1048C000E8008091E80082FD05C08091A10281117D
:1048D000F8CF6EC02091F3008091F20090E0922B0F
:1048E000029731F48091F100813011F0863021F48B
:1048F0008091F100809396028091E8008B7754C0FC
:104900008091A302813A09F053C08091A70290914F
:10491000A802892B09F04CC08091E800877F809322
:10492000E8008091E80080FFFCCF8091240137C02F
:104930008091A3028132E1F58091A7029091A802B3
:10494000892BB1F58091E800877F8093E8000E9471
:10495000A6208091A502809324010E948F1928C06F
:104960008091A302813221F58091E800877F8093B6
:10497000E8000E94A6208091A6028093950218C0AC
:104980008091A302813AA1F48091E800877F80930F
:10499000E8008091E80080FFFCCF80919502809331
:1049A000F1008091E8008E778093E8000E94A620B5
:1049B0008091E80083FFDFC18091A3029091A4025F
:1049C000492F50E04A30510508F0D5C1FA01E057AF
:1049D000FF4F0C94CF29803821F0823809F0CBC1E9
:1049E00008C080919F029091A002992389F0826073
:1049F0000FC08091A7028F70873008F0BCC18093F0
:104A0000E9008091EB0085FB882780F91092E9008E
:104A10009091E800977F9093E8008093F1001092C6
:104A2000F10070C1282F2D7F09F0A5C1882319F04E
:104A3000823061F0A0C18091A502813009F09BC154
:104A4000933009F080E08093A0022EC08091A502EF
:104A500081112AC08091A7028F702FEF280F263076
:104A600008F089C18093E9002091EB0020FF1CC071
:104A7000933021F48091EB00806214C09091EB00A0
:104A800090619093EB0021E030E0A90102C0440F57
:104A9000551F8A95E2F74093EA001092EA00809150
:104AA000EB0088608093EB001092E9008091E800B1
:104AB000877F8093E8000E94A6205DC181115BC1C1
:104AC0001091A5021F778091E3008078812B80935D
:104AD000E3008091E800877F8093E8000E94A62091
:104AE0008091E80080FFFCCF8091E3008068809394
:104AF000E300111102C082E001C083E08093A102B3
:104B00003AC18058823008F036C12091A502309118
:104B1000A6022C3D53E0350779F583E08A838AE2CB
:104B200089834FB7F894DE01139620E03EE051E20E
:104B3000E32FF0E050935700E49120FF03C0E2958B
:104B4000EF703F5FEF708E2F90E0EA3010F0C79665
:104B500001C0C0968D939D932F5F243149F74FBFBD
:104B60008091E800877F8093E8006AE270E0CE01E0
:104B700001960E943222B4C08091A7029091A802AF
:104B8000432F552743305105A9F068F441305105B2
:104B900009F400C14230510509F0EDC08BE590E009
:104BA000E8E7F6E04BC04132510529F142325105A8
:104BB00089F1E1C0C901992781309105A1F058F030
:104BC000029709F0D8C0E5EEF6E0E4918E2F90E070
:104BD000E5EEF6E030C0E5E1F7E0E4918E2F90E0FD
:104BE000E5E1F7E028C0EBEFF6E0E4918E2F90E0EE
:104BF000EBEFF6E020C08330910508F0BCC0880FD1
:104C0000991FFC01E756FE4F0190F081E02D89E0ED
:104C100090E014C08330910508F0ADC0FC01EE0FA8
:104C2000FF1FED56FE4F0190F081E02DDC01A057F3
:104C3000BE4F8C9190E0009709F49DC02091E80050
:104C4000277F2093E8002091A9023091AA0228171B
:104C5000390708F4C90140E0009789F12091A102C9
:104C6000222309F43DC02530D9F12091E80023FD2D
:104C700037C02091E80022FD2FC02091E80020FFDE
:104C8000EBCF4091F3002091F20030E0342B0097FD
:104C900059F02830310540F444914093F1003196A9
:104CA00001972F5F3F4FF3CF41E02830310509F0E6
:104CB00040E02091E8002E772093E800CDCF41110D
:104CC000CDCF0AC08091A102882351F0853041F0F8
:104CD0008091E80083FD04C08091E80082FFF2CF5C
:104CE0008091E8008B778093E80045C0803809F018
:104CF00042C08091E800877F8093E8008091A20203
:104D00008093F1008091E8008E77D3CE811133C07B
:104D10008091A5029091A6029927029764F580914F
:104D2000E800877F8093E8001091A5021093A2020B
:104D30000E94A620111106C08091E30087FD02C0E9
:104D400081E001C084E08093A10242E061EC81E057
:104D50000E94C52042E261EC84E00E94C52042E24C
:104D600061EC82E00E94C52042E260EC83E00E9498
:104D7000C5208091A1028091E80083FF10C080913E
:104D8000E800877F8093E8008091EB008062809349
:104D9000EB0005C082E190E0E3EDF6E04FCFAA968C
:104DA0000FB6F894DEBF0FBECDBFDF91CF911F913C
:104DB00008958091CD02282F269530E021153105E8
:104DC00019F48170826005C02532310524F08170AC
:104DD00088648093CD020895CF92DF92EF92FF9284
:104DE0006B017C010E94D926B701A60188E090E002
:104DF000FF90EF90DF90CF900C9455299091CD02C9
:104E000090FF36C09170811102C0926006C0853259
:104E100010F0986402C0880F982B9093CD026623FF
:104E200051F06091CD027091CE028091CF029091AD
:104E3000D0020E94EC266091CD02669570E04BE0B6
:104E400050E084E191E00E943A2B892B19F01092F6
:104E50001C0202C00E94621381E08093180220E0CD
:104E60004091D0026091CF028091CE020C94E51562
:104E700008958091CD028695815009F484E261E025
:104E80000C94FE268091CD0286958F5F853208F0C6
:104E900081E061E00C94FE26EDECF2E083E080839B
:104EA00011828FEF8283838314826081718182817A
:104EB00093810C94EC26AF92BF92CF92DF92EF9247
:104EC000FF920F931F93CF93DF93E82EF62EE90105
:104ED000E42FF0E0611106C0E75EF84FE4914E2F39
:104EE0002E2F71C0062F10E0E75EF84F4491F42F8B
:104EF000C42ED12C26E0829FC00111242FEF30E078
:104F0000B9010E9485295BEA5603C001579F900DA5
:104F100011248E0D911D8E0D911D582F550F580F78
:104F2000D901A01BB10BAC9DC001AD9D900DBC9DE6
:104F3000900D1124E92FF59ED0011124AB2FBB2732
:104F40007901EA1AFB0AEC9CD001ED9CB00DFC9CA7
:104F5000B00D11245901A51AB108A09E7001A19E9F
:104F6000F00CB09EF00C1124EF2CFF242E193F09F9
:104F70002C9D80012D9D100D3C9D100D1124212F85
:104F80006230710591F048F461157105E1F061300E
:104F90007105B9F4242F4B2F16C06430710569F0E8
:104FA00040F06630710579F00CC0242F492FE12FB5
:104FB0000AC0492FEF2F2B2F06C0292FE42F412F96
:104FC00002C0292FEB2F49832883EA83DF91CF91F9
:104FD0001F910F91FF90EF90DF90CF90BF90AF9017
:104FE00008950E94D6222091DB02211104C0209155
:104FF000DC02222321F09093D8028093D7022091E3
:10500000DD02211104C02091DE02222321F09093C1
:10501000D6028093D502E0918802F0918902309700
:1050200049F082E08093D9020480F581E02D89ED7A
:1050300092E009940895803F39F49091DC0297FF43
:1050400035C01092DC0259C0813F29F49091DC02F6
:105050001916BCF32BC09091DB02823F29F497FF15
:1050600025C01092DB0249C0833F19F41916CCF316
:105070001DC09091DD02893F29F41916BCF41092ED
:10508000DD023BC08A3F19F497FF10C0F8CF8B3F79
:1050900039F49091DE0297FF09C01092DE022DC014
:1050A0008C3F21F49091DE021916BCF39CE0980F1E
:1050B000953080F421E030E0A90102C0440F551F73
:1050C0009A95E2F7CA0180959091DA02892380933C
:1050D000DA0213C08D3F21F48091D4028E7F0BC081
:1050E0008E3F21F48091D4028D7F05C08F3F29F43B
:1050F0008091D4028B7F8093D4028091DB02811156
:1051000006C08091DC02811102C01092D30280910E
:10511000DD02811106C08091DE02811102C0109271
:10512000D20208958091D40280FD16C081FD16C080
:1051300082FD18C08091D202882391F0883290F4C9
:1051400028E0829FC001112468E270E00E94992942
:10515000862F672B29F007C082E0089584E0089528
:1051600081E0089588E008958091D40280FD14C004
:1051700081FD14C082FD16C08091D302882381F086
:105180008E3180F420E5829FC00111246EE170E031
:105190000E949929862F089584E1089588E2089550
:1051A00088E0089580E50895803F21F40E94B428A6
:1051B000819504C0813F29F40E94B4288093DC02C9
:1051C0000895823F21F40E94B428819504C0833F52
:1051D00029F40E94B4288093DB020895893F19F4D2
:1051E0000E94922805C08A3F31F40E94922881953E
:1051F0008093DD0208958B3F21F40E9492288195CF
:1052000004C08C3F29F40E9492288093DE02089506
:105210009CE0980F953078F421E030E0A90102C0BD
:10522000440F551F9A95E2F7CA019091DA02892B33
:105230008093DA0208958D3F21F48091D402816039
:105240000BC08E3F21F48091D402826005C08F3F55
:1052500029F48091D40284608093D4020895F9994E
:10526000FECF92BD81BDF89A992780B50895A6E139
:10527000B0E044E050E00C946929A8E1B0E042E0DD
:1052800050E00C946929262FF999FECF92BD81BD7B
:10529000F89A019700B4021639F01FBA20BD0FB674
:1052A000F894FA9AF99A0FBE08950396272F0E9450
:1052B00044290E944329252F0E944429242F0C941D
:1052C00044290196272F0E9444290C944329DC018C
:1052D000CB01FC01F999FECF06C0F2BDE1BDF89A01
:1052E000319600B40D9241505040B8F7089587FBB5
:1052F000082E062687FD819567FD61950E940D2A7F
:105300000EF4919507FC81950895AA1BBB1B51E1F2
:1053100007C0AA1FBB1FA617B70710F0A61BB70B25
:10532000881F991F5A95A9F780959095BC01CD01CA
:10533000089597FB072E16F4009407D077FD09D047
:105340000E94852907FC05D03EF4909581959F4FDA
:105350000895709561957F4F0895A1E21A2EAA1BBA
:10536000BB1BFD010DC0AA1FBB1FEE1FFF1FA21715
:10537000B307E407F50720F0A21BB30BE40BF50B12
:10538000661F771F881F991F1A9469F7609570959B
:10539000809590959B01AC01BD01CF010895EE0F62
:1053A000FF1F0590F491E02D09946927962769273E
:1053B00078278727782708950E94E429332312F459
:1053C0008A1B9B0B0C94F529A29FB001B39FC001CF
:1053D000A39F700D811D1124911DB29F700D811D21
:1053E0001124911D08950E94E429B7FF0895821B9E
:1053F000930B08950E94E429A59F900DB49F900DF2
:10540000A49F800D911D11240895B7FF0C94FA29D3
:105410000E94FA29821B930B0895991B79E004C01E
:10542000991F961708F0961B881F7A95C9F78095E3
:1054300008950F931F93CF93DF938230910510F45B
:1054400082E090E0E091E102F091E20220E030E0C1
:10545000A0E0B0E0309719F14081518102811381C1
:1054600048175907C8F08417950769F4109731F069
:1054700012960C93129713961C9327C00093E10287
:105480001093E20222C02115310519F0421753078B
:1054900018F49A01BD01EF01DF01F801DBCF2115FE
:1054A0003105F9F0281B390B2430310580F48A814D
:1054B0009B816115710521F0FB019383828304C0F8
:1054C0009093E2028093E102FE01329644C0FE0115
:1054D000E20FF31F8193919322503109398328837E
:1054E0003AC02091DF023091E002232B41F4209159
:1054F0000201309103013093E0022093DF022091FA
:105500000001309101012115310541F42DB73EB75D
:105510004091040150910501241B350BE091DF02FD
:10552000F091E002E217F307A0F42E1B3F0B2817BF
:10553000390778F0AC014E5F5F4F2417350748F00C
:105540004E0F5F1F5093E0024093DF0281939193CF
:1055500002C0E0E0F0E0CF01DF91CF911F910F9109
:105560000895CF93DF93009709F481C0FC0132972F
:1055700013821282A091E102B091E202109781F4AD
:1055800020813181820F931F2091DF023091E00250
:105590002817390751F5F093E002E093DF0267C066
:1055A000ED0120E030E0CE17DF0740F44A815B8157
:1055B0009E0141155105F1F0EA01F5CFD383C28375
:1055C00040815181840F951FC817D90759F48881EC
:1055D0009981840F951F0296918380838A819B8194
:1055E000938382832115310529F4F093E202E0933D
:1055F000E1023DC0E901FB83EA8349915991C40F5F
:10560000D51FEC17FD0761F480819181840F951FF0
:105610000296E90199838883828193819B838A839F
:10562000E0E0F0E012968D919C911397009719F0AD
:10563000FD01DC01F7CF8D919C9111979D012E5FAB
:105640003F4F820F931F2091DF023091E002281715
:10565000390769F4309729F41092E2021092E102BE
:1056600002C013821282B093E002A093DF02DF91A6
:10567000CF910895FC014150504030F00190061642
:10568000D1F73197CF010895882799270895FB0115
:10569000DC0104C08D910190801921F441505040EB
:0C56A000C8F7881B990B0895F894FFCF01
:1056AC000000E3022000FF00901FE41FC51FC11F74
:1056BC00BD1F8F1F01191A1B1C1D1E1F202122012B
:1056CC000201C80001FF000000000000F4F5F6F72D
:1056DC0031333236946697C6343500010202020229
:1056EC000606060909090909090F0F0F0F0F0F15F7
:1056FC00151518191919191919191919192324819A
:10570C008283E200E900EA00B500B600B700CD00E4
:10571C008301CC008A01920194012102230224020C
:10572C002502260227022A02B300B4006F00700083
:10573C0040227B380616069B058A06A306C3060084
:00000001FF
