:100000000C9491030C94D8030C94D8030C94D8034B
:100010000C94D8030C94D8030C94D8030C94D803F4
:100020000C94D8030C94D8030C94732B0C94452C8B
:100030000C9408260C94D8030C94D8030C94D80381
:100040000C94D8030C94D8030C94D8030C94D803C4
:100050000C94D8030C9461260C94D8030C94D80308
:100060000C94D8030C94D8030C94D8030C94D803A4
:100070000C94D8030C94D8030C94D8030C94D80394
:100080000C94D8030C94D8030C94D8030C94D80384
:100090000C94D8030C94D8030C94D8030C94D80374
:1000A0000C94D8030C94D8030C94D8031515181588
:1000B0003815491551155C155F1562156515AB1599
:1000C000AB1568156B1570157D158A158D15911575
:1000D0009E154A1C4A1C7C1C7C1CC91CE71CFB1D71
:1000E000FB1DF21C8B1D9C1D9C1D9B1E9B1EAD1E93
:1000F000AD1EA41EAD1EAD1EAD1E9B1E9B1EA91ED9
:10010000AD1EAD1EA91EB22CD92CD12DD92CD12DAE
:10011000252D482DD12D9F2DAE2D290014001A001C
:100120000800150017001C0018000C001200130036
:100130002F0030002B6104001600070009000A00A0
:100140000B000D000E000F00330034003100E10001
:100150001D001B00060019000500110010003600EC
:1001600037003800280052008A00E300E000025106
:1001700001512C002A0001510251E20050005100AF
:100180004F004C004B004E00000035001E001F00C9
:100190002000210022002300240025002600270043
:1001A0002D002E0035021E021F0220022102220213
:1001B000230224022502260227022D022E023A00E3
:1001C0003B003C003D003E003F004000410042003B
:1001D00043004400450001008B00010001000100C4
:1001E0000351010001000100035101000100010061
:1001F00001000100010001000000C95CC75CC55C92
:10020000C35C0100C25C01000100010001000100AB
:1002100001000100CA5CC85CC65CC45C010001004E
:1002200001000100010001000100010001000100C6
:1002300001000100010001000100010001000100B6
:1002400001000100010001000100010001000100A6
:100250000100005C0100010001000100010001003B
:100260000100010001000100000001000100010087
:100270000100010001000100010001000100010076
:100280000100010001000100010001000100010066
:100290000100010001000100010001000100010056
:1002A0000100010001000100010001000100010046
:1002B0000100010001000100010001000100010036
:1002C0000100010001000100010001000100010026
:1002D000010001000100010000000000000000001A
:1002E00000002A2B28000000000000000000000091
:1002F000000000000029000000002C1E34202122F4
:1003000024342627252E362D3738271E1F2021225C
:10031000232425263333362E37381F0405060708D5
:10032000090A0B0C0D0E0F101112131415161718C5
:10033000191A1B1C1D2F3130232D35040506070803
:10034000090A0B0C0D0E0F101112131415161718A5
:10035000191A1B1C1D2F3130354C00000000000005
:10036000000000000000000000000000000000008D
:1003700000000000000000000000000000007E0FF0
:1003800000D4FFFFFFC7000000781E0F0500047FA8
:100390003F1F643214643214783C1E1E140A052276
:1003A00023252628292A2C2D2F3032333536383A6A
:1003B0003B3D3E4042434547494A4C4E50515355C0
:1003C00057595A5C5E6062646668696B6D6F7173E1
:1003D0007577797B7D7F81838587898A8C8E9092E2
:1003E0009496989A9C9E9FA1A3A5A7A8AAACAEAFED
:1003F000B1B3B4B6B8B9BBBCBEBFC1C2C3C5C6C732
:10040000C9CACBCCCDCED0D1D2D2D3D4D5D6D7D7E2
:10041000D8D9D9DADADBDBDBDCDCDCDCDCDDDDDD2A
:10042000DDDCDCDCDCDCDBDBDBDADAD9D9D8D7D726
:10043000D6D5D4D3D2D2D1D0CECDCCCBCAC9C7C6D3
:10044000C5C3C2C1BFBEBCBBB9B8B6B4B3B1AFAE11
:10045000ACAAA8A7A5A3A19F9E9C9A9896949290B7
:100460008E8C8A89878583817F7D7B79777573718F
:100470006F6D6B6968666462605E5C5A595755536C
:1004800051504E4C4A4947454342403E3D3B3A3825
:1004900036353332302F2D2C2A292826252322FFCA
:1004A000AA7F554000010101010101010101020281
:1004B0000202020202020203030303030303030412
:1004C00004040404040405050505050606060606DD
:1004D000070707070708080808090909090A0A0A97
:1004E0000B0B0B0C0C0C0D0D0D0E0E0E0F0F0F1039
:1004F00010111111121213131414151516161717C3
:10050000181819191A1A1B1B1C1D1D1E1E1F20202E
:10051000212222232424252626272829292A2B2C78
:100520002D2D2E2F30313232333435363738393A9B
:100530003B3C3D3E3F404142434445464748494A93
:100540004C4D4E4F50515354555658595A5B5D5E61
:100550005F616264656668696B6C6D6F70727375FC
:1005600077787A7B7D7E8082838587888A8C8E8F60
:1005700091939596989A9C9EA0A2A3A5A7A9ABAD8E
:10058000AFB1B3B5B7BABCBEC0C2C4C6C9CBCDCF7C
:10059000D1D4D6D8DBDDDFE2E4E7E9EBEEF0F3F52A
:1005A000F8FAFDFF1403470050004B0036003000FE
:1005B0002D00350035004F00000018034400610095
:1005C000720061006B0075002D004E0065006B002D
:1005D0006F0000000403090409025B00030100A08E
:1005E000FA090400000103010100092111010001C1
:1005F0002240000705810308000A090401000203E4
:1006000000000009211101000122220007058203D8
:100610002000010705030320000109040200010373
:10062000000000092111010001227B00070584035D
:1006300020000A1201100100000008EDFE1714014D
:1006400000010200010660FF0961A10109621500B5
:1006500026FF009520750881020963150026FF001A
:10066000952075089102C005010902A101850209C2
:1006700001A1000509190129081500250195087532
:100680000181020501093009311581257F95027527
:1006900008810609381581257F95017508810605B1
:1006A0000C0A38021581257F950175088106C0C0A6
:1006B00005010980A101850319012AB7001501264A
:1006C000B700950175108100C0050C0901A10185D5
:1006D0000419012AA002150126A0029501751081B6
:1006E00000C005010906A101050719E029E7150069
:1006F000250195087501810295017508810105079D
:10070000190029FF150026FF0095067508810005D0
:100710000819012905950575019102950175039147
:1007200001C011241FBECFEFDAE0DEBFCDBF04B69B
:1007300003FE27C08091100390911103A091120332
:10074000B09113038730904BA740B04BD1F4109277
:10075000100310921103109212031092130314BE8F
:1007600084B7877F84BF0FB6F894A8958091600006
:10077000886180936000109260000FBEE0E0F8E3B3
:10078000099511E0A0E0B1E0E2EFFEE502C00590BE
:100790000D92A83DB107D9F723E0A8EDB1E001C063
:1007A0001D92A031B207E1F70E9434280C94772FF4
:1007B0000C94000081E0089581E008950C94DC031E
:1007C00008950C94E0031F93CF93DF9300D000D0E3
:1007D0001F92CDB7DEB749835A836B8330914A02AB
:1007E00089819A81311114C0662359F0222349F07E
:1007F0000E945723182F682F89819A810E94002315
:1008000003C00E942B23182F69817A81812F04C095
:100810000E94572369817A810F900F900F900F905B
:100820000F90DF91CF911F910C947D16FC01262F24
:10083000408151816281738184810C94E303CF9361
:10084000DF93EC0160E00E941604BE01DF91CF91BE
:100850000C94E1038F929F92AF92BF92CF92DF925E
:10086000EF92FF920F931F936B017C0181E090E068
:10087000A0E0B0E04C015D0104C0880C991CAA1CEA
:10088000BB1C4A95D2F7AC01BD0104C0440F551FF3
:10089000661F771F2A95D2F7482959296A297B298B
:1008A00004C0880F991FAA1FBB1F0A95D2F78A019F
:1008B0009B010C211D212E213F214017510762076A
:1008C000730739F4BC01CD016C297D298E299F293C
:1008D0000AC080959095A095B095BC01CD016C2182
:1008E0007D218E219F211F910F91FF90EF90DF902E
:1008F000CF90BF90AF909F908F9008950F93382F17
:10090000262F6091A6027091A7028091A802909173
:10091000A902042F432F0E942A040F910C943C2219
:100920000E94D9070C9413080C940F0808950E9494
:10093000891E0E9496042FEF84E39CE021508040A2
:100940009040E1F700C000000C9487260F931F939E
:10095000CF93DF938C0161E00E941604EC01B80193
:100960000E946D14882309F44BC0B801CE010E9487
:10097000DE03882309F444C0B801CE010E94B217F7
:100980008823F1F1B801CE010E9404188823C1F137
:10099000B801CE010E942F19882391F1B801CE0130
:1009A0000E941613882361F1F8018281882309F1DE
:1009B000CA358DE5D807C1F050F4C115FCE5DF0755
:1009C00081F0CE3DDC45A9F40E945B2519C0CB35F2
:1009D000EDE5DE0761F0CC35DD4559F40E94EA23F0
:1009E00008C00E9497040CC00E94F32302C00E941A
:1009F000F623C801DF91CF911F910F910C94DA0378
:100A000080E0DF91CF911F910F910895DF92EF92D7
:100A1000FF920F931F93CF93DF93E82FF0E0E652FE
:100A2000FD4FD490282F26952695269530E0F90184
:100A3000E658FC4F0491877010E0082E02C015950F
:100A400007950A94E2F701701127F901E659FC4F66
:100A5000E490F12C082E02C0F594E7940A94E2F792
:100A600091E0E922FF24F901E65AFC4FC491D0E05D
:100A700002C0D595C7958A95E2F7C170DD270115AB
:100A8000110519F081EE0E94D31AE114F10419F056
:100A900086EE0E94D31A8D2D0E94FC1BEF2819F0C0
:100AA00086EE0E947D1B012B19F081EE0E947D1BBA
:100AB000CD2B51F08CE2DF91CF911F910F91FF90E0
:100AC000EF90DF900C94FC1BDF91CF911F910F9161
:100AD000FF90EF90DF900895EF92FF920F931F9396
:100AE000CF93DF93EC01162F0AE08881882309F465
:100AF00055C0813009F043C08981813041F47E01C5
:100B000082E0E80EF11C8A810E94FC1B09C0823041
:100B100049F47E01E2E0EE0EF11C8A810E94D31AB4
:100B2000E7012FC0833041F47E01F2E0EF0EF11CAB
:100B30008A810E947D1BF4CF843011F0219621C060
:100B40002A81229680E090E030E0205331092A305B
:100B5000310558F4089FA001099F500D1124C901C7
:100B6000840F951F21962881EFCF009751F0EFE970
:100B7000FFE03197F1F700C000000197F6CF0E9427
:100B800006052196812F882309F4AFCFEFE9FFE016
:100B90003197F1F700C000008150F5CFDF91CF9180
:100BA0001F910F91FF90EF90089560E00C946C05F9
:100BB00008950C94D80581E008950C94DB05CF933B
:100BC000C82F0E94D9058C2F0E94DD05CF91089572
:100BD000CF93DF930E947D160E94EA06EC018115F7
:100BE00021E5920708F043C0811540E5940708F01D
:100BF0008AC0883E910520F5803E910508F0E6C048
:100C0000883A910570F4853A910508F074C08130F6
:100C1000910509F4DBC008F4D7C0049708F0D6C0EA
:100C2000D3C08F3B910508F0CFC0C85AD0E0CC0F9D
:100C3000DD1FC45DDE4F0990D881C02DD464C6C0CD
:100C4000C11580E2D80758F4C11521E0D20708F099
:100C5000BDC0C03FD10508F4B7C0D065B7C0C1154D
:100C600040E4D40708F4B0C0DF70D06AAFC0C1154B
:100C700085E5D807A0F4C11524E5D20708F08AC09D
:100C8000C11543E5D40708F06FC0C11582E5D80748
:100C900008F054C0DC2FCC27C16FD06A97C0C115B3
:100CA00029E5D207A0F4C11548E5D40708F077C0BC
:100CB000C11586E5D80708F087C08C2F0E947E07F3
:100CC0008F71C82FD0E0DC2FCC27D0627FC0C11538
:100CD0002AE5D20708F468C0CE01905681159042EB
:100CE00008F072C08D2F8F710E947E07DD27D062C1
:100CF0008F71D82B6BC0C55AD0E0C65ADE4FC88161
:100D0000D0E0D06463C074E0969587957A95E1F75A
:100D100083709C2F937021E030E002C0220F331FBC
:100D20009A95E2F73C68382BCF70C695C69580E25D
:100D3000C89FE0011124C22BD32B48C0CE01837081
:100D4000992721E030E002C0220F331F8A95E2F795
:100D50008C2F8695869540E2849FC0011124E9017D
:100D6000C82BD92BDC6832C0CE018370992721E0D3
:100D700030E002C0220F331F8A95E2F78C2F869550
:100D8000869540E2849FC0011124E901C82BD92B2C
:100D9000DA681CC0DC2FCC27C46FD06A17C0DC2FE8
:100DA000CC27C06FD06A12C08C2F8F700E947E0734
:100DB00094E0D695C7959A95E1F7CF70D0E0DC2FF7
:100DC000CC27D069C82B02C0C0E0D0E0CE01DF91B3
:100DD000CF9108958238910569F1B0F4813391057E
:100DE00009F46DC048F48932910509F463C08A3270
:100DF000910509F469C008958533910509F455C03A
:100E000089339105B9F00895833E910569F138F46D
:100E1000803E9105B1F0823E910509F10895863E2C
:100E20009105A9F1873E9105B9F1843E910509F03C
:100E300064C023C02091C70220FD4FC021FD4DC0DA
:100E400008958091C70280FD44C08091C80280FF50
:100E500044C08091C70284FD42C083EE4DC08091A2
:100E6000C70282FF38C0F5CF8091C70282FD33C030
:100E70008091C80280FD31C0ECCF8091C80281FF13
:100E800032C08091C70284FD2AC087EE35C08091B0
:100E9000C70283FF26C0F5CF8091C70283FD21C022
:100EA0008091C80281FD1FC0ECCF8091C70285FDF3
:100EB0001CC01DC08091C70285FD19C016C080915D
:100EC000C70286FD16C017C08091C70286FD13C0F9
:100ED00010C089E311C082EE0FC080EE0DC080E02B
:100EE0000BC086EE09C084EE07C089E205C085E329
:100EF00003C08AE201C081E390E008959091C702A7
:100F000092FF0DC0282F2871283019F4877F846044
:100F100006C0282F2471243011F48B7F886093FF42
:100F20000DC0282F2871283119F4877E846106C0EE
:100F3000282F2471243111F48B7E88612091C802FE
:100F400020FF0DC0382F3871383019F4877F816049
:100F500006C0382F3171313011F48E7F886021FF47
:100F60000DC0282F2871283119F4877E816106C0B1
:100F7000282F2171213111F48E7E886194FD877EA6
:100F800008950C9447140E9452088FE39CE901973E
:100F9000F1F700C000000E94520880E00E94FD07A7
:100FA00080FF04C00E94C1070C94872608950C940A
:100FB000C3070E94B324811102C00E945B250E94D6
:100FC000BE248093BB020E94C6249093C8028093E3
:100FD000C7020E94D7070E94C224682F70E080E0F9
:100FE00090E00E9402226091A6027091A702809177
:100FF000A8029091A9020C943A22E82FF0E0EF5257
:10100000FD4F80810895089580EA8A95F1F708954B
:1010100000C008950C94040808950C940C080C94D6
:101020000D080C940C080C941108F894E82FE29524
:10103000EF70F0E031A1282F2F7081E090E001C027
:10104000880F2A95EAF7982F9095932391A392A160
:10105000892B82A378940895CF93DF93C4E6D1E0DF
:1010600089910E94150881E0CC36D807C9F7CDE5F3
:10107000D1E089910E94150881E0C436D807C9F7EC
:10108000E9ECF2E0A1EDB2E081ED92E011921D9267
:101090008E179F07D9F788E00E94D708DF91CF917C
:1010A0000C9490048F929F92AF92BF92CF92DF9256
:1010B000EF92FF920F931F93CF93DF9384E6A82EB6
:1010C00081E0B82EC9ECD2E09CE6E92E91E0F92E41
:1010D000912C01E010E06501F5018081F894E82F82
:1010E000E295EF70F0E021A18F70A80102C0440FDB
:1010F000551F8A95E2F7CA01922F982B91A392A1CE
:101100008095892382A378940E940808EDE5F1E098
:1011100020E030E0812C4191A42FA295AF70B0E087
:1011200090968C9190E04F7002C0959587954A9566
:10113000E2F780FD07C0802F022E01C0880F0A94BD
:10114000EAF701C080E0882A2F5F3F4F2730310542
:1011500011F75FEFA51AB50AF60180810E94150804
:101160000E940A088881881619F0888281E001C0EF
:1011700080E0982A2196EA14FB0409F0ACCF292DCF
:1011800048E061ED72E089EC92E00E94D8080E948C
:101190009404892DDF91CF911F910F91FF90EF90D3
:1011A000DF90CF90BF90AF909F908F90089508955B
:1011B000FF920F931F93CF93DF938C01F62ED72FBF
:1011C000C42F222349F081E08093DC010E943A265B
:1011D0009093DB018093DA018091DC018823C1F0D8
:1011E0008091DA019091DB010E945226069780F0EF
:1011F000EF2DFD2FD8014C2F50E0CD01801B910B1E
:10120000841795071CF48D918193F7CF1092DC0120
:10121000DF91CF911F910F91FF9008958091E3018D
:1012200080FF0BC06091090185E0689FB001112427
:1012300075956795759567952BC081FF09C060917D
:10124000090185E0689FB00111247595679520C05C
:1012500082FF07C06091090185E0689FB0011124F9
:1012600017C09091E2019923D1F06091080196177F
:1012700088F72091090185E0289F90011124929F11
:10128000A001939F500D112470E0CA010E94332EDB
:101290006038710540F46115710519F406C065E008
:1012A00070E0862F08958FE7089581E0089580917A
:1012B000E30180FF08C06091050170E075956795B6
:1012C0007595679521C081FF06C06091050170E0AA
:1012D0007595679519C082FF04C06091050170E0A3
:1012E00010C09091E101992399F060910401961743
:1012F000A0F780910501899FC001112470E00E9430
:10130000332E6038710540F46115710519F406C07B
:1013100061E070E0862F08958FE7089581E00895D9
:10132000803F21F40E940E09819504C0813F29F479
:101330000E940E098093E7010895823F21F40E94E4
:101340000E09819504C0833F29F40E940E09809301
:10135000E6010895893F19F40E94570905C08A3FA4
:1013600031F40E94570981958093E80108958B3FDD
:1013700021F40E945709819504C08C3F29F40E94F2
:1013800057098093E90108959CE0980F953078F40F
:1013900021E030E0A90102C0440F551F9A95E2F701
:1013A000CA019091E501892B8093E50108958D3F55
:1013B00021F48091E30181600BC08E3F21F4809184
:1013C000E301826005C08F3F29F48091E3018460CE
:1013D0008093E3010895803F39F49091E70197FFEE
:1013E00035C01092E70159C0813F29F49091E7017F
:1013F0001916BCF32BC09091E601823F29F497FFA8
:1014000025C01092E60149C0833F19F41916CCF3A8
:101410001DC09091E801893F29F41916BCF410927F
:10142000E8013BC08A3F19F497FF10C0F8CF8B3F0B
:1014300039F49091E90197FF09C01092E9012DC09C
:101440008C3F21F49091E9011916BCF39CE0980FB0
:10145000953080F421E030E0A90102C0440F551F0F
:101460009A95E2F7CA0180959091E50189238093CE
:10147000E50113C08D3F21F48091E3018E7F0BC005
:101480008E3F21F48091E3018D7F05C08F3F29F4C9
:101490008091E3018B7F8093E3018091E6018111CC
:1014A00006C08091E701811102C01092E201809193
:1014B000E801811106C08091E901811102C01092FA
:1014C000E10108950E943A262091E601211104C00D
:1014D0002091E701222321F09093E0018093DF0126
:1014E0002091E801211104C02091E901222321F07B
:1014F0009093DE018093DD0184EE91E00C947C19E1
:10150000EF92FF920F931F93CF93DF9300D000D001
:1015100000D0CDB7DEB786E0E4EEF1E0DE01119653
:1015200001900D928A95E1F7E090E601F090E701D5
:101530000091E8011091E9011092E6011092E70193
:101540001092E8011092E901E11003C0FF2009F4B4
:101550005DC08091DF019091E0010E945226AC01B4
:101560009091E201992339F020910A0130E024178B
:10157000350758F04BC020910B018AE0289F90015D
:1015800011242417350718F041C09F3F19F09F5FC1
:101590009093E201EE2061F00E940E091E1414F0F7
:1015A0009FEF01C091E0989F902D11249093E60148
:1015B000FF2061F00E940E091F1414F09FEF01C07C
:1015C00091E0989F902D11249093E7013091E601CE
:1015D0003323E1F02091E7012223C1F045EB3403EE
:1015E000C0011124992319F09093E60103C081E012
:1015F0008093E60135EB2303C0011124992319F0F0
:101600009093E70103C081E08093E701011103C0DB
:10161000112309F45DC08091DD019091DE010E94EB
:101620005226AC019091E101992339F020910601F5
:1016300030E02417350758F04BC0209107018AE0AD
:10164000289F900111242417350718F041C09F3FAF
:1016500019F09F5F9093E101002361F00E94570908
:10166000101614F09FEF01C091E0989F902D112467
:101670009093E801112361F00E945709111614F0AC
:101680009FEF01C091E0989F902D11249093E90164
:101690003091E8013323E1F02091E9012223C1F0E8
:1016A00045EB3403C0011124992319F09093E8010C
:1016B00003C081E08093E80135EB2303C0011124CE
:1016C000992319F09093E90103C081E08093E90127
:1016D0008091E60181110BC08091E701811107C063
:1016E0008091E801811103C08091E90181110E947C
:1016F000620AEB82FC820D831E8386E0FE01319636
:10170000A4EEB1E001900D928A95E1F726960FB60E
:10171000F894DEBF0FBECDBFDF91CF911F910F9127
:10172000FF90EF900895E4EEF1E086E0DF011D9276
:101730008A95E9F71092E2011092E1011092E3011B
:101740000895EF92FF920F931F93CF93DF938B0136
:10175000682F11110AC0442329F0E82FF0E0EC555E
:10176000FB4F6491762F862F75C0212F30E0E82F34
:10177000F0E0442321F0EC55FB4FE491F0E046E02B
:10178000049FC0011124CFEFD0E0BE010E941F2EA4
:101790004BEA4603C001479F900D1124800F911D15
:1017A000800F911D982F990F890FAE01421B530B8B
:1017B0004E9FD0014F9FB00D5E9FB00D11249B2F07
:1017C000189FA0011124452F55278E01041B150BCE
:1017D0000E9FA0010F9F500D1E9F500D11247E01E2
:1017E000E81AF108E29E8001E39E100DF29E100DB2
:1017F0001124212F3327C21BD30BCE9F9001CF9FE3
:10180000300DDE9F300D112462307105A9F048F4CF
:101810006115710569F061307105C9F48B2F752F61
:101820000DC06430710581F058F06630710579F4AF
:101830007E2F8B2F932F0DC0832F7B2F9E2F09C0C0
:101840008E2F7B2F952F05C08E2F732F02C07E2FDA
:10185000852F692FDF91CF911F910F91FF90EF900E
:10186000089541E00E94A10B089508950E94310C53
:101870000895CF93DF93762FE901682F842F0E947C
:10188000360C798368838A83DF91CF9108958091A4
:10189000D902282F269530E02115310519F48170E1
:1018A000826005C02B32310524F0817084658093FD
:1018B000D902089588E090E00C94182FCF92DF921F
:1018C000EF92FF926B017C010E94470CB701A601C9
:1018D00088E090E0FF90EF90DF90CF900C94362F4F
:1018E0006091D9027091DA028091DB029091DC0262
:1018F0000C945E0CE9EDF2E083E0808311828FEFBF
:1019000082838383148260817181828193810C94AC
:101910005E0C8091D90280FF02C08695089580E018
:1019200008959091DD02933018F49F5F9093DD024B
:10193000882351F06091D9027091DA028091DB0224
:101940009091DC020C945E0C089581E00C94910C53
:101950009091DD02992319F091509093DD02882334
:1019600051F06091D9027091DA028091DB0290917E
:10197000DC020C945E0C089581E00C94A80C80911C
:10198000DD0208958093DD02662351F06091D90253
:101990007091DA028091DB029091DC020C945E0C73
:1019A000089560E00C94C20C8091DA020895809151
:1019B000DB0208958091DC02089570E00C94E51339
:1019C000609110018091D90280FF0AC080910F01BF
:1019D00023E0829FC001112482529D4F0C94DD0CA4
:1019E0008091110190911201891780F7E82FF0E0A2
:1019F0009F01220F331FE20FF31FE252FD4F1182AE
:101A0000108212828F5FF0CF9091D90290FF16C0A2
:101A10009091110120911201921770F4E92FF0E0DA
:101A2000DF01AA0FBB1FEA0FFB1FE252FD4F8183AC
:101A3000608342839F5FF0CF0C94E00C0895CF93B6
:101A4000DF9300D01F92CDB7DEB79091D90290FFFF
:101A50000AC09E012F5F3F4F0E94390C4B81698164
:101A60008A810E94040D0F900F900F90DF91CF910B
:101A70000895CF93DF93EC01EC81F0E0E156FC4F49
:101A80004491E9EDF2E0628181810E941F0D8C8119
:101A90008F5F8C83DF91CF910895CF93DF93EC011B
:101AA000E9EDF2E0438162818C810E941F0D8C81FF
:101AB0008F5F8C83DF91CF9108950F931F93CF9306
:101AC000DF9300D01F92CDB7DEB78C018091EA0181
:101AD00081110AC09E012F5F3F4F4FEF6FEF0E94B1
:101AE000390C8A818093EA01F8018481813051F0B8
:101AF00028F0823061F44091EA010AC08091EA0145
:101B000040E007C06091EA0140E080E003C040E0AF
:101B100080E060E00E94040DF801848190E001966D
:101B200063E070E00E94332E84830F900F900F903B
:101B3000DF91CF911F910F910895AF92BF92CF92F5
:101B4000DF92EF92FF920F931F93CF93DF9300D01A
:101B50001F92CDB7DEB7182FF62E042FE22E9091EC
:101B6000D90290FF6DC0E92FE695AE2FB0E0A459E1
:101B7000BE4F8C9180932D029E7F923061F49E0126
:101B80002F5F3F4F812F0E94390C4B8169818A81E1
:101B90000E94040D43C0823019F40091DC023EC063
:101BA000863019F41091DA0239C08930D9F38931BD
:101BB000A9F5E9518E2F8170D82EE695F0E0E15617
:101BC000FB4FA590B490C12CBB2460911301C616A5
:101BD00018F52C2D30E0A29EC001A39E900DB29E60
:101BE000900D112470E00E941F2E812FD11002C091
:101BF000860F01C0861B90911101290F311DA9018B
:101C0000440F551F240F351F22523D4F402F6F2D7B
:101C10000E94390CC394D9CF0E94E00C1093DA02D1
:101C2000F092DB020093DC02EE2051F06091D902C9
:101C30007091DA028091DB029091DC020E945E0CCE
:101C40000F900F900F90DF91CF911F910F91FF9008
:101C5000EF90DF90CF90BF90AF900895E9EDF2E064
:101C60009181282F4381628180E1890F0C949D0D21
:101C700081E00C942E0EE9EDF2E09181282F438152
:101C8000628180EF890F0C949D0D81E00C943B0ED6
:101C9000E9EDF2E0628120E1620F08F46FEF282F96
:101CA000438181810C949D0D81E00C94480EE9EDF7
:101CB000F2E0628120E1621B08F460E0282F43819A
:101CC00081810C949D0D81E00C94570EE9EDF2E0BA
:101CD000438120E1420F08F44FEF282F6281818178
:101CE0000C949D0D81E00C94660EE9EDF2E04381C9
:101CF00020E1421B08F440E0282F628181810C948E
:101D00009D0D81E00C94750E20E00C949D0DFF92CA
:101D10000F931F93CF93DF93EC01F12C0FEF10E0A3
:101D200060911301F616F0F4809111012F2D30E02F
:101D3000280F311DC901880F991F280F391F225202
:101D40003D4F70E0C8010E94332E962F8C81409148
:101D5000DC026091DB02F99E800D11240E94390C97
:101D6000F394DECF0E94E00C9A818C8190FF02C038
:101D70008F5F01C081508C83DF91CF911F910F91B4
:101D8000FF900895AF92BF92CF92DF92EF92FF92B1
:101D90000F931F93CF93DF93FC01828180FF02C0DA
:101DA0000FEF01C001E010E04BE0A42E8091130181
:101DB000181708F043C080911101C12ED12CE60103
:101DC000C80FD11DCE01880F991FC80FD91FC2524D
:101DD000DD4F198218821A8234E0E32EF12CB12CE7
:101DE0008091EC018B0D8C302CF06A2D0E94112E0D
:101DF000892F05C087FF03C090911301890F082E1A
:101E0000000C990BC816D90691F48091DC028E9DC6
:101E1000A0018F9D500D11245595479555954795D7
:101E20009E016091DB028091DA020E94390CB00EB3
:101E3000F1E0EF1AF108A1F61F5FB8CF0E94E00CA5
:101E40008091EC01013031F4811102C080911301C5
:101E5000815007C090E001966091130170E00E94EC
:101E6000332E8093EC01DF91CF911F910F91FF9062
:101E7000EF90DF90CF90BF90AF900895CF93809177
:101E8000110190911201891770F4E82FF0E09F0181
:101E9000220F331FE20FF31FE252FD4F1182108217
:101EA00012828F5FF0CFC0E060911301C617C0F5BA
:101EB000EC2FF0E070E0CF010E94332E2091110151
:101EC000820F2091EB01022E000C330B90E0E21701
:101ED000F307CCF020910E01022E000C330B2E17CD
:101EE0003F078CF09C01220F331F820F931F9C0130
:101EF00022523D4F4091DC026091DB028091DA0278
:101F00000E94390C0BC0FC01EE0FFF1F8E0F9F1FAC
:101F1000FC01E252FD4F118210821282CF5FC4CFCA
:101F20000E94E00C20910D018091EB01820F8093C3
:101F3000EB0190910E01920F90930E0119165CF433
:101F4000082E000C990B4091130150E041505109AB
:101F5000841795071CF0219520930D01CF910895CA
:101F60008F929F92AF92BF92CF92DF92EF92FF92A9
:101F70000F931F93CF93DF938C01FC014481C42FF7
:101F8000D0E09E01DE010E947E2E9B01AC010E94EA
:101F9000942E6B017C01E0E2F0E0EC1BFD0BA5E56B
:101FA000B0E09B01AC010E94942E4B015C019F01AB
:101FB000DF010E94762E9B01AC010E949F2E9B01A7
:101FC000AC012C0D3D1D4E1D5F1DC501B4010E94CD
:101FD000472EC22FD22F2A3228F4F3E02F9F9001F0
:101FE00011240DC025E530E02C1B3109C901880FF3
:101FF000991F280F391F37FF02C02F5F3F4F3595BC
:102000002795C22FC095F12C85E5E82EED1A809119
:102010001301F816C8F4F1FC02C08E2D01C08D2FFB
:10202000909111012F2D30E0290F311DA901440F8E
:10203000551F240F351F22523D4F4C2F6091DB025C
:102040000E94390CF394E3CF0E94E00CF8018481E4
:10205000811102C091E003C0803219F49FEF909388
:102060000C0190910C01890FF8018483DF91CF91CD
:102070001F910F91FF90EF90DF90CF90BF90AF90A6
:102080009F908F9008950F931F93CF93DF93EC0150
:1020900000E010E080911301282F30E002171307B1
:1020A00024F5909111019801290F311DA901440FC8
:1020B000551F240F351F22523D4F869590E04C81CD
:1020C000081719071CF4442331F002C0411103C062
:1020D0004091DC0201C040E06091DB028091DA02B5
:1020E0000E94390C0F5F1F4FD5CF0E94E00C8C81EE
:1020F00090E00196817099278C83DF91CF911F9199
:102100000F9108957F928F929F92AF92BF92CF923C
:10211000DF92EF92FF920F931F93CF93DF93FC0117
:102120008280748081E08483EFE9F3E09490EEE1B3
:10213000F4E0E491A12CF5E0BF2ECC24CA94D12C7C
:10214000E9190E2F10E080911301A81608F0A2C023
:10215000EA2CF12C22E0281568F0BE9CF001BF9C0F
:10216000F00D1124E351FE4F8091DA0280838091BB
:10217000DB02818371100AC0BE9CF001BF9CF00D90
:102180001124E351FE4F138212826AC0BE9CE0010B
:10219000BF9CD00D1124C351DE4F8B818823F9F0F1
:1021A00081508B832FEF829FC00111246C8170E0DE
:1021B0000E941F2EFB01FF27E156FC4F8491E82F60
:1021C000E9192FEFE29FC0011124B8010E941F2ED0
:1021D0008091DC02689FB00111247A8341C00E9483
:1021E000F32E2091DC022695215830E0A901440FFE
:1021F000551F322F2227240F351F232F33278217F5
:10220000930774F582E0881588F40E94F32EB601D6
:102210000E94332E88830E94F32E2091DB022695A4
:10222000622F70E00E94332E280F2983BE9CF0019C
:10223000BF9CF00D1124E351FE4F12828091DC020D
:10224000843120F0893C18F088EC01C084E1BE9C08
:10225000F001BF9CF00D1124E351FE4F8483838372
:10226000809111019701280F311DC901880F991F15
:10227000280F391F22523D4FBE9CF001BF9CF00D2C
:102280001124E351FE4F4281618180810E94390C0B
:10229000A39459CFDF91CF911F910F91FF90EF90B1
:1022A000DF90CF90BF90AF909F908F907F900C94D5
:1022B000E00CE9EDF2E080818E7F808360817181A6
:1022C000828193810E945E0C10922E022FEF80E794
:1022D00092E0215080409040E1F700C000000C9453
:1022E000E00CE9EDF2E080818E7F808310922E0277
:1022F0002FEF80E792E0215080409040E1F700C04E
:1023000000000C94E00C10922E0280912B0281119F
:102310000AC081E080932B028091D9028170809362
:102320002A020C94711108956091D902669570E0AB
:102330004BE050E084E191E00E94032F892B19F4D7
:1023400081E080932E020E943A269093250280938A
:10235000240208959091D90290FF35C091708111A7
:1023600002C0926006C08B3210F0946502C0880FE4
:10237000982B9093D902662351F06091D902709105
:10238000DA028091DB029091DC020E945E0C609187
:10239000D902669570E04BE050E084E191E00E9444
:1023A000032F892B19F010922E0202C00E94941163
:1023B00081E0809327024091DC026091DB028091F2
:1023C000DA020C94840E0895682F9091D9029695A4
:1023D00081E0890F8B3208F081E00C94AA1181E032
:1023E0000C94E411682F9091D90296958FEF890F84
:1023F00009F48AE20C94AA1181E00C94F21161E0D4
:102400000C94AA11E9EDF2E08081816080838695C9
:102410000C94FF118091D90280FD0C9459110C94F9
:10242000021260E00C94AA1180912C0281112EC03E
:102430000E94B324811104C00E945B250E947A0C83
:102440000E945A0C6093D9027093DA028093DB02E7
:102450009093DC026E7F61F40E947A0C0E945A0C09
:102460006093D9027093DA028093DB029093DC02CE
:102470000E94470C10922E028091D90280FF03C067
:1024800086950E94111281E080932C020895E9ED57
:10249000F2E080818160808386950C941112109205
:1024A0002B0280912A0281110E9447120C949411F0
:1024B0000F931F93CF93DF9380912E02882309F40B
:1024C00095C080912D02E091D902E695E81BE0933A
:1024D0002602823049F4F0E0E556FC4FE491CE2F1D
:1024E000D0E009E31DE059C0863049F4F0E0E85639
:1024F000FC4FE491CE2FD0E00DE41DE04EC08930BA
:1025000051F4E695F0E0EB56FC4FE491CE2FD0E08D
:1025100007E81EE042C08F3051F4E695F0E0EE5639
:10252000FC4FE491CE2FD0E002EC1EE036C08531A6
:1025300049F4F0E0E157FC4FE491CE2FD0E00EE3F8
:102540001FE02BC08831D9F0833239F4EDE8F3E095
:10255000C591D4910DE51DE020C08432A9F08532EB
:10256000C1F48E2F63E00E94052EE92FF0E0E657BC
:10257000FC4FE491CE2FD0E002E810E10EC0C8E29B
:10258000D0E000EB1FE009C0C4EFD1E003E410E1AC
:1025900004C0C0EDD7E005E31CE08091270288234A
:1025A00061F0109227020E943A26909325028093B0
:1025B000240210922902109228020E943A26E091E9
:1025C0002402F09125028E1B9F0B8F3F9F4770F4D2
:1025D000EC0FFD1FF0932502E093240284E292E0C9
:1025E000F801DF91CF911F910F910994DF91CF9165
:1025F0001F910F910895882311F0FA0101C0FB018A
:102600000994CF93DF93C82FD62F0E94890C8C1783
:1026100040F00E94890C8D1720F4DF91CF910C942B
:10262000EF118C2FDF91CF910C94FF111F93CF935B
:10263000DF93FB011281112309F4C1C0EC010E9458
:10264000F9238272CC3CFCE5DF0709F49BC008F05B
:1026500043C0C63CECE5DE0709F480C0D8F4C33CB7
:102660009CE5D90709F46DC038F4C23CDC4509F09B
:10267000A7C00E940A126BC0C43C9CE5D90709F4AC
:1026800068C0C53CDC4509F09BC045E45EE068E3FA
:102690007EE05BC0C93CFCE5DF0709F469C070F46B
:1026A000C73CECE5DE0709F45EC0C83CDC4509F038
:1026B00087C044E55EE063E67EE047C0CA3C9CE537
:1026C000D90709F45AC0CB3CDC4509F079C04CEB82
:1026D0005CE065EA7CE039C0C13DFCE5DF0709F458
:1026E0005EC098F4CE3C9CE5D90709F452C008F4CA
:1026F0004EC0CF3CFCE5DF0709F44EC0C03DDC45D1
:1027000009F05EC06EE089E057C0C43D9CE5D90782
:1027100009F44BC058F4C23DFCE5DF0709F442C0A0
:10272000C33DDC4509F04CC088E143C0C53D9CE594
:10273000D907F1F1CD35DD4509F042C06AE285E205
:102740003BC04CEF51E16FEE71E10E94FB1210E0D3
:1027500037C04FEE51E16CEF71E1F7CF48E35EE037
:1027600065E47EE0F2CF43E65EE064E57EE0EDCF37
:1027700041E85EE062E77EE0E8CF42E75EE061E8E4
:102780007EE0E3CF45EA5CE06CEB7CE0DECF81E00D
:1027900010C065E082E010C068E086E00DC064E132
:1027A0008FE00AC067E185E107C062E289E104C009
:1027B00083E20E94FF11CBCF0E940113C8CF11E02A
:1027C000812FDF91CF911F910895539A2BB1277FCD
:1027D0003BB138604FB7F894FC01CB01880F991FCB
:1027E000680F791F6E0F7F1FE617F70789F0819139
:1027F00098E03BB9000000C087FF2BB9880F0000AC
:1028000000C000C000C02BB900C09A9591F7ECCF72
:102810004FBF8FE594E00197F1F700C000000895E5
:1028200083E290E00E94102F813281F484E290E0F4
:102830000E94102F883051F485E290E00E94102F02
:1028400091E0883209F090E0892F01C080E081702A
:102850000895CF93C82F811102C06FEF01C061E2CC
:1028600083E290E00E94242FC11102C06FEF01C0EB
:1028700068E084E290E00E94242FC11102C06FEF53
:1028800001C068E285E290E0CF910C94242F80E0B3
:102890000E9429140C94AD24089586E290E00E94D1
:1028A000102F682F70E080E090E0089586E290E0BD
:1028B0000C94242F0E944C140E94101481110CC0FF
:1028C00060E070E0CB010E9456140E94F8150E944F
:1028D000D71681E00C9429140895CF93FB01C2818F
:1028E000CC23E9F09C0122513F452031310520F4F1
:1028F00082510E94E7160CC08031FFE59F0751F41A
:1029000081E00E94622243E062E081E00E947E0456
:10291000C0E018C081319F45A9F482E0F2CF803138
:10292000EFE59E0711F481E004C081319F4549F431
:1029300082E00E94832243E062E081E00E947E0404
:1029400001C0C1E08C2FCF9108952FEFFC012083AF
:102950000895CF93DF93EC018881813889F028F4C2
:102960008038A1F40E94DA0C10C0823861F08338FC
:1029700069F40E94D40C89830E94D70C8A8306C014
:102980000E94890C02C00E94BF0C8983DF91CF9105
:102990000895CF93DF93EC0188818138B1F058F42A
:1029A000803851F5D9810E94D70CC82F0E94D40CD1
:1029B0004D2F6C2F1DC08238B1F08338E9F40E948E
:1029C000DA0C482F6A81898113C089810E94111213
:1029D0008981811104C0DF91CF910C947111DF9135
:1029E000CF910C9447128981DF91CF910C94D10C37
:1029F000DF91CF910C94840EDF91CF910895EF92E7
:102A0000FF920F931F93CF93DF93EC01062F019654
:102A1000E8814E2F50E0FA013197E331F10508F0DB
:102A20009AC0EA5AFF4F0C94692E198289E056C069
:102A30008981823039F0833061F0813029F50E943C
:102A4000462602C00E944D149A838B837C836D833B
:102A500084C07E0182E0E80EF11C10E0812F0E940C
:102A6000FD07F70181937F011F5F1830B9F775C02B
:102A70008981823049F46A817B818C819D810E94A9
:102A80006F2E0E94561469C0602FCE010E94A514BB
:102A900064C04B816A8189810E94CA159C838D83A1
:102AA0005CC02C813D813227232732274B816A81EC
:102AB00089810E94E31551C00E94F8154EC00E9402
:102AC000C9144BC00E94A91448C00E94700C45C094
:102AD0000E948A1624C00E948C1699838A833DC066
:102AE0006B8170E089819A81AE014C5F5F4F9827BE
:102AF000892798270E948F1630C06B8170E08981EA
:102B00009A81AE014C5F5F4F9827892798270E94D2
:102B1000B41623C00E94D71620C00E94B71589831F
:102B20001CC06B8170E089819A81AE014C5F5F4F60
:102B30009827892798270E9437160FC06B8170E06D
:102B400089819A81AE014C5F5F4F9827892798272A
:102B50000E945B1602C08FEF8883602FCE01DF9149
:102B6000CF911F910F91FF90EF900C94252784E057
:102B7000089550E0440F551F2EE0629F400D511DF7
:102B800011249A0160E7869F200D311D1124C9018F
:102B9000879608950F931F93CF93DF930E94B915E3
:102BA0008C010E94102FC82FD0E0DC2FCC27C80149
:102BB00001960E94102F9E01282BC901DF91CF9111
:102BC0001F910F9108950F931F93CF93DF93122FAF
:102BD000032F0E94B915EC01602F0E94242F612F52
:102BE000CE010196DF91CF911F910F910C94242F6C
:102BF000AF92BF92CF92DF92EF92FF920F931F930B
:102C0000CF93DF93A12CE12CF12CB12C00E010E04C
:102C1000C0E0D0E06701C00ED11EFE01EE0FFF1F25
:102C2000EC0DFD1DE65EFE4F259134914C2F6B2D72
:102C30008A2D0E94E3152196C730D10571F7025FF6
:102C40001F4FB39488E0B812E3CF80E7E80EF11C81
:102C5000A39484E0A812D9CFDF91CF911F910F9157
:102C6000FF90EF90DF90CF90BF90AF900895EF92DC
:102C7000FF920F931F93CF93DF93EA017A01E60E41
:102C8000F71E8C01C8018796CE15DF0569F0003C60
:102C900021E0120720F40E94102F888301C01882BF
:102CA00021960F5F1F4FEECFDF91CF911F910F91B4
:102CB000FF90EF900895EF92FF920F931F93CF93A1
:102CC000DF93EA017A01E60EF71E8C01C8018796B0
:102CD000CE15DF0559F0003C21E0120718F4688199
:102CE0000E94242F21960F5F1F4FF0CFDF91CF91CD
:102CF0001F910F91FF90EF900895462F843038F484
:102D0000783028F4673018F4672F0C94CA1580E0E7
:102D100090E0089580E1089589E192E00895EF92AE
:102D2000FF920F931F93CF93DF93EA017A01E60E90
:102D3000F71E8C01C80189519E4FCE15DF0569F041
:102D4000093122E0120720F40E94102F888301C06D
:102D5000188221960F5F1F4FEDCFDF91CF911F910A
:102D60000F91FF90EF900895EF92FF920F931F93B2
:102D7000CF93DF93EA017A01E60EF71E8C01C801BA
:102D800089519E4FCE15DF0559F0093122E0120717
:102D900018F468810E94242F21960F5F1F4FEFCFF8
:102DA000DF91CF911F910F91FF90EF900895CF93F6
:102DB000DF93C7EED1E060E0CE010E94242F219680
:102DC000C11584E0D807B9F7DF91CF910895DF925C
:102DD000EF92FF920F931F93CF93DF9300D000D019
:102DE000CDB7DEB7F82E8FE08F15E8F18FEF93E0C7
:102DF0000E94102F811137C007EE11E0FF2069F00B
:102E0000011584E0180779F1C8010E94102F811183
:102E100001C0FA940F5F1F4FF1CF19821A821B82F3
:102E20001C82DD24D39478018FEFE81AF80AC801D8
:102E30000E94102F89831A828823A9F09FEF980F90
:102E4000933058F48A83D9820E5F1F4FC7010E94C6
:102E5000102F8B83882339F07801CE0101960E94D0
:102E6000D5058701E0CF0F900F900F900F90DF9165
:102E7000CF911F910F91FF90EF90DF9008950F93E6
:102E80001F93CF93DF93C42FD22FFC01828188231D
:102E9000C9F0409331020E943A2690933002809309
:102EA0002F0280E28C0F883008F057C0C77081E095
:102EB00001C0880FCA95EAF7DF91CF911F910F915A
:102EC0000C94051C80913102481330C080912F0270
:102ED000909130020E945226883C910538F510E20C
:102EE0001D0FCD17B9F080E28C0F883040F4C77009
:102EF00081E001C0880FCA95EAF70E940C1C1830C7
:102F000028F581E09D2F977001C0880F9A95EAF708
:102F10000E94051C802F0E94FC1B1830F0F4D77013
:102F200081E001C0880FDA95EAF70AC080E28C0FD1
:102F3000883098F4C77081E001C0880FCA95EAF71D
:102F4000DF91CF911F910F910C940C1C802FDF917A
:102F5000CF911F910F910C94FC1BDF91CF911F918A
:102F60000F9108950F939C01CB01233F4CE534074B
:102F700031F188F4283DFCE53F07D9F0293D4CE5C7
:102F8000340779F1273D3C45A9F506E221EE41EEF3
:102F900067ED7CE52BC0253FFCE53F07E1F0A8F09D
:102FA000263F3C4539F507E225EE46EE66EF7CE527
:102FB0001DC007E225EE45EE68ED7CE517C006E290
:102FC00021EE40EE63EF7CE511C007E225EE44EE12
:102FD00064EF7CE50BC006E221EE42EE65EF7CE596
:102FE00005C008E221E045EE69ED7CE50E943F174F
:102FF00080E008C0FC018281882319F01092310220
:1030000001C081E00F910895CF93DF93EC01FB01A4
:103010008281882309F41FC1C230FCE5DF0708F470
:103020001BC1C6319CE5D90738F09E012A5F3C459B
:103030002930310508F010C10E94C6249093C802BF
:103040008093C702C031ECE5DE0709F4C3C008F085
:1030500041C0C8308CE5D80709F49AC0F0F4C430F8
:10306000ECE5DE0709F487C068F4C2308CE5D807C8
:1030700009F477C0C330DC4509F0E3C08091C70292
:10308000826076C0C630ECE5DE0709F46EC008F059
:103090007BC08091C70288606BC0CC308CE5D807BC
:1030A00009F485C068F4CA30ECE5DE0709F474C0A1
:1030B00008F079C00E94891E8091C702806858C0BC
:1030C000CE308CE5D80709F476C008F07FC0809137
:1030D000C7028BC0CB3FECE5DE0709F44FC018F503
:1030E000C3318CE5D80709F47DC078F4C131ECE533
:1030F000DE0709F473C0C231DC4509F0A2C00E94AA
:10310000891E8091C7028F7733C0C5318CE5D807FF
:1031100009F472C008F486C0CA3FDC4509F091C0CA
:103120008091C8023EC0CF3FFCE5DF0709F45FC0D5
:1031300058F4CD3F9CE5D90709F444C008F43FC0DA
:103140008091C80282602DC0C130FDE5DF0709F41F
:1031500075C008F45DC0C230DD4509F072C080E082
:103160006EC08091C702816003C08091C7028061F8
:103170008093C70266C08091C70211C08091C802C7
:1031800082608093C8025DC08091C7028062F0CFE8
:103190008091C7028064ECCF8091C7028860846010
:1031A000E7CF8160EECF8091C7028E7FE1CF809123
:1031B000C7028D7FDDCF8091C702877FD9CF8091F5
:1031C000C80218C08091C8028D7FDBCF8091C702F2
:1031D0008F7ECECF8091C7028F7DCACF8091C702EC
:1031E0008F7BC6CF8091C702877F8B7FC1CF8091B5
:1031F000C8028D7F8E7FC5CF8091C70282FB2227B8
:1032000020F991E0922790FB82F990FB83F9B0CFEF
:103210008091C802982F909591708E7F892B90FB9A
:1032200081F9AFCF0E94891E8091C70287FB2227B8
:1032300020F991E0922790FB87F99ACF81E00E94D4
:103240005D258091C7029091C8020E94D7240E94F8
:10325000891E80E001C081E0DF91CF910895CF9376
:10326000DF9386319C4541F5EB010E94F923982FAD
:103270008A8120911F0130912001882379F09A7A68
:1032800081E009F480E080933202911102C069E28A
:1032900001C065E3C9010E94A4250AC080913202E1
:1032A000811102C069E201C065E3C9010E94A6253F
:1032B0000E943E2480E001C081E0DF91CF9108951B
:1032C00090933802809337020895E0913702F0918D
:1032D0003802309721F00190F081E02D099480E0D0
:1032E0000895E0913702F0913802309721F0028082
:1032F000F381E02D09940895E0913702F0913802AE
:10330000309739F022E0DC012C930480F581E02D28
:103310000994089520913502309136022817390713
:1033200071F09093360280933502E0913702F0916C
:103330003802309721F00680F781E02D0994089536
:1033400020913302309134022817390771F090939D
:10335000340280933302E0913702F09138023097C3
:1033600021F00084F185E02D099408950E944626FD
:1033700060934602709347028093480290934902FB
:1033800060934202709343028093440290934502FB
:10339000089585B7806885BF85B7806885BF089523
:1033A00081E008950C94D01908950C94D4190C94CC
:1033B000D4190C94D7190C94D4190C94DB190C94CF
:1033C000D4190E94C9198BEA94E20E9498260E949F
:1033D000DF190C94DD190E94D5190C94D4190E94A0
:1033E00031260E942C080E945A140E9414120C9438
:1033F000D9199F92AF92BF92CF92DF92EF92FF9234
:103400000F931F93CF93DF93CDB7DEB72A970FB6F5
:10341000F894DEBF0FBECDBF0E94520881110E94FA
:10342000B6198AE3A82E82E0B82E00E010E0902EB4
:10343000802F0E94FD07D82EF501C1905F01C8269C
:10344000B1F40F5F1F4F0830110589F78FEF8983A3
:103450008A831B820E943A268160782F9D838C8309
:1034600049815A816B818D810E94991A2FC0809168
:10347000BB0281FD0E940308E12CFF24F3948C2DF4
:103480008F21F1F00E94D219882399F0EE829F8259
:10349000DF2081E009F480E088870E943A2681607D
:1034A000782F9A8789874E815F8168858A850E94F7
:1034B000991AF801E65CFD4F8081F826F08206C07B
:1034C000E394FF0CF7E0EF12DACFBBCF0E94581263
:1034D0000E94800A0E946519909139028917B9F0FB
:1034E0000E946519809339022A960FB6F894DEBFC0
:1034F0000FBECDBFDF91CF911F910F91FF90EF9045
:10350000DF90CF90BF90AF909F900C94DF052A96EC
:103510000FB6F894DEBF0FBECDBFDF91CF911F91E4
:103520000F91FF90EF90DF90CF90BF90AF909F9062
:103530000895DF92EF92FF920F931F93CF93DF9343
:10354000CDB7DEB72B970FB6F894DEBF0FBECDBF59
:10355000F42E052F162FE72ED82E61110E94192464
:10356000FE01319686E0DF011D928A95E9F77E2DF6
:103570004F2D502F612F8D2D9E810E9442212B9621
:103580000FB6F894DEBF0FBECDBFDF91CF911F9174
:103590000F91FF90EF90DF900895FC018081918161
:1035A0000E9499230895CF93882309F4A4C0C82FBB
:1035B0008238C1F40E94651981FD9DC069E3809144
:1035C0001F01909120010E94A4250E943E242FEF0C
:1035D00081EE94E0215080409040E1F700C000006F
:1035E00069E319C0833801F50E94651980FD83C025
:1035F00063E580911F01909120010E94A4250E9403
:103600003E242FEF81EE94E0215080409040E1F77E
:1036100000C0000063E580911F01909120010E948D
:10362000A625CF910C943E248438C1F40E946519DC
:1036300082FD61C067E480911F01909120010E948A
:10364000A4250E943E242FEF81EE94E0215080407B
:103650009040E1F700C0000067E4DDCF8CEF8C0FF5
:10366000813AD0F46C2F80911F01909120010E942B
:103670006E25882349F06C2F80911F0190912001C5
:103680000E94A6250E943E246C2F80911F019091DC
:1036900020010E94A425C5CF80E28C0F883048F419
:1036A000C77081E001C0880FCA95EAF70E94FC2329
:1036B000B8CFEBE5EC0FE33040F4F0E0EB53FE4F16
:1036C000808190E0CF910C948A19E8E5EC0FE73106
:1036D00050F4F0E0EE0FFF1FE956FE4F808191811C
:1036E000CF910C94A019C03F30F08C2F0E9490090C
:1036F000CF910C94620ACF910895882309F464C095
:10370000823879F40E94651981FF5EC069E3809177
:103710001F01909120010E94A4250E943E2469E38C
:1037200010C08338B1F40E94651980FF4DC063E575
:1037300080911F01909120010E94A4250E943E24A7
:1037400063E580911F01909120010E94A6250C94B1
:103750003E24843879F40E94651982FF35C067E4FD
:1037600080911F01909120010E94A4250E943E2477
:1037700067E4E7CF9CEF980F913A10F4682FE1CF00
:1037800090E2980F983050F4877091E001C0990F43
:103790008A95EAF7892F0E940224D9CF9BE5980FDA
:1037A000933020F480E090E00C948A1998E5980F0B
:1037B000973120F480E090E00C94A019803F20F035
:1037C0000E94EB090C94620A08951F93CF93DF9334
:1037D000182FEB010E94D31A209741F08FE99FE048
:1037E0000197F1F700C000002197F6CF812FDF91FC
:1037F000CF911F910C947D1B893319F060E070E02C
:1038000002C060E570E00C94E51B882321F00E9463
:10381000FC230C943E240895882321F00E94022466
:103820000C943E240895CF92DF92EF92FF920F9373
:103830001F93CF93DF937C01D62FC72FFC011281FA
:10384000058102950F700E94D123882399F01123DE
:1038500089F08C2F807F803421F080E28D0F8830BA
:1038600048F082E00E948E240E94D12391E0D82E5D
:10387000D92601C0D12CCC2EC2948FE0C8228C2D29
:1038800090E08C30910508F0B6C1FC01E759FF4F7C
:103890000C94692E8C2F807FCF70882311F0C295F5
:1038A000C07F112399F0CC2309F491C180E28D0FE0
:1038B000883010F0D11104C08C2F0E94FC2303C06B
:1038C0008C2F0E940C240E943E2481C18D2F0E94C7
:1038D0007D1BCC2309F48FC180E28D0F883010F05E
:1038E000D11104C08C2F0E94022403C08C2F0E948F
:1038F00012240E943E247FC18C2F807FCF708032A3
:1039000011F0C295C07FDD2319F0D130C9F022C07B
:10391000112371F0002341F0013031F40E941F2483
:103920008C2B0E94272467C10E941F248C2B1DC052
:10393000002319F0013009F45EC10E94342425C02F
:10394000112321F0063008F056C10EC0053008F0F2
:1039500052C11BC0112361F0002331F0F7018581B2
:1039600080FF35C18F7085838C2F0E94051C43C159
:10397000002359F0D93309F03BC1FFEF07EE13E004
:10398000F15000401040E1F731C18C2F0E940C1C17
:1039900032C18C2F86958695837019F0813061F045
:1039A0002AC1112321F08D2F9C2F937002C080E03B
:1039B00090E00E948A1927C1112321F08D2F9C2F9E
:1039C000937002C080E090E00E94A0191CC18D2F6E
:1039D000112319F00E94900902C00E94EB090E9475
:1039E000620A11C18C2F837009F047C0111107C101
:1039F0002D2F229526952770220F220F6D2F6F7085
:103A0000862F90E0A0E0B0E0022E04C0880F991F3E
:103A1000AA1FBB1F0A94D2F7D4FF10C04FE050E09A
:103A200060E070E004C0440F551F661F771F2A95A1
:103A3000D2F7409550956095709503C040E050E0F6
:103A4000BA01C695C695C3708A019B01082B192B34
:103A50002A2B3B2BC901B801C23049F058F4C130C0
:103A600019F00E941622CBC00E940422C8C00E94F6
:103A70002822C5C00E940222C2C0112319F08C2F37
:103A8000817001C08695882309F4B9C02D2F229535
:103A900026952770220F220F6D2F6F70862F90E0D2
:103AA000A0E0B0E0022E04C0880F991FAA1FBB1F20
:103AB0000A94D2F7D4FF10C04FE050E060E070E00D
:103AC00004C0440F551F661F771F2A95D2F74095F3
:103AD00050956095709503C040E050E0BA01C695DE
:103AE000C695C3708A019B01082B192B2A2B3B2BEF
:103AF000C901B801C23049F058F4C13019F00E9430
:103B0000DB227DC00E94C9227AC00E94ED2277C0CC
:103B10000E943C2274C0CF70112339F08C2F0E9478
:103B200062228D2F0E94051C6AC08D2F0E940C1CE2
:103B30008C2F0E94832263C0D23F01F128F4D03F32
:103B400041F0D13FA1F03FC0D33FF9F0D43F39F16C
:103B50003AC0112341F0053008F04DC08C2F8F7111
:103B60000E94A82248C0063008F045C0F7CF1123B4
:103B700039F08C2F8F710E9462223DC01123C9F34E
:103B80008C2F8F710E94832236C0112329F08C2F35
:103B90008F710E944D222FC00E9448222CC01123F9
:103BA00049F0CF718C2F0E94622263E08C2F0E941B
:103BB000732421C081E00E948E240230E0F082E074
:103BC0000E948E2418C0112331F0002391F28D2F12
:103BD0000E94D31A10C0002399F2D93349F41FEF81
:103BE00027EE33E0115020403040E1F700C00000E4
:103BF0008D2F0E947D1B88EF8C0D843020F40E9455
:103C000065190E94DF05DD20C9F00E94CD2380FDEB
:103C100015C0F70112820E94C7230E946222C701C9
:103C20000E943F1E0E94C723DF91CF911F910F91E9
:103C3000FF90EF90DF90CF900C948322DF91CF9193
:103C40001F910F91FF90EF90DF90CF9008950F9309
:103C50001F93CF93DF93EC01688179818A810E9461
:103C6000A4238C010E94FF220E94F021B801CE0102
:103C70000E94131CDF91CF911F910F910895CF9354
:103C8000DF93EC01988189812B813C81232B31F0DA
:103C90008F3F31F481E09F3F19F403C081E001C000
:103CA00080E080FD19C0CE010E94A60481110CC0E5
:103CB0000E94D123882381F08A81882369F082E0E1
:103CC000DF91CF910C948E24CE010E94271ECE014D
:103CD000DF91CF910C941F04DF91CF91089580E084
:103CE00090E00E948A1980E090E00E94A0190E9452
:103CF00019240E941C240E943E240E94930B0C94C1
:103D0000620A80911F01909120010E94A8250C94C5
:103D10006F1E0E9409240C94811EE92FE295EF701A
:103D20004E2F50E0FA013297EE30F105B0F4EB5827
:103D3000FF4F0C94692E803F91F018F4883E68F490
:103D40000EC0843F51F40BC0883E48F0813F29F4F7
:103D500006C093FB882780F9089580E0089581E0EC
:103D600008950E9499230E948D1E0895CF93DF939A
:103D700000D000D01F92CDB7DEB70F900F900F90FC
:103D80000F900F90DF91CF910895CF93DF9300D0E4
:103D900000D000D0CDB7DEB726960FB6F894DEBFC0
:103DA0000FBECDBFDF91CF9108951F93CF93DF93C7
:103DB000C0914B0216E080914C02C81799F0D0E0F8
:103DC0001C9FF0011D9FF00D1124E35BFD4F40810E
:103DD000518162817381848195810E94C51E2196E3
:103DE000C770E9CFDF91CF911F91089540917D0277
:103DF00050917E0260917F027091800280918102D9
:103E0000909182020C94C51E0F931F93CF93DF9362
:103E10008091820282958F7009F05DC080917F024F
:103E2000882309F458C080914B0210914C02609194
:103E30007D0270917E02C0918002D091810291E05A
:103E40006F3F09F090E0292F06E0811709F443C085
:103E5000209721F07F3F21F030E003C031E001C026
:103E6000322F90E030FD34C0089FF001099FF00D23
:103E70001124DF01A35BBD4F11963C9111973713BD
:103E800027C03C91361324C012963C9112973111F1
:103E90001FC013964D915C9114974C1B5D0B483CD1
:103EA0005105B0F4809182028F708061809382020C
:103EB000EE5AFD4F80818F70806180838DE792E0A4
:103EC0000E943F1EDF91CF911F910F910C94D51E40
:103ED00001968770BACFDF91CF911F910F9108950E
:103EE0009F92AF92BF92CF92DF92EF92FF920F9389
:103EF0001F93CF93DF93CDB7DEB761970FB6F894DA
:103F0000DEBF0FBECDBF8C0185E0F801DE011D963E
:103F100001900D928A95E1F7F80140815181E2808C
:103F200090917D0260917E02209180023091810209
:103F30002115310531F06F3F31F481E09F3F19F4D5
:103F400003C081E001C080E0F82FF1709F2E80FD5A
:103F500046C1F801A380B4808DE7C82E82E0D82E38
:103F6000F0907F02F501E21BF30BFF2009F4DFC0A4
:103F700080918202E83CF10508F09BC0282F207F49
:103F800009F052C0561313C0491311C0FE2CE110A2
:103F90000EC08F708061809382020E94F61EC6015F
:103FA0000E943F1E80918202F801858358C1AB2890
:103FB00031F05F3F31F481E04F3F19F403C081E0FD
:103FC00001C080E080FD03C081E08E2502C080E05A
:103FD00090E0F82FF170FF2E80FF1CC080914B0203
:103FE00020914C0236E0821709F417C190E0389F07
:103FF000F001399FF00D1124E35BFD4F61815613F1
:1040000006C06081461303C06281E61203C00196B8
:104010008770E9CFFE2CEE2009F421C18091820245
:104020008160809382025AC0561306C0491304C0AF
:10403000E11002C0F8019FC04D875E878D859E8587
:104040000E94B11E882379F1EE2069F1209182024D
:10405000822F82958F7090E0029774F080917D029C
:1040600090917E0298878F831986BB86AA862C87BB
:10407000CE0107960E943F1E86E0F801ADE7B2E050
:1040800001900D928A95E1F70E94041F0E94F61E8E
:104090000DC0561729F14D875E878D859E850E943C
:1040A000B11E81112CC0C8010E943F1EFF24F39451
:1040B000D6C0282F207F69F77A2DB98AA88A6E2D5D
:1040C00089890E94B61E8DE792E00E943F1E86E01D
:1040D000F60111928A95E9F70E94F61EF12CBFC0F5
:1040E0004913D9CFE110D7CFF8018583C8010E94C9
:1040F0003F1E86E0F60111928A95E9F7B0C0EE20E6
:1041000091F220918202822F82958F7090E0029727
:104110000CF4B2CF80917D0290917E029A838983C4
:104120001B82BD82AC822E83CE010196A3CFE83CD8
:10413000F10508F047C0FE2CEE2009F4B4CF561369
:1041400030C049132EC02091820220FD21C0822F51
:1041500082958F70482F50E041155105C9F0F80144
:1041600025834F30510541F08F5F982F9295907FB6
:10417000822F8F70892B8583C8010E943F1E86E0A5
:10418000F801ADE7B2E001900D928A95E1F742C0E7
:1041900086E0F801ADE7B2E001900D928A95E1F773
:1041A0005EC04D875E878D859E850E94B11E811100
:1041B00063CF80918202816080938202C8010E9455
:1041C0003F1E4DC07A2DB98AA88A6E2D89890E941A
:1041D000B61E86E0F60111928A95E9F71BC0EE2023
:1041E00009F461CF4D875E878D859E850E94B11E43
:1041F000F82E882309F457CF86E0F801ADE7B2E046
:1042000001900D928A95E1F78DE792E00E94CD1A18
:104210000E94041F0E94F61E22C04D875E878D8576
:104220009E850E949923292F22952F70223028F4F1
:104230009F7039F0811105C00BC0243028F49F70A5
:1042400049F4805E883020F0C8010E943F1E9F2CF8
:10425000F92C05C0F8019581907F99F7F9CF8F2D42
:1042600061960FB6F894DEBF0FBECDBFDF91CF9140
:104270001F910F91FF90EF90DF90CF90BF90AF9084
:104280009F9008951F93CF93DF93CDB7DEB72C9700
:104290000FB6F894DEBF0FBECDBF4F835887698736
:1042A0007A878B879C87CE0107960E94701F882390
:1042B000D1F09F8188852A853B85232B31F08F3F64
:1042C00031F481E09F3F19F403C081E001C080E038
:1042D00080FD47C04F81588569857A858B859C858F
:1042E0000E94C51E3EC086E0FE013796DE01119693
:1042F00001900D928A95E1F7FF81E8856A857B85BB
:104300006115710531F0EF3F31F481E0FF3F19F4A1
:1043100003C081E001C080E080FD23C020914C02F9
:1043200030E0C90101968770992740914B0250E017
:1043300084179507F1F1F983EA837D836C8396E016
:10434000929FD001939FB00D1124A35BBD4FFE013E
:10435000319601900D929A95E1F780934C020E945C
:10436000D51E16E080914B0290914C02891771F195
:10437000189FC0011124835B9D4F0E94701F8823EA
:1043800029F1E0914B021E9FF0011124E35BFD4FE8
:104390004081518162817381848195810E94C51E13
:1043A00080914B0290E001968770992780934B0291
:1043B000D9CF0E94891E10924C0210924B02EDE759
:1043C000F2E086E0DF011D928A95E9F72C960FB6A0
:1043D000F894DEBF0FBECDBFDF91CF911F9108953E
:1043E000089508950C94F1210C94F2210E94F42177
:1043F0006093AA027093AB028093AC029093AD02DB
:104400000C946F1E0C94F6210F931F930091AA0237
:104410001091AB022091AC023091AD02602B712B58
:10442000822B932B1F910F910C94F6210F931F93C6
:104430000091AA021091AB022091AC023091AD0222
:1044400060237123822393231F910F910C94F621F3
:104450000F931F930091AA021091AB022091AC021E
:104460003091AD0260277127822793271F910F910A
:104470000C94F6210C94F1210E943A226093A6023A
:104480007093A7028093A8029093A9020C946F1EC8
:1044900060E070E0CB010C943C220F931F9341E04D
:1044A00050E060E070E08A019B0104C0000F111F22
:1044B000221F331F8A95D2F7C901B8011F910F91AE
:1044C0000C943C220F931F9341E050E060E070E0B9
:1044D00004C0440F551F661F771F8A95D2F780913D
:1044E000A6029091A702A091A802B091A9028A0108
:1044F0009B01082B192B2A2B3B2BC901B8011F91BB
:104500000F910C943C220F931F9341E050E060E028
:1045100070E004C0440F551F661F771F8A95D2F7BD
:1045200040955095609570958091A6029091A70254
:10453000A091A802B091A9028A019B010823192326
:104540002A233B23C901B8011F910F910C943C22EF
:104550000F931F9341E050E060E070E004C0440F0F
:10456000551F661F771F8A95D2F78091A6029091FA
:10457000A702A091A802B091A9028A019B01082775
:1045800019272A273B27C901B8011F910F910C94C5
:104590003C220F931F930091A6021091A702209135
:1045A000A8023091A902602B712B822B932B1F91B3
:1045B0000F910C943C220F931F930091A60210912F
:1045C000A7022091A8023091A902602371238223BF
:1045D00093231F910F910C943C220F931F930091F2
:1045E000A6021091A7022091A8023091A90260278B
:1045F0007127822793271F910F910C943C220895D5
:1046000027E0929F800D1124E82FE695E695E69528
:10461000877051E001C0550F8A95EAF785E0E89F61
:10462000F0011124ED57FD4F20E030E070E04081B3
:10463000CB01022E02C0969587950A94E2F781700D
:10464000819584278523842781932F5F3F4F2530D1
:10465000310569F7089527E0929F800D1124682F96
:10466000669566956695982F977085E0689FB0016E
:10467000112440E050E080E0FB01E40FF51FED570E
:10468000FD4F208130E0092E02C0369527950A940F
:10469000E2F721703327042E01C0220F0A94EAF7B3
:1046A000822B4F5F5F4F4530510531F70895BF9220
:1046B000CF92DF92EF92FF920F931F93CF93DF93EE
:1046C0008C01C090A602D090A702E090A802F090C2
:1046D000A9028091AA029091AB02A091AC02B09184
:1046E000AD02C82AD92AEA2AFB2ACFE1D0E0D701B5
:1046F000C6010C2E04C0B695A795979587950A9488
:10470000D2F780FD04C0219790F7B12C07C0BC2ED2
:10471000B8018C2F0E94E8050197A9F38B2DDF913A
:10472000CF911F910F91FF90EF90DF90CF90BF90AE
:104730000895CF93DF93EC010E945723BE010E949E
:10474000E805DF91CF9108951F93CF93DF93EB019D
:1047500090914A02992321F0CB010E94992313C022
:10476000882349F0CB010E945723182F682FCE01D0
:104770000E94002304C0CB010E942B23182FBE01EE
:10478000812F0E94E805DF91CF911F9108958091BC
:10479000AE0285958595859508958091AE028770C6
:1047A00008959091AE02977081E009F480E0089539
:1047B0009091C80292FB222720F9281751F080FB24
:1047C00092F99093C8028091C7029091C8020C940C
:1047D000D72408958091C80282FB882780F991E050
:1047E00089270C94D82381E00C94D82380E00C9482
:1047F000D8238091BA0208959091BA02892B8093B0
:10480000BA02089580959091BA0289238093BA02E2
:1048100008951092BA0208959091B902892B80935D
:10482000B902089580959091B90289238093B902C5
:1048300008951092B90208951092B80208958091D7
:10484000AF02089508950C9422240C94232490918F
:10485000C80292FD08C09091AF02981721F0809392
:10486000AF020C94252408958091AF02882329F08B
:104870001092AF0280E00C9425240895E0911F016E
:10488000F09120018091BA028083E0911F01F091A4
:10489000200190818091B902892B8083E0911F01D2
:1048A000F091200190818091B802892B80838091C2
:1048B000AF02882381F0E0911F01F09120019081E7
:1048C000892B808380911F01909120010E94622595
:1048D00081110E94342480911F01909120010C9439
:1048E00071190C9422249091C80292FD10C098E096
:1048F000899F90011124262B2093AE020E946222F0
:104900008091AE028595859585950C9471240C94C3
:1049100062221092AE0280E00C9471242091AE02CB
:10492000809582238093AE02982F977041F430E0F7
:10493000482F082E000C550B2417350721F49091B1
:10494000C80292FF07C08595859585950E948322B0
:104950000C948924089580E008956FEF7FEF80E044
:1049600090E00C94422F80E090E00E941E2F21E006
:104970008A3E9E4F09F020E0822F089582E090E069
:104980000C94102F83E090E00C94102FCF9384E0D0
:1049900090E00E94102FC82F82E290E00E94102F1A
:1049A0002C2F30E0A901582BCA01CF910895CF9345
:1049B000C92F682F84E090E00E94242F6C2F82E2A0
:1049C00090E0CF910C94242FAB01BC018FE090E0DC
:1049D0000C94362FAB01BC0183E190E00C94362F90
:1049E00060E070E0CB010C94EA2460E070E0CB0161
:1049F0000E94E4240C94F0246AEE7EEF80E090E0C4
:104A00000E94422F60E082E090E00E94242F60E04C
:104A100083E090E00E94242F1092AA021092AB0231
:104A20001092AC021092AD0260E084E090E00E942F
:104A3000242F60E082E290E00E94242F60E085E075
:104A400090E00E94242F60E086E090E00E94242FF6
:104A50006FEF87E090E00E94242F40E050E0BA0121
:104A600088E090E00E94362F60E08DE090E00E94A8
:104A7000242F40E050E0BA0188E190E00E94362FF8
:104A800060E087E190E00E94242F40E050E0BA010E
:104A90008CE190E00E94362F60E070E080E290E0D0
:104AA0000E94422F40E050E0BA0188E190E00E946D
:104AB000362F0C94F5240C94FC24682F8EE090E0A3
:104AC0000C94242FFC01329697E080E0915029F05D
:104AD00021912223D9F38F5FF9CF0895662349F0FE
:104AE000FC01329608962191621729F0E817F90720
:104AF000D1F780E0089581E008959C01FC01329691
:104B00009FEF80E04191461789F09F3F19F44111D2
:104B100001C0982F8F5F8630A9F79F3F39F0F901C8
:104B2000E90FF11D97FDFA956283089508959C01A0
:104B30002A5F3F4FFC014281461301C01282019659
:104B400082179307B9F708950C947D250C94972547
:104B5000029626E0FC0111922A95E9F7089508953E
:104B60000C94AF250C94AF25CF930E94B2250E94E0
:104B700052080E94B025C0E08C2F0E94FD078111D1
:104B800004C0CF5FC830C1F701C081E0CF91089564
:104B90000C94AF250C94C82580910703843059F1FB
:104BA0000E94CA2580E00E94DF050E9483111092B6
:104BB000BC0220E488E190E00FB6F894A8958093B9
:104BC00060000FBE2093600083B7817F846083BF45
:104BD00083B7816083BF7894889583B78E7F83BFC6
:104BE0000FB6F894A895809160008861809360006A
:104BF000109260000FBE08950C94AF250E94891E8C
:104C00000E9465190E94DF050E944F120C94FC253A
:104C10001F920F920FB60F9211248F939F93AF9311
:104C2000BF938091BC02811113C08091FF029091CB
:104C30000003A0910103B09102034196A11DB11D93
:104C40008093FF0290930003A0930103B0930203AB
:104C5000BF91AF919F918F910F900FBE0F901F90BA
:104C6000189582E084BD93E095BD9AEF97BD80933F
:104C70006E0008952FB7F8948091FF029091000381
:104C8000A0910103B09102032FBF08952FB7F894AC
:104C90006091FF02709100038091010390910203E3
:104CA0002FBF08959C014FB7F8948091FF02909117
:104CB0000003A0910103B09102034FBF821B930B2D
:104CC000089578941F920F920FB60F9211248F932C
:104CD0009F93AF93BF938091FF0290910003A091A7
:104CE0000103B09102030196A11DB11D8093FF0243
:104CF00090930003A0930103B0930203BF91AF917F
:104D00009F918F910F900FBE0F901F90189587E77E
:104D100097E790930108809300089AE088E10FB626
:104D2000F894A895809360000FBE90936000FFCF29
:104D30009093D9018093D80108958091C502089578
:104D4000CF93DF9300D01F92CDB7DEB790910703CA
:104D5000943011F589837B836A839093E9008FEF08
:104D60009091E800815095FD06C095ED9A95F1F778
:104D700000008111F5CF8091E80085FF0DC040E073
:104D800050E063E070E0CE0101960E941C29809102
:104D9000E8008E778093E8000F900F900F90DF91DE
:104DA000CF910895BC0184E00C94A026BC0183E05F
:104DB0000C94A02624E02093E9002FEF3091E80026
:104DC000215035FD06C035ED3A95F1F7000021116F
:104DD000F5CF2091E80025FF0BC040E050E066E0F1
:104DE00070E00E941C298091E8008E778093E80093
:104DF0000895CF93DF9321E02093E9002FEF3091C6
:104E0000E800215035FD06C035ED3A95F1F7000078
:104E10002111F5CF2091E80025FF14C0EC0140E0FE
:104E200050E068E070E00E941C298091E8008E77D5
:104E30008093E80088E0FE01ADEBB2E001900D92B6
:104E40008A95E1F7DF91CF910895CF93603219F5FC
:104E5000209107032430F9F4C091E900CF7030911C
:104E6000EC00232F217030FD20E8C22B22E020939C
:104E7000E9002091E80020FF0BC040E050E060E234
:104E800070E00E941C298091E8008E778093E800F2
:104E9000CF70C093E900CF910895809106038111EE
:104EA00009C00E94F82A0E94552B8091E20084607C
:104EB0008093E200089510920603089508950895DE
:104EC000089542E061EC81E00E94712A42E261ECC7
:104ED00084E00E94712A42E261EC82E00E94712A21
:104EE00042E260EC83E00C94712A809109038330E4
:104EF00009F462C030F4813071F0823009F49BC053
:104F000008958A3009F487C08B3009F46DC0893068
:104F100009F0A9C020C080910803813A09F0A3C01C
:104F20008091E800877F8093E80080910C03909146
:104F30000D03892B21F468E08DEB92E003C060E063
:104F400080E090E070E00E94B2298091E8008B77C9
:104F50008093E800089580910803813209F083C0AE
:104F600080910C0390910D03009719F0029709F0BE
:104F70007AC08091E800877F8093E8008091E80004
:104F800082FD05C0809107038111F8CF6CC020918C
:104F9000F3008091F20090E0922B029729F4809127
:104FA000F1008B7F813021F48091F1008093C50264
:104FB0008091E8008B7753C080910803813A09F013
:104FC00052C080910C0390910D03892B09F04BC0C6
:104FD0008091E800877F8093E8008091E80080FF5F
:104FE000FCCF80912B0136C0809108038132D9F526
:104FF00080910C0390910D03892BA9F58091E80015
:10500000877F8093E8000E94A62A80910A038093FC
:105010002B010C94891E80910803813221F5809127
:10502000E800877F8093E8000E94A62A80910B0306
:105030008093C602089580910803813AA1F480917B
:10504000E800877F8093E8008091E80080FFFCCF34
:105050008091C6028093F1008091E8008E77809362
:10506000E8000C94A62A08951F93CF93DF93CDB741
:10507000DEB7A0970FB6F894DEBF0FBECDBF84B7E2
:10508000877F84BF0FB6F894A895809160008861EF
:1050900080936000109260000FBE90E080E80FB631
:1050A000F89480936100909361000FBE0E94E11913
:1050B0000E94F82A0E94552B8091E2008460809320
:1050C000E20078940E94EA2D0E94EF1981E291E0BB
:1050D0000E94601913E0809107038530A9F4809144
:1050E0000703853079F40E94CC258091050388233D
:1050F000B1F30E94B425882391F30E9406290E94EF
:10510000891EEDCF0E94FE250E94F91980910703A8
:10511000843009F51093E9008091E80082FF1BC0FC
:105120008091E80085FF0AC040E050E060E270E056
:10513000CE0101960E94672991E001C090E0809124
:10514000E8008B778093E800992329F060E2CE0194
:1051500001960E94FF140E94EB19BDCF0C94B02859
:10516000292F332723303105C9F060F42130310570
:1051700081F02230310509F041C08BE590E028ED47
:1051800035E040C021323105E1F02232310531F104
:1051900035C082E190E023E336E034C099278130C6
:1051A000910549F028F0029749F5E4EAF5E005C0D9
:1051B000E4EDF5E002C0EAEBF5E0849190E09F01B8
:1051C00021C063307105D0F4660F771FFB01EF52E9
:1051D000FE4F2081318189E090E014C06330710579
:1051E00068F4FB01EE0FFF1FE553FE4F2081318174
:1051F000FB01E853FE4F808190E004C080E090E026
:1052000020E030E0FA0131832083089580E189BDF8
:1052100082E189BD09B400FEFDCF8091D8008F7D69
:105220008093D8008091E00082608093E0008091BC
:10523000E00081FDFCCF0895CF92DF92EF92FF92C4
:105240000F931F93CF93DF93EC018B017A010E94A0
:10525000C52A811133C0E114F10439F0F7018081CE
:105260009181081B190BC80FD91FC12CD12C011516
:10527000110519F18091E80085FD16C08091E800C4
:105280008E778093E800E114F10449F0F701808102
:105290009181C80ED91ED182C08285E00FC00E94C4
:1052A000C52A882321F30AC089918093F100015017
:1052B0001109FFEFCF1ADF0ADACF80E0DF91CF913B
:1052C0001F910F91FF90EF90DF90CF900895CF92B4
:1052D000DF92EF92FF920F931F93CF93DF93EC0136
:1052E0008B017A010E94C52A811133C0E114F104B7
:1052F00039F0F70180819181081B190BC80FD91F64
:10530000C12CD12C0115110519F18091E80085FD02
:1053100016C08091E8008B778093E800E114F104D7
:1053200049F0F70180819181C80ED91ED182C082D7
:1053300085E00FC00E94C52A882321F30AC080910E
:10534000F100899301501109FFEFCF1ADF0ADACF7C
:1053500080E0DF91CF911F910F91FF90EF90DF9050
:10536000CF90089520910E0330910F032617370731
:1053700048F06115710539F42091E8002E772093EB
:10538000E80001C0B901FC0120E06115710579F167
:10539000809107038823F1F18530F1F18091E800D5
:1053A00083FD3CC08091E80082FD2EC08091E80022
:1053B00080FFEBCF2091F3008091F20090E0922BE0
:1053C0006115710551F08830910538F421912093D1
:1053D000F100615071090196F3CF21E0089709F0BF
:1053E00020E08091E8008E778093E800CECF2111F5
:1053F000CFCF0AC080910703882361F0853061F028
:105400008091E80083FD0AC08091E80082FFF2CF1E
:1054100080E0089582E0089583E0089581E0089592
:1054200020910E0330910F032617370748F06115BE
:10543000710539F42091E8002E772093E80001C02F
:10544000B901FC0120E06115710591F1809107031C
:10545000882309F440C0853009F43FC08091E800FA
:1054600083FD3DC08091E80082FD2FC08091E8005F
:1054700080FFE9CF2091F3008091F20090E0922B21
:105480006115710559F08830910540F424912093FD
:10549000F1003196615071090196F2CF21E0089731
:1054A00009F020E08091E8008E778093E800CBCF70
:1054B0002111CCCF0AC080910703882361F0853089
:1054C00061F08091E80083FD0AC08091E80082FFCE
:1054D000F2CF80E0089582E0089583E0089581E0AE
:1054E0000895982F973068F59093E900981739F050
:1054F0007091EC002091ED005091F00003C0242F3A
:10550000762F50E021FD02C09F5FECCF3091EB0081
:105510003E7F3093EB003091ED003D7F3093ED0006
:105520003091EB0031603093EB007093EC002093EE
:10553000ED005093F0002091EE0027FDE5CF80E0D4
:1055400008958F708093E90081E0089580910803A9
:1055500087FF11C08091E80082FD05C0809107039C
:105560008111F8CF11C08091E8008B770BC080913A
:105570000703882349F08091E80080FFF8CF8091ED
:10558000E8008E778093E80008952091E400309140
:10559000E50095E64091EC00842F817040FF23C028
:1055A0008091E80080FD1DC080910703882399F059
:1055B000853099F08091EB0085FD11C04091E400A9
:1055C0005091E5002417350729F3915011F09A0105
:1055D000E1CF84E0089582E0089583E0089581E0BA
:1055E000089580E008954091E80042FFDDCF0895DE
:1055F0000E94662B0E946E2BE0EEF0E080818160BD
:105600008083E8EDF0E080818F77808319BCA7ED7F
:10561000B0E08C918E7F8C9380818F7E80831092FE
:10562000060308950F931F93CF93DF930E94662B79
:105630000E946E2BC8EDD0E088818F7788838881A7
:105640008068888388818F7D888319BC10920703C6
:1056500010920303109205031092040300EE10E071
:10566000F80180818B7F808388818160888342E01C
:1056700060E080E00E94712AE1EEF0E080818E7FA0
:105680008083E2EEF0E080818160808380818860A9
:105690008083F80180818E7F808388818061888308
:1056A000DF91CF911F910F910895E8EDF0E0808197
:1056B0008F7E8083E7EDF0E080818160808384E0ED
:1056C00082BF81E0809306030C94122BE8EDF0E09A
:1056D00080818E7F80831092E20008951092DA001C
:1056E0001092E10008951F920F920FB60F921124AD
:1056F0002F933F934F935F936F937F938F939F93DA
:10570000AF93BF93EF93FF938091E10082FF0BC0B3
:105710008091E20082FF07C08091E1008B7F80933F
:10572000E1000E94E92D8091DA0080FF1FC0809186
:10573000D80080FF1BC08091DA008E7F8093DA0052
:105740008091D90080FF0DC080E189BD82E189BDD3
:1057500009B400FEFDCF81E0809307030E944D272E
:1057600005C019BC109207030E945B278091E100DD
:1057700080FF19C08091E20080FF15C08091E20097
:105780008E7F8093E2008091E20080618093E2004E
:105790008091D80080628093D80019BC85E0809306
:1057A00007030E945F278091E10084FF30C0809151
:1057B000E20084FF2CC080E189BD82E189BD09B48B
:1057C00000FEFDCF8091D8008F7D8093D80080911E
:1057D000E1008F7E8093E1008091E2008F7E8093D4
:1057E000E2008091E20081608093E20080910303F7
:1057F000882311F084E007C08091E30087FD02C098
:1058000081E001C083E0809307030E9460278091BC
:10581000E10083FF29C08091E20083FF25C08091D1
:10582000E100877F8093E10082E08093070310927C
:1058300003038091E1008E7F8093E1008091E2007C
:105840008E7F8093E2008091E20080618093E2008D
:1058500042E060E080E00E94712A8091F000886060
:105860008093F0000E945E27FF91EF91BF91AF916E
:105870009F918F917F916F915F914F913F912F9168
:105880000F900FBE0F901F9018951F920F920FB69A
:105890000F9211242F933F934F935F936F937F93B6
:1058A0008F939F93AF93BF93CF93DF93EF93FF9328
:1058B000C091E900CF708091EC00D82FD17080FDAD
:1058C000D0E81092E9008091F000877F8093F0008B
:1058D00078940E94892C1092E9008091F0008860F1
:1058E0008093F000CD2BCF70C093E900FF91EF9132
:1058F000DF91CF91BF91AF919F918F917F916F91E8
:105900005F914F913F912F910F900FBE0F901F907D
:1059100018951F93CF93DF93CDB7DEB7AA970FB635
:10592000F894DEBF0FBECDBFE8E0F3E08091F10058
:10593000819323E0E031F207C9F70E947527809137
:10594000E80083FF2EC18091080390910903492F3D
:1059500050E04A30510508F024C1FA01ED57FF4FDD
:105960000C94692E803821F0823809F01AC108C0E1
:105970008091040390910503992389F082600FC000
:1059800080910C038F70873008F00BC18093E90081
:105990008091EB0085FB882780F91092E9009091B7
:1059A000E800977F9093E8008093F1001092F10057
:1059B000D1C0282F2D7F09F0F4C0882319F0823040
:1059C00061F0EFC080910A03813009F0EAC09330A2
:1059D00009F080E0809305032EC080910A038111B5
:1059E0002AC080910C038F702FEF280F263008F00B
:1059F000D8C08093E9002091EB0020FF1CC09330B9
:105A000021F48091EB00806214C09091EB009061D2
:105A10009093EB0021E030E0A90102C0440F551F34
:105A20008A95E2F74093EA001092EA008091EB0039
:105A300088608093EB001092E9008091E800877FF6
:105A40008093E8000E94A62AACC08111AAC01091E0
:105A50000A031F778091E3008078812B8093E30015
:105A60008091E800877F8093E8000E94A62A8091B9
:105A7000E80080FFFCCF8091E30080688093E30022
:105A8000111102C082E001C083E08093070389C046
:105A90008058823008F085C080910A0390910B03F2
:105AA0008C3D53E0950779F583E08A838AE2898308
:105AB0004FB7F894DE01139620E03EE051E2E32F69
:105AC000F0E050935700E49120FF03C0E295EF709F
:105AD0003F5FEF708E2F90E0EA3010F0C79601C064
