:100000000C946C020C9489020C9489020C94890261
:100010000C9489020C9489020C9489020C94890234
:100020000C9489020C9489020C9487260C94C9259F
:100030000C94DD280C9489020C9489020C9489029A
:100040000C9489020C9489020C9489020C94890204
:100050000C9489020C9474280C9489020C948902E3
:100060000C9489020C9489020C9489020C948902E4
:100070000C9489020C9489020C9489020C948902D4
:100080000C9489020C9489020C9489020C948902C4
:100090000C9489020C9489020C9489020C948902B4
:1000A0000C9489020C9489020C948902400D400D35
:1000B000730D730DE60D040E500F500F4D0EC10E53
:1000C000D20ED20EE1230824B1250824B1255424F0
:1000D0007724B1256C257C254A2E4D2E502E672E77
:1000E0006F2E772E792E882E05010902A101850237
:1000F0000901A10005091901290815002501950824
:10010000750181020501093009311581257F9502AC
:100110007508810609381581257F950175088106C6
:10012000050C0A38021581257F950175088106C0E6
:10013000C005010980A101850319012AB700150135
:1001400026B700950175108100C0050C0901A101B9
:10015000850419012AA002150126A0029501751037
:100160008100C00660FF0961A1010962150026FF38
:10017000009520750881020963150026FF0095206F
:1001800075089102C005010906A101050719E029BA
:10019000E715002501950875018102950175088113
:1001A000010507190029FF150026FF0095067508AF
:1001B0008100050819012905950575019102950130
:1001C00075039101C009025B00030100A0FA090454
:1001D000000001030101000921110100012240007A
:1001E0000705810308000109040100020300000063
:1001F00009211101000122220007058203200001CC
:1002000007050303200001090402000103000000A8
:10021000092111010001227B000705840320000150
:100220001201000200000008EDFE24150100010289
:10023000000136034E0075006D002D004E00750064
:100240006D00200042006C00610063006B00200024
:100250005300740072006100770062006500720054
:1002600072007900210021000000180344006100A1
:10027000720061006B0075002D004E0065006B0080
:100280006F000000040309041E001F00200021006D
:100290002200230024002500260027002A00340025
:1002A0002C0028620151F400F50073001D011C01AF
:1002B0001E001F0020002100220023002400250032
:1002C000260027002A0034002C0028620151F40087
:1002D000F50073001D011C011E001F0020002100FD
:1002E0002200230024002500260027002A003400D5
:1002F0002C0028620151F400F50073001D011C015F
:10030000C95CC75CC55CCB5CC25CCA5CC85CC65CD3
:10031000CC5C005C625D635D645D01000100F40023
:10032000F5007300C45CC35C000000000000000026
:1003300000000000000000000000000000000000BD
:100340000000000000000000000000007E0F00D44C
:10035000FFFFFFC700000078000000000000000061
:100360002A2B280000000000000000000000000010
:1003700000000029000000002C1E3420212224341B
:100380002627252E362D3738271E1F2021222324ED
:1003900025263333362E37381F0405060708090A89
:1003A0000B0C0D0E0F101112131415161718191A25
:1003B0001B1C1D2F3130232D350405060708090AA3
:1003C0000B0C0D0E0F101112131415161718191A05
:1003D0001B1C1D2F3130354C0001010101010101B1
:1003E00001010202020202020202020303030303EA
:1003F00003030304040404040404050505050506B9
:100400000606060607070707070808080809090976
:10041000090A0A0A0B0B0B0C0C0C0D0D0D0E0E0E1F
:100420000F0F0F10101111111212131314141515B0
:1004300016161717181819191A1A1B1B1C1D1D1E22
:100440001E1F202021222223242425262627282976
:10045000292A2B2C2D2D2E2F3031323233343536A4
:100460003738393A3B3C3D3E3F40414243444546A4
:100470004748494A4C4D4E4F505153545556585980
:100480005A5B5D5E5F616264656668696B6C6D6F27
:100490007072737577787A7B7D7E8082838587889A
:1004A0008A8C8E8F91939596989A9C9EA0A2A3A5D4
:1004B000A7A9ABADAFB1B3B5B7BABCBEC0C2C4C6D5
:1004C000C9CBCDCFD1D4D6D8DBDDDFE2E4E7E9EB91
:1004D000EEF0F3F5F8FAFDFF11241FBECFEFDAE0DE
:1004E000DEBFCDBF11E0A0E0B1E0EAE8FBE602C06C
:1004F00005900D92AC3FB107D9F723E0ACEFB1E026
:1005000001C01D92A33FB207E1F70E948B020C9439
:10051000C3350C940000A0E3B0E0E1E9F2E00C94F4
:10052000453585B7806885BF85B7806885BF84B746
:10053000877F84BF0FB6F894A8958091600088618A
:1005400080936000109260000FBE90E080E80FB6CC
:10055000F89480936100909361000FBE80EF94E166
:100560009093FD018093FC011092B9008CE0809380
:10057000B8000E940D260E942C268091E200846023
:100580008093E20078948091AB038823A1F01091CE
:10059000E9001F709091EC00892F817090FD80E838
:1005A000182B1092E9008091E80083FD0E94C72279
:1005B0001F701093E90082E084BD93E095BD9AEF2F
:1005C00097BD80936E000E94AC2A811102C00E94E8
:1005D0009C2A00E511E0D8018D918D018F3F11F02B
:1005E0000E943515B1E005351B07A9F705E511E0B7
:1005F00039E5E32E31E0F32EF80181918F018F3F31
:1006000011F00E943515E016F106B1F785E0E2E23F
:10061000F2E0DF01282F1D922A95E9F7EEEFF1E0D5
:10062000DF011D928A95E9F70E94D61C811102C054
:100630000E94F90F82E090E00E94853480930C02C2
:100640000E94C51C90930402809303020E944C15E3
:10065000EFE3FCE93197F1F700C000000E944C1570
:100660008091220280FF08C06FEF7FEF80E090E072
:100670000E94C1340E94632883E090E00E94853488
:100680000E9401141092B603EFECF3E08FED93E0BB
:100690002FEF3FEF219331938E179F07D9F71092D9
:1006A0003303ECE4F3E08CE593E02FEF3FEF21938D
:1006B00031938E179F07D9F70E94D61C811104C071
:1006C0000E94F90F0E941B1F46E050E06CE170E0B1
:1006D00080EB93E00E947534109266038091B00322
:1006E0008C7F11F40E941B1F81E0809315022498D7
:1006F0002C9A25982D9A8FE891E00197F1F700C088
:10070000000030911502E6E1F2E020E0231761F0ED
:1007100083B1829581701D9B02C092E001C090E080
:10072000892B81932F5FF2CF1A82198242E050E029
:100730008E010F5F1F4FB80180E090E00E94F42C03
:10074000F82E0E949A328F2949F042E050E0B80119
:1007500080E090E00E94F42C0E949A3280E889A305
:100760001E0191E2290E311C41E050E0B10181E30C
:1007700094E00E94AF3281110CC080E091E19A8335
:10078000898342E050E0B80185E796E00E94AF32ED
:1007900009C041E050E0B10181E394E00E94AF3232
:1007A000882359F385E491E3909303018093020138
:1007B0008BE391E390930101809300010E94C5288F
:1007C00060930602709307028093080290930902D7
:1007D000AFEFB5EAEEE0A150B040E040E1F700C075
:1007E000000080911C0190911D018F3F910559F0EF
:1007F00080911A0190911B018830910531F0429748
:1008000031F483E005C081E003C082E001C080E0F4
:1008100091E0823009F090E09093050284E091E04D
:100820009093A00380939F038091AB03853009F0E0
:1008300064C080E4E82EDD24D39493E0C92E20E147
:10084000F22E8091AB03853009F051C08091AB034B
:10085000843009F43AC00E94732B809165038111A2
:100860000DC00E94711F109220018091B00383700F
:1008700080931F010E94C827C0922101D092650376
:100880000E9474321092A30328E130E00FB6F8946E
:10089000A895209360000FBEE092600083B7817F2F
:1008A000846083BF83B7816083BF7894889583B762
:1008B0008E7F83BF0FB6F894A89580916000886101
:1008C00080936000109260000FBE809129038823FE
:1008D00009F4B7CF0E944C15E2E2F2E08191811158
:1008E0001EC547E252E04E175F07C1F7AACF0E942C
:1008F00006140E945A29109265030E944C15BDE00F
:10090000AB2EB2E0BB2E82E292E09FA78EA7DC0165
:10091000F50191918D91892792E0E231F90719F063
:100920008823B9F322C0811120C00E94D1287C0104
:1009300080910A0290910B02E816F90609F4DDC0D5
:100940008FEF89A38AA31BA20E94D1288160782FF0
:100950009DA38CA349A15AA16BA18DA10E944E31E8
:10096000F0920B02E0920A02C8C0A5EBB1E0BCA76E
:10097000ABA7612CEEA5FFA52191FFA7EEA72DA7A0
:10098000D5014C90422609F4A9C0C12CD12C552484
:100990005394842D852109F495C0FDA4F520CEA2A1
:1009A0006FA281E0F11001C080E088A70E94D128E9
:1009B0008160782F9AA789A74EA15FA168A58AA513
:1009C0000E944E31109261031092620310926303F1
:1009D00010926403FF2059F0EBA5FCA5EC0DFD1D62
:1009E00080818F3F21F088AB7724739401C0712CF4
:1009F000E72CF12C80913303F701E80FF11D3997B3
:100A0000ACF1E8E08E2E912C8E189F08B7016F5F35
:100A10007F4F6D5C7C4FA40184E393E00E94BA3564
:100A2000B701675F7F4F6D5C7C4FA4018CE393E05F
:100A30000E94BA35A401440F551FB701660F771FF6
:100A4000675E7F4F6D5C7C4F8CE493E00E94BA350B
:100A5000B7016F5E7F4F6D5C7C4FA40184E493E02F
:100A60000E94BA3588E0871980933303809133035D
:100A700090E0F8A9AF2FB0E09D01220F331F27535C
:100A80003E4FAA0FBB1FBD0166537E4F41E0480F8A
:100A90009715B0F490E0FC01ED5CFC4FD9015C913E
:100AA0005183DB015C915187B8A9B18B880F991FE5
:100AB000FC01ED5CFC4F128E118E91E0842FE6CF8D
:100AC00080933303550CEFEFCE1ADE0AF4E0CF1615
:100AD000D10409F05ECFEDA5D501EC936394FFEF4F
:100AE000AF1ABF0A2BA53CA52C5F3F4F3CA72BA7F5
:100AF00035E063123FCF0E94C5280E94732BB12CB2
:100B0000A12C9924939480911502B81608F0A2C0E4
:100B1000EB2CF12CE3B1E295E1701D9B02C092E059
:100B200001C090E08E2F892BD701AA5EBD4FEC91BA
:100B30002E2F237030E0482F082E000C550B241761
:100B4000350709F485C0EE0FEE0FE82BEC93EF703C
:100B5000F0E0E75AFE4FA7014C5E5D4F6A019081BD
:100B6000DA018C91890F8C938430D4F1F701ED5E1A
:100B7000FD4F80818F5F8083B11034C0909212014D
:100B80000E94D12881609093140180931301809179
:100B900012028823C1F08090DF03809160038829CE
:100BA0000E94EB31811102C088E00AC0882D0E94AA
:100BB000EB318150B1E001C0BB0F8A95EAF78B2F72
:100BC0000E94AA130FC04091100150911101609131
:100BD000120170911301809114010E944E3102C0E4
:100BE00020E001C021E0F60180818D3F2CF5F70166
:100BF000ED5EFD4F808181508083B1101CC09092CA
:100C000017010E94D12881609093190180931801E7
:100C100080911202882319F00E945A320CC0409130
:100C20001501509116016091170170911801809182
:100C300019010E944E3121E0D6018C91082E000C42
:100C4000990B64E070E00E94EB34F6018083A22AE5
:100C5000B39459CFA1100E94C52886E0EDEEF3E0D1
:100C6000D80101900D928A95E1F71092EF0310924E
:100C7000F0031092F1031092F2038B81811104C0F2
:100C80008C81882309F453C08091EB039091EC038D
:100C90000E94B6289C019091E703992309F45FC351
:100CA0002531310508F443C09F3F19F09F5F9093B1
:100CB000E703FB80FF2061F00E94FA331F1414F455
:100CC00091E001C09FEF899F802D11248093EF0355
:100CD000FC80FF2061F00E94FA331F1414F491E0AD
:100CE00001C09FEF899F802D11248093F0033091E4
:100CF000EF033323E1F02091F0032223C1F045EB11
:100D00003403C0011124992319F09093EF0303C019
:100D100081E08093EF0355EB2503C0011124992353
:100D200019F09093F00303C081E08093F0038D816C
:100D3000811104C08E81882309F453C08091E90396
:100D40009091EA030E94B6289C019091E6039923B2
:100D500009F40AC32135310508F443C09F3F19F057
:100D60009F5F9093E603FD80FF2061F00E94D833DF
:100D70001F1414F491E001C09FEF899F802D11246E
:100D80008093F103FE80FF2061F00E94D8331F148E
:100D900014F491E001C09FEF899F802D112480936E
:100DA000F2033091F1033323E1F02091F203222387
:100DB000C1F045EB3403C0011124992319F090933D
:100DC000F10303C081E08093F10355EB2503C001DB
:100DD0001124992319F09093F20303C081E08093CA
:100DE000F20346E050E0B8018DEE93E00E94AD358D
:100DF000892BA9F48091EF0381110FC08091F0033A
:100E000081110BC08091F103811107C081E09091A5
:100E1000F203911103C080E001C081E080FD0E94D7
:100E2000423386E0F801ADEEB3E001900D928A9571
:100E3000E1F70E9474320E945A2990911702891793
:100E400021F0809317020E94C5288091AB03843063
:100E500009F0EACC83E08093E9008091E80082FF0A
:100E6000E3CC8091E80085FF21C00E945E278111BC
:100E70001BC020E2E22EF12C680109C08091F10034
:100E8000D6018D936D01B1E0EB1AF10869F0809104
:100E9000E80085FDF3CF8091E8008B778093E80030
:100EA0000E945E27882399F391E001C090E0809131
:100EB000E8008B778093E800992309F4B5CC898109
:100EC0008C3009F405C188F5853009F485C0B8F483
:100ED000823009F454C030F4813009F01AC21A8209
:100EE0008AE0FBC0833009F46AC0843009F011C283
:100EF0004C816B818A810E943C2A9D832EC287305F
:100F000009F478C008F473C0883009F4ADC08930A2
:100F100009F0FFC146E050E06CE170E080EB93E047
:100F20000E94933410926603F6C1813109F420C106
:100F300070F48E3009F4D3C008F4CCC08F3009F4BB
:100F4000F4C0803109F0E5C10E94D029E4C18437A2
:100F500090F4853608F04BC1823109F40CC183311D
:100F600009F0D7C1EA80FB80FE24EF24FE24CC8068
:100F7000D12C580133C1853709F4C7C1CAC18A8150
:100F8000823009F4E3C1833051F0813009F0C1C1EE
:100F90000E94C5289B838C837D836E83BCC1809116
:100FA00022028B83809123028C83809124028D8383
:100FB000809125028E83809126028F83ACC18A8125
:100FC000823009F0A6C16B817C818D819E810E9457
:100FD00024350E94782A9FC12D813E813227232704
:100FE00032274C816B818A810E94E02994C10E9442
:100FF000072A91C18A818138D1F070F4803809F0D4
:101000008AC14B812FEF429F412D11248091B10362
:1010100020E06091B20324C08238B1F0833809F037
:101020007AC18B8120E04091B3036C8119C060E0EC
:101030008B810E942A2B8B81811103C00E945A2B25
:101040006AC10E94662B67C1EB81E43028F4F0E0AE
:10105000E759FE4F808101C08FE78093B4035BC1E5
:1010600090E00E94CC2A57C18A818138E1F078F45F
:10107000803809F050C18091B303EFEF8E9FC0011B
:1010800011246FEF70E00E94D7346B8344C1823823
:1010900079F0833809F03FC18091B1038B8380914F
:1010A000B2038C8338C18091B0038695869515C0B4
:1010B0008091B403873230F08F3530F08E3930F4C0
:1010C00082E00BC080E009C081E007C083E005C07A
:1010D00080E14FC083E08A8389E38B831CC1EA806F
:1010E000FB80FE24EF24FE24CC80D12C5801C701C4
:1010F00089539F4F9501201B310B2C153D0508F09E
:101100000AC1F9E3EF16F3E0FF0630F40E948534DC
:10111000D50114968C9302C0F5011482FFEFEF1AEB
:10112000FF0A2FEFA21AB20AE2CFEA80FB80FE2468
:10113000EF24FE24CC80D12C5801C70189539F4F46
:101140009501201B310B2C153D0508F0E4C039E357
:10115000E31633E0F30628F4D50114966C910E944F
:10116000A334BFEFEB1AFB0AEFEFAE1ABE0AE5CFCE
:1011700084E08A83D0C0EA80FB80FE24EF24FE2432
:10118000CC80D12C5801C70187969501201B310BCB
:101190002C153D0508F0BFC0F0EAEF16F10430F45D
:1011A0000E948534D50114968C9302C0F5011482F7
:1011B000FFEFEF1AFF0A2FEFA21AB20AE4CF30EACC
:1011C000E316F10428F4D50114966C910E94A3341F
:1011D000BFEFEB1AFB0AEFEFAE1ABE0AC701879604
:1011E0009501201B310B2C153D0548F394C0780167
:1011F00087E2C82E82E0D82E92E0B92EAA24A394CA
:1012000080911802811114C0D7018C91882309F4B0
:1012100075C080932501A0921802109219021092B5
:101220001E0210921F02109220021092210266C02C
:10123000813089F5E09119028E0F80931902F0E058
:10124000E85EFD4FD7019C919683843009F056C02B
:1012500080911E0290911F02A0912002B091210264
:101260008093260190932701A0932801B093290130
:1012700010922B0110922A01892B8A2B8B2BD1F1F2
:10128000B092180210921A0210921B0210921C02C5
:1012900010921D0233C0823089F580911A0290911C
:1012A0001B02A0911C02B0911D02AC01BD014F5F59
:1012B0005F4F6F4F7F4F40931A0250931B02609312
:1012C0001C0270931D02FC01E95DFD4FD7012C91BA
:1012D00020838091260190912701A0912801B0914F
:1012E0002901481759076A077B0741F4D0922B015F
:1012F000C0922A010E943A2E10921802BFEFEB1AF8
:10130000FB0AE214F30409F07BCF8FE291E00E9424
:10131000E7308FEF8983C8010E94E73085CAF9BCA6
:1013200082E189BD09B400FEFDCF8091D8008F7D98
:101330008093D8008091E00082608093E0008091EB
:10134000E00081FDFCCF0E9406147BCA86E290E09B
:101350000E9485341B821C821D828E83DCCF2B3041
:10136000310508F0A3CCE3CC2B30310508F0F8CCE4
:1013700038CDA7E1B0E0EFEBF9E00C944C35FC017F
:101380008081918123813481232B31F09F3F31F47F
:1013900091E08F3F19F403C091E001C090E090FD0F
:1013A00024C67F0185E0DE01539601900D928A9557
:1013B000E1F7F70122818B899C89222349F00E9461
:1013C0004711182F682F8B899C890E94751303C0C1
:1013D0000E944113182F6B897C89812F0E946A2AF1
:1013E0008C01F7018281882309F447C098012251BA
:1013F0003F452031310508F072C58FEF93E00E9420
:101400008534811143C02EEED22ED00E07EC10E0B1
:10141000DD2069F00115F4E01F07C1F1C8010E9449
:101420008534811101C0DA940F5F1F4FF1CF19820B
:101430001A821B821C82BB24B39468012FEFC21A4C
:10144000D20AC8010E94853489831A828823F1F068
:101450009FEF980F933058F48A83B9820E5F1F4F25
:10146000C6010E9485348B83882381F06801CE01F8
:1014700001960E948E2D8601E0CF0031FFE51F0707
:10148000B9F481E00E94AF130E94912E8091B302C3
:10149000877009F4AAC5F7018281882309F4A5C5DC
:1014A0008091040282FFA1C582E00E94BC139DC509
:1014B00001312FE5120711F482E0E4CF0337110563
:1014C000F9F4F70123813481882369F030936802AD
:1014D0002093670280911202811102C00E945A3249
:1014E00010921202D3CF8091670290916802281B5C
:1014F000390B293C310550F281E080931202C6CFAE
:1015000003371105C0F09801245F310925303105FA
:1015100090F4882329F0E0910201F091030104C0C6
:10152000E0910001F091010181E001C0880F2A954E
:10153000EAF70995ABCF033FFCE51F0749F406E244
:1015400021EE40EE63EF7CE5C7010E9467299ECF44
:10155000043F2CE5120708F0A2C1083D4CE5140732
:1015600031F407E225EE45EE68ED7CE5EDCF093D6F
:101570005CE5150731F408E221E045EE69ED7CE514
:10158000E3CF073D9CE5190731F406E221EE41EE79
:1015900067ED7CE5D9CF882309F4B6C110929C038E
:1015A0000330FDE51F0758F40A3F2CE51207C0F48D
:1015B000C80182509C45449708F090C111C0053A7B
:1015C0004DE5140769F030F401368DE5180709F090
:1015D00085C106C0C8018D5A9D45039708F07EC19C
:1015E0000E94C51C909304028093030202319CE583
:1015F000190709F40CC108F04DC00930FCE51F07BC
:1016000009F4D9C008F505304CE5140709F4C0C049
:1016100080F403308CE5180709F4B1C008F0B5C0B8
:101620000230ECE51E0709F02AC1809103028160B7
:10163000A9C00730FCE51F0709F4B5C008F0B7C022
:101640008091030280619EC00D304CE5140709F4BF
:10165000C8C058F40B308CE5180709F4B6C008F080
:10166000BCC0809103028860ACC00F30ECE51E075F
:1016700009F4C5C008F4B8C000312CE5120709F41C
:10168000C2C001314CE5140709F0F9C08091030292
:101690008F7B78C00F3F5CE5150709F4C3C098F550
:1016A0000A3F9CE5190709F477C0C0F40431FCE552
:1016B0001F0709F4C6C008F4B0C005314CE5140793
:1016C00009F0DDC08091030282FB222720F991E01E
:1016D000922790FB82F990FB83F954C00C3F5CE5A4
:1016E000150709F485C008F45AC00D3F9CE5190799
:1016F00009F481C00E3FECE51E0709F0C0C08091DF
:101700000402826060C00136FDE51F0709F4ABC02A
:1017100070F401304DE5140709F49FC008F487C048
:1017200002308DE5180709F0AAC060E097C00D3AB5
:101730009DE5190701F160F4053AFDE51F0709F081
:101740009EC080910302982F909590FB80F91AC05B
:101750000E3A2DE51207E9F10F3A4DE5140709F0AD
:101760008EC08091040283FB222720F991E092270A
:1017700090FB83F982C08091040288607EC08091D2
:1017800003028260809303027AC08091030219C031
:10179000809103028860F6CF8091040214C080918A
:1017A000040282606AC0809103028062EBCF809164
:1017B00003028064E7CF0E940614809103028068D0
:1017C000E1CF8460DFCF816058C0809103028E7FBB
:1017D000D9CF80910402877F50C0809103028D7F12
:1017E000D1CF809103021CC080910302877FCACFB2
:1017F000809104021AC0809104028D7F3EC08091C6
:1018000003028F7EBFCF809103028F7DBBCF0E94EA
:101810000614809103028F77B5CF80910302877FF2
:101820008B7FB0CF809104028D7F8E7F26C0809108
:101830000402982F909591708E7F892B90FB81F9EF
:101840001CC00E9406148091030287FB222720F906
:1018500091E0922790FB87F995CF61E08EE090E0D0
:101860000E94A3340CC08091030284FB222720F93C
:1018700091E0922790FB84F985CF809304026091D8
:1018800003021091040284E090E00E94A334612FCF
:1018900082E290E00E94A3340E940614F7CD053F37
:1018A000ECE51E0731F406E221EE42EE65EF7CE541
:1018B0004BCE053FFCE51F0730F407E225EE44EE72
:1018C00064EF7CE541CE063F2CE5120709F063CEBC
:1018D00007E225EE46EE66EF7CE536CE06314CE5B6
:1018E000140761F58091BD028A7A91E009F490E0D5
:1018F00090936902882311F065E301C069E28AE6EA
:1019000092E00E94062917C006318CE5180709F0FD
:101910004FC080916902882309F4F0C285E3EAE6AA
:10192000F2E020E732E09281891301C01282319601
:101930002E173F07C1F70E947C10A8CD0A355DE540
:10194000150781F160F401159CE5190791F00E3D32
:10195000ECE51E0709F047C00E94F90F18C00C35CE
:10196000FDE51F07B9F000F1073A4DE5140779F0DE
:101970003AC00E9406145FEF84E39CE0515080401F
:101980009040E1F700C000000E9463287FCD0E94D4
:10199000FF317CCD8091040282FB882780F991E0A1
:1019A000892703C081E001C080E00E94D9131BC0D9
:1019B0008091BD0282720A3C5CE5150709F401C3FF
:1019C00008F49EC20E3C4CE5140709F409C308F460
:1019D000C8C2063DFCE51F0708F4CDC20D354DE534
:1019E000140709F453CDF701828100811181882306
:1019F00049F0C8010E944711D82E682FC8010E94E3
:101A0000751304C0C8010E944113D82EB8018D2D52
:101A10000E946A2A0E94291BB82E192F982EF701BE
:101A20000281A580A2949FE0A9228091B3028770D1
:101A3000B9F00023A9F0812F807F803421F080E26B
:101A40008B0D883068F08091040282FF09C082E02B
:101A50000E94BC138091B3028770DD24D39481115E
:101A6000D12CC12EC2948FE0C8228C2D90E08C30F6
:101A7000910508F015C2FC01EA5AFF4F0C941E357F
:101A8000812F807F1F70882311F01295107F002313
:101A9000B9F0112309F4F2C180E28B0D883010F007
:101AA000911006C08091BD02182B1093BD0205C095
:101AB0008091BC02182B1093BC020E947C10DEC1E6
:101AC0008B2D0E943814112309F4EAC180E28B0D9A
:101AD000883080F1992071F110958091BC02182313
:101AE0001093BC022AC0812F807F1F70803211F0BA
:101AF0001295107F8B2D992021F0F1E09F16D9F1DE
:101B000049C08091040282FD1BC0002369F01123AB
:101B100039F08091BD02182B1093BD020E947C10F9
:101B200080E00E947314BCC180E00E94381411232D
:101B300009F4B6C1812F0E9475100E947C10B0C1BB
:101B4000002381F08091BE02AA2051F021E0A21270
:101B500007C0182B181709F4A3C11093BE02A0C127
:101B6000812B10C0AA2021F041E0A41609F498C1ED
:101B70000E946F1027C0002341F055E05A1508F469
:101B80008FC1812F0E942E148BC184E08A1508F426
:101B900087C118C0002349F0AA2099F3F701858175
:101BA00080FF6CC18F708583ECCFAA2059F08933F8
:101BB00009F073C1FFEF27EE43E0F15020404040B1
:101BC000E1F769C1812F0E9427146AC1812F869590
:101BD0008695837019F0813061F062C1002321F095
:101BE0008B2D912F937002C080E090E00E943629E7
:101BF0005DC1002321F08B2D912F937002C080E0F6
:101C000090E00E94202952C18B2D002319F00E94E0
:101C10001A3402C00E9461338CE08B0D8530D0F500
:101C2000282F81E090E0FC0102C0EE0FFF1F2A95F3
:101C3000E2F79F0186E0E4ECF2E0DE011796019006
:101C40000D928A95E1F786E0FE013796DE011D963A
:101C500001900D928A95E1F79885002319F0892F5C
:101C6000822B03C0822F809589238E8796E0FE0108
:101C70003D96DE01119601900D929A95E1F78A83C7
:101C800086E0FE013196A4ECB2E001900D928A95B7
:101C9000E1F70CC10E94423309C1812F8370A9F57D
:101CA000011102C14B2D429546954770440F440FD8
:101CB0008B2D8F7090E09C01042E01C0220F0A949E
:101CC000EAF7B4FE08C08FE090E001C0880F4A95A3
:101CD000EAF7809501C080E01695169513701230D2
:101CE00069F088F490916003113019F0822B8923F8
:101CF00002C0922B892B0E940114D6C0822B909196
:101D000060038927F8CF822BF6CF002319F0812FAB
:101D1000817001C08695882309F4C6C04B2D429579
:101D200046954770440F440F8B2D8F7090E09C01B7
:101D3000042E01C0220F0A94EAF7B4FE08C08FE017
:101D400090E001C0880F4A95EAF7809501C080E0D5
:101D5000169516951370123059F078F49091DF03B0
:101D6000113019F0822B892309C0922B892B06C0D0
:101D7000822B9091DF03892701C0822B0E94AA1336
:101D800093C01F70002339F0812F0E94F5138B2D13
:101D90000E942E1489C08B2D0E942714812F0E942F
:101DA000AF1382C08B2DF2EF9F1681F1F91538F039
:101DB00020EF921659F041EF941619F15BC053EFE2
:101DC000951659F194EF9916C1F054C0002381F093
:101DD000E4E0EA1508F464C01F7181E090E0012E90
:101DE00001C0880F0A94EAF79091DF03892720C089
:101DF000F5E0FA1508F454C0EFCF8091040282FD9B
:101E00001AC0002329F0812F8F7127C00023D9F336
:101E1000812F8F710E94AF1343C0002341F01F71C7
:101E200081E0012E01C0880F0A94EAF701C080E02A
:101E30000E94AA1335C0002399F01F71812F0E94C0
:101E4000F5138091040282FF07C028E0129FC001B1
:101E5000112483608093B302812F0E94F51320C068
:101E600081E00E94BC1341E04A15D0F482E00E9458
:101E7000BC1316C0002321F0AA2029F28B2D51CECD
:101E8000AA2031F2893349F45FEF87EE93E0515095
:101E900080409040E1F700C000008B2D0E94381474
:101EA00088EF8C0D843010F40E945A29DD2009F44B
:101EB0009CC08091B30280FD98C0F7011282859585
:101EC000859585950E94F513C7010E94B9098091F7
:101ED000B3028595859585950E94AF1386C0003124
:101EE0004FE5140711F481E006C001315FE51507E5
:101EF00009F0E4CA82E00E94F513C6CA89E20FCD58
:101F0000053CECE51E0709F448C0C0F4033C2CE591
:101F10001207C9F1E8F5023C5CE5150709F063CD4D
:101F20009091B00381E089278093B0031092210142
:101F300080916603816080936603A8CA073C9CE594
:101F40001907A9F178F1083CFCE51F07A9F1093C44
:101F50002CE5120709F047CD4CED5AE26AEE7AE221
:101F600039C00C3C9CE5190789F1B8F54CEA57E2F9
:101F70006AEB77E22FC0003D2CE5120708F086CA15
:101F800061E08DE02FC043E45BE26EE47BE222C0BF
:101F90004EE45BE263E47BE21DC044E15BE26FE19F
:101FA0007BE218C04FE15BE264E17BE213C048EFE3
:101FB0005AE266E07BE20EC046E05BE268EF7AE25E
:101FC00009C04AEE5AE26CED7AE204C04AEB57E2ED
:101FD0006CEA77E20E94C52A59CA61E081E002C03A
:101FE00061E085E00E942A2B51CA6796EBE00C94D1
:101FF000683568EE7EEF80E090E00E94C13460E0DA
:1020000082E090E00E94A33460E083E090E00E94D0
:10201000A3341092600360E084E090E00E94A33457
:1020200064E082E290E00E94A33460E085E090E00A
:102030000E94A33460E086E090E00E94A3346FEF3A
:1020400087E090E00E94A33440E050E0BA0188E0CD
:1020500090E00E94B53460E08DE090E00E94A334EF
:1020600040E050E0BA0188E190E00E94B53460E0C1
:1020700087E190E00E94A33440E050E0BA018CE197
:1020800090E00E94B53460E070E080E290E00E9451
:10209000C13440E050E0BA0188E190E00E94B534DC
:1020A00080E00E947D2A0E949C2A40E050E0BA0114
:1020B0008FE090E00E94B5340E94662B8091660309
:1020C00081608093660321E04FEF6FEF85ED90E034
:1020D0000E94CC2A61E081E00E942A2B0895809121
:1020E000BE0281111092BE02089580959091BD02AA
:1020F00089238093BD0208959091BD028091BC0216
:10210000982B90936A028091BE02882389F0892BD4
:1021100080936A02ECE6F2E097E080E0915029F0CB
:1021200021912223D9F38F5FF9CF81110E946F1083
:1021300048E050E064EB72E08AE692E00E94AD3540
:10214000892BA9F088E0EAE6F2E0A4EBB2E0019086
:102150000D928A95E1F7E0919F03F091A0033097EB
:1021600031F00280F381E02D8AE692E0099508952E
:1021700080E090E00E94362980E090E00E942029D3
:102180001092BC020E947C10EDEEF3E086E0DF01CD
:102190001D928A95E9F71092E7031092E6031092D8
:1021A000E8030E94423308958091B2029091810227
:1021B000891719F08F5F8770FBCF08950F931F93D6
:1021C000CF93DF938091800282958F7009F05AC07F
:1021D00080917D02882309F455C08091B20210914C
:1021E000810260917B0270917C02C0917E02D0914D
:1021F0007F0291E06F3F09F090E0292F06E0811700
:1022000009F440C0209721F07F3F21F030E003C067
:1022100031E001C0322F90E030FD31C0089FF00165
:10222000099FF00D1124DF01AE57BD4F11963C916F
:102230001197371324C03C91361321C012963C915C
:10224000129731111CC013964D915C9114974C1B41
:102250005D0B483C510598F4809180028F7080613D
:1022600080938002E957FD4F80818F708061808369
:102270008BE792E00E94B9090E94D41003C0019636
:102280008770BDCFDF91CF911F910F910895CF92AD
:10229000DF92FF920F931F93CF93DF936C01009116
:1022A000DF0380916003082BC7E0D0E010E0C80195
:1022B0000C2E02C0959587950A94E2F780FD04C024
:1022C0002197A8F7F12C09C0FC2EB6018C2F0E9493
:1022D0006A2A0E94291B019799F38F2DDF91CF91D4
:1022E0001F910F91FF90DF90CF900895CF93DF93D0
:1022F000EC010E944711BE010E946A2A0E94291B1C
:10230000DF91CF910895CF93FC018081918123814A
:102310003481232B31F09F3F31F491E08F3F19F44A
:1023200003C091E001C090E0C92FC17090FD1CC0B6
:10233000808191810E94761192959F70963079F0FC
:1023400010F4925001C09A50923088F4803F71F09E
:1023500018F4883E60F40AC0843F49F407C0883E00
:1023600028F0813F21F402C0C0E001C0C1E08C2F01
:10237000CF910895A1E1B0E0E0ECF1E10C944C358F
:102380008C0185E0F801DE011D9601900D928A9581
:10239000E1F7F801E28090917B0260917C0240912C
:1023A0007E0250917F024115510531F06F3F31F4AB
:1023B00081E09F3F19F403C081E001C080E0F82F65
:1023C000F1709F2E80FD1BC1F80130812181C380F7
:1023D000D4808BE7A82E82E0B82EF0907D02F60123
:1023E000E41BF50BFF2009F4C7C080918002E83C94
:1023F000F10508F092C0482F407F09F051C06213E8
:1024000011C093130FC0FE2CE1100CC08F708061BF
:1024100080938002C5010E94B90980918002F80171
:1024200085832AC1C114D10431F02F3F31F481E0FA
:102430003F3F19F403C081E001C080E080FD03C08C
:1024400081E08E2502C080E090E0F82FF170FF2E31
:1024500080FF1CC08091B2024091810256E0841737
:1024600009F4E8C090E0589FF001599FF00D112445
:10247000EE57FD4F6181261306C06081631303C0D0
:102480006281E61203C001968770E9CFFE2CEE2030
:1024900009F4F2C08091800281608093800249C07B
:1024A000621306C0931304C0E11002C0F80186C095
:1024B000C8010E948311882351F1EE2041F120913F
:1024C0008002822F82958F7090E0029774F0809145
:1024D0007B0290917C0298878F831986DB86CA865F
:1024E0002C87CE0107960E94B90986E0F801ABE778
:1024F000B2E001900D928A95E1F70E94DE100AC0C9
:102500006217C9F0C8010E94831181111EC0C80161
:102510000E94B909FF24F394AFC0482F407F81F790
:102520008BE792E00E94B90986E0F50111928A9545
:10253000E9F7F12CA1C09313E5CFE110E3CFF80147
:102540008583C8010E94B90954C0EE2001F320918F
:102550008002822F82958F7090E0029734F28091F2
:102560007B0290917C029A8389831B82DD82CC82DC
:102570002E83CE010196B7CFE83CF105D0F5FE2CB5
:10258000EE2029F2621327C0931325C02091800208
:1025900020FD18C0822F82958F70482F50E0411582
:1025A000510581F0F80125834F30510541F08F5FCF
:1025B000982F9295907F822F8F70892B8583C801E9
:1025C0000E94B90986E0F801ABE7B2E001900D92F4
:1025D0008A95E1F751C0C8010E948311811185CF0E
:1025E00080918002816080938002C8010E94B909B5
:1025F00043C086E0F50111928A95E9F73DC0EE20CF
:1026000009F485CFC8010E948311F82E882309F4AC
:102610007ECF86E0F801ABE7B2E001900D928A959B
:10262000E1F780917B0290917C020E9476110E94DA
:10263000DE1022C03D872E878D859E850E947611F3
:10264000292F22952F70223028F49F7039F08111A4
:1026500005C00BC0243028F49F7049F4805E883098
:1026600020F0C8010E94B9099F2CF92C05C0F8017F
:102670009581907F99F7F9CF8F2D6196EBE00C94BF
:102680006835292F953078F5843068F590E034E08E
:10269000239F800D911D1124682F677023E096956C
:1026A00087952A95E1F7FC01EE0FFF1FE80FF91F50
:1026B000EE58FD4F40E050E080E0219130E0062EE2
:1026C00002C0369527950A94E2F721703327042E2D
:1026D00001C0220F0A94EAF7822B4F5F5F4F43300D
:1026E000510559F7089580E00895292F953088F510
:1026F000843078F590E034E0239F800D911D112403
:10270000282F277051E001C0550F2A95EAF723E0E2
:10271000969587952A95E1F7FC01EE0FFF1FE80FCC
:10272000F91FEE58FD4F20E030E070E04081CB0112
:10273000022E02C0969587950A94E2F781708195E2
:1027400084278523842781932F5F3F4F23303105D2
:1027500069F708958093DF030E94B810089521E07F
:1027600030E001C0220F8A95EAF720958091DF03BF
:1027700082230E94AA1308952091B3028095822398
:102780008093B302982F977099F430E0482F082E69
:10279000000C550B2417350759F09091040292FF55
:1027A00007C08595859585950E94AF131092B30259
:1027B0000895CF93C0910402C2FB992790F998170E
:1027C00091F080FBC2F9C09304026091030284E09F
:1027D00090E00E94A3346C2F82E290E00E94A33428
:1027E00082E00E94BC13CF91089521E030E001C047
:1027F000220F8A95EAF78091DF03822B0E94AA13A9
:102800000895809360030E94B81008951092BD024D
:1028100086E0ECE6F2E0DF011D928A95E9F70E947E
:10282000B8100895882341F080959091BC028923C7
:102830008093BC020E947C100895882339F0909107
:10284000BC02892B8093BC020E947C1008958823CF
:1028500021F00E9475100E947C100895882339F0A1
:102860009091BD02892B8093BD020E947C10089537
:102870008823C1F19CEF980F913A60F4EAE6F2E008
:102880009281891301C01282319692E0E037F907F4
:10289000B9F70DC090E2980F983060F4877091E01E
:1028A00001C0990F8A95EAF7892F0E9475100E943E
:1028B0007C1008959BE5980F933028F480E090E019
:1028C0000E943629089598E5980F973128F480E002
:1028D00090E00E9420290895803F20F00E946133FB
:1028E0000E9442330895CF93882309F458C0C82F1B
:1028F0008CEF8C0F813AF8F4ECE6F2E082E792E09C
:102900002191C21721F08E179F07D1F70EC0EAE67A
:10291000F2E080E792E02281C21301C01282319678
:102920008E179F07C1F70E947C106C2F8AE692E0F9
:102930000E94062910C080E28C0F883078F4C7709E
:1029400081E090E001C0880FCA95EAF79091BD023E
:10295000892B8093BD020E947C1021C0EBE5EC0F17
:10296000E33040F4F0E0E359FE4F808190E00E94B4
:10297000362915C0E8E5EC0FE73150F4F0E0EE0F32
:10298000FF1FE059FE4F808191810E94202907C0DE
:10299000C03F28F08C2F0E941A340E944233CF91FE
:1029A00008951F93CF93DF93182F893319F0C0E058
:1029B000D0E002C0C0E5D0E0812F0E9473142097C0
:1029C00041F08FE99FE00197F1F700C000002197E7
:1029D000F6CF812F0E943814DF91CF911F91089577
:1029E00080E008959091030292FF0DC0282F287176
:1029F000283019F4877F846006C0282F2471243082
:102A000011F48B7F886093FF0DC0282F2871283127
:102A100019F4877E846106C0282F2471243111F4B3
:102A20008B7E88612091040220FF0DC0382F387101
:102A3000383019F4877F816006C0382F317131300A
:102A400011F48E7F886021FF0DC0282F2871283156
:102A500019F4877E816106C0282F2171213111F47C
:102A60008E7E886194FD877E0895F894E82FE29524
:102A7000EF70F0E031A1282F2F7081E090E001C0CD
:102A8000880F2A95EAF7982F9095932391A392A106
:102A9000892B82A378940895A9E3B0E0E2E5F5E1FB
:102AA0000C9445357E012EE1E20EF11C85E0D70144
:102AB0001D928A95E9F700E511E06701AA24A39425
:102AC000B12CF9E58F2EF1E09F2EF80180818F3F28
:102AD00009F440C0F894E82FE295EF70F0E021A1EE
:102AE0008F70A50102C0440F551F8A95E2F7CA01F5
:102AF000922F982B91A392A18095892382A37894F9
:102B000000C0E5E5F1E0712C31E021912F3F89F023
:102B1000A22FA295AF70B0E090968C9190E02F70AC
:102B200002C0959587952A95E2F780FD02C0832F14
:102B300001C080E0782A330F8E169F0631F7D80146
:102B40008C918F3F11F00E943515B0EABA95F1F7DC
:102B5000F60170820F5F1F4FFFEFCF1ADF0A21E0EF
:102B60000535120709F0B1CF45E050E0B7018EEF0F
:102B700091E00E94AD35892B89F085E0F701AEEF39
:102B8000B1E001900D928A95E1F781E08093C10256
:102B90000E94D1289093C0028093BF028091C1020D
:102BA000811102C01BA221C08091BF029091C0027E
:102BB0000E94B6280597B0F345E050E06EEF71E053
:102BC00082E292E00E94AD35892B61F085E0EEEF64
:102BD000F1E0A2E2B2E001900D928A95E1F731E0D6
:102BE0003BA301C01BA21092C1024E0148E1840E1A
:102BF000911C86E0D4011D928A95E9F78FEF9FEF33
:102C00009F878E87998B888B9B8B8A8B9D8B8C8BD8
:102C10001E8A1F8A41E050E0BE016A5E7F4F81E15B
:102C200090E00E94F42C182F8E89882391F044E0C4
:102C300050E0BE01625F7F4F86E190E00E94F42C7D
:102C4000182B8E859F859E878F8788899989988B79
:102C5000898B8E89823090F044E050E0BE016E5E38
:102C60007F4F8DE190E00E94F42C182B8A899B897C
:102C70009A8B8B8B8C899D899C8B8D8B11116BC44E
:102C80000E949A32FE013E967F0178EDC72E72E0D7
:102C9000D72E8601B12C612CA12C77247394D701F7
:102CA0002D913C912F3FBFEF3B0741F0F70182810F
:102CB00093818F3FFFEF9F0709F046C0D80191969F
:102CC0005C90B1E05B1226C0F80111A2608D718D9D
:102CD000828D938D0E949A28623C714081059105F6
:102CE000C8F4D80118968D919C911997099643972D
:102CF00088F41A968D919C911B970996439750F4EE
:102D00000E94C528F801648F758F868F978F50A217
:102D1000AA24A394D80155961C921E9254975796B4
:102D20001C921E92569719961C921E9218971B96EB
:102D30001C921E921A9751961C921E92509753966F
:102D40001C921E9252976DC0D8019196EC91D701BA
:102D50004D915D916D917C91E1111EC0F80171A2C0
:102D6000448355836683778340835183628373836F
:102D70000E94C528D80158966D937D938D939C939E
:102D80005B97F70180819181A281B381F8018487EB
:102D90009587A687B78744C0D8011C96ED91FC9112
:102DA0001D97D901AE1BBF0BFD01D8015596FC93B1
:102DB000EE9354971E96ED91FC911F97DC01AE1B8C
:102DC000BF0BFD01D8015796FC93EE935697ED91FA
:102DD000FC91D901AE1BBF0BFD01D8015196FC93AC
:102DE000EE9350971296ED91FC911397DC01AE1B78
:102DF000BF0BFD01D8015396FC93EE935297F80157
:102E0000408351836283738344815581241B350B36
:102E10003187208726813781821B930B9387828796
:102E20006B2CF4E0EF0EF11C0E5D1F4FB39422E00B
:102E3000B21235CF86E0D4011D928A95E9F78091D0
:102E40001C033091C302882379F02FEF280F81E013
:102E500090E001C0880F2A95EAF7832329F41092A5
:102E60001C0381E08093C2023111398F8E89811158
:102E70004EC08DE0FE013196DF01E82E1D92EA94EE
:102E8000E9F7ABECB2E001900D928A95E1F7A11061
:102E90000BC00E94C5286093F4027093F5028093E2
:102EA000F6029093F702C0C210921C03D6019096CE
:102EB0008C91882301F16091060270910702809144
:102EC0000802909109020E949A28653671058105D1
:102ED000910588F0F601648D758D868D978D0E9421
:102EE0009A28623C71408105910528F480911C0369
:102EF0008F5F80931C03D60190961C92B2E2CB0E9A
:102F0000D11CECE1CE16E3E0DE0681F6C2CF8130C3
:102F100091F5262D30E042E2649EF0011124E85242
:102F2000FD4F8089918997FD0196959587958A8FA8
:102F300082E2829FF001839FF00D1124E852FD4F41
:102F40008289938997FD0196959587958B8F82E26B
:102F5000829FF001839FF00D1124E852FD4F808184
:102F60009181A281B38184879587A687B78781E005
:102F70008093C20259C2823009F04CC2609116039C
:102F80007091170380911803909119030E949A2859
:102F9000633C71408105910508F43CC2E091D80280
:102FA000F091D902FBA7EAA7C090FA02D090FB02E9
:102FB000DDA6CCA62F01612C712C4C185D08610890
:102FC0007108E090DA02F090DB02FFA6EEA6E09135
:102FD000FC02F091FD02F9ABE8AB4701A12CB12C4A
:102FE0008E1A9F0AA108B1082090EC023090ED02E1
:102FF000E0910E03F0910F030091EE021091EF02A9
:10300000C0901003D0901103DDA2CCA22E9E90019F
:103010002F9E300D3E9E300D11240C9DC0010D9D44
:10302000900D1C9D900D11247901E80EF91EFFA250
:10303000EEA2F092CC02E092CB024091E0025091DD
:10304000E1028091020390910303489F9001499F00
:10305000300D589F300D11246091E2027091E3020F
:103060004091040350910503649FC001659F900D3A
:10307000749F900D11246901C80ED91ED9A6C8A647
:10308000D092CE02C092CD02A3019201C301B2013F
:103090000E94C7346B017C0135E0F594E794D79426
:1030A000C7943A95D1F7A5019401C501B4010E94D6
:1030B000C734DC01CB0145E0B595A7959795879579
:1030C0004A95D1F7A7019601280F391F4A1F5B1FA8
:1030D0002AAB3BAB4CAB5DAB2093D3023093D40215
:1030E0004093D5025093D6028091CF029091D002A6
:1030F000A091D102B091D202892B8A2B8B2B09F09F
:1031000051C06091DC027091DD02AB0160E070E0C3
:103110008091FE029091FF026A017B01C81AD90AD0
:10312000E108F108C701B601C090DE02D090DF02CD
:10313000E12CF12C2091000330910103C21AD30A33
:10314000E108F1089B01AC010E94C7349B01AC016E
:1031500085E055954795379527958A95D1F72EABFC
:103160003FAB48AF59AFA7019601C701B6010E9416
:10317000C734DC01CB0125E0B595A79597958795D8
:103180002A95D1F7CEA8DFA8E8ACF9AC8C0D9D1D2F
:10319000AE1DBF1D8093CF029093D002A093D102A9
:1031A000B093D2028091D702811125C08091CF02C5
:1031B0009091D0026AA97BA9681B790BE8A4F9A4B5
:1031C00029EEE21623E0F2062CF0603273409CF404
:1031D00080E20FC0C8A4D9A428E1C2162CEFD20601
:1031E00054F464527A4F693B7B4010F080E101C097
:1031F00080E38093D7028091D702893238F48032FD
:1032000050F48051833008F48EC0E7C0805383307F
:1032100008F4B3C0E2C04EA15FA1453651050CF4DD
:1032200080C017FF06C0902F88279195819591093E
:1032300005C00115110539F0902F88276C01990FF1
:10324000EE08FF0804C0C12CD12C7601C394FE2FD8
:10325000EE274F010F2E000CAA08BB08F7FD20C077
:10326000C501B4016C197D098E099F09C80CD91CD0
:10327000EA1CFB1C5527F7FC5A954F2D3E2D2D2D92
:103280000E94FF34D9012FEF3FE10E942B35472FD9
:10329000582F692F772767FD7A958FEF9FE11FC021
:1032A000C701B601680D791D8A1D9B1DC818D90874
:1032B000EA08FB085527F7FC5A954F2D3E2D2D2D7A
:1032C0000E94FF34D9012FEF3FE10E942B35472F99
:1032D000582F692F772767FD7A958DEF9FE5841B1F
:1032E000950B17FF03C09195819591091816190642
:1032F0000CF0019742E22FEF3FE051E2B90162503A
:10330000704E2817390720F46817790708F0542FF2
:103310009B014F5F213F6FEE360781F75093D70235
:103320005CC080E258C0CEA0DFA024E2C2162AEF23
:10333000D2060CF5D101AE1BBF0BA30192010E9476
:103340003D356B017C01D801ECA1FDA1AE1BBF0B8B
:10335000A50194010E943D35DC01CB018C0D9D1D22
:10336000AE1DBF1D181619061A061B0614F481E1BE
:1033700032C082E130C080E12EC02AA53BA5CCA49A
:10338000DDA42C193D09ECA0FDA00E191F09209FFA
:10339000C001219F900D309F900D11242EA53FA5B7
:1033A000C8A8D9A82C193D09D101AE1BBF0B2A9F73
:1033B000A0012B9F500D3A9F500D1124841B950B9B
:1033C0008536910514F082E306C08C399F4F14F4C2
:1033D00081E301C080E38093D7028091D7028F7090
:1033E00019F18E859F85A889B9898093E40290930D
:1033F000E502A093E602B093E7028A899B89AC8933
:10340000BD898093060390930703A0930803B093AC
:1034100009030AC01092D7021092CF021092D00274
:103420001092D1021092D2021091C2021092C202E6
:103430008091D7028132A1F038F4813109F448C07B
:10344000823109F460C085C0853231F1873229F0BC
:10345000833209F07EC08EEF01C082E08C8FDEC027
:103460006091060270910702809108029091090212
:103470000E949A28653671058105910508F469C096
:103480008091050260E070E0882319F080E398E005
:1034900054C087EB90E051C0609106027091070222
:1034A00080910802909109020E949A286536710560
:1034B0008105910508F44DC08091050260E070E03F
:1034C000882319F08FE298E038C086EB90E035C091
:1034D00060910602709107028091080290910902A2
:1034E0000E949A28653671058105910590F18091B9
:1034F000050260E070E0882319F08EE298E01DC0BC
:1035000087E591E01AC060910602709107028091F0
:103510000802909109020E949A286536710581057A
:103520009105B8F08091050260E070E0882319F001
:103530008DE298E002C086E591E00E9415320E947B
:10354000C528609306027093070280930802909347
:103550000902111163C02091100180911101909115
:1035600012014091130150911401452B31F08F3F0E
:1035700031F481E02F3F19F403C081E001C080E005
:1035800080FD02C0892F02C080E090E080FF14C05F
:10359000109212010E94D1288160782F909314011B
:1035A000809313014091100150911101609112011B
:1035B000809114010E944E312091150180911601D5
:1035C000909117014091180150911901452B31F04C
:1035D0008F3F31F481E02F3F19F403C081E001C037
:1035E00080E080FD02C0892F02C080E090E080FF73
:1035F0002BC0109217010E94D1288160782F9093E0
:1036000019018093180140911501509116016091A4
:103610001701809119010E944E3116C081E08093FC
:10362000CA0286E0FE017896DE01119601900D92A5
:103630008A95E1F786E0FE013196A4ECB2E00190B4
:103640000D928A95E1F787CF8BA1E996E2E10C9480
:103650006135CF93DF938238910569F1B0F48133FE
:10366000910509F477C048F48932910509F469C0DD
:103670008A32910509F473C092C08533910509F42B
:103680005BC089339105B9F08AC0833E910591F101
:1036900038F4803E9105D1F0823E910531F17FC032
:1036A000863E9105D9F1873E9105E9F1843E910569
:1036B00009F075C028C02091030220FD5BC021FDE8
:1036C00059C02091040223FD61C069C080910302AA
:1036D00080FD4AC08091040280FF4CC080910302AB
:1036E00084FD4EC183EE90E04DC18091030282FFC4
:1036F0003EC0F4CF8091030282FD39C08091040264
:1037000080FD38C0EBCF8091040281FF39C08091E9
:10371000030284FD35C187EE90E034C1809103023D
:1037200083FF2BC0F4CF8091030283FD26C08091DC
:10373000040281FD25C0EBCF8091030285FD26C0E8
:1037400022C08091030285FD1EC08091040283FF88
:103750001DC00AC08091030286FD1BC01DC0809160
:10376000030286FD19C015C089E390E00BC182EE0B
:1037700090E008C180EE90E005C186EE90E002C1C5
:1037800084EE90E0FFC085E390E0FCC089E290E029
:10379000F9C08AE290E0F6C081E390E0F3C08115C1
:1037A00031E5930708F061C0811520E59207B0F07C
:1037B0009C012370332741E050E002C0440F551FA5
:1037C0002A95E2F7282F2695269580E2289F9001DA
:1037D0001124CA01822B932B9D68D4C0883E910589
:1037E00068F5803E910508F0CDC0883A9105B8F49F
:1037F000853A910548F0855AE82FF0E0E359FE4FED
:10380000808190E09064BEC08130910509F4B5C01C
:1038100008F4B6C08430910508F4B2C0B3C08F3B41
:10382000910508F0ADC0885AE82FF0E0EE0FFF1FB9
:10383000E059FE4F808191819464A4C0811530E2EB
:10384000930758F4811521E0920708F09BC0803F50
:10385000910508F495C0906595C0811530E49307F3
:1038600008F48EC09F70906A8DC0811525E592077F
:1038700008F042C0811534E5930728F0982F882777
:10388000846F906A7FC0811523E59207B0F09C0198
:103890002370332741E050E002C0440F551F2A95A2
:1038A000E2F7282F2695269580E2289F9001112483
:1038B000CA01822B932B9A6865C0811532E5930764
:1038C00028F4982F8827816F906A5CC09C01237030
:1038D000332741E050E002C0440F551F2A95E2F71C
:1038E000282F2695269580E2289F90011124CA0151
:1038F000822B932B9C6846C0EC01C11589E5D80743
:10390000B0F4C11528E5D20728F09C2F8827806FD6
:10391000906A38C0C11536E5D30790F58C2F0E9408
:10392000F2148F7190E0982F882790622BC0C115F8
:103930008AE5D80790F48C2F8F700E94F21494E0DF
:10394000D695C7959A95E1F7CF70D0E0DC2FCC27BC
:10395000D0699E01282BC90115C0CE019056811552
:10396000904270F48D2F8F710E94F214282F2F71C6
:10397000CE0199279062922B05C081E090E002C0B1
:1039800080E090E0DF91CF910895CF9384E090E0C4
:103990000E948534C82F82E290E00E9485342C2F4B
:1039A00030E0A901582BCA01CF91089580E090E042
:1039B0000E948D34883E9E4F19F40E94AC2A0895CF
:1039C00080E00895EF92FF920F939701201B310939
:1039D0002F3F310519F010F02FEF30E02095382FF0
:1039E000320F08F43FEF832F0F91FF90EF9008956F
:1039F000EF92FF920F939701201B31092F3F310562
:103A000019F010F02FEF30E0322F3095482F430F90
:103A100008F44FEF842F620F0F91FF90EF900895FD
:103A2000EF92FF920F93972F093438F4B701601B80
:103A300071096F3F710519F010F06FEF70E0485F8A
:103A40005F4F4131510540F0A901485F5F4F41315F
:103A5000510510F06FEF70E06095482F460F08F4A5
:103A60004FEF842F37FF02C02D5F3F4F35952795CD
:103A7000359527956091B103620F792F0F91FF90D3
:103A8000EF900895EF92FF920F93E00EF11CF90171
:103A900037FF03C0F195E195F10924E0EE0FFF1F18
:103AA0002A95E1F7EF3FF10519F014F0EFEFF0E0A0
:103AB0009A0157FF03C031952195310994E0220FF7
:103AC000331F9A95E1F72E173F070CF4F901EE0D1D
:103AD000FF1DEF3FF10519F010F0EFEFF0E02E2F92
:103AE0002095382F320F08F43FEF832F0F91FF906E
:103AF000EF900895EF92FF920F93970195E0099F41
:103B0000200D311D11242F3F310519F010F02FEF3A
:103B100030E02095382F320F08F43FEF832F0F91BC
:103B2000FF90EF90089522E8241B08F420E0620F34
:103B300008954095282F429F412D1124842F0895E8
:103B4000E42FF0E0EE0FFF1FE753FE4F9081921B32
:103B500097FD9195292F38E1239F212D1124620F84
:103B60000895EF920F931F9393E0099F8001112412
:103B7000159507956E2D600F1F910F91EF90089589
:103B8000E42FF0E0EE0FFF1FEB54FE4F6589621B40
:103B90000895E42FF0E0EE0FFF1FE753FE4F608122
:103BA000621B0895622F0895E42FF0E0EE0FFF1FCF
:103BB000E753FE4F408134EE439F412D1124E82FFF
:103BC000F0E050E0445E5F4FDA01A21BB1099D01B5
:103BD000B7FF03C031952195310993E0220F331FC0
:103BE0009A95E1F7AF01421B530B9A0157FF02C0B0
:103BF00020E030E0582F259F212D1124822F089599
:103C0000E42FF0E0EE0FFF1FE753FE4F408134EE4C
:103C1000439F412D1124E72FF0E050E0445E5F4FB9
:103C2000DA01A21BB1099D01B7FF03C031952195AF
:103C3000310993E0220F331F9A95E1F7AF01421B40
:103C4000530B9A0157FF02C020E030E0279F212D3F
:103C50001124722F08950E9494270895FC019B015E
:103C6000009721F477FF2BC080E80895AC0197FFFF
:103C700004C044275527481B590BB901640F751F11
:103C800037FD0CC0241B350BC901A5E0880F991F17
:103C9000AA95E1F70E94EB3480E20CC0CB0165E00D
:103CA000880F991F6A95E1F7BA01621B730B0E9496
:103CB000EB3480E6861BF7FF03C08195089580E012
:103CC0000895EF920F931F93CF93DF93D62FC72FB3
:103CD000182FC9010E19010FBA010E942E1E081BD0
:103CE000202F219F212D1124822F6D2F7C2FDF91DA
:103CF000CF911F910F91EF900895EF920F931F9323
:103D0000CF93DF93D62F172FC82FC9010E19070F96
:103D1000BA010E942E1E702F781B719F712D1124E5
:103D20006D2F8C2FDF91CF911F910F91EF90089500
:103D3000FF920F931F93CF93DF93F62ED72F182F59
:103D4000C901C12FC01BBA010E942E1E982F990FC6
:103D5000890FC81B2C2F219F212D1124822F6F2DFD
:103D60007D2FCDB7DEB7E5E00C946E35FF920F9353
:103D70001F93CF93DF93F62E172FD82FC901C72F8C
:103D8000C01BBA010E942E1E982F990F890F7C2FFD
:103D9000781B719F712D11246F2D8D2FCDB7DEB73C
:103DA000E5E00C946E35482F982F46FD9095E92F4D
:103DB000EF739F7046FD9F5FE295EF70EE0FF0E0AE
:103DC000E256FE4F2181299F802D212D11248295BD
:103DD0008F702295207F822B3081982F930F892F0F
:103DE00047FD8195805808950F931F93CF93DF93DC
:103DF000D62F072F182FC42F822F0E94D31EEC2FEF
:103E0000F0E0EE0FFF1FE753FE4F90819058890FAF
:103E100087FD8195880F682F2CE0629F612D11240A
:103E20006D0F702F812FDF91CF911F910F9108950A
:103E30000E94A0270895E0EBF3E081E38083809166
:103E40002C0190912D01A0912E0181839283A38357
:103E50008FE784838FEF858346E050E06CE170E06C
:103E6000CF010E949334109266030895BC01823002
:103E7000910508F40895613E8EE1780748F49B01AE
:103E800095E0369527959A95E1F748E0420F01C0F5
:103E90004FEF91E0242F30E0290F311D3595279504
:103EA000229FF001239FF00DF00D11246E177F0764
:103EB00018F44FEF420F04C02F3F39F091E0920FFA
:103EC000491740F78FEF890F08958FEF089520E08D
:103ED00030E0869F212D969F200D311D1124C901B0
:103EE0000895A0E0B0E0E7E7FFE10C944E35C82F5D
:103EF000809120018C130DC02091B003237030E01D
:103F000040911F0150E081E02417350719F480E04B
:103F100001C081E08170809324018091B50390916C
:103F20002301981739F08093230140E060E080E09E
:103F30000E942B1ECD3019F489EC9DE107C0CE30D4
:103F400008F081C1C63029F480E09EE10E94A72FCD
:103F50002AC0C73008F054C1C23009F438C008F490
:103F60006FC0D09122011091B2036091B403C430AC
:103F700009F4ACC008F007C1DD0FDD0F04E00D0F40
:103F8000023108F001E1E090B30370E4F72E2F2D29
:103F9000269F212D1124F22ED01708F4D1C081E0E4
:103FA000013108F075C0909122019F5F909322012A
:103FB00081112BC282E08093210180912401811123
:103FC00024C2C11122C283E0809321011EC2D0917C
:103FD0002201DD0FDD0F14E01D0F123108F011E199
:103FE000F090B2030091B303E090B103B701802FCA
:103FF0000E94B832D62EC72EB82E6091B4036E0D33
:104000007F2D802F0E94B832062FF72EE82ED11771
:1040100088F58D2F90E0FC01EB54FE4F36A92091DE
:104020002301232359F030FF04C02E2D402F6F2D84
:1040300003C02B2D4D2D6C2D0E94181FDF5FE7CF85
:10404000CC23E9F0C130E1F5D0912201DD0FDD0F85
:1040500014E01D0F123108F011E16091B10370916D
:10406000B2038091B3030E94B832062FF72EE82ED8
:10407000D11780F081E0113108F495CF09C080910B
:104080002401882329F040E060E080E00E942B1E9C
:1040900080E089CFED2FF0E0DF01AB54BE4FD69624
:1040A0008C9190912301982331F02E2D402F6F2D6C
:1040B000CF010E94181FDF5FDBCFCF3F09F474C12F
:1040C000809122018F5F8093220174CFDD0FDD0F7D
:1040D00004E00D0F023108F001E1C090B30350E499
:1040E000D52E3D2D369F312D1124D32ED01708F01B
:1040F00056CFED2EF12CF701EB54FE4F96A980918F
:1041000023018923D9F0F701EE0FFF1FE753FE4F7C
:104110006081D69EB001112445E0759567954A955A
:10412000E1F78091B103680F712F8C2D0E94B83296
:10413000462F282F672FC7010E94181FDF5FD6CF99
:10414000CD2ED12CF601EB54FE4F96A98091230180
:104150008923B9F0F601EE0FFF1FEB54FE4F85895E
:1041600082958F706091B1038F9D600D1124712F26
:104170008E2D0E94B832462F282F672FC6010E942D
:10418000181FDF5F09CFDD0FDD0F04E00D0F0231D7
:1041900008F001E1F090B103E090B30366956695F5
:1041A00066958091AC039091AD030E94671F0E94B9
:1041B000D31E805887FD8195880F282F3E2D239F81
:1041C000212D1124822F6F2D712F0E94B832162FAE
:1041D000F72EE82ED01708F0E2CEED2FF0E0DF0149
:1041E000AB54BE4FD6968C9190912301982331F019
:1041F0002E2D412F6F2DCF010E94181FDF5FEACFB8
:10420000C93029F488E99EE10E946930CCCECA30D9
:1042100058F4C73019F484ED9DE198CEC83009F008
:104220004FCF86EB9EE1F0CFCB3019F481E69EE1D3
:1042300004C0CC3028F48DE79EE10E94EF2FB3CE6E
:1042400082ED9DE183CEC43129F483E99DE10E9492
:104250003A2FA9CEC53108F060C0C03109F043C083
:10426000D0912201DD0FDD0F14E01D0F123108F097
:1042700011E1F090B2030091B303E090B1036091BB
:10428000B4036695669566958091AC039091AD03F5
:104290000E94671F0E94D31E805887FD8195880F5A
:1042A000682F2CE0629F612D11246E0D7F2D802FD1
:1042B0000E94B832062FF72EE82ED11708F0DACE7A
:1042C000ED2FF0E0DF01AB54BE4FD6968C9190916C
:1042D0002301982331F02E2D402F6F2DCF010E9406
:1042E000181FDF5FEACFC13158F4CE3019F480ECEB
:1042F0009DE12CCECF3009F0E3CE81EB9DE19DCF47
:10430000C23119F480EA9DE121CEC33118F484EF63
:104310009EE11CCE89E99DE19ACFC73159F4809185
:10432000B60321E0382F321B08F430E0832F60E120
:104330007DE10EC0C831E8F4C53169F48091B6035F
:1043400021E0382F321B08F430E0832F6AE77DE14B
:104350000E949D2E28CEC63109F0B2CE8091B603C0
:1043600021E0382F321B08F430E0832F62E47DE136
:10437000EFCFC93159F48091B60321E0382F321BB9
:1043800008F430E0832F62EE7CE1E2CFC93108F01F
:1043900094CE8091B60321E0382F321B08F430E030
:1043A000832F68EF7CE1D4CF8091AC039091AD0373
:1043B000A091AE03B091AF0388279C70AA27BB27BA
:1043C0002AE0B695A795979587952A95D1F78230DB
:1043D0009105A105B10571F083309105A105B105E5
:1043E00069F040E00197A105B10511F060E008C057
:1043F00064E102C044E160E080E003C044E164E1C4
:1044000084E10E942B1E82E0DFCDCDB7DEB7E9E06C
:104410000C946A3580912B0387FF11C08091E800CE
:1044200082FD05C08091AB038111F8CF11C080914E
:10443000E8008B770BC08091AB03882349F0809113
:10444000E80080FFF8CF8091E8008E778093E80045
:104450000895982F973068F59093E900981739F0F0
:104460007091EC002091ED005091F00003C0242FDA
:10447000762F50E021FD02C09F5FECCF3091EB0022
:104480003E7F3093EB003091ED003D7F3093ED00A7
:104490003091EB0031603093EB007093EC0020938F
:1044A000ED005093F0002091EE0027FDE5CF80E075
:1044B00008958F708093E90081E008952091310381
:1044C000309132032617370748F06115710539F42A
:1044D0002091E8002E772093E80001C0B901FC018B
:1044E00020E06115710579F18091AB038823F1F12A
:1044F0008530F1F18091E80083FD3CC08091E800B7
:1045000082FD2EC08091E80080FFEBCF2091F30068
:104510008091F20090E0922B6115710551F0883086
:10452000910538F421912093F100615071090196B1
:10453000F3CF21E0089709F020E08091E8008E7722
:104540008093E800CECF2111CFCF0AC08091AB037A
:10455000882361F0853061F08091E80083FD0AC016
:104560008091E80082FFF2CF80E0089582E0089514
:1045700083E0089581E008950895BC0184E00E94DD
:1045800039280895BC0183E00E9439280895AAE2E1
:10459000B0E0EDECF2E20C945435EBE2F3E083E3AF
:1045A00093E02091F10021938E179F07D1F780911E
:1045B0002C03833009F463C030F4813071F0823011
:1045C00009F49DC0B4C08A3009F489C08B3009F465
:1045D0006EC0893009F0ABC020C080912B03813AB6
:1045E00009F0A5C08091E800877F8093E800809162
:1045F0002F0390913003892B21F468E080E293E04F
:1046000003C060E080E090E070E00E945E22809154
:10461000E8008B778093E8008AC080912B03813279
:1046200009F085C080912F0390913003009719F015
:10463000029709F07CC08091E800877F8093E800B2
:104640008091E80082FD05C08091AB038111F8CF15
:10465000A5C02091F3008091F20090E0922B029788
:1046600031F48091F100813011F0863021F4809195
:10467000F10080931F038091E8008B7754C08091F4
:104680002B03813A09F053C080912F03909130039E
:10469000892B09F04CC08091E800877F8093E80067
:1046A0008091E80080FFFCCF80911E0137C080918F
:1046B0002B038132E1F580912F0390913003892BF8
:1046C000B1F58091E800877F8093E8000E940A227C
:1046D00080912D0380931E010E94061428C08091B2
:1046E0002B03813221F58091E800877F8093E800D9
:1046F0000E940A2280912E0380931E0318C080918D
:104700002B03813AA1F48091E800877F8093E80031
:104710008091E80080FFFCCF80911E038093F10020
:104720008091E8008E778093E8000E940A228091B1
:10473000E80083FF33C080912C03853019F0863068
:1047400041F02CC08FEF9FEF90931B0180931A01D3
:1047500021C080912E0390E08130910579F4809101
:104760001A0190911B010196C9F480913103909137
:10477000320390931B0180931A0110C0029771F4C9
:1047800080911C0190911D01019641F480913103AB
:104790009091320390931D0180931C018091E80059
:1047A00083FFDFC180912B0390912C03492F50E0B0
:1047B0004A30510508F0D5C1FA01EE59FF4F0C946B
:1047C0001E35803821F0823809F0CBC108C08091B5
:1047D000280390912903992389F082600FC080916A
:1047E0002F038F70873008F0BCC18093E90080915F
:1047F000EB0085FB882780F91092E9009091E80092
:10480000977F9093E8008093F1001092F10070C1BF
:10481000282F2D7F09F0A5C1882319F0823061F07F
:10482000A0C180912D03813009F09BC1933009F024
:1048300080E0809329032EC080912D0381112AC02E
:1048400080912F038F702FEF280F263008F089C139
:104850008093E9002091EB0020FF1CC0933021F4ED
:104860008091EB00806214C09091EB009061909376
:10487000EB0021E030E0A90102C0440F551F8A95EA
:10488000E2F74093EA001092EA008091EB00886022
:104890008093EB001092E9008091E800877F80937D
:1048A000E8000E940A225DC181115BC110912D03B5
:1048B0001F778091E3008078812B8093E3008091C3
:1048C000E800877F8093E8000E940A228091E80038
:1048D00080FFFCCF8091E30080688093E30011119A
:1048E00002C082E001C083E08093AB033AC18058EC
:1048F000823008F036C120912D0330912E032C3DDB
:1049000053E0350779F583E08A838AE289834FB7DC
:10491000F894DE01139620E03EE051E2E32FF0E050
:1049200050935700E49120FF03C0E295EF703F5F82
:10493000EF708E2F90E0EA3010F0C79601C0C0965D
:104940008D939D932F5F243149F74FBF8091E800ED
:10495000877F8093E8006AE270E0CE0101960E94B2
:104960005E22B4C080912F0390913003432F5527CE
:1049700043305105A9F068F44130510509F400C1F4
:104980004230510509F0EDC08BE590E0E5ECF1E037
:104990004BC04132510529F14232510589F1E1C044
:1049A000C901992781309105A1F058F0029709F0CB
:1049B000D8C0E2E3F2E0E4918E2F90E0E2E3F2E08F
:1049C00030C0E4E8F2E0E4918E2F90E0E4E8F2E019
:1049D00028C0EAE6F2E0E4918E2F90E0EAE6F2E009
:1049E00020C08330910508F0BCC0880F991FFC01DE
:1049F000E155FE4F0190F081E02D89E090E014C078
:104A00008330910508F0ADC0FC01EE0FFF1FE755A4
:104A1000FE4F0190F081E02DDC01AA55BE4F8C9134
:104A200090E0009709F49DC02091E800277F209333
:104A3000E80020913103309132032817390708F438
:104A4000C90140E0009789F12091AB03222309F4CA
:104A50003DC02530D9F12091E80023FD37C02091D9
:104A6000E80022FD2FC02091E80020FFEBCF40910D
:104A7000F3002091F20030E0342B009759F02830F9
:104A8000310540F444914093F100319601972F5F36
:104A90003F4FF3CF41E02830310509F040E020914D
:104AA000E8002E772093E800CDCF4111CDCF0AC08A
:104AB0008091AB03882351F0853041F08091E8006C
:104AC00083FD04C08091E80082FFF2CF8091E8006E
:104AD0008B778093E80045C0803809F042C0809110
:104AE000E800877F8093E80080912A038093F1009B
:104AF0008091E8008E77D3CE811133C080912D0351
:104B000090912E039927029764F58091E800877FA2
:104B10008093E80010912D0310932A030E940A222B
:104B2000111106C08091E30087FD02C081E001C041
:104B300084E08093AB0342E061EC81E00E94292293
:104B400042E261EC84E00E94292242E261EC82E0D0
:104B50000E94292242E260EC83E00E942922809197
:104B6000AB038091E80083FF10C08091E800877F4D
:104B70008093E8008091EB0080628093EB0005C099
:104B800082E190E0E0E2F2E04FCFAA96E3E00C94FD
:104B900070351F920F920FB60F9211242F933F93EF
:104BA0004F935F936F937F938F939F93AF93BF9335
:104BB000CF93DF93EF93FF93C091E900CF70809183
:104BC000EC00D82FD17080FDD0E81092E9008091E0
:104BD000F000877F8093F00078940E94C7221092A3
:104BE000E9008091F00088608093F000CD2BCF70B9
:104BF000C093E900FF91EF91DF91CF91BF91AF9109
:104C00009F918F917F916F915F914F913F912F91E4
:104C10000F900FBE0F901F901895E8EDF0E0808187
:104C20008E7F80831092E2001092DA001092E100F1
:104C3000A0EEB0E08C9181608C9380818F7780832F
:104C400019BCA7EDB0E08C918E7F8C9380818F7E14
:104C5000808310921D030895A0E0B0E0E2E3F6E245
:104C60000C944F35C8EDD0E088818F7E8883E7EDC6
:104C7000F0E080818160808384E082BF81E0809366
:104C80001D0388818E7F888302EE10E0F801108278
:104C90001092DA0081EEC82ED12CF60110828881A4
:104CA0008F77888388818068888388818F7D8883D7
:104CB00019BC1092AB0310922A0310922903109290
:104CC000280390EEE92EF12CF70180818B7F808301
:104CD00088818160888342E060E080E00E94292230
:104CE000F60180818E7F8083F801808181608083DE
:104CF000808188608083F70180818E7F80838881B6
:104D000080618883CDB7DEB7E8E00C946B351F92E5
:104D10000F920FB60F9211242F933F934F935F93EF
:104D20006F937F938F939F93AF93BF93EF93FF9373
:104D30008091E10082FF09C08091E20082FF05C0FE
:104D40008091E1008B7F8093E1008091DA0080FF09
:104D50002AC08091D80080FF26C08091DA008E7F23
:104D60008093DA008091D90080FF18C080E189BD6E
:104D700082E189BD09B400FEFDCF81E08093AB03E1
:104D800080911D0381110FC00E940D260E942C26C8
:104D90008091E20084608093E20005C019BC10920B
:104DA000AB0310921D038091E10080FF17C080913A
:104DB000E20080FF13C08091E2008E7F8093E200CA
:104DC0008091E20080618093E2008091D80080624F
:104DD0008093D80019BC85E08093AB038091E100FB
:104DE00084FF30C08091E20084FF2CC080E189BD47
:104DF00082E189BD09B400FEFDCF8091D8008F7D8E
:104E00008093D8008091E1008F7E8093E1008091B3
:104E1000E2008F7E8093E2008091E20081608093C7
:104E2000E20080912A03882311F084E007C080917A
:104E3000E30087FD02C081E001C083E08093AB0303
:104E40008091AB038091E10083FF27C08091E20055
:104E500083FF23C08091E100877F8093E10082E09F
:104E60008093AB0310922A038091E1008E7F8093A0
:104E7000E1008091E2008E7F8093E2008091E20069
:104E800080618093E20042E060E080E00E9429229D
:104E90008091F00088608093F000FF91EF91BF91C6
:104EA000AF919F918F917F916F915F914F913F91C2
:104EB0002F910F900FBE0F901F9018952091E40036
:104EC0003091E50095E64091EC00842F817040FF21
:104ED00023C08091E80080FD1DC08091AB03882332
:104EE00099F0853099F08091EB0085FD11C04091DB
:104EF000E4005091E5002417350729F3915011F093
:104F00009A01E1CF84E0089582E0089583E0089556
:104F100081E0089580E008954091E80042FFDDCFF0
:104F2000089580911F030895E7E6F3E093E0EA39DE
:104F3000F90729F08183608342833396F7CF089580
:104F4000FC01EE0FFF1F8E0F9F1FFC01E959FC4F64
:104F50006183408322830895E0EBF3E0248138E00D
:104F6000231B08F420E024838091660381608093F2
:104F700066030895E0EBF3E0248138E0230F08F4A2
:104F80002FEF2483809166038160809366030895E8
:104F9000539A8BB1877F9BB198602FB7F894E7E65F
:104FA000F3E033E0EA39F30789F0319148E09BB947
:104FB000000000C037FF8BB9330F000000C000C0F5
:104FC00000C08BB900C04A9591F7EBCF2FBF8FE59A
:104FD00094E00197F1F700C00000089524E02093C9
:104FE000E9002FEF3091E800215035FD06C035ED86
:104FF0003A95F1F700002111F5CF2091E80025FF47
:105000000BC040E050E066E070E00E94BD3080914F
:10501000E8008E778093E8000895CF93DF9321E036
:105020002093E9002FEF3091E800215035FD06C0B4
:1050300035ED3A95F1F700002111F5CF2091E80008
:1050400025FF14C0EC0140E050E068E070E00E94F1
:10505000BD308091E8008E778093E80088E0FE0103
:10506000A0E2B3E001900D928A95E1F7DF91CF9134
:1050700008958093A8037093AA036093A903809175
:10508000AB038430F9F48093E9008FEF9091E8004E
:10509000815095FD06C095ED9A95F1F700008111BC
:1050A000F5CF8091E80085FF0DC040E050E063E05F
:1050B00070E088EA93E00E94BD308091E8008E772E
:1050C0008093E800089587E797E79093010880931D
:1050D00000089AE088E10FB6F894A89580936000E4
:1050E0000FBE90936000FFCF78941F920F920FB67F
:1050F0000F9211248F939F93AF93BF938091A4033A
:105100009091A503A091A603B091A7030196A11DBC
:10511000B11D8093A4039093A503A093A603B0931D
:10512000A703BF91AF919F918F910F900FBE0F90EA
:105130001F901895CF92DF92EF92FF922FB7F894BD
:10514000C090A403D090A503E090A603F090A7031D
:105150002FBFA7019601261B370B480B590BCA011D
:10516000B901FF90EF90DF90CF9008959C014FB769
:10517000F8948091A4039091A503A091A603B09107
:10518000A7034FBF821B930B08952FB7F89460912C
:10519000A4037091A5038091A6039091A7032FBF4C
:1051A00008952FB7F8948091A4039091A503A0913E
:1051B000A603B091A7032FBF08951F920F920FB6B9
:1051C0000F9211248F939F93AF93BF938091A3036A
:1051D000811113C08091A4039091A503A091A6030F
:1051E000B091A7034196A11DB11D8093A403909394
:1051F000A503A093A603B093A703BF91AF919F917E
:105200008F910F900FBE0F901F9018959C01FC017D
:1052100032969FEF80E04191461789F09F3F19F445
:10522000411101C0982F8F5F8630A9F79F3F39F059
:10523000F901E90FF11D97FDFA956283089508952C
:105240002091A1033091A2032817390771F09093A0
:10525000A2038093A103E0919F03F091A0033097F4
:1052600021F00084F185E02D0995089520919D039A
:1052700030919E032817390771F090939E03809315
:105280009D03E0919F03F091A003309721F00680E9
:10529000F781E02D09950895E0919F03F091A00317
:1052A000309739F022E0DC012C930480F581E02D69
:1052B00009950895E0919F03F091A003309729F09C
:1052C0000190F081E02D0995089580E008950F93F5
:1052D0001F93CF93DF93C42FD22FFC0182818823A9
:1052E000B1F040939C030E94D12890939B0380933C
:1052F0009A0380E28C0F883008F04DC0C77081E0BF
:1053000001C0880FCA95EAF70E942E1444C080910C
:105310009C03481330C080919A0390919B030E9494
:10532000B628883C910538F510E21D0FCD17B9F06D
:1053300080E28C0F883040F4C77081E001C0880F94
:10534000CA95EAF70E942714183010F581E09D2FC6
:10535000977001C0880F9A95EAF70E942E14802F4B
:105360000E94D1141830B8F4D77081E001C0880FC2
:10537000DA95EAF70AC080E28C0F883060F4C770D3
:1053800081E001C0880FCA95EAF70E94271403C084
:10539000802F0E94D114DF91CF911F910F9108951A
:1053A000CF93DF93C7ECD0E060E0CE010E94A3343E
:1053B0002196C11584E0D807B9F7DF91CF91089500
:1053C0001F93CF93DF93962F8430E8F46530D8F4A1
:1053D0004430C8F4632F122FC42FD0E0CC0FDD1F50
:1053E00028E0929FC00DD11D112498E2899FC00D25
:1053F000D11D1124CE0187960E94A334612FCE01C6
:1054000088960E94A334DF91CF911F910895A0E068
:10541000B0E0EDE0FAE20C944D35A12CE12CF12C3A
:10542000B12C00E010E0C0E0D0E06701C00ED11E5A
:10543000F601EC0FFD1FEE0FFF1FE857FD4F259102
:1054400034914C2F6B2D8A2D0E94E0292196C43077
:10545000D10571F70C5F1F4FB39485E0B812E3CF0D
:1054600084E1E80EF11CA39484E0A812D9CFCDB753
:10547000DEB7EAE00C9469350F931F93CF93DF9367
:10548000843008F56530F8F44430E8F4C42FD0E0F7
:10549000CC0FDD1F28E0629FC00DD11D112438E222
:1054A000839FC00DD11D1124CE0187960E948534A3
:1054B00090E0182F0027CE0188960E94853498012D
:1054C000282BC90102C080E090E0DF91CF911F91AD
:1054D0000F910895843048F4753038F4643028F41E
:1054E000462F672F0E943C2A089580E090E008959F
:1054F00086E290E00E94A3340895CF93C82F8111D3
:1055000002C06FEF01C062E283E290E00E94A33428
:10551000C11102C06FEF01C066E084E290E00E941A
:10552000A334C11102C06FEF01C062E185E290E0D7
:105530000E94A334CF91089580E00E947D2A60E00C
:1055400070E0CB010E94782A0E94072A0E94D0298D
:1055500081E00E947D2A089583E290E00E948534D4
:10556000823281F484E290E00E948534863051F4E6
:1055700085E290E00E94853491E0823109F090E06C
:10558000892F01C080E081700895882311F0FA010D
:1055900001C0FB01099508959091B003937059F0F3
:1055A0008093B1036093B2034093B3038091660389
:1055B000282B209366030895E0EBF3E0438128E075
:1055C000421B08F440E0818121E0628190E00E946A
:1055D000CC2A0895E0EBF3E0438128E0420F08F481
:1055E0004FEF818121E0628190E00E94CC2A0895F2
:1055F000E0EBF3E0628128E0621B08F460E0818167
:1056000021E0438190E00E94CC2A0895E0EBF3E092
:10561000628128E0620F08F46FEF818121E043810D
:1056200090E00E94CC2A0895E0EBF3E0818190E0C5
:1056300021E04381628108970E94CC2A0895E0EB23
:10564000F3E0818190E021E04381628108960E942D
:10565000CC2A08959091B0039370A1F0811102C0FB
:10566000946007C08A3110F0946603C0880F880FD9
:10567000982B9093B0031092210180916603682BC0
:105680006093660308958091B00386958695815056
:1056900009F489E161E00E942A2B08958091B0030A
:1056A000869586958F5F8A3108F081E061E00E94DF
:1056B0002A2B08958091B003837011F0109221017C
:1056C0008091B0038C7F8093B00308958091B003E4
:1056D000837011F4109221018091B0038C7F81605E
:1056E0008093B0030895A0E0B0E0E9E7FBE20C94FA
:1056F000473560915C0370915D0380915E039091EA
:105700005F030E949A286B017C010E94C5284B010F
:105710005C0160935C0370935D0380935E039093E0
:105720005F03409161035091620360916303709144
:1057300064034C0D5D1D6E1D7F1D409361035093EE
:1057400062036093630370936403A0913303E3E304
:10575000F3E08A2F90E044244A94542C612C712C5D
:105760004C185D086E087F08A917A1F0C18DD28D75
:105770008E0120E030E0401651066206730610F4F8
:10578000815005C09E012C0D3D1D328F218F9F5FE2
:105790003296EACF8093330380916503811108C06C
:1057A00081E0413C544D6140710518F480E001C036
:1057B00081E080FD08C0C091B0038C2F837019F088
:1057C000C695C69501C0C0E0809121018130E9F005
:1057D00038F0823009F45BC0833009F465C083C0BF
:1057E000109222018092AC039092AD03A092AE037E
:1057F000B092AF0389E2E3E3F3E0A6EBB3E00190FC
:105800000D928A95E1F781E04CC08C2F0E94711FA8
:10581000CC2309F468C0C0912201CC0FCC0FC45036
:10582000D4E0DC0FD23108F0D1E19091DF03809118
:105830006003892B0E94EB31282F30E08091B30365
:105840002130310511F460E80BC02230310511F42C
:1058500065E506C02330310511F46FEF01C065ED39
:105860007FEF0E94B832F62EE72ED82EDC17D8F143
:105870008C2F90E0FC01EB54FE4F26A921FF05C0C0
:105880002D2D4F2D6E2D0E94181FCF5FEFCFC0938F
:1058900020018091B003837080931F010E94C8276C
:1058A00083E0809321011FC080916603882351F01B
:1058B00046E050E06CE170E080EB93E00E949334AE
:1058C000109266036091AC037091AD038091AE03BA
:1058D0009091AF030E949A2860317105810591056E
:1058E00010F010922101CDB7DEB7E0E10C946335E2
:1058F000A0E0B0E0EEE7FCE20C945035F82E0E94F8
:10590000D1288C0184EAE82E94E8D92E1092BC00AC
:10591000E092BC000E94D128EC018091BC0087FD80
:1059200006C0CE010E94B628C397B8F328C0809164
:10593000B900887F883041F08091B900887F80313C
:1059400019F0CFEFDFEF1DC0F092BB00D092BC008A
:105950000E94D128EC018091BC0087FD06C0CE01D9
:105960000E94B628C397B8F30AC08091B900887F17
:10597000883111F0803429F7C0E0D0E009C0CEEFC3
:10598000DFEFC8010E94B628893E934008F4BECFDD
:10599000CE01CDB7DEB7E7E00C946C35CF93DF9343
:1059A0008093BB0084E88093BC000E94D128EC0166
:1059B0008091BC0087FD09C0CE010E94B628893EB7
:1059C0009340B0F38EEF9FEF0CC02091B900287F79
:1059D00081E090E0283211F480E090E0919581958B
:1059E0009109DF91CF910895AF92BF92DF92EF922C
:1059F000FF920F931F93CF93DF93182F092F7B01F3
:105A0000EA0188EE0E94782C97FD4EC0802F0E94FC
:105A1000CE2C812F0E94CE2C97FD46C089EE0E948D
:105A2000782C8701219724ECD22E98012E193F095A
:105A30002C173D07E8F497FD37C0D092BC000E94B8
:105A4000D1285C018091BC0087FD09C0C5010E947E
:105A5000B628893E9340B0F38EEF9FEF06C02091A9
:105A6000BB00822F90E0F80120830F5F1F4FDDCF36
:105A700097FD1AC084E88093BC000E94D1288C0155
:105A80008091BC0087FD09C0C8010E94B628893EEC
:105A90009340B0F38EEF9FEF07C02091BB00822FA1
:105AA00090E0CE0DDF1D288324E92093BC0018165A
:105AB000190614F480E090E0DF91CF911F910F91CF
:105AC000FF90EF90DF90BF90AF900895EF92FF921C
:105AD0000F931F93CF93DF93EC017B018A0188EE34
