:100000000C9420040C943D040C943D040C943D0489
:100010000C943D040C943D040C943D040C943D045C
:100020000C943D040C943D040C94EC1A0C942E1A80
:100030000C9405220C943D040C943D040C943D0456
:100040000C943D040C943D040C943D040C943D042C
:100050000C943D040C94B8210C943D040C943D0484
:100060000C943D040C943D040C943D040C943D040C
:100070000C943D040C943D040C943D040C943D04FC
:100080000C943D040C943D040C943D040C943D04EC
:100090000C943D040C943D040C943D040C943D04DC
:1000A0000C943D040C943D040C943D047009E40947
:1000B0007809420946097C0949097F098A095409D6
:1000C000DA0958098E095C099209BC096009960988
:1000D000C60966099C09A6094D09830950098609C4
:1000E0006B09A109B209D209D4093E097409ED09C5
:1000F000130A190A070A0D0A1F0A250A2B0A120BEE
:10010000120B420B420BF10B0F0C430D430D140C61
:10011000870C9A0C9A0C7C1392139913A115A115B4
:10012000D113E113F41336143B1463148714BA1477
:10013000BD14C914D314EA142115331558157A15B2
:100140003A186118161A6118161AAD18D018161A2E
:10015000D119E119FD377A585A000004E6D6B446A1
:100160000200210116000000742FE5A3E00327011F
:10017000405D003D8889C65436C3174FE4E9DD0968
:10018000756D4E34C0E72AE74681CC08C433C245BA
:100190003F89C4410FE9545E5E45D88BCCE7452BBF
:1001A000C256B66AF7BF9CA37A4B8905D06F748696
:1001B000DF5EC2A6BEE8D4AA4271D4CD488028B082
:1001C000928BED7081ED4FB283894921838A3BC5C3
:1001D000DA4CB3F9C85C825D1219AA514D26CF19C9
:1001E000F7CF3BDF8BACD1BD480C34F218525A58D4
:1001F000AEB0EFBE3C5F6CFBE2556B931148D4434D
:1002000037901269A0AA02141668311BA0204C7105
:1002100058E5DA60A8616214C458D1C0D8E2BB6A5C
:10022000906BCAD3733E6EC4B525523BC51AC41633
:1002300026D538267A259CC838D9B994D8614F85F7
:1002400018326A1586BB7A4B659019F325D018D7FA
:1002500086BF6DB1919BDBA41972971706187C417C
:100260003A7649CDE51BE8F8CED274C7AB73977EDA
:10027000D3696C06FFA94AFEA7498293D388CF5A57
:10028000219C27C458B25187479FE4E9B6988F81D3
:10029000ECCAF88D8AF028B50FD4B6093CE591A0D8
:1002A0005BDB5F395DEEF4E3F84815A0ACAA74257A
:1002B0001DFA00000815078CCC5C04390001DC0233
:1002C000A8060000B1163B50B1C467FB0200000055
:1002D0000004595A05010902A10185020901A10082
:1002E00005091901290815002501950875018102E4
:1002F0000501093009311581257F950275088106B0
:1003000009381581257F950175088106050C0A3885
:10031000021581257F950175088106C0C005010978
:1003200080A101850319012AB700150126B70095A0
:100330000175108100C0050C0901A1018504190196
:100340002AA002150126A002950175108100C005A2
:10035000010906A1018506050719E029E715002511
:10036000019508750181020507190029EF1500257F
:100370000195F0750181020508190129059505759A
:10038000019102950175039101C00660FF0961A109
:10039000010962150026FF00952075088102096396
:1003A000150026FF00952075089102C00501090679
:1003B000A101050719E029E7150025019508750138
:1003C00081029501750881010507190029FF1500B3
:1003D00026FF0095067508810005081901290515F5
:1003E000002501950575019102950175039101C0E4
:1003F00009025B00030100A0FA09040000010301E7
:1004000001000921110100012244000705810308B0
:10041000000109040100020300000009211101008C
:1004200001222200070582032000010705030320A3
:10043000000109040200010300000009211101006C
:100440000122B6000705840320000112010002000A
:10045000000008EDFE15150001010203011C0376E2
:1004600000690061006C003A0066003600340063E9
:10047000003200620033006300000018035900617D
:10048000006D006100640061003700350020004706
:10049000004F000000180344006100720061006B0F
:1004A0000075002D004E0065006B006F0000000419
:1004B000030904000000000000000000000000002C
:1004C000000000000000000000000000000000002C
:1004D000000000000000007E0F00D4FFFFFFC700F7
:1004E00000007800000000000000002A2B28000017
:1004F00000000000000000000000000000002900D3
:100500000000002C1E3420212224342627252E36DC
:100510002D3738271E1F202122232425263333364A
:100520002E37381F0405060708090A0B0C0D0E0F9D
:10053000101112131415161718191A1B1C1D2F3120
:1005400030232D350405060708090A0B0C0D0E0F84
:10055000101112131415161718191A1B1C1D2F3100
:1005600030354C35001E001F0020002100220023E2
:100570000024002500260027002D002E0089002AD7
:10058000004A004B002B0014001A00080015001749
:10059000001C0018000C00120013002F003000286F
:1005A000004D004E00390004001600070009000A43
:1005B000000B000D000E000F00330034003200E18C
:1005C000001D001B00060019000500110010003678
:1005D00000370038008700E5005200E000E300E249
:1005E0000076008B002C008A008800E600E700E41B
:1005F000002152500051004F000000000000000098
:1006000000000029003A003B003C003D003E003F56
:100610000040004100420043004400450001000149
:1006200000010001000100010001000100010001C2
:1006300000010001000100010001000100010001B2
:1006400000010001000100010001000100010001A2
:100650000001000100010001000100010001000192
:100660000001000100010001000100010001000182
:100670000001000100010001000100010001000172
:100680000001000100010001000100010001002241
:100690005201000100010001000000000000000004
:1006A0000000000100010001000100010001000143
:1006B0000001000100010001000100010001000132
:1006C0000001000100010001000100010001000122
:1006D0000001000100010001000100010001000013
:1006E0007C01000100010001000100010001000186
:1006F00000010001000100010001000100010001F2
:1007000000010001000100010001000100010001E1
:1007100000010001000100010001000100010001D1
:1007200000010001000100010001000100010001C1
:1007300000010001000100010000000000000000B5
:10074000000000010001006E02962DC92D0000027C
:100750000002006A02962DC92D0000030001006FFF
:1007600002962DC92D0000040002005402962DC9E6
:100770002D0D2D050001007002962DC92D000006DB
:100780000002005602962DC92D0000070002006CE1
:1007900002962DC92D0000080001007102962DC996
:1007A0002D0000090002005802962DC92DE82C0AE0
:1007B0000002005A02962DC92DE82C0B0002005CA5
:1007C00002962DC92DE82C0C0002005E02962DC960
:1007D0002DE82C0D0002006002962DC92DE82C0E8C
:1007E0000002006202962DC92DE82C0F0002006461
:1007F00002962DC92DE82C100002006602962DC924
:100800002DE82C110002006802962DC92DE82C124B
:100810000002007202962DC92D0000130002007420
:1008200002962DC92D0000140001007602962DC9F4
:100830002D00001500000000006B2C162D0000009C
:1008400011241FBECFEFDAE0DEBFCDBF11E0A0E084
:10085000B1E0E2E4FBE602C005900D92A837B107D3
:10086000D9F725E0A8E7B1E001C01D92AD34B20789
:10087000E1F70E94AB0D0C949F350C940000ACE0A6
:10088000B0E0E5E4F4E00C944B35DC0114962C91D7
:10089000222311F40C94A70D7C0161E00E94DE314B
:1008A0008C01F7018581882319F18091450390918E
:1008B00046030097E9F008171907D1F09927E4E0FB
:1008C000880F991FEA95E1F7FC01E950FC4F208160
:1008D000246020838E509C4FDC010D931C930E945A
:1008E00001231092440361E0C7010E94DE318C01B4
:1008F000F7013580332009F4C2C0C801975780380A
:10090000910508F008C1D02EFFE0F01710F40C9408
:10091000980D8FEF93E00E94BC3481110C94980DD8
:100920000DE113E0DD2079F0011524E0120711F448
:100930000C94980DC8010E94BC34811101C0DA9456
:100940000F5F1F4FEFCF19821A821B821C82AA24CD
:10095000AA9468013FEFC31AD30AC8010E94BC34AD
:1009600089831A82882311F40C94980D813009F040
:1009700081C0480142E0840E911CC6010E94BC3433
:10098000B82E8A83882311F40C94980D8FEF8B0D69
:10099000833060F4680153E0C50ED11CC4010E948D
:1009A000BC348B83811166C08601D3CF8BEF8B0D56
:1009B000833078F5380183E0680E711CC4010E9411
:1009C000BC348B83811102C06301EECF680194E0D7
:1009D000C90ED11CC3010E94BC348C83882321F32F
:1009E0002B813C812130AFEF3A0718F0922F80E045
:1009F00001C0C901B6E0BB1631F0E7E0BE1631F028
:100A00000E94EA2FD1CF0E94C52FCECF0E944B2F3C
:100A1000CBCFF4E0BF1611F06401C6CFC4010E9431
:100A2000BC34B82E680124E0C20ED11CC801039664
:100A30000E94BC34BB2011F40C94980D882311F44F
:100A40000C94980D282F30E021503109A29EA0016E
:100A5000A39E500D11248B2D90E00197840F951FBC
:100A6000019708F4A1CFAFE9BFE01197F1F700C0FB
:100A70000000F6CFCE0101960E94AB1695CF68011B
:100A8000E7E5DE1AFFEFCF16D10411F008F05FC0E2
:100A900068EE73E08C2D0E948A24892BB9F5C6017B
:100AA00074E0880F991F7A95E1F7FC01EE50FC4F36
:100AB00022812130C9F42091E8033091E903232BEE
:100AC00029F12091EA033091EB03232BF9F02091D7
:100AD000EC033091ED03232BC9F42091EE03309108
:100AE000EF03232B49F012C0223081F42091EC0354
:100AF0003091ED03232B51F0FC01E950FC4F208194
:100B00002E7F20838E509C4F0E940123D701159683
:100B10003C903320E9F00E35BCE71B0761F00F3540
:100B2000ECE71E0769F00D35FCE71F0789F480919B
:100B30000001811105C081E0809300010C94980DA3
:100B40001092000180E00E94EB230C94980D312C50
:100B500080910001811108C0C80197558F3F910510
:100B600009F008F47AC1E7C1480120EE821A910821
:100B70002090CB038091A503282A80913302282A54
:100B800038E08316910480F498012770332781E0C0
:100B900090E001C0880F2A95EAF7332011F0282A47
:100BA00018C08095282215C0332009F416C110936F
:100BB0007B0100937A010E94ED21609336037093CC
:100BC0003703809338039093390310923E031092B9
:100BD0003D03D7018D919C910E94321C21E030E0B1
:100BE000F90102C0EE0FFF1F8A95E2F7FC87EB8741
:100BF00020913F033091400338872F8340917A0141
:100C000050917B015A8749871D82432C512C5D816D
:100C1000E52FF0E0EE0FFF1FED53FB4FC080D180BA
:100C2000C114D10409F4F0C0211005C0D6011296F8
:100C30008C918111CEC0F601838190E02B853C859B
:100C400082239323892B09F4C4C08085982F977041
:100C500009F487E038E08316910440F4332019F05A
:100C600081FD09C0B6C082FD06C0B3C0332009F4BF
:100C7000B0C080FFAEC0D601AD90BC900A151B0578
:100C800019F4332009F4A5C0EF81F885CE16DF06EC
:100C900009F49FC0D6011D96ED91FC911E973097E7
:100CA00021F08081882309F494C0622DC6010E943E
:100CB0005A24882309F48DC00A151B0511F432014A
:100CC00002C0612C712CB62DB170BE8381E0A114DD
:100CD000B10441F0B11106C0E985FA85AE16BF0630
:100CE00009F080E080FF75C080E00E94EB23D09285
:100CF0004003C0923F0381E080933C03D6011596E8
:100D00008C9180933A03BE81B11113C0AB2889F056
:100D1000F601808191819C0124503109213A3105ED
:100D200030F4682F83E192E00E942E2202C00E94DC
:100D30009920D6011696AD90BC901797C5019A954B
:100D400081159F4110F4E0EEBE2255245394C50155
:100D500001978F339E4708F0512CD6011996ED91DB
:100D6000FC911A97309739F01B966D917C911C97E6
:100D700081E009955822552029F1F6018681978155
:100D80000E94423480933B03C501F8E08F16910422
:100D900018F40E949A2316C00497813A910530F402
:100DA0006A2D83E192E00E9456220EC00E94652BBC
:100DB0008FE39CE90197F1F700C000008A2D0E94A3
:100DC000CF2002C00E94652B91E0692660FE79C1A8
:100DD000C3CEAD81AF5FAD831ACF80917A01909180
:100DE0007B010817190781F410927B0110927A0198
:100DF0001092360310923703109238031092390381
:100E000010923E0310923D0380913F039091400366
:100E1000009709F4A1CEB8E08B16910438F4622D46
:100E20000E945A24811198CE81E014C0FC012081D7
:100E300031810217130729F4311006C010923C03C8
:100E400008C0332009F488CEDC0118968C9185FD0A
:100E500083CE80E00E94EB237FCE5801BB24C501E6
:100E600054E0880F991F5A95E1F7FC01EE50FC4FB2
:100E70006F01D70115962C911597FC01E950FC4F95
:100E80005F01808120FB80F9808315968C918823F7
:100E9000A1F10E94F9219093A3018093A201D601B0
:100EA00012968C9112978F5F12968C931297909155
:100EB000440380913302892B13968C93139780916E
:100EC000CB0314968C93149716964D915C911797BB
:100ED0001E966D917C911F97C6010E94E222F5013A
:100EE000808181FF03C090E080E002C0902F812FBD
:100EF00090934503809346031EC0D6011C964D91E6
:100F00005C911D971E966D917C911F97C6010E9462
:100F1000E222F501808181FF0EC0C6010E94E82215
:100F200080914503909146030817190721F4109208
:100F300046031092450380916F0280FF93C00E9488
:100F4000F9216C01D70115968C918823B1F180911C
:100F50000C0182FF08C024EA31E040E0B60180E0E5
:100F600090E00E94F0260431BCE71B07A9F0053190
:100F7000ECE71E0751F00331FCE71F07A1F4809155
:100F80000C01816080930C010EC080910C01982FA0
:100F9000909590FB80F903C080910C018E7F809327
:100FA0000C010E94B626C80190528115904358F555
:100FB00010927B0210927A0255C0013E110521F475
:100FC00080910C018F7E06C0053E110531F48091A1
:100FD0000C018F7D80930C0116C0C80190528115C1
:100FE000904388F480910C0182FF3CC08091710293
:100FF00081FD38C024EA31E040E0B60180E090E0B5
:101000000E94F0262FC080910C0180FF2BC0D701D9
:1010100015968C910832110538F40E311105B8F48B
:101020000430110578F41CC00933110538F40D3271
:10103000110590F40B32110579F012C00436110538
:1010400059F00EC090916F0294FD0AC03DC090917E
:101050006F0293FD05C038C090916F0292FF34C0BB
:101060008111E4C0F801E851FC47E730F10508F4CC
:10107000CAC1F70195819111E4C00631FCE71F0751
:1010800009F01BC280913302282F2A7A30916E0218
:1010900030FDECC131FDF0C132FDF4C133FDF8C1CA
:1010A000992309F4FEC181E0211101C080E0809301
:1010B0007C01222309F4F3C165E383E192E00E94FD
:1010C00056220E94652B34C5882309F4A8C090914C
:1010D000CB0380913302892B8D7F79F110927B02B3
:1010E00010927A0280916F0281FD27C0F80143E0DF
:1010F000F695E7954A95E1F7EE71FF27EC5CFD4F19
:1011000098012F70332781E090E002C0880F991F6B
:101110002A95E2F78095909520813181822393234F
:1011200091838083A70160E0C8010E94D526809149
:10113000CB038D7F0E94C22A6EC089E0F701A4EA2A
:10114000B1E001900D928A95E1F71092A9011092F9
:10115000A7011092A60180917A0290917B02081754
:101160001907E1F580916F0285FF38C090910C015D
:1011700091FF02C086FF32C080917802909179027F
:101180005601A81AB90AB701C8010E94152FA8165E
:10119000B90620F58091330281FF08C080910C01CF
:1011A000806180930C0182E00E94F22A80913302D8
:1011B00085FF08C080910C01806280930C0180E261
:1011C0000E94F22A60910C0166956170A7018091DE
:1011D0007A0290917B020E94D526AAC48091CB030B
:1011E00090913302982B9695917020910C0190FB71
:1011F00021F920930C018D7F0E94C22A10937B025B
:1012000000937A02D0927902C092780280910C0108
:10121000846080930C0182E00E94062B89C49701B0
:1012200040E0B601C8010E94F02682C410927B0201
:1012300010927A02F801E851FC47E730F10508F412
:10124000E2C010924303C8019057839708F00CC185
:1012500084E090E00E94C4349093C5018093C4015F
:10126000F801E150F047E232F10520F4EA5AFF4F6D
:101270000C943E358091C4018160ACC08091C50161
:101280008860B4C08091C4018260A4C08091C40110
:1012900020C08091C40188609DC08091C5011EC09E
:1012A0008091C5018260A2C08091C401806192C01A
:1012B0008091C40180628EC08091C40180648AC024
:1012C0000E94061F8091C401806884C08091C4017F
:1012D000886084607FC08091C5018260816086C023
:1012E0008091C4018E7F76C08091C501877F7EC0CA
:1012F0008091C4018D7F6EC08091C40120C0809117
:10130000C401877F67C08091C5011EC08091C5015F
:101310008D7F6CC08091C4018F7E5CC08091C401C0
:101320008F7D58C08091C4018F7B54C00E94061FDE
:101330008091C4018F774EC08091C401877F8B7FDD
:1013400049C08091C5018D7F8E7F50C08091C401BE
:1013500082FB222720F991E0922790FB82F990FBF3
:1013600083F938C08091C501982F909591708E7F38
:10137000892B90FB81F93AC08091C40186FB22271A
:1013800020F991E0922790FB86F924C00E94061F65
:101390008091C40187FB222720F991E0922790FBDE
:1013A00087F918C061E001C060E08EE090E00E9423
:1013B000DA341EC08091C40184FB222720F991E019
:1013C000922790FB84F906C08091C401982F9095D4
:1013D00090FB80F98093C4010BC08091C50183FB11
:1013E000222720F991E0922790FB83F98093C50191
:1013F0006091C4017091C50184E090E00E94F834CE
:101400000E94061F95C3E858FF4F0C943E3506E234
:1014100021EE41EE6AE17CE723C007E225EE45EECE
:101420006BE17CE71DC006E221EE40EE68E17CE75F
:1014300017C007E225EE44EE69E17CE711C006E241
:1014400021EE42EE6CE17CE70BC007E225EE46EEB2
:101450006DE17CE705C008E221E045EE6EE17CE746
:10146000C7010E94282364C391E007CE482F44742B
:1014700009F410CE20E00ECE482F417109F40CCEB5
:1014800020E00ACE482F487809F408CE20E006CEA6
:10149000827209F405CE992321F010927C0169E251
:1014A0000CCE80917C01882311F065E301C069E2D4
:1014B00083E192E00E942E2204CE07372CE7120728
:1014C00011F481E005C008373CE7130771F482E0AE
:1014D000992319F00E94CD1C02C00E94C01C43E059
:1014E00062E081E00E949E1C23C3D70115968C9177
:1014F0008823E9F10330BCE71B0729F148F4011503
:10150000FCE71F0791F001302CE7120711F12FC003
:101510000B353CE7130741F10C354CE71407E1F0BC
:101520000A351C4721F581E020C00E94061F8FEF7D
:1015300094E3ACE081509040A040E1F700C000008F
:101540000E94A721F5C26FEF7FEF80E090E00E943C
:10155000F8340E942C34ECC28091C50182FB8827AC
:1015600080F991E0892701C080E00E941D2BD701FE
:1015700017968D919C9118970097C9F4D7011596ED
:101580008C9115970D911C91882349F0C8010E94F8
:10159000F61BD82E682FC8010E94661C04C0C80123
:1015A0000E94321CD82EB8018D2D0E9459290E940C
:1015B0007629182F092FF701B580C680C2943FE025
:1015C000C3228091A8038770E9F0BB20D9F0892F4E
:1015D000807F803451F080E2810F883098F0C11014
:1015E00004C0892F807E803269F08091C50182FF1E
:1015F00009C082E00E94062B8091A8038770AA246C
:10160000A3948111A12C902E92942FE09222892DE7
:1016100090E08C30910508F036C2FC01E158FF4F94
:101620000C943E35902F9F70802F807FD92E19F01B
:10163000D29490EFD922BB20A9F0DD2009F403C297
:1016400080E2810F883010F0111104C08D2D0E94AE
:10165000F92A05C080914403D82AD09244030E94FD
:10166000652BF1C1812F0E949920DD2009F40BC266
:1016700080E2810F883068F1112359F18D2D0E948D
:10168000EB2A2AC0902F9F70802F807FD92E803226
:1016900019F0D29480EFD822112321F0113009F4EF
:1016A00069C074C08091C50182FD19C0BB2059F08A
:1016B000DD2029F08D2D0E94F92A0E94652B80E003
:1016C0000E94CF20E0C180E00E949920DD2009F433
:1016D000DAC18D2D0E94F22A0E94652BD4C1BB2055
:1016E00081F1CC2009F473C0F1E0CF1212C08091D7
:1016F000CB038D21D81609F4C6C10E94F92190931D
:10170000CA038093C9038091CB03D82AD092CB031C
:10171000BAC180917002823008F4B5C1C812B3C159
:101720008D2D0E94BA1F8D2D0E94D62A8091A5036F
:101730009D2D9823D91609F4A6C1D82AD092A503C5
:10174000A2C1CC2069F080917002823008F49BC164
:1017500021E0C21298C1809133028D2109F493C116
:101760008D2D0E94B31F8D2D0E94D62A8D2D0E9493
:10177000D42B89C180917602BB2021F08C1508F40E
:1017800082C125C0C81608F07EC127C0BB2019F150
:10179000CC20E9F020E0D7014C9111965C91119793
:1017A00012966C91129713967C91139714968C91C4
:1017B000149715969C910E94B9318091710281FD18
:1017C00042C1F701868180FF3EC18F7086838D2DD7
:1017D0000E94BA1F58C1C1103FC18D2D0E94B31F76
:1017E00052C1802F86958695837019F0813061F003
:1017F0004AC1BB2021F0812F902F937002C080E05E
:1018000090E00E94B02245C1BB2021F0812F902F93
:10181000937002C080E090E00E948B223AC16B2D51
:10182000812F0E94C11F35C1802F8370A1F5B11097
:101830002EC1412F429546954770440F440F212FEA
:101840002F7030E0C901042E01C0880F0A94EAF716
:1018500014FF08C02FE030E001C0220F4A95EAF7DC
:10186000209501C020E0302F369536953370323008
:1018700069F040F440918F01313019F0822B8423BC
:1018800002C0842B822B0E94D91C01C1282B80917D
:101890008F018227F8CFBB2019F0802F817001C003
:1018A0008695882309F4F3C0412F429546954770E9
:1018B000440F440F212F2F7030E0C901042E01C0C6
:1018C000880F0A94EAF714FF08C02FE030E001C047
:1018D000220F4A95EAF7209501C020E0302F369577
:1018E00036953370323051F070F4409190013130C0
:1018F00019F0822B842308C0842B05C0282B8091EB
:101900009001822701C0822B0E949B1CC0C0F02F37
:10191000FF70DF2EBB2039F08F2F0E94CD1C812F4E
:101920000E94BA1FB4C0812F0E94B31F8D2D0E9448
:10193000C01CADC0123F11F128F4103F41F0113F1F
:10194000A9F17DC0133F01F1143F61F178C080918E
:101950007602BB2021F0C81608F095C003C08C1594
:1019600008F491C0202F2F7181E090E001C0880F12
:101970002A95EAF790919001892711C0802F8F71E5
:10198000BB2009F464C07BC0BB2041F081E0902FF4
:101990009F7101C0880F9A95EAF701C080E00E940C
:1019A0009B1C71C08091C50182FD06C0802F8F7184
:1019B000BB2009F464C04BC080917002823040F1BA
:1019C000BB20C1F09091A8039770943039F40E9425
:1019D000FF2A802F8F710E94C01C54C0C81608F0C7
:1019E00051C0202F2F71D22E822F0E94CD1C63E078
:1019F0008D2D07C0C81640F00E94FF2A64E0802F9A
:101A00008F710E94342B3EC081E00E94062B3AC0A9
:101A1000BB2059F0302F3F71D32E832F0E94CD1C55
:101A200063E08D2D0E94342B2EC081E00E94062B96
:101A300041E04C1540F582E00E94062B24C0BB20FB
:101A400049F0CC2011F0812F3BCE802F8F710E9466
:101A5000CD1C19C0CC2089F0193329F4809174026F
:101A60009091750204C080917202909173020E945D
:101A7000E526812F0E94992006C0802F8F710E9439
:101A8000C01C01C0A12C88EF890D843010F40E9485
:101A9000D522812F902F0E94DC1C811105C010924D
:101AA0007E0110927D0128C0BB2019F0C110F7CF34
:101AB00023C0C110F4CF20E0D7014C9111965C9166
:101AC000119712966C91129713967C911397149616
:101AD0008C91149715969C910E94B9318091710256
:101AE00083FFDDCF80917D0190917E010297B9F651
:101AF000812F0E944321D3CFAA20A9F08091A8036F
:101B000080FD11C0F70115828695869586950E9405
:101B1000CD1CC7010E943F048091A803869586953D
:101B200086950E94C01C60E0C7010E94DE310FC094
:101B30008091A803877059F0F7018581882339F0D7
:101B40008091C50182FF03C082E00E94062B2C9683
:101B5000E2E10C946735A9E3B0E0E1EBFDE00C9421
:101B60004B3585B7806885BF85B7806885BF84B7EA
:101B7000877F84BF0FB6F894A89580916000886134
:101B800080936000109260000FBE90E080E80FB676
:101B9000F89480936100909361000FBE83EA97E20E
:101BA00090937901809378010E94332F0E94D12E67
:101BB0000E945D2E0E94E42D0E94721A0E94911ACA
:101BC0008091E20084608093E20078948091EB0140
:101BD0008823A1F01091E9001F709091EC00892FEB
:101BE000817090FD80E8182B1092E9008091E80048
:101BF00083FD0E9457171F701093E90082E084BD97
:101C000093E095BD9AEF97BD80936E000E94E030FF
:101C1000811102C00E94D0300EE111E0E6E2EE2E0A
:101C2000E1E0FE2ED8018D918D018F3F11F00E94D1
:101C30009028E016F106B1F706E211E070E3E72E16
:101C400071E0F72EF80181918F018F3F11F00E9412
:101C50009028E016F106B1F780E1E2EBF1E0DF0158
:101C6000282F1D922A95E9F7EFE7F1E0DF011D9299
:101C70008A95E9F780E090E00E94C434863E9E4F4A
:101C800021F40E94E030811167C066EE7EEF80E0B3
:101C900090E00E94F83460E082E090E00E94DA3444
:101CA00060E083E090E00E94DA3410928F0160E0FF
:101CB00074E184E090E00E94F83460E086E090E017
:101CC0000E94DA346FEF87E090E00E94DA3440E05F
:101CD00050E0BA0188E090E00E94EC3460E084E2D9
:101CE00090E00E94DA3460E087E190E00E94DA340C
:101CF00060E08CE090E00E94DA3460E08DE090E0FB
:101D00000E94DA3419821A821B821C821D821E8272
:101D10001F82188648E050E068E170E0CE0101962D
:101D20000E94CA3440E050E0BA0180E290E00E9494
:101D3000EC3480E00E94B1300E94D03040E050E0AE
:101D4000BA018FE090E00E94EC3440E050E0BA012C
:101D500083E190E00E94EC3482E090E00E94BC3489
:101D60008093910184E090E00E94C4349093C50177
:101D70008093C4010E94A728EFEFF6E721E0E1502D
:101D8000F0402040E1F700C000000E94A7288091A9
:101D9000B20180FF08C06FEF7FEF80E090E00E940B
:101DA000F8340E94A72183E090E00E94BC340E9496
:101DB000D91C81E091E090934A03809349032E015E
:101DC0003BE2430E511C8091EB01853009F047C086
:101DD00000E112E18091EB01853009F03CC0809177
:101DE000EB01843021F110924D0388E190E0A0E4F2
:101DF0000FB6F894A895809360000FBEA093600082
:101E000083B7817F846083BF83B7816083BF789409
:101E1000889583B78E7F83BF0FB6F894A89580917D
:101E20006000886180936000109260000FBE809116
:101E3000EA01882309F4CECF0E94A728E2EBF1E063
:101E400081919191892B09F083C622EC31E02E1704
:101E50003F07B1F7BFCF0E94061F0E94D5220E9404
:101E6000A72862E9E62E61E0F62E02EB11E022EAF5
:101E700031E0D801F701419151918D919D918427D5
:101E800095272E173F0719F0892BA9F305C0892B39
:101E900019F40E94932A43C052EB652E51E0752E2F
:101EA000312CD3018D909D903D01F701A080B18030
:101EB000A824B924A114B10449F1212CCC24C39441
:101EC000D12CC5018C219D21892BB9F02CAA3DAACA
:101ED0000E94F9219FAB8EABF1E0F8AF91E0940145
:101EE0002C213D21232B09F490E099AF4CA95DA949
:101EF0006EA97FA988AD0E94ED312394CC0CDD1C26
:101F00002AE02212DECFD7018D929C923394B2E068
:101F1000EB0EF11CE8E03E12C4CF0E94ED2180914F
:101F20003D0390913E03892B09F43EC0409132035A
:101F30005091330360913403709135032FB7F894B7
:101F400080914E0390914F03A0915003B0915103A3
:101F50002FBF841B950BA60BB70B40912E035091FE
:101F60002F03609130037091310384179507A60702
:101F7000B707D0F080913D0390913E030E948934D1
:101F800010923E0310923D031092320310923303DD
:101F9000109234031092350310922E0310922F03E7
:101FA00010923003109231038091450390914603C3
:101FB000892B51F18091A2019091A3010E94DE2111
:101FC0007C0189E0D2011D928A95E9F7B2018091E6
:101FD0004503909146030E94152F8E159F05A0F48E
:101FE0008091450390914603992724E0880F991F1B
:101FF0002A95E1F7FC01E950FC4F208122FD04C045
:102000008E509C4F0E94012380910D01882341F145
:1020100080912A0390912B03009711F10E94DE21F9
:1020200020917C0230917D0228173907C8F49091E5
:10203000280380912903981759F00E941D261092B9
:102040007D0210927C0210922B0310922A0308C08A
:102050000E94B32510922B0310922A030E94FD25A3
:1020600080916F0280FF1EC080910C0182FF1AC018
:102070000E94F9212091780230917902AC01421B33
:10208000530B20910A0130910B014217530750F076
:1020900024EA31E041E0BC0180917A0290917B0218
:1020A0000E94F02686E0E8EDF3E09E012F5F3F4FAF
:1020B0007901D90101900D928A95E1F79090D903A9
:1020C000A090DA03B090DB03C090DC03D090DD0376
:1020D0001092DA031092DB031092DC031092DD03FE
:1020E000A11003C0BB2009F455C08091D603909184
:1020F000D7030E94DE21AC019091D103992341F0D6
:102100002091140130E02417350708F043C00AC0BD
:10211000209115018AE0289F90011124241735078A
:1021200018F038C09F3F19F09F5F9093D103AA2009
:1021300061F00E945C311A1414F491E001C09FEF29
:10214000899F802D11248093DA03BB2061F00E94C7
:102150005C311B1414F09FEF01C091E0899F802D2A
:1021600011248093DB038091DA03882399F0809017
:10217000DB03882079F00E94AB31811101C081E03E
:102180008093DA03882D0E94AB31811101C081E078
:102190008093DB03C11003C0DD2009F455C080919A
:1021A000D4039091D5030E94DE21AC019091D2031B
:1021B000992341F02091100130E02417350708F0F1
:1021C00043C00AC020911101AAE02A9F9001112466
:1021D0002417350718F038C09F3F19F09F5F909380
:1021E000D203CC2061F00E9423311C1414F491E03E
:1021F00001C09FEF899F802D11248093DC03DD2097
:1022000061F00E9423311D1414F09FEF01C091E092
:10221000899F802D11248093DD038091DC03882326
:1022200099F08090DD03882079F00E94AB31811114
:1022300001C081E08093DC03882D0E94AB318111C5
:1022400001C081E08093DD038091D90389111AC018
:102250008091DA03882311F08A1114C08091DB0386
:10226000882311F08B110EC08091DD03882311F0BB
:102270008D1108C09091DC03992331F081E09C110D
:1022800004C002C081E001C080E080FD15C08091E3
:10229000DA0381110FC08091DB0381110BC08091A3
:1022A000DC03811107C081E09091DD03911103C02F
:1022B00080E001C081E080FD0E94F9309A82AB820B
:1022C000BC82CD82DE8286E0F701A8EDB3E001900A
:1022D0000D928A95E1F70E94D5229091AD01891760
:1022E00021F08093AD010E94ED218091EB018430BB
:1022F00009F069CD83E08093E9008091E80082FFD6
:1023000062CD8091E80085FF21C00E94C31B81112E
:102310001BC080E2C82ED12C570109C08091F1006A
:10232000F50181935F01F1E0CF1AD10869F0809146
:10233000E80085FDF3CF8091E8008B778093E8007B
:102340000E94C31B882399F391E001C090E0809123
:10235000E8008B778093E800992309F434CDC0908E
:10236000C201D090C3018981C114D10461F08E3FB4
:1023700009F0E7C38A81833008F4B2C18550833005
:1023800008F0DFC3ADC18B3009F491C110F5853081
:1023900009F46FC0B0F48230C1F130F4813009F03B
:1023A000CEC31A8289E0FDC2833009F455C084305F
:1023B00009F0C5C34C816B818A810E9457259D839A
:1023C000E4C3873009F4BBC308F0B9C30E94C62434
:1023D000B8C3803109F4B1C060F48D3009F456C03F
:1023E00008F452C08E3009F454C08F3009F479C01B
:1023F000A6C3823109F4A7C008F4A2C0833109F44E
:10240000CAC08E3F09F46CC19AC38A81823009F434
:10241000B5C3833051F0813009F091C30E94ED21A2
:102420009B838C837D836E838CC380912C039091DE
:102430002D03892B09F485C3F701CE014196D801FC
:102440002C9111963C910E5F1F4F3283238332965D
:10245000E817F907A1F775C38A81823009F06FC3C5
:102460006B817C818D819E810E9444350E94AC30BD
:1024700068C32D813E813227232732274C816B810F
:102480008A810E949F245DC380E15BC01A8283EE33
:1024900088C20A811B81102701271027AC80B12C2C
:1024A000BDE1AB16B10408F04CC36701C801835EFF
:1024B0009C4F96012E193F092A153B0508F041C390
:1024C000033E110528F40E94BC34F601848303C046
:1024D000D60114961C920F5F1F4FBFEFCB1ADB0A79
:1024E000E5CF80912C0390912D03892B09F429C30A
:1024F0000A811B81102701271027CC80D12CEDE108
:10250000CE16D10408F01DC35701C801835E9C4F4D
:1025100095012E193F092C153D0508F012C3033E05
:10252000110528F4D50114966C910E94DA340F5FDE
:102530001F4FBFEFAB1ABB0AE8CF0E947A2401C33A
:1025400083E08A83FEC20A811B811027012710279E
:10255000AC80B12CEDE1AE16B10408F0F2C2670117
:10256000C801899696012E193F092A153B0508F0E6
:10257000E8C2003EF1E01F0730F40E94BC34D601EF
:1025800014968C9302C0F60114820F5F1F4FFFEF69
:10259000CF1ADF0AE5CF0A811B81102701271027F8
:1025A000AC80B12C2DE1A216B10408F0CAC23801EA
:1025B00039E2630E711C003E81E0180708F0C1C2C9
:1025C00080EE91E0801B910B8A159B0508F4B9C23F
:1025D00080912C0390912D03892B11F067015EC02F
:1025E00000FF0FC0C80188960E94BC3490E0982F6D
:1025F00088272D81822B81159C4731F48FEF8D83A5
:1026000003C0C12CD12C03C0CC24C394D12CC8014D
:102610008A0D9B1D450180FF1BC0B1E08B1A9108FC
:10262000E5E02E2E312C2C0E3D1E280C391CC3014A
:102630008A0D9B1D0E94BC34F101208130E0322FB5
:102640002227282B21153C4719F48FEFD1018C93B9
:10265000F701EC0DFD1D2FEFCF018E199F09881595
:10266000990508F0BBCF848190E0982F88273581A9
:10267000832B81159C4711F4248325833296ECCF5C
:10268000003EE1E01E0728F4D60114966C910E94EA
:10269000DA340F5F1F4FBFEFCB1ADB0AC8018996F0
:1026A00096012E193F092A153B0550F34AC2809125
:1026B0002C0390912D03892B09F443C240E250E092
:1026C000B70182E00E946921EFEFF1EE24E0E150D2
:1026D000F0402040E1F700C000000E94A72131C275
:1026E000EA818E2F90E08E30910508F02AC2FC011D
:1026F000E557FF4F0C943E3588E0E6E1F1E0DE015E
:10270000919601900D928A95E1F780E2D7011D9292
:102710008A95E9F786E0898388E0FE01B196DE01BB
:102720001596E3C180E8898381E08A831B821C823D
:1027300008C28C8190E0982F88272B81820F911DF1
:10274000092E000CAA0BBB0B65E0880F991FAA1F6E
:10275000BB1F6A95D1F7AC01BD01405E5F4F6F4F63
:102760007F4F481759076A077B0708F4EAC180388A
:10277000E1E09E07A105B10508F0E3C14138F1E0B1
:102780005F076105710520F040E851E060E070E00E
:10279000481B590BBC016C5A7E4FC7010E94A334E1
:1027A000D0C140E250E06FEF70E0C7010E94983561
:1027B00080912C038983CA821B821C821D8281E046
:1027C000E4C181E090E09093C3018093C20182E371
:1027D00090E09093B1018093B0010E94F921909311
:1027E000AF018093AE01ADC1CD28B9F18091B201A6
:1027F0009091B3019C01369527958170182F122373
:102800008091AE019091AF010E94DE218536910545
:10281000F0F01123E1F00E94F9219093AF01809331
:10282000AE018091B0019091B10101979093B101F7
:102830008093B001892B89F41092C3011092C201D8
:1028400081E090E090932D0380932C0306C082E3F7
:1028500090E09093B1018093B00180912C03898323
:102860008091C2018A838091B0019BC010922D0398
:1028700010922C0366C10B811C8140E250E06FEF87
:1028800070E0C7010E94983523E437E0AFE3B8E079
:1028900080E090E0AC014E5F5F4F4132510508F09F
:1028A00050C1F901659174910617170730F4F701CB
:1028B000E80FF91F71836083CA01245F3F4FA2179D
:1028C000B30741F73EC14B815C812FE338E083E4DD
:1028D00097E0FC01659174914617570729F00C9613
:1028E00028173907B1F72BC1009709F428C1FC015B
:1028F0003696259134912115310509F420C14FE117
:1029000050E0BE016E5F7F4FF901099519C12B811F
:102910003C818FE398E003E417E0F801459154917E
:102920002417350731F0045F1F4F80179107A9F76F
:1029300006C10115110509F402C1F8013896259167
:1029400034912115310509F4FAC04CE150E0BE0183
:102950006B5F7F4FC801F9010995009709F0F0C03E
:10296000F8013A9685919491009711F0FC01099530
:1029700080E0E6C00E940B2EE4C0EB818E2F90E039
:102980008730910508F0DDC0FC01E756FF4F0C943D
:102990003E3580E2D7011D928A95E9F788E0898368
:1029A0008A838B83CEC08C819AE0D92E8E010F5DF5
:1029B0001F4FF8012D2D11922A95E9F7B8010E94B9
:1029C0008A248983F801DE01129601900D92DA942F
:1029D000E1F7B7C01C818AE0FE013596DE019196D1
:1029E00001900D928A95E1F789A19AA10E949C30ED
:1029F0009AA389A38BA19CA10E949C309CA38BA32A
:102A00008DA19EA10E949C309EA38DA38FA198A50D
:102A10000E949C3098A78FA3183070F43AE0139F5F
:102A2000B0011124635D7D4F4AE050E0CE018196F4
:102A30000E94FE3480E001C08FEF89830E94332F13
:102A400080C06C81CE0181962AE0DC011D922A951E
:102A5000E9F7683008F042C0BAE06B9FB00111247A
:102A600063587D4F35C01C818AE0FE013596DE013A
:102A7000919601900D928A95E1F789A59AA50E94F9
:102A80009C309AA789A7183070F4EAE01E9FB00125
:102A9000112463587D4F4AE050E0CE0181960E9498
:102AA000FE3480E001C08FEF89830E94D12E49C09F
:102AB0006C81CE0181962AE0DC011D922A95E9F70E
:102AC000683060F4BAE06B9FB001112463537D4F0E
:102AD0004AE050E00E94AC3480E001C08FEF89836F
:102AE0008AE0FE01B196DE01129601900D928A9560
:102AF000E1F727C01C818AE0FE013596DE01919640
:102B000001900D928A95E1F78BA19CA10E949C30C7
:102B10009CA38BA3183070F4EAE01E9FB00111242F
:102B200063537D4F4AE050E0CE0181960E94FE340F
:102B300080E001C08FEF89830E945D2E02C08FEF7D
:102B4000898340E250E0B70182E00E9469213BC9DD
:102B500009BD19BD09B400FEFDCF8091D8008F7D5D
:102B60008093D8008091E00082608093E0008091A3
:102B7000E00081FDFCCF0E94061F2CC988E290E096
:102B80000E94BC341B821C821D828E83DACF80910E
:102B9000ED0187FF11C08091E80082FD05C08091A2
:102BA000EB018111F8CF11C08091E8008B770BC049
:102BB0008091EB01882349F08091E80080FFF8CFF5
:102BC0008091E8008E778093E8000895982F9730E1
:102BD00068F59093E900981739F07091EC00209116
:102BE000ED005091F00003C0242F762F50E021FD1E
:102BF00002C09F5FECCF3091EB003E7F3093EB0043
:102C00003091ED003D7F3093ED003091EB0031606D
:102C10003093EB007093EC002093ED005093F000A4
:102C20002091EE0027FDE5CF80E008958F7080931E
:102C3000E90081E008952091F3013091F401261715
:102C4000370748F06115710539F42091E8002E77B7
:102C50002093E80001C0B901FC0120E06115710575
:102C600079F18091EB018823F1F18530F1F18091C8
:102C7000E80083FD3CC08091E80082FD2EC0809179
:102C8000E80080FFEBCF2091F3008091F20090E00C
:102C9000922B6115710551F08830910538F421911E
:102CA0002093F100615071090196F3CF21E008975C
:102CB00009F020E08091E8008E778093E800CECF85
:102CC0002111CFCF0AC08091EB01882361F08530BC
:102CD00061F08091E80083FD0AC08091E80082FFE6
:102CE000F2CF80E0089582E0089583E0089581E0C6
:102CF000089543E050E0BC0184E00E9469210895FA
:102D000046E050E0BC0184E00E9469210895CF9321
:102D1000DF93EC0180910901811105C048E050E08A
:102D2000BE0181E00BC08091C40187FF03C040E277
:102D300084E002C048E081E050E0BE010E946921C9
:102D400080E2FE01A9ECB1E001900D928A95E1F7D5
:102D5000DF91CF910895A0E0B0E0E1EBF6E10C94B3
:102D60005335EC018AE0A82E2881222309F49AC069
:102D7000213009F041C08981813039F48E010E5F24
:102D80001F4F8A810E94432108C0823041F48E0186
:102D90000E5F1F4F8A810E94CF20E80181C08330DF
:102DA00039F48E010E5F1F4F8A810E949920F5CF62
:102DB000843011F0219674C02A81229680E090E040
:102DC00030E0205331092A30310558F4A89EA00183
:102DD000A99E500D1124C901840F951F21962881A9
:102DE000EFCF009709F45CC0EFE9FFE03197F1F70E
:102DF00000C000000197F5CFE22FF0E0ED51FB4F4E
:102E0000B490822F86958695869590E0FC01ED52D0
:102E1000FB4FE4902770F12C022E02C0F594E7944A
:102E20000A94E2F7F1E0EF22FF24FC01ED53FB4F9F
:102E3000C490D12C022E02C0D594C7940A94E2F714
:102E400031E0C322DD24FC01ED54FB4F049110E07E
:102E500002C0159507952A95E2F701701127E11434
:102E6000F10419F081EE0E94CF20C114D10419F0B1
:102E700086EE0E94CF208B2D0E944321C114D104E5
:102E800019F086EE0E949920E114F10419F081EE08
:102E90000E9499200115110519F08CE20E9443212E
:102EA000219662CFCDB7DEB7EAE00C946F35AAE287
:102EB000B0E0EDE5F7E10C945A35EDEEF1E085EF89
:102EC00091E02091F10021938E179F07D1F7809117
:102ED000EE01833009F463C030F4813071F0823048
:102EE00009F49DC0B4C08A3009F489C08B3009F45C
:102EF0006EC0893009F0ABC020C08091ED01813AED
:102F000009F0A5C08091E800877F8093E800809158
:102F1000F1019091F201892B21F460E289EC91E0BA
:102F200003C060E080E090E070E00E941B1680919A
:102F3000E8008B778093E8008AC08091ED018132B0
:102F400009F085C08091F1019091F201009719F08C
:102F5000029709F07CC08091E800877F8093E800A9
:102F60008091E80082FD05C08091EB018111F8CFCE
:102F70006EC02091F3008091F20090E0922B0297B6
:102F800031F48091F100813011F0863021F480918C
:102F9000F1008093C8018091E8008B7754C0809144
:102FA000ED01813A09F053C08091F1019091F20155
:102FB000892B09F04CC08091E800877F8093E8005E
:102FC0008091E80080FFFCCF8091090137C080919B
:102FD000ED018132E1F58091F1019091F201892BAF
:102FE000B1F58091E800877F8093E8000E94C715C3
:102FF0008091EF01809309010E94061F28C08091F3
:10300000ED01813221F58091E800877F8093E8000F
:103010000E94C7158091F0018093C70118C080916C
:10302000ED01813AA1F48091E800877F8093E80068
:103030008091E80080FFFCCF8091C7018093F10070
:103040008091E8008E778093E8000E94C7158091F8
:10305000E80083FFEBC18091ED019091EE01492FD3
:1030600050E04A30510508F0E1C1FA01E056FF4F47
:103070000C943E35803821F0823809F0D7C108C061
:103080008091E9019091EA01992389F082600FC053
:103090008091F1018F70873008F0C8C18093E900FA
:1030A0008091EB0085FB882780F91092E9009091D0
:1030B000E800977F9093E8008093F1001092F10070
:1030C0007CC1282F2D7F09F0B1C1882319F08230EF
:1030D00061F0ACC18091EF01813009F0A7C193305C
:1030E00009F080E08093EA012EC08091EF01811108
:1030F0002AC08091F1018F702FEF280F263008F041
:1031000095C18093E9002091EB0020FF1CC0933013
:1031100021F48091EB00806214C09091EB009061EB
:103120009093EB0021E030E0A90102C0440F551F4D
:103130008A95E2F74093EA001092EA008091EB0052
:1031400088608093EB001092E9008091E800877F0F
:103150008093E8000E94C71569C1811167C1109171
:10316000EF011F778091E3008078812B8093E3004B
:103170008091E800877F8093E8000E94C7158091C6
:10318000E80080FFFCCF8091E30080688093E3003B
:10319000111102C082E001C083E08093EB0146C1BF
:1031A0008058823008F042C12091EF013091F00147
:1031B0002C3D53E0350779F583E08A838AE28983E1
:1031C0004FB7F894DE01139620E03EE051E2E32F82
:1031D000F0E050935700E49120FF03C0E295EF70B8
:1031E0003F5FEF708E2F90E0EA3010F0C79601C07D
:1031F000C0968D939D932F5F243149F74FBF8091E7
:10320000E800877F8093E8006AE270E0CE010196D3
:103210000E941B16C0C08091F1019091F201432FD2
:10322000552743305105B1F068F44130510509F498
:103230000CC14230510509F0F9C08BE590E0E0EF98
:10324000F3E057C04132510589F14232510509F48A
:103250003CC0ECC0C901992781309105B9F070F0EC
:1032600082309105D9F0039709F0E0C0EDE5F4E074
:10327000E4918E2F90E0EDE5F4E038C0EFEAF4E061
:10328000E4918E2F90E0EFEAF4E030C0E5E9F4E05D
:10329000E4918E2F90E0E5E9F4E028C0EBE7F4E05C
:1032A000E4918E2F90E0EBE7F4E020C083309105AD
:1032B00008F0BCC0880F991FFC01E75CFE4F01902D
:1032C000F081E02D89E090E014C08330910508F092
:1032D000ADC0FC01EE0FFF1FED5CFE4F0190F081D1
:1032E000E02DDC01A05DBE4F8C9190E0009709F4C9
:1032F0009DC02091E800277F2093E8002091F301F2
:103300003091F4012817390708F4C90140E000970B
:1033100089F12091EB01222309F43DC02530D9F138
:103320002091E80023FD37C02091E80022FD2FC046
:103330002091E80020FFEBCF4091F3002091F200B4
:1033400030E0342B009759F02830310540F4449197
:103350004093F100319601972F5F3F4FF3CF41E04B
:103360002830310509F040E02091E8002E772093C5
:10337000E800CDCF4111CDCF0AC08091EB01882369
:1033800051F0853041F08091E80083FD04C08091C8
:10339000E80082FFF2CF8091E8008B778093E8000D
:1033A00045C0803809F042C08091E800877F809353
:1033B000E8008091EC018093F1008091E8008E7725
:1033C000C7CE811133C08091EF019091F001992710
:1033D000029764F58091E800877F8093E800109160
:1033E000EF011093EC010E94C715111106C08091E6
:1033F000E30087FD02C081E001C084E08093EB011F
:1034000042E061EC81E00E94E61542E261EC84E07A
:103410000E94E61542E261EC82E00E94E61542E27B
:1034200060EC83E00E94E6158091EB018091E8005A
:1034300083FF10C08091E800877F8093E80080912F
:10344000EB0080628093EB0005C082E190E0EBE44A
:10345000F4E04FCFAA96E3E00C9476351F920F92DA
:103460000FB60F9211242F933F934F935F936F9357
:103470007F938F939F93AF93BF93CF93DF93EF93FC
:10348000FF93C091E900CF708091EC00D82FD170EC
:1034900080FDD0E81092E9008091F000877F809352
:1034A000F00078940E9457171092E9008091F00084
:1034B00088608093F000CD2BCF70C093E900FF911E
:1034C000EF91DF91CF91BF91AF919F918F917F91BC
:1034D0006F915F914F913F912F910F900FBE0F9081
:1034E0001F901895E8EDF0E080818E7F8083109228
:1034F000E2001092DA001092E100A0EEB0E08C91B0
:1035000081608C9380818F77808319BCA7EDB0E0B8
:103510008C918E7F8C9380818F7E80831092C601E8
:103520000895A0E0B0E0E7E9FAE10C945535C8ED64
:10353000D0E088818F7E8883E7EDF0E08081816034
:10354000808384E082BF81E08093C60188818E7F82
:10355000888302EE10E0F80110821092DA0081EE0A
:10356000C82ED12CF601108288818F7788838881BC
:103570008068888388818F7D888319BC1092EB01D5
:103580001092EC011092EA011092E90190EEE92EFE
:10359000F12CF70180818B7F808388818160888313
:1035A00042E060E080E00E94E615F60180818E7FB7
:1035B0008083F8018081816080838081886080833E
:1035C000F70180818E7F8083888180618883CDB779
:1035D000DEB7E8E00C9471351F920F920FB60F9290
:1035E00011242F933F934F935F936F937F938F9308
:1035F0009F93AF93BF93EF93FF938091E10082FF7E
:1036000009C08091E20082FF05C08091E1008B7FBC
:103610008093E1008091DA0080FF2AC08091D80079
:1036200080FF26C08091DA008E7F8093DA0080913F
:10363000D90080FF18C080E189BD82E189BD09B44D
:1036400000FEFDCF81E08093EB018091C6018111E6
:103650000FC00E94721A0E94911A8091E200846049
:103660008093E20005C019BC1092EB011092C601D4
:103670008091E10080FF17C08091E20080FF13C0BD
:103680008091E2008E7F8093E2008091E200806171
:103690008093E2008091D80080628093D80019BCAA
:1036A00085E08093EB018091E10084FF30C0809140
:1036B000E20084FF2CC080E189BD82E189BD09B4AC
:1036C00000FEFDCF8091D8008F7D8093D80080913F
:1036D000E1008F7E8093E1008091E2008F7E8093F5
:1036E000E2008091E20081608093E2008091EC0131
:1036F000882311F084E007C08091E30087FD02C0B9
:1037000081E001C083E08093EB018091EB01809127
:10371000E10083FF27C08091E20083FF23C08091F6
:10372000E100877F8093E10082E08093EB011092BB
:10373000EC018091E1008E7F8093E1008091E200B6
:103740008E7F8093E2008091E20080618093E200AE
:1037500042E060E080E00E94E6158091F000886021
:103760008093F000FF91EF91BF91AF919F918F9166
:103770007F916F915F914F913F912F910F900FBE6D
:103780000F901F9018952091E4003091E50095E688
:103790004091EC00842F817040FF23C08091E800AD
:1037A00080FD1DC08091EB01882399F0853099F050
:1037B0008091EB0085FD11C04091E4005091E5003F
:1037C0002417350729F3915011F09A01E1CF84E0D5
:1037D000089582E0089583E0089581E0089580E0EF
:1037E00008954091E80042FFDDCF0895CF92DF9227
:1037F000FF920F931F93CF93DF936C010091900181
:1038000080918F01082BC2E0D0E010E0C8010C2E9F
:1038100002C0959587950A94E2F780FD04C0219730
:10382000A8F7F12C09C0FC2EB6018C2F0E94592953
:103830000E947629019799F38F2DDF91CF911F91E7
:103840000F91FF90DF90CF900895CF93DF93EC011D
:103850000E94F61BBE010E9459290E947629DF9121
:10386000CF910895292F983078F58A3068F590E047
:103870003AE0239F800D911D1124682F677023E08B
:10388000969587952A95E1F7FC01EE0FFF1FE80F4B
:10389000F91FEB50FE4F40E050E080E0219130E016
:1038A000062E02C0369527950A94E2F72170332739
:1038B000042E01C0220F0A94EAF7822B4F5F5F4F5C
:1038C0004330510559F7089580E00895292F983025
:1038D00088F58A3078F590E03AE0239F800D911DBD
:1038E0001124282F277051E001C0550F2A95EAF7BF
:1038F00023E0969587952A95E1F7FC01EE0FFF1FCF
:10390000E80FF91FEB50FE4F20E030E070E04081FF
:10391000CB01022E02C0969587950A94E2F781703A
:10392000819584278523842781932F5F3F4F233000
:10393000310569F708958093900108959091900161
:1039400021E030E0F90101C0EE0F8A95EAF7D901D4
:1039500002C0AA0FBB1F6A95E2F7BD016E2B01C022
:10396000220F4A95EAF7892F8623681303C0892F0F
:10397000822B03C02095822F89230E949B1C0895CF
:1039800021E030E001C0220F8A95EAF7209580916E
:10399000900182230E949B1C089521E030E001C029
:1039A000220F8A95EAF780919001822B0E949B1C3E
:1039B000089580938F01089592959F70963079F0C5
:1039C00010F4925001C09A50923068F4803F69F030
:1039D00018F4883E40F409C0843F29F406C0883EAC
:1039E00020F0813F11F080E0089581E00895FC010E
:1039F0002481222371F087819085009719F00E941D
:103A0000762904C0808191810E94251C0E94DC1CC3
:103A1000089580E00895A8E1B0E0E1E1FDE10C94B3
:103A20004E358C0186E0F801DE01539601900D922F
:103A30008A95E1F7D80114967C9014971596EC902E
:103A400082E5A82E83E0B82E80915603811122C012
:103A5000772009F45BC0EE2009F455C0C8010E942C
:103A6000F71CF82E882309F44EC089E0F801A2E57E
:103A7000B3E001900D928A95E1F780915603813071
:103A800031F480915203909153030E94251C0E94AF
:103A9000082CB7C1F80150806180C280D38060E0FB
:103AA00082E593E00E94DE31F09057038091540349
:103AB000909155034601881A990A60E082E593E0E7
:103AC000FF2009F426C10E94DE3162E573E00E9406
:103AD000152F8816990608F0C5C07720B9F0809197
:103AE0005803382F307F20915303D80111969C91B1
:103AF0001197332371F0291709F473C0C8010E948C
:103B0000F71C811182C0C8010E943F04FF24F39476
:103B100078C129131FC0209152039C9129131AC008
:103B20004091590350915A0317962D913C91189743
:103B30004217530779F4E1100DC08F7080618093B4
:103B4000580382E593E00E943F0480915803F801F6
:103B5000868356C1E1103BC040E0662D852D0E9452
:103B6000DE2BE82E882329F08091710280FD3DC173
:103B700047C15B8A6C8A8B899C890E94251C292FEE
:103B800022952F70243020F49F70223028F009C035
:103B90002A50223088F015C0992351F0811108C0B5
:103BA00014C0992329F0D80116969C91907F69F052
:103BB000805E883030F409C0803F38F0815F833008
:103BC00020F0C8010E943F04EF2CFE2C1AC1809106
:103BD00058038160809358038091710281FD10C168
:103BE00004C120915203F8019081291387CF40919D
:103BF000590350915A03278130854217530709F022
:103C00007DCFE1107BCF8683D0C0EE2009F47BCF3F
:103C100020915803822F82958F7090E00297BCF01C
:103C200080915203909153039B878A87DD86CC86CF
:103C3000809156038E871F86288B8091590390911F
:103C40005A039A8B898BCE010A960E943F0489E021
:103C5000F801A2E5B3E001900D928A95E1F70E9488
:103C6000082C54CF80915803982F907F39F482E527
:103C700093E00E943F0489E0D501BFC0772009F49A
:103C800045CF20915303F801918129131AC0209147
:103C900052039081291315C04091590350915A0342
:103CA000278130854217530761F4E1100AC08683EB
:103CB000C8010E943F0489E0D5011D928A95E9F769
:103CC000A0C0C8010E94F71C882309F41CCFEE2075
:103CD00009F419CF20915803822F82958F7090E0BC
:103CE00002970CF4B4CF80915203909153039A83BE
:103CF0008983DC82CB82809156038D831E822F8341
:103D00008091590390915A0399878887CE01019633
:103D10009CCF0E94DE3162E573E00E94152F881669
:103D2000990608F05CC0772009F4F0CEFE2CEE2056
:103D300009F4E9CE90915303F8018181981341C0B1
:103D400090915203808198133CC020915903309187
:103D50005A03878190852817390799F58091540374
:103D600090915503C81AD90AF8ECCF16D10400F582
:103D70008091580380FD1CC082958F70482F50E0C1
:103D800041155105A9F020915803D80116962C939E
:103D900016974F30510549F08F5F982F9295907F7D
:103DA000822F8F70892B16968C93C8010E943F0436
:103DB00089E0F801A2E5B3E001900D928A95E1F760
:103DC00020C0C8010E94F71C811141CF8091580387
:103DD000816080935803C8010E943F0412C089E0AB
:103DE000F50111928A95E9F70CC082E593E00E94F3
:103DF0003F04E2E5F3E089E0DF011D928A95E9F7EF
:103E0000F12C8F2D6896EFE00C946A3510923302F6
:103E100080910901882331F08091C40187FF02C09D
:103E20008EE101C086E0E5E1F2E0DF011D928A95B6
:103E3000E9F780E090E00E94B02280E090E00E94EC
:103E40008B22109244030E94652BE8EDF3E086E09C
:103E5000DF011D928A95E9F71092D1031092D203E7
:103E60001092D3030E94F9300895A2E1B0E0EBE391
:103E7000FFE10C9459350A871B872C873D874E87B5
:103E80005F87688B798B8A8BCE010A960E940B1D07
:103E900081113BC089E0FE013A96DE011196019046
:103EA0000D928A95E1F76E85662379F120915B0387
:103EB00030E0C9010196877099274091A40350E032
:103EC00084179507A1F06D8399E0929FD001939F8D
:103ED000B00D1124A45ABC4FFE01319601900D92F1
:103EE0009A95E1F780935B030E94FE2B0EC00E941F
:103EF000061F10925B031092A403E2E5F3E089E051
:103F0000DF011D928A95E9F719C019E08091A40399
:103F100090915B03891791F0189FC0011124845A76
:103F20009C4F0E940B1D882349F08091A40390E0D0
:103F30000196877099278093A403E8CF6296E4E006
:103F40000C947535882321F00E94EB2A0E94652B82
:103F50000895882339F090914403892B809344037A
:103F60000E94652B0895882321F00E94F22A0E9466
:103F7000652B0895882321F00E94F92A0E94652B61
:103F80000895662309F45CC08D3C21F40E945C31E5
:103F9000819504C08E3C29F40E945C318093DB0340
:103FA000C5C08F3C21F40E945C31819504C0803DE6
:103FB00029F40E945C318093DA03B8C0893D19F47A
:103FC0000E94233105C08A3D31F40E94233181953E
:103FD0008093DC03ABC08B3D21F40E94233181959B
:103FE00004C08C3D29F40E9423318093DD039EC0E0
:103FF0009FE2980F983078F421E030E0A90102C0E8
:10400000440F551F9A95E2F7CA019091D903892B65
:104010008093D9038BC08D3D21F48091D3038160BF
:104020000CC08E3D21F48091D303826006C08F3D89
:1040300009F07CC08091D30384608093D30376C061
:104040008D3C39F49091DB0397FF35C01092DB0370
:1040500059C08E3C29F49091DB031916BCF32BC098
:104060009091DA038F3C29F497FF25C01092DA0370
:1040700049C0803D19F41916CCF31DC09091DC03A2
:10408000893D29F41916BCF41092DC033BC08A3D2B
:1040900019F497FF10C0F8CF8B3D39F49091DD03F0
:1040A00097FF09C01092DD032DC08C3D21F4909143
:1040B000DD031916BCF39FE2980F983080F421E0DD
:1040C00030E0A90102C0440F551F9A95E2F7CA01DA
:1040D00080959091D90389238093D90313C08D3D96
:1040E00021F48091D3038E7F0BC08E3D21F480910B
:1040F000D3038D7F05C08F3D29F48091D3038B7F3F
:104100008093D3038091DA03811106C08091DB0391
:10411000811102C01092D1038091DC03811106C08D
:104120008091DD03811102C01092D2030E94F93008
:104130000895882399F19CEF980F913A30F4682FF5
:1041400083E192E00E942E220DC090E2980F9830F9
:1041500060F4877091E001C0990F8A95EAF7892F82
:104160000E94F22A0E94652B08959BE5980F9330D8
:1041700028F480E090E00E94B022089598E5980F1E
:104180009B3128F480E090E00E948B22089593E315
:10419000980F933118F460E00E94C11F0895CF93E7
:1041A000882309F46EC0C82F8CEF8C0F813AC0F5BC
:1041B000809109018823E1F08091C40187FF18C034
:1041C000EC2FE695E695E695F0E0ED5EFD4F8281F9
:1041D000282F30E04C2F477081E090E002C0880F1C
:1041E000991F4A95E2F782239323892B61F412C029
:1041F000E5E1F2E08BE192E02191C21721F08E1708
:104200009F07D1F707C06C2F83E192E00E942E2216
:104210000E94652B6C2F83E192E00E9456220CC015
:1042200080E28C0F883058F4C77081E001C0880F9D
:10423000CA95EAF70E94F92A0E94652B22C0EBE595
:10424000EC0FE33040F4F0E0E15CFE4F808190E061
:104250000E94B02216C0E8E5EC0FEB3150F4F0E01C
:10426000EE0FFF1FEE5BFE4F808191810E948B223B
:1042700008C083E38C0F833120F461E08C2F0E940F
:10428000C11FCF9108951F93CF93DF93182F8933C8
:1042900029F4C0917402D091750204C0C0917202D9
:1042A000D0917302812F0E94CF20209741F08FE997
:1042B0009FE00197F1F700C000002197F6CF812F12
:1042C0000E949920DF91CF911F9108958091C8019C
:1042D00008950F931F93CF93DF938B01EA01909181
:1042E000EB01943079F58F708093E9008FEF909116
:1042F000E800815095FD06C095ED9A95F1F7000014
:104300008111F5CF8091E80085FF1CC00E94C31B7E
:10431000882361F08091E8008E778093E80012C0D6
:10432000F80181918F018093F1002197209791F3FB
:104330008091E80085FDF4CF8091E8008E7780932E
:10434000E800E4CFDF91CF911F910F91089587E7A7
:1043500097E790930108809300089AE088E10FB6F0
:10436000F894A895809360000FBE90936000FFCFF3
:1043700078941F920F920FB60F9211248F939F93F0
:10438000AF93BF9380914E0390914F03A091500340
:10439000B09151030196A11DB11D80934E039093DE
:1043A0004F03A0935003B0935103BF91AF919F91DE
:1043B0008F910F900FBE0F901F9018959C014FB7D3
:1043C000F89480914E0390914F03A0915003B091C7
:1043D00051034FBF821B930B08952FB7F894609140
:1043E0004E0370914F0380915003909151032FBF62
:1043F00008952FB7F89480914E0390914F03A091A8
:104400005003B09151032FBF08951F920F920FB622
:104410000F9211248F939F93AF93BF9380914D037D
:10442000811113C080914E0390914F03A0915003CE
:10443000B09151034196A11DB11D80934E039093FD
:104440004F03A0935003B0935103BF91AF919F913D
:104450008F910F900FBE0F901F901895209109011A
:104460002223C9F02091C40127FF15C0262F2695CD
:10447000269526952E31C8F4FC01E20FF11D6770D8
:1044800081E090E001C0880F6A95EAF780959281FB
:10449000892382830895FC0106962281621301C05C
:1044A00012823196E817F907C1F7089520910901A2
:1044B0002223C1F02091C40127FF14C0262F269586
:1044C000269526952E3130F5FC01E20FF11D67701F
:1044D00081E090E001C0880F6A95EAF79281892B0C
:1044E00082830895FC0132962FEF30E041916417EA
:1044F00089F02F3F19F4411101C0232F3F5F36305F
:10450000A9F72F3F39F0FC01E20FF11D27FDFA95C5
:10451000628308950895A3E0B0E0E1E9F2E20C942B
:104520005B3520914B0330914C0328173907A1F0DC
:1045300090934C0380934B03E0914903F0914A031D
:10454000309751F024E029839B838A830680F7818A
:10455000E02DCE01019609952396E2E00C94773583
:10456000A3E0B0E0E6EBF2E20C945B352091470368
:104570003091480328173907A1F09093480380939E
:104580004703E0914903F0914A03309751F023E04B
:1045900029839B838A830680F781E02DCE010196D3
:1045A00009952396E2E00C947735E0914903F09168
:1045B0004A03309729F00190F081E02D0995089584
:1045C00080E008954115510511F0FA01099508950B
:1045D000CF93DF93EC014A855B856E857F850E94D2
:1045E000E2228B810E94EB2A8C810E94F22A0E9497
:1045F000652B86E0FE0111928A95E9F7DF91CF9154
:104600000895CF93DF93EC018D8181FD14C082600A
:104610008D83909144038B81892B809344038C81FB
:104620000E94F92A0E94652B488559856E857F85F1
:10463000CE010E94E22210924603109245038D8122
:1046400080FD03C0CE010E94E822DF91CF91089542
:10465000A0E0B0E0EEE2F3E20C9453357C015B01A4
:10466000C42FD22FFC0185818823B1F040934303EE
:104670000E94F921909342038093410380E28C0FC2
:10468000883008F052C0C77081E001C0880FCA9519
:10469000EAF70E94BA1F49C080914303481335C00E
:1046A00080914103909142030E94DE216C01B70189
:1046B000C5010E94152FC816D90638F510E21D0F46
:1046C000CD17B9F080E28C0F883040F4C77081E0DC
:1046D00001C0880FCA95EAF70E94B31F183010F581
:1046E00081E09D2F977001C0880F9A95EAF70E948C
:1046F000BA1F802F0E9443211830B8F4D77081E090
:1047000001C0880FDA95EAF70AC080E28C0F883082
:1047100060F4C77081E001C0880FCA95EAF70E9473
:10472000B31F03C0802F0E944321CDB7DEB7EAE05C
:104730000C946F35CF93DF93EC0140913603509189
:10474000370360913803709139032FB7F894809143
:104750004E0390914F03A0915003B09151032FBF8E
:10476000841B950BA60BB70B843F9140A105B105A7
:10477000A8F48091360390913703A0913803B0914B
:1047800039038093320390933303A0933403B0939F
:10479000350384EF91E0A0E0B0E00EC00E94ED216F
:1047A0006093320370933303809334039093350303
:1047B00082E390E0A0E0B0E080932E0390932F037B
:1047C000A0933003B0933103D0933E03C0933D03D5
:1047D000DF91CF910895FF920F931F93CF93DF93B3
:1047E00000913F03109140030115110509F45CC0CD
:1047F00010923E0310923D0310923A0310923B0335
:10480000D80116966D917C9117979B013A952115C9
:104810003F4108F4707EC62FD1E0611101C0D0E0A5
:10482000F82ED8011996ED91FC911A97309739F02E
:104830001B966D917C911C9780E00995D823DD2310
:1048400079F08CEF8C0F813A30F46C2F83E192E099
:104850000E942E2205C00E94652B8C2F0E94992059
:10486000E0913F03F091400340815181FF2071F0BE
:10487000808584FD0BC080913C03882339F091E052
:104880009A01215031092F333E4708F090E090FF04
:1048900003C0CA010E949A230E94652B1092400314
:1048A00010923F0310923C03C801CDB7DEB7E5E09C
:1048B0000C947435FC0184818623C1F49281992380
:1048C000B9F08085692383FF04C081E0611111C0C4
:1048D0000DC0892F8F7092959F70982B862F8F70A7
:1048E00062956F70682B81E0961719F080E008954B
:1048F00081E00895CF93DF93CDE1D3E060E0CE0176
:104900000E94DA342196C11584E0D807B9F7DF9107
:10491000CF910895883080F49B01982F8AE0989F6A
:10492000B0011124635D7D4F4AE050E0C9010E944F
:10493000AC3480E090E008958FEF9FEF08951F93CF
:10494000CF93DF93962F8330E8F46830D8F44A3061
:10495000C8F4632F122FC42FD0E0CC0FDD1F24E149
:10496000929FC00DD11D112490EA899FC00DD11DC9
:104970001124CE0189960E94DA34612FCE018A96E5
:104980000E94DA34DF91CF911F910895AEE1B0E03B
:10499000ECECF4E20C944F35A0902C03B0902D0376
:1049A00081E090E090932D0380932C03612CC12C27
:1049B000D12C712CE12CF12C00E010E046018E0C82
:1049C0009F1CF801EE0FFF1FE80DF91DED59FA4F7E
:1049D00025913491402F672D862D0E949F240F5FD3
:1049E0001F4F0A30110569F784E1E80EF11C73943A
:1049F000E8E07E12E1CFF0EACF0ED11C639483E0B1
:104A00006812D7CF0E940B2E1A8219821C821B8239
:104A10001E821D8218861F8288EC90E09A87898703
:104A20000DE212E04AE050E0B801CE0101960E948A
:104A3000FE34065F1F4F0D37E2E01E0799F77E0137
:104A4000FBE0EF0EF11C8AE0F70111928A95E9F77D
:104A50004AE050E0B801C7010E94FE34065F1F4FD4
:104A60000D3CF2E01F07A1F77E0185E1E80EF11C85
:104A70008AE0F70111928A95E9F78FEF9FEF9A8FFD
:104A8000898F87E08E8F4AE050E0B801C7010E940D
:104A9000FE34065F1F4F0D31F3E01F07A1F7B09200
:104AA0002D03A0922C036E96EEE00C946B350F93C1
:104AB0001F93CF93DF93833008F56830F8F44A30C2
:104AC000E8F4C42FD0E0CC0FDD1F24E1629FC00DBD
:104AD000D11D112430EA839FC00DD11D1124CE01B8
:104AE00089960E94BC3490E0182F0027CE018A9648
:104AF0000E94BC349801282BC90102C080E090E0DC
:104B0000DF91CF911F910F910895BC01409128032F
:104B100080912903942F981729F1292F30E0F9016A
:104B2000EE0FFF1FE05EFC4F0190F081E02DE617D5
:104B3000F70799F487E0869FF001879FF00D112415
:104B4000E158FD4F81E0848394130CC02F5F3F4FE9
:104B5000237033272093280308952F5F3F4F922F10
:104B60009370D9CF0895EF92FF920F931F93CF9335
:104B7000DF938091B7028823D9F1C0917E028DE046
:104B8000F82E8091B702C81778F5EE24E394EC0E66
:104B9000E0927E02D0E0FC9EF001FD9EF00D11241B
:104BA000E854FD4F84818823E9F087819085892B23
:104BB00021F481859285019659F400811181228129
:104BC0003381448155816681778180850E94351FBC
:104BD000FC9EF001FD9EF00D1124E854FD4F14825F
:104BE00010924403CE2DCDCF1092B70210927E02C8
:104BF000CDB7DEB7E6E00C94733510927D021092CB
:104C00007C02EFE7F2E08581811102C014821682F6
:104C1000379682E0E73BF807B1F7089510922B032F
:104C200010922A0310920D0180912903809328038A
:104C30000E94FD250E94B3250895A0E0B0E0E3E2C4
:104C4000F6E20C944C35C091280397E0992E01E0D0
:104C500010E02DE0322E34E0432E55245394809101
:104C60002903C81709F479C0D0E0FE01EE0FFF1F39
:104C7000E05EFC4F80819181989ED001999EB00D9D
:104C80001124A158BD4F14962C911497211162C084
:104C90007090B702E8EBF2E020E030E0812C5D019B
:104CA000271508F055C0E384F484D501CD90DC903D
:104CB0006FEF7FEF612C462D50E0DA01AA0FBB1F8A
:104CC000AC0DBD1D0D90BC91A02D109731F0EA16D2
:104CD000FB0609F4BA016394EECF6F3FBFEF7B0789
:104CE00099F1D80102C0AA0FBB1F6A95E2F78A2A80
:104CF000B801062C02C0660F771F0A94E2F7AB01D9
:104D000041505109682D70E046175707E1F4329E73
:104D1000F001339EF00D1124E854FD4F989ED00110
:104D2000999EB00D1124A158BD4F12962D913C9122
:104D3000139730872783448210821182928781875C
:104D400015965C9205C014822F5F3F4F3D96A8CF09
:104D50000E9485252196C37082CF0E94B3250E94B0
:104D6000FD25CDB7DEB7E1E10C94683580910C01EB
:104D7000877F80930C0182E00E94EB2A80910C01D6
:104D800084FF06C08F7E80930C0182E00E94F92A86
:104D900080910C0185FF06C08F7D80930C0180E21D
:104DA0000E94F92A0E94652B0895662329F020911C
:104DB00044032260209344039C0130522115304368
:104DC00008F499270E9489340895009741F0EFE98B
:104DD000FFE03197F1F700C000000197F6CF08958A
:104DE000A0E0B0E0E6EFF6E20C9453355C017B0105
:104DF000C42E890180910C0182FF88C0C0917A0283
:104E0000D0917B02CA15DB0521F0A114B10409F091
:104E10007DC080910C018B7F80930C0181FD11C0BE
:104E20008091780290917902A701481B590B81E08B
:104E300020910A0130910B014217530718F480E0CA
:104E400001C081E08170D82E80910C01D0FA81F9E7
:104E500080930C01FE01FF2784E0F695E7958A9583
:104E6000E1F79E012F703327EE0FFF1FEC5CFD4F23
:104E700081E090E002C0880F991F2A95E2F7DD20BB
:104E800029F020813181822B932B06C0809590954B
:104E90002081318182239323918380838091330207
:104EA00081FF08C080910C01806180930C0182E039
:104EB0000E94F22A8091330285FF08C080910C0184
:104EC000806280930C0180E20E94F22AA8016D2D7D
:104ED000CE010E94D526CC2031F080916F0285FF53
:104EE00002C086FF2BC080917202909173020E94D3
:104EF000E52680917A0290917B029C013052211527
:104F0000304308F499270E946F3412C0C5019052B3
:104F10008115904318F4C501992701C0C5010E946D
:104F20006F3480917A0290917B02A816B90611F431
:104F30000E94B626F0927902E0927802CDB7DEB7F1
:104F4000EAE00C946F3580E008959091C40192FFDF
:104F500010C041E0282F2471243009F040E031E0F6
:104F6000282F2871283009F030E0431711F02CE089
:104F7000822793FF10C041E0282F2471243109F0CB
:104F800040E031E0282F2871283109F030E0431744
:104F900011F02CE082273091C50130FF10C051E0A4
:104FA000282F2171213009F050E041E0282F28718D
:104FB000283009F040E0541711F029E0822731FF32
:104FC00010C041E0282F2171213109F040E031E08B
:104FD000282F2871283109F030E0431711F029E01B
:104FE000822794FD877E08958238910569F1B0F497
:104FF0008133910509F475C048F48932910509F4AB
:1050000067C08A32910509F471C00895853391050E
:1050100009F459C089339105B9F00895833E91058B
:1050200089F138F4803E9105D1F0823E910529F155
:105030000895863E9105C9F1873E9105D9F1843ED8
:10504000910509F06CC027C02091C40120FD57C014
:1050500021FD55C02091C50123FD5BC008958091BD
:10506000C40180FD48C08091C50180FF48C0809187
:10507000C40184FD46C083EE51C08091C40182FF0B
:105080003CC0F5CF8091C40182FD37C08091C5013D
:1050900080FD35C0ECCF8091C50181FF36C0809185
:1050A000C40184FD2EC087EE39C08091C40183FF06
:1050B0002AC0F5CF8091C40183FD25C08091C50130
:1050C00081FD23C0ECCF8091C40185FD22C01FC0AB
:1050D0008091C40185FD1BC08091C50183FF19C06B
:1050E0000AC08091C40186FD16C017C08091C4011A
:1050F00086FD13C010C089E311C082EE0FC080EEA0
:105100000DC080E00BC086EE09C084EE07C085E3C9
:1051100005C089E203C08AE201C081E390E00895FE
:10512000F894E82FE295EF70F0E031A1282F2F706E
:1051300081E090E001C0880F2A95EAF7982F9095BA
:10514000932391A392A1892B82A378940895A0E13F
:10515000B0E0EDEAF8E20C944F35AE014F5F5F4FDF
:105160007A0180E1FA0111928A95E9F70EE111E0E6
:105170006A0196E2692E91E0792E88248394912C1D
:10518000F80180818F3F09F447C0F894E82FE29539
:10519000EF70F0E021A18F70A40102C0440F551FF1
:1051A0008A95E2F7CA01922F982B91A392A180953C
:1051B000892382A3789400C0E6E2F1E021E030E0A8
:1051C000A12CB12C41914F3F89F0A42FA295AF7033
:1051D000B0E090968C9190E04F7002C095958795C5
:1051E0004A95E2F780FD02C0C90102C080E090E06C
:1051F000A82AB92A220F331F51E0E033F50711F72F
:10520000F80180818F3F11F00E949028F0EAFA9512
:10521000F1F7F601B182A0820F5F1F4FF2E0CF0ECF
:10522000D11C6016710609F0ABCF40E150E0B70128
:105230008FE791E00E948235892B89F080E1F701A8
:10524000AFE7B1E001900D928A95E1F781E080939C
:10525000D0030E94F9219093CF038093CE038091D5
:10526000D003811102C080E020C08091CE039091D4
:10527000CF030E94DE210597B0F340E150E06FE7D5
:1052800071E082EB91E00E948235892B59F080E138
:10529000EFE7F1E0A2EBB1E001900D928A95E1F722
:1052A00081E001C080E01092D0036096EEE00C94A3
:1052B0006B352091C2013091C301232BA1F4703FC3
:1052C00039F4603F81F48091DE039091DF0308950B
:1052D000783048F46A3038F4833028F4462F672F4A
:1052E0000E945725089580E090E008951F93CF9382
:1052F000DF930E94F427EC01C11580E5D807E8F59B
:10530000C11590E4D90708F0A8C0C03ED10530F51A
:10531000CD3CD10508F094C0C83AD10578F4C53A1F
:10532000D10508F083C0C130D10509F47CC008F470
:10533000F2C0C430D10508F0F1C0EDC0C33CD105C6
:1053400008F0E9C0C85AD0E0CC0FDD1FCE5BDE4FBD
:105350000990D881C02DCE019464E1C0C11580E2CE
:10536000D80708F0CBC0C11591E0D90708F06BC091
:10537000C83ED10508F4D2C0CEC0C03682E5D807F9
:1053800028F5C03492E5D90708F079C0C03282E52B
:10539000D80708F06CC0C11592E5D90708F481C0A0
:1053A0004C2F4695469580E2489FA0011124C3707A
:1053B00021E030E0C90102C0880F991FCA95E2F7C9
:1053C000EA01C82BD92BCE019D68A9C0C03A82E55D
:1053D000D807B8F48C2F8F71C03892E5D90708F040
:1053E0007BC08695869590E2899F90011124C370B9
:1053F00081E090E002C0880F991FCA95E2F79A6891
:1054000068C0C03C82E5D80708F46DC0C03E92E594
:10541000D90708F080C0CF71DD27DC2FCC27CE0163
:10542000806F906A7CC081E090E079C0C55AD0E07E
:10543000C15CDE4F8881C82FD0E0CE0190646FC080
:10544000CE0190656CC08D2F0E94A527182FCE012C
:1054500099270E94F4271F715CC0CE0199270E94F2
:10546000F427CC27DF70D06A8C2B9D2B58C0CF71CE
:10547000D0E0DC2FCC27CE01816F906A50C08C2FFA
:105480008F718695869590E2899F90011124C37053
:1054900081E090E002C0880F991FCA95E2F79C68EE
:1054A00018C08C2F8F710E94A52795E0D695C795BF
:1054B0009A95E1F7CF70D0E0DC2FCC27282F30E091
:1054C00084FF05C084E0220F331F8A95E1F7D0697D
:1054D000CE01822B932B23C090E0D82FCC27CE0176
:1054E000846F906A1CC08C2F8F710E94A5278F71CA
:1054F00090E0D82FCC27CE01906211C08D2F8F71F4
:105500000E94A527182FCE0199270E94F4271F710A
:105510009062912B04C080E090E001C0CE01DF9149
:10552000CF911F910895A6E0B0E0E9E9FAE20C946A
:1055300059350E94F9218C018091CC039091CD03C3
:105540000817190781F019821A820E94F921682F21
:1055500049815A81792F80E090E00E94ED311093CB
:10556000CD030093CC032696E4E00C94753580912E
:10557000CB03882331F01092CB031092CA03109210
:10558000C9030895CF939091C50192FF0DC09091EA
:10559000CB03981749F0C82F0E94F9219093CA03B2
:1055A0008093C903C093CB03CF9108959091CB030F
:1055B000292F282379F0809589238093CB03882392
:1055C00019F00E94F92102C080E090E09093CA0394
:1055D0008093C90308958095909144038923809313
:1055E0004403089580959091330289238093330278
:1055F000089590913302892B80933302089510927D
:10560000A8031092A7031092A60308959091A803EF
:10561000809589238093A803282F277069F4981711
:1056200059F09091C50192FF07C0869586958695A1
:105630000E94C01C0E94FF2A08959091C50192FB10
:10564000222720F9281779F080FB92F99093C50161
:105650006091C4017091C50184E090E00E94F8342B
:1056600082E00E94062B08959091C50192FF10C020
:1056700098E0899F90011124262B2093A8030E9473
:10568000CD1C0E94F9219093A7038093A60308954F
:105690000E94CD1C08958091560290915702892B4B
:1056A00089F00E94F9212091C9033091CA03AC010D
:1056B000421B530B81E02091560230915702421752
:1056C000530708F480E081700895CF9390913302DE
:1056D00080914403892B809313028091CB0388230C
:1056E00051F18091560290915702892B29F00E9426
:1056F0004B2B81110E94B72A909113028091CB030A
:10570000892B8093130280910901882331F08091C5
:10571000C40187FF02C08EE101C086E0E5E1F2E04E
:1057200090E0815028F021912223D9F39F5FF9CF97
:1057300091110E94B72AC0913A03C095809113023B
:10574000C82380913B03C82BC093130240E250E072
:1057500069EA73E083E192E00E948235892B11F1BE
:1057600080E2E3E1F2E0A9EAB3E001900D928A95CC
:10577000E1F7E0914903F0914A03309799F0809165
:105780000901882349F08091C40187FF05C0C093B7
:10579000140286E0809313020280F381E02D83E1FE
:1057A00092E00995CF9108959091A503292F282380
:1057B00021F0809598239093A50308952091A40348
:1057C00090915B0359E02917A9F030E0529FF00156
:1057D000539FF00D1124E45AFC4F7181761306C0DB
:1057E0007081781303C07581741306C02F5F3F4F1B
:1057F0002770E9CF80E0089581E008958091A403A7
:1058000090915B03891719F08F5F8770FBCF089524
:10581000A0E0B0E0EEE0FCE20C9456358091580335
:1058200082958F7009F052C080915703882309F444
:105830004DC0C091A40389E0D82E80915B03C817A6
:1058400009F444C0D0E0DC9E8001DD9E100D1124DF
:10585000F801E45AFC4F84818823A9F19181809159
:105860005303981330C090818091520398132BC03A
:105870008581811128C0E280F3808091540390914A
:105880005503E81AF90A60E082E593E00E94DE31F0
:1058900062E573E00E94152FE816F906A0F48091E6
:1058A00058038F70806180935803F801EE59FC4FC4
:1058B00080818F708061808382E593E00E943F0445
:1058C0000E94FE2B03C02196C770B7CFCDB7DEB7BD
:1058D000E7E00C947235A0E0B0E0E1E7FCE20C9464
:1058E00053354430510508F46CC04091C40141FB6C
:1058F000CC24C0F8D12CCC0CDD1C42FB882780F9CD
:10590000C82FE0E0DE2FCC0FDD1FCC0FDD1FCC2A2F
:10591000DD2A40FBEE24E0F8F12CEC28FD2843FBC7
:10592000AA27A0F9B0E023E0AA0FBB1F2A95E1F750
:10593000EA2AFB2A44FBEE27E0F9F0E034E0EE0F20
:10594000FF1F3A95E1F7EE29FF2945FB222720F9B1
:1059500030E055E0220F331F5A95E1F72E2B3F2BF5
:1059600046FB882780F990E0E6E0880F991FEA95CA
:10597000E1F7822B932B47FB442740F950E05695E3
:10598000542F442757954795842B952B2091C5017B
:10599000322F3170132F00E0082B192B2695217020
:1059A000B22EBB0CA12C0A291B29012E000C220BA4
:1059B000330BFB01008311832283338380E090E06B
:1059C00002C08FEF9FEFCDB7DEB7EAE00C946F35E2
:1059D000E4E5F2E0848195812AE030E0B9010E949B
:1059E000163560931501868180931401828580931A
:1059F000130184858093120186859785B9010E94E1
:105A000016356093110180898093100182898093FB
:105A10000F01848980930E01089580915402909122
:105A2000550290930B0180930A010895CF92DF9263
:105A3000EF92FF924430510508F471C0FB01C08021
:105A4000D180E280F3800E94061F8091C401C0FAD9
:105A500080F9B701A601769567955795479540FB64
:105A600081F9B701A60122E076956795579547958C
:105A70002A95D1F740FB82F9B701A60133E076956C
:105A80006795579547953A95D1F740FB83F9B7014C
:105A9000A601E4E07695679557954795EA95D1F785
:105AA00040FB84F9B701A601F5E076956795579517
:105AB0004795FA95D1F740FB85F9B701A601A6E015
:105AC0007695679557954795AA95D1F740FB86F946
:105AD000B701A601B7E07695679557954795BA95B2
